{
  "_format": "hh-sol-artifact-1",
  "contractName": "BaseCreditPool",
  "sourceName": "contracts/BaseCreditPool.sol",
  "abi": [
    {
      "inputs": [],
      "name": "creditExpiredDueToFirstDrawdownTooLate",
      "type": "error"
    },
    {
      "inputs": [],
      "name": "creditExpiredDueToMaturity",
      "type": "error"
    },
    {
      "inputs": [],
      "name": "creditLineAlreadyExists",
      "type": "error"
    },
    {
      "inputs": [],
      "name": "creditLineExceeded",
      "type": "error"
    },
    {
      "inputs": [],
      "name": "creditLineNotInGoodStandingState",
      "type": "error"
    },
    {
      "inputs": [],
      "name": "creditLineNotInStateForDrawdown",
      "type": "error"
    },
    {
      "inputs": [],
      "name": "creditLineNotInStateForMakingPayment",
      "type": "error"
    },
    {
      "inputs": [],
      "name": "creditLineOutstanding",
      "type": "error"
    },
    {
      "inputs": [],
      "name": "defaultHasAlreadyBeenTriggered",
      "type": "error"
    },
    {
      "inputs": [],
      "name": "defaultTriggeredTooEarly",
      "type": "error"
    },
    {
      "inputs": [],
      "name": "evaluationAgentServiceAccountRequired",
      "type": "error"
    },
    {
      "inputs": [],
      "name": "exceededPoolLiquidityCap",
      "type": "error"
    },
    {
      "inputs": [],
      "name": "greaterThanMaxCreditLine",
      "type": "error"
    },
    {
      "inputs": [],
      "name": "onlyBorrowerOrEACanReduceCreditLine",
      "type": "error"
    },
    {
      "inputs": [],
      "name": "paymentDetectionServiceAccountRequired",
      "type": "error"
    },
    {
      "inputs": [],
      "name": "permissionDeniedNotLender",
      "type": "error"
    },
    {
      "inputs": [],
      "name": "poolIsNotOn",
      "type": "error"
    },
    {
      "inputs": [],
      "name": "poolOperatorRequired",
      "type": "error"
    },
    {
      "inputs": [],
      "name": "protocolIsPaused",
      "type": "error"
    },
    {
      "inputs": [],
      "name": "requestedCreditWithZeroDuration",
      "type": "error"
    },
    {
      "inputs": [],
      "name": "sameValue",
      "type": "error"
    },
    {
      "inputs": [],
      "name": "withdrawTooSoon",
      "type": "error"
    },
    {
      "inputs": [],
      "name": "withdrawnAmountHigherThanBalance",
      "type": "error"
    },
    {
      "inputs": [],
      "name": "zeroAmountProvided",
      "type": "error"
    },
    {
      "anonymous": false,
      "inputs": [
        {
          "indexed": true,
          "internalType": "address",
          "name": "lender",
          "type": "address"
        },
        {
          "indexed": false,
          "internalType": "address",
          "name": "by",
          "type": "address"
        }
      ],
      "name": "AddApprovedLender",
      "type": "event"
    },
    {
      "anonymous": false,
      "inputs": [
        {
          "indexed": true,
          "internalType": "address",
          "name": "borrower",
          "type": "address"
        },
        {
          "indexed": false,
          "internalType": "uint256",
          "name": "newDueDate",
          "type": "uint256"
        },
        {
          "indexed": false,
          "internalType": "address",
          "name": "by",
          "type": "address"
        }
      ],
      "name": "BillRefreshed",
      "type": "event"
    },
    {
      "anonymous": false,
      "inputs": [
        {
          "indexed": true,
          "internalType": "address",
          "name": "borrower",
          "type": "address"
        },
        {
          "indexed": false,
          "internalType": "uint256",
          "name": "creditLimit",
          "type": "uint256"
        },
        {
          "indexed": false,
          "internalType": "uint256",
          "name": "intervalInDays",
          "type": "uint256"
        },
        {
          "indexed": false,
          "internalType": "uint256",
          "name": "remainingPeriods",
          "type": "uint256"
        },
        {
          "indexed": false,
          "internalType": "uint256",
          "name": "aprInBps",
          "type": "uint256"
        }
      ],
      "name": "CreditApproved",
      "type": "event"
    },
    {
      "anonymous": false,
      "inputs": [
        {
          "indexed": true,
          "internalType": "address",
          "name": "borrower",
          "type": "address"
        },
        {
          "indexed": false,
          "internalType": "uint256",
          "name": "creditLimit",
          "type": "uint256"
        },
        {
          "indexed": false,
          "internalType": "uint256",
          "name": "aprInBps",
          "type": "uint256"
        },
        {
          "indexed": false,
          "internalType": "uint256",
          "name": "payPeriodInDays",
          "type": "uint256"
        },
        {
          "indexed": false,
          "internalType": "uint256",
          "name": "remainingPeriods",
          "type": "uint256"
        },
        {
          "indexed": false,
          "internalType": "bool",
          "name": "approved",
          "type": "bool"
        }
      ],
      "name": "CreditInitiated",
      "type": "event"
    },
    {
      "anonymous": false,
      "inputs": [
        {
          "indexed": true,
          "internalType": "address",
          "name": "borrower",
          "type": "address"
        },
        {
          "indexed": false,
          "internalType": "uint256",
          "name": "oldCreditLimit",
          "type": "uint256"
        },
        {
          "indexed": false,
          "internalType": "uint256",
          "name": "newCreditLimit",
          "type": "uint256"
        }
      ],
      "name": "CreditLineChanged",
      "type": "event"
    },
    {
      "anonymous": false,
      "inputs": [
        {
          "indexed": true,
          "internalType": "address",
          "name": "borrower",
          "type": "address"
        },
        {
          "indexed": false,
          "internalType": "address",
          "name": "by",
          "type": "address"
        },
        {
          "indexed": false,
          "internalType": "enum BaseCreditPool.CreditLineClosureReason",
          "name": "reasonCode",
          "type": "uint8"
        }
      ],
      "name": "CreditLineClosed",
      "type": "event"
    },
    {
      "anonymous": false,
      "inputs": [
        {
          "indexed": true,
          "internalType": "address",
          "name": "borrower",
          "type": "address"
        },
        {
          "indexed": false,
          "internalType": "uint256",
          "name": "numOfPeriods",
          "type": "uint256"
        },
        {
          "indexed": false,
          "internalType": "uint256",
          "name": "remainingPeriods",
          "type": "uint256"
        },
        {
          "indexed": false,
          "internalType": "address",
          "name": "by",
          "type": "address"
        }
      ],
      "name": "CreditLineExtended",
      "type": "event"
    },
    {
      "anonymous": false,
      "inputs": [
        {
          "indexed": true,
          "internalType": "address",
          "name": "borrower",
          "type": "address"
        },
        {
          "indexed": false,
          "internalType": "uint256",
          "name": "losses",
          "type": "uint256"
        },
        {
          "indexed": false,
          "internalType": "address",
          "name": "by",
          "type": "address"
        }
      ],
      "name": "DefaultTriggered",
      "type": "event"
    },
    {
      "anonymous": false,
      "inputs": [
        {
          "indexed": true,
          "internalType": "address",
          "name": "borrower",
          "type": "address"
        },
        {
          "indexed": false,
          "internalType": "uint256",
          "name": "borrowAmount",
          "type": "uint256"
        },
        {
          "indexed": false,
          "internalType": "uint256",
          "name": "netAmountToBorrower",
          "type": "uint256"
        }
      ],
      "name": "DrawdownMade",
      "type": "event"
    },
    {
      "anonymous": false,
      "inputs": [
        {
          "indexed": false,
          "internalType": "uint8",
          "name": "version",
          "type": "uint8"
        }
      ],
      "name": "Initialized",
      "type": "event"
    },
    {
      "anonymous": false,
      "inputs": [
        {
          "indexed": true,
          "internalType": "address",
          "name": "account",
          "type": "address"
        },
        {
          "indexed": false,
          "internalType": "uint256",
          "name": "assetAmount",
          "type": "uint256"
        },
        {
          "indexed": false,
          "internalType": "uint256",
          "name": "shareAmount",
          "type": "uint256"
        }
      ],
      "name": "LiquidityDeposited",
      "type": "event"
    },
    {
      "anonymous": false,
      "inputs": [
        {
          "indexed": true,
          "internalType": "address",
          "name": "account",
          "type": "address"
        },
        {
          "indexed": false,
          "internalType": "uint256",
          "name": "assetAmount",
          "type": "uint256"
        },
        {
          "indexed": false,
          "internalType": "uint256",
          "name": "shareAmount",
          "type": "uint256"
        }
      ],
      "name": "LiquidityWithdrawn",
      "type": "event"
    },
    {
      "anonymous": false,
      "inputs": [
        {
          "indexed": false,
          "internalType": "uint256",
          "name": "lossesDistributed",
          "type": "uint256"
        },
        {
          "indexed": false,
          "internalType": "uint256",
          "name": "updatedPoolValue",
          "type": "uint256"
        }
      ],
      "name": "LossesDistributed",
      "type": "event"
    },
    {
      "anonymous": false,
      "inputs": [
        {
          "indexed": true,
          "internalType": "address",
          "name": "borrower",
          "type": "address"
        },
        {
          "indexed": false,
          "internalType": "uint256",
          "name": "amount",
          "type": "uint256"
        },
        {
          "indexed": false,
          "internalType": "uint256",
          "name": "totalDue",
          "type": "uint256"
        },
        {
          "indexed": false,
          "internalType": "uint256",
          "name": "unbilledPrincipal",
          "type": "uint256"
        },
        {
          "indexed": false,
          "internalType": "address",
          "name": "by",
          "type": "address"
        }
      ],
      "name": "PaymentMade",
      "type": "event"
    },
    {
      "anonymous": false,
      "inputs": [
        {
          "indexed": true,
          "internalType": "address",
          "name": "sender",
          "type": "address"
        },
        {
          "indexed": false,
          "internalType": "address",
          "name": "newPoolConfig",
          "type": "address"
        }
      ],
      "name": "PoolConfigChanged",
      "type": "event"
    },
    {
      "anonymous": false,
      "inputs": [
        {
          "indexed": true,
          "internalType": "address",
          "name": "sender",
          "type": "address"
        },
        {
          "indexed": false,
          "internalType": "address",
          "name": "underlyingToken",
          "type": "address"
        },
        {
          "indexed": false,
          "internalType": "address",
          "name": "poolToken",
          "type": "address"
        },
        {
          "indexed": false,
          "internalType": "address",
          "name": "humaConfig",
          "type": "address"
        },
        {
          "indexed": false,
          "internalType": "address",
          "name": "feeManager",
          "type": "address"
        }
      ],
      "name": "PoolCoreDataChanged",
      "type": "event"
    },
    {
      "anonymous": false,
      "inputs": [
        {
          "indexed": true,
          "internalType": "address",
          "name": "by",
          "type": "address"
        }
      ],
      "name": "PoolDisabled",
      "type": "event"
    },
    {
      "anonymous": false,
      "inputs": [
        {
          "indexed": true,
          "internalType": "address",
          "name": "by",
          "type": "address"
        }
      ],
      "name": "PoolEnabled",
      "type": "event"
    },
    {
      "anonymous": false,
      "inputs": [
        {
          "indexed": true,
          "internalType": "address",
          "name": "lender",
          "type": "address"
        },
        {
          "indexed": false,
          "internalType": "address",
          "name": "by",
          "type": "address"
        }
      ],
      "name": "RemoveApprovedLender",
      "type": "event"
    },
    {
      "inputs": [
        {
          "internalType": "address",
          "name": "lender",
          "type": "address"
        }
      ],
      "name": "addApprovedLender",
      "outputs": [],
      "stateMutability": "nonpayable",
      "type": "function"
    },
    {
      "inputs": [
        {
          "internalType": "address",
          "name": "borrower",
          "type": "address"
        },
        {
          "internalType": "uint256",
          "name": "creditLimit",
          "type": "uint256"
        },
        {
          "internalType": "uint256",
          "name": "intervalInDays",
          "type": "uint256"
        },
        {
          "internalType": "uint256",
          "name": "remainingPeriods",
          "type": "uint256"
        },
        {
          "internalType": "uint256",
          "name": "aprInBps",
          "type": "uint256"
        }
      ],
      "name": "approveCredit",
      "outputs": [],
      "stateMutability": "nonpayable",
      "type": "function"
    },
    {
      "inputs": [
        {
          "internalType": "address",
          "name": "borrower",
          "type": "address"
        },
        {
          "internalType": "uint256",
          "name": "newCreditLimit",
          "type": "uint256"
        }
      ],
      "name": "changeCreditLine",
      "outputs": [],
      "stateMutability": "nonpayable",
      "type": "function"
    },
    {
      "inputs": [
        {
          "internalType": "address",
          "name": "account",
          "type": "address"
        }
      ],
      "name": "creditRecordMapping",
      "outputs": [
        {
          "components": [
            {
              "internalType": "uint96",
              "name": "unbilledPrincipal",
              "type": "uint96"
            },
            {
              "internalType": "uint64",
              "name": "dueDate",
              "type": "uint64"
            },
            {
              "internalType": "int96",
              "name": "correction",
              "type": "int96"
            },
            {
              "internalType": "uint96",
              "name": "totalDue",
              "type": "uint96"
            },
            {
              "internalType": "uint96",
              "name": "feesAndInterestDue",
              "type": "uint96"
            },
            {
              "internalType": "uint16",
              "name": "missedPeriods",
              "type": "uint16"
            },
            {
              "internalType": "uint16",
              "name": "remainingPeriods",
              "type": "uint16"
            },
            {
              "internalType": "enum BaseStructs.CreditState",
              "name": "state",
              "type": "uint8"
            }
          ],
          "internalType": "struct BaseStructs.CreditRecord",
          "name": "",
          "type": "tuple"
        }
      ],
      "stateMutability": "view",
      "type": "function"
    },
    {
      "inputs": [
        {
          "internalType": "address",
          "name": "account",
          "type": "address"
        }
      ],
      "name": "creditRecordStaticMapping",
      "outputs": [
        {
          "components": [
            {
              "internalType": "uint96",
              "name": "creditLimit",
              "type": "uint96"
            },
            {
              "internalType": "uint16",
              "name": "aprInBps",
              "type": "uint16"
            },
            {
              "internalType": "uint16",
              "name": "intervalInDays",
              "type": "uint16"
            },
            {
              "internalType": "uint96",
              "name": "defaultAmount",
              "type": "uint96"
            }
          ],
          "internalType": "struct BaseStructs.CreditRecordStatic",
          "name": "",
          "type": "tuple"
        }
      ],
      "stateMutability": "view",
      "type": "function"
    },
    {
      "inputs": [
        {
          "internalType": "uint256",
          "name": "amount",
          "type": "uint256"
        }
      ],
      "name": "deposit",
      "outputs": [],
      "stateMutability": "nonpayable",
      "type": "function"
    },
    {
      "inputs": [],
      "name": "disablePool",
      "outputs": [],
      "stateMutability": "nonpayable",
      "type": "function"
    },
    {
      "inputs": [
        {
          "internalType": "uint256",
          "name": "borrowAmount",
          "type": "uint256"
        }
      ],
      "name": "drawdown",
      "outputs": [],
      "stateMutability": "nonpayable",
      "type": "function"
    },
    {
      "inputs": [],
      "name": "enablePool",
      "outputs": [],
      "stateMutability": "nonpayable",
      "type": "function"
    },
    {
      "inputs": [
        {
          "internalType": "address",
          "name": "borrower",
          "type": "address"
        },
        {
          "internalType": "uint256",
          "name": "numOfPeriods",
          "type": "uint256"
        }
      ],
      "name": "extendCreditLineDuration",
      "outputs": [],
      "stateMutability": "nonpayable",
      "type": "function"
    },
    {
      "inputs": [],
      "name": "getCoreData",
      "outputs": [
        {
          "internalType": "address",
          "name": "underlyingToken_",
          "type": "address"
        },
        {
          "internalType": "address",
          "name": "poolToken_",
          "type": "address"
        },
        {
          "internalType": "address",
          "name": "humaConfig_",
          "type": "address"
        },
        {
          "internalType": "address",
          "name": "feeManager_",
          "type": "address"
        }
      ],
      "stateMutability": "view",
      "type": "function"
    },
    {
      "inputs": [
        {
          "internalType": "address",
          "name": "poolConfigAddr",
          "type": "address"
        }
      ],
      "name": "initialize",
      "outputs": [],
      "stateMutability": "nonpayable",
      "type": "function"
    },
    {
      "inputs": [
        {
          "internalType": "address",
          "name": "borrower",
          "type": "address"
        }
      ],
      "name": "isApproved",
      "outputs": [
        {
          "internalType": "bool",
          "name": "",
          "type": "bool"
        }
      ],
      "stateMutability": "view",
      "type": "function"
    },
    {
      "inputs": [
        {
          "internalType": "address",
          "name": "account",
          "type": "address"
        }
      ],
      "name": "isApprovedLender",
      "outputs": [
        {
          "internalType": "bool",
          "name": "",
          "type": "bool"
        }
      ],
      "stateMutability": "view",
      "type": "function"
    },
    {
      "inputs": [
        {
          "internalType": "address",
          "name": "borrower",
          "type": "address"
        }
      ],
      "name": "isDefaultReady",
      "outputs": [
        {
          "internalType": "bool",
          "name": "",
          "type": "bool"
        }
      ],
      "stateMutability": "view",
      "type": "function"
    },
    {
      "inputs": [
        {
          "internalType": "address",
          "name": "borrower",
          "type": "address"
        }
      ],
      "name": "isLate",
      "outputs": [
        {
          "internalType": "bool",
          "name": "",
          "type": "bool"
        }
      ],
      "stateMutability": "view",
      "type": "function"
    },
    {
      "inputs": [],
      "name": "isPoolOn",
      "outputs": [
        {
          "internalType": "bool",
          "name": "status",
          "type": "bool"
        }
      ],
      "stateMutability": "view",
      "type": "function"
    },
    {
      "inputs": [
        {
          "internalType": "address",
          "name": "account",
          "type": "address"
        }
      ],
      "name": "lastDepositTime",
      "outputs": [
        {
          "internalType": "uint256",
          "name": "",
          "type": "uint256"
        }
      ],
      "stateMutability": "view",
      "type": "function"
    },
    {
      "inputs": [
        {
          "internalType": "uint256",
          "name": "amount",
          "type": "uint256"
        }
      ],
      "name": "makeInitialDeposit",
      "outputs": [],
      "stateMutability": "nonpayable",
      "type": "function"
    },
    {
      "inputs": [
        {
          "internalType": "address",
          "name": "borrower",
          "type": "address"
        },
        {
          "internalType": "uint256",
          "name": "amount",
          "type": "uint256"
        }
      ],
      "name": "makePayment",
      "outputs": [
        {
          "internalType": "uint256",
          "name": "amountPaid",
          "type": "uint256"
        },
        {
          "internalType": "bool",
          "name": "paidoff",
          "type": "bool"
        }
      ],
      "stateMutability": "nonpayable",
      "type": "function"
    },
    {
      "inputs": [],
      "name": "poolConfig",
      "outputs": [
        {
          "internalType": "address",
          "name": "",
          "type": "address"
        }
      ],
      "stateMutability": "view",
      "type": "function"
    },
    {
      "inputs": [
        {
          "internalType": "address",
          "name": "borrower",
          "type": "address"
        }
      ],
      "name": "refreshAccount",
      "outputs": [
        {
          "components": [
            {
              "internalType": "uint96",
              "name": "unbilledPrincipal",
              "type": "uint96"
            },
            {
              "internalType": "uint64",
              "name": "dueDate",
              "type": "uint64"
            },
            {
              "internalType": "int96",
              "name": "correction",
              "type": "int96"
            },
            {
              "internalType": "uint96",
              "name": "totalDue",
              "type": "uint96"
            },
            {
              "internalType": "uint96",
              "name": "feesAndInterestDue",
              "type": "uint96"
            },
            {
              "internalType": "uint16",
              "name": "missedPeriods",
              "type": "uint16"
            },
            {
              "internalType": "uint16",
              "name": "remainingPeriods",
              "type": "uint16"
            },
            {
              "internalType": "enum BaseStructs.CreditState",
              "name": "state",
              "type": "uint8"
            }
          ],
          "internalType": "struct BaseStructs.CreditRecord",
          "name": "cr",
          "type": "tuple"
        }
      ],
      "stateMutability": "nonpayable",
      "type": "function"
    },
    {
      "inputs": [
        {
          "internalType": "address",
          "name": "lender",
          "type": "address"
        }
      ],
      "name": "removeApprovedLender",
      "outputs": [],
      "stateMutability": "nonpayable",
      "type": "function"
    },
    {
      "inputs": [
        {
          "internalType": "uint256",
          "name": "creditLimit",
          "type": "uint256"
        },
        {
          "internalType": "uint256",
          "name": "intervalInDays",
          "type": "uint256"
        },
        {
          "internalType": "uint256",
          "name": "numOfPayments",
          "type": "uint256"
        }
      ],
      "name": "requestCredit",
      "outputs": [],
      "stateMutability": "nonpayable",
      "type": "function"
    },
    {
      "inputs": [
        {
          "internalType": "address",
          "name": "poolConfigAddr",
          "type": "address"
        }
      ],
      "name": "setPoolConfig",
      "outputs": [],
      "stateMutability": "nonpayable",
      "type": "function"
    },
    {
      "inputs": [],
      "name": "totalPoolValue",
      "outputs": [
        {
          "internalType": "uint256",
          "name": "",
          "type": "uint256"
        }
      ],
      "stateMutability": "view",
      "type": "function"
    },
    {
      "inputs": [
        {
          "internalType": "address",
          "name": "borrower",
          "type": "address"
        }
      ],
      "name": "triggerDefault",
      "outputs": [
        {
          "internalType": "uint256",
          "name": "losses",
          "type": "uint256"
        }
      ],
      "stateMutability": "nonpayable",
      "type": "function"
    },
    {
      "inputs": [],
      "name": "updateCoreData",
      "outputs": [],
      "stateMutability": "nonpayable",
      "type": "function"
    },
    {
      "inputs": [
        {
          "internalType": "uint256",
          "name": "amount",
          "type": "uint256"
        }
      ],
      "name": "withdraw",
      "outputs": [],
      "stateMutability": "nonpayable",
      "type": "function"
    },
    {
      "inputs": [],
      "name": "withdrawAll",
      "outputs": [],
      "stateMutability": "nonpayable",
      "type": "function"
    }
  ],
  "bytecode": "0x60806040523480156200001157600080fd5b50620000226200002860201b60201c565b620001d3565b600060019054906101000a900460ff16156200007b576040517f08c379a0000000000000000000000000000000000000000000000000000000008152600401620000729062000176565b60405180910390fd5b60ff801660008054906101000a900460ff1660ff161015620000ed5760ff6000806101000a81548160ff021916908360ff1602179055507f7f26b83ff96e1f2b6a682f133852f6798a09c465da95921460cefb384740249860ff604051620000e49190620001b6565b60405180910390a15b565b600082825260208201905092915050565b7f496e697469616c697a61626c653a20636f6e747261637420697320696e69746960008201527f616c697a696e6700000000000000000000000000000000000000000000000000602082015250565b60006200015e602783620000ef565b91506200016b8262000100565b604082019050919050565b6000602082019050818103600083015262000191816200014f565b9050919050565b600060ff82169050919050565b620001b08162000198565b82525050565b6000602082019050620001cd6000830184620001a5565b92915050565b616ce580620001e36000396000f3fe608060405234801561001057600080fd5b50600436106101da5760003560e01c80639842054c11610104578063b6b55f25116100a2578063e287c70c11610071578063e287c70c14610506578063f98cf07c14610522578063fcc5097614610553578063ffb43a5f14610583576101da565b8063b6b55f2514610482578063c18976851461049e578063c4d66de8146104ba578063db0140d3146104d6576101da565b8063a3e35f36116100de578063a3e35f36146103fc578063a9038a7d1461042c578063b2fc259c1461045c578063b40a344614610478576101da565b80639842054c146103a6578063a079a4dd146103c4578063a1725aaa146103e0576101da565b80636b568dad1161017c578063893584d71161014b578063893584d7146103325780638a02775b1461034e5780639695e1951461036c57806397a906621461038a576101da565b80636b568dad146102c05780636bfad652146102dc57806381a4e310146102f8578063853828b614610328576101da565b806325216e92116101b857806325216e92146102495780632e1a7d4d146102535780634d9d55941461026f578063673448dd14610290576101da565b80630147d629146101df578063025277531461020f5780631effb1061461023f575b600080fd5b6101f960048036038101906101f49190615b09565b6105b3565b6040516102069190615b51565b60405180910390f35b61022960048036038101906102249190615b09565b61071f565b6040516102369190615b85565b60405180910390f35b610247610768565b005b6102516107e0565b005b61026d60048036038101906102689190615bcc565b6108d8565b005b610277610cff565b6040516102879493929190615c08565b60405180910390f35b6102aa60048036038101906102a59190615b09565b610d9f565b6040516102b79190615b51565b60405180910390f35b6102da60048036038101906102d59190615c4d565b610e2f565b005b6102f660048036038101906102f19190615b09565b610ed3565b005b610312600480360381019061030d9190615b09565b61109c565b60405161031f9190615b51565b60405180910390f35b6103306110f2565b005b61034c60048036038101906103479190615b09565b611198565b005b610356611249565b6040516103639190615b85565b60405180910390f35b610374611253565b6040516103819190615ca0565b60405180910390f35b6103a4600480360381019061039f9190615cbb565b61127d565b005b6103ae6113b2565b6040516103bb9190615b51565b60405180910390f35b6103de60048036038101906103d99190615bcc565b6113ff565b005b6103fa60048036038101906103f59190615cfb565b6114bb565b005b61041660048036038101906104119190615b09565b6116b8565b6040516104239190615f12565b60405180910390f35b61044660048036038101906104419190615b09565b611775565b6040516104539190615f83565b60405180910390f35b61047660048036038101906104719190615bcc565b61188a565b005b610480611922565b005b61049c60048036038101906104979190615bcc565b611934565b005b6104b860048036038101906104b39190615b09565b611949565b005b6104d460048036038101906104cf9190615b09565b6119fa565b005b6104f060048036038101906104eb9190615b09565b611bce565b6040516104fd9190615b51565b60405180910390f35b610520600480360381019061051b9190615cbb565b611d26565b005b61053c60048036038101906105379190615cbb565b61211e565b60405161054a929190615f9e565b60405180910390f35b61056d60048036038101906105689190615b09565b612179565b60405161057a9190615f12565b60405180910390f35b61059d60048036038101906105989190615b09565b612357565b6040516105aa9190615b85565b60405180910390f35b600080606e60008473ffffffffffffffffffffffffffffffffffffffff1673ffffffffffffffffffffffffffffffffffffffff168152602001908152602001600020600001600e9054906101000a900461ffff169050600260009054906101000a900473ffffffffffffffffffffffffffffffffffffffff1673ffffffffffffffffffffffffffffffffffffffff16630b437b666040518163ffffffff1660e01b8152600401602060405180830381865afa158015610676573d6000803e3d6000fd5b505050506040513d601f19601f8201168201806040525081019061069a9190615fdc565b6201518082606d60008773ffffffffffffffffffffffffffffffffffffffff1673ffffffffffffffffffffffffffffffffffffffff16815260200190815260200160002060010160189054906101000a900461ffff166106fa9190616038565b61ffff166107089190616075565b11610714576000610717565b60015b915050919050565b6000600660008373ffffffffffffffffffffffffffffffffffffffff1673ffffffffffffffffffffffffffffffffffffffff168152602001908152602001600020549050919050565b6107706125a1565b6000600760006101000a81548160ff0219169083600181111561079657610795615df9565b5b02179055503373ffffffffffffffffffffffffffffffffffffffff167ff82ae9a5785e9b261d7e8bba20ced7516919ec7bdc4b18e7d916316f4991e53260405160405180910390a2565b6107e8612675565b600260009054906101000a900473ffffffffffffffffffffffffffffffffffffffff1673ffffffffffffffffffffffffffffffffffffffff16633087fbc66040518163ffffffff1660e01b815260040160006040518083038186803b15801561085057600080fd5b505afa158015610864573d6000803e3d6000fd5b505050506001600760006101000a81548160ff0219169083600181111561088e5761088d615df9565b5b02179055503373ffffffffffffffffffffffffffffffffffffffff167ff37bc7d2dc2b5bd3afd83f8325fd7f602d73391cc33915689bea4c61f81b12d960405160405180910390a2565b6108e0612702565b6000810361091a576040517f71799f2a00000000000000000000000000000000000000000000000000000000815260040160405180910390fd5b600260009054906101000a900473ffffffffffffffffffffffffffffffffffffffff1673ffffffffffffffffffffffffffffffffffffffff166310ee73f16040518163ffffffff1660e01b8152600401602060405180830381865afa158015610987573d6000803e3d6000fd5b505050506040513d601f19601f820116820180604052508101906109ab9190615fdc565b600660003373ffffffffffffffffffffffffffffffffffffffff1673ffffffffffffffffffffffffffffffffffffffff168152602001908152602001600020546109f591906160b7565b421015610a2e576040517f6798247200000000000000000000000000000000000000000000000000000000815260040160405180910390fd5b6000600160009054906101000a900473ffffffffffffffffffffffffffffffffffffffff1673ffffffffffffffffffffffffffffffffffffffff1663443bb293336040518263ffffffff1660e01b8152600401610a8b9190615ca0565b602060405180830381865afa158015610aa8573d6000803e3d6000fd5b505050506040513d601f19601f82011682018060405250810190610acc9190615fdc565b905080821115610b08576040517f477c0ab200000000000000000000000000000000000000000000000000000000815260040160405180910390fd5b600260009054906101000a900473ffffffffffffffffffffffffffffffffffffffff1673ffffffffffffffffffffffffffffffffffffffff1663deb791d4338484610b5391906160eb565b6040518363ffffffff1660e01b8152600401610b7092919061611f565b60006040518083038186803b158015610b8857600080fd5b505afa158015610b9c573d6000803e3d6000fd5b505050506000600160009054906101000a900473ffffffffffffffffffffffffffffffffffffffff1673ffffffffffffffffffffffffffffffffffffffff1663fb8bd26f33856040518363ffffffff1660e01b8152600401610bff92919061611f565b6020604051808303816000875af1158015610c1e573d6000803e3d6000fd5b505050506040513d601f19601f82011682018060405250810190610c429190615fdc565b90508260056000828254610c5691906160eb565b92505081905550610caa3384600060029054906101000a900473ffffffffffffffffffffffffffffffffffffffff1673ffffffffffffffffffffffffffffffffffffffff166128389092919063ffffffff16565b3373ffffffffffffffffffffffffffffffffffffffff167fb195a67e698c5700e4f48f7b7748dda3a206ee2767ef024b61a26d7b17b2d63a8483604051610cf2929190616148565b60405180910390a2505050565b600080600080600060029054906101000a900473ffffffffffffffffffffffffffffffffffffffff169350600160009054906101000a900473ffffffffffffffffffffffffffffffffffffffff169250600360009054906101000a900473ffffffffffffffffffffffffffffffffffffffff169150600460009054906101000a900473ffffffffffffffffffffffffffffffffffffffff16905090919293565b600060026005811115610db557610db4615df9565b5b606d60008473ffffffffffffffffffffffffffffffffffffffff1673ffffffffffffffffffffffffffffffffffffffff168152602001908152602001600020600101601c9054906101000a900460ff166005811115610e1757610e16615df9565b5b10610e255760019050610e2a565b600090505b919050565b610ece3384600260009054906101000a900473ffffffffffffffffffffffffffffffffffffffff1673ffffffffffffffffffffffffffffffffffffffff166399bf392c6040518163ffffffff1660e01b8152600401602060405180830381865afa158015610ea1573d6000803e3d6000fd5b505050506040513d601f19601f82011682018060405250810190610ec59190615fdc565b858560006128be565b505050565b610edb612675565b6000600260009054906101000a900473ffffffffffffffffffffffffffffffffffffffff1690508073ffffffffffffffffffffffffffffffffffffffff168273ffffffffffffffffffffffffffffffffffffffff1603610f67576040517f0811ff0900000000000000000000000000000000000000000000000000000000815260040160405180910390fd5b610f716000612cbb565b60008290508073ffffffffffffffffffffffffffffffffffffffff16636f52071c336040518263ffffffff1660e01b8152600401610faf9190615ca0565b60006040518083038186803b158015610fc757600080fd5b505afa158015610fdb573d6000803e3d6000fd5b5050505080600260006101000a81548173ffffffffffffffffffffffffffffffffffffffff021916908373ffffffffffffffffffffffffffffffffffffffff1602179055506110497fffffffffffffffffffffffffffffffffffffffffffffffffffffffffffffffff612cbb565b3373ffffffffffffffffffffffffffffffffffffffff167f3b4ee357b2324b710644b79f0128178b3d3d4151d9886318feedad4d78aa8e5e8460405161108f9190615ca0565b60405180910390a2505050565b6000600860008373ffffffffffffffffffffffffffffffffffffffff1673ffffffffffffffffffffffffffffffffffffffff16815260200190815260200160002060009054906101000a900460ff169050919050565b611196600160009054906101000a900473ffffffffffffffffffffffffffffffffffffffff1673ffffffffffffffffffffffffffffffffffffffff1663443bb293336040518263ffffffff1660e01b81526004016111509190615ca0565b602060405180830381865afa15801561116d573d6000803e3d6000fd5b505050506040513d601f19601f820116820180604052508101906111919190615fdc565b6108d8565b565b6111a06125a1565b6001600860008373ffffffffffffffffffffffffffffffffffffffff1673ffffffffffffffffffffffffffffffffffffffff16815260200190815260200160002060006101000a81548160ff0219169083151502179055508073ffffffffffffffffffffffffffffffffffffffff167fa9f7067c5f9d50447dc3bcc7383e76a5823bc40ba532c95cb71ebc44468bd6513360405161123e9190615ca0565b60405180910390a250565b6000600554905090565b6000600260009054906101000a900473ffffffffffffffffffffffffffffffffffffffff16905090565b611285612e02565b6112928260006001612ef9565b5080606d60008473ffffffffffffffffffffffffffffffffffffffff1673ffffffffffffffffffffffffffffffffffffffff168152602001908152602001600020600101601a8282829054906101000a900461ffff166112f29190616171565b92506101000a81548161ffff021916908361ffff1602179055508173ffffffffffffffffffffffffffffffffffffffff167f4fe61c0e9f2d4693e20e44c7358b8b7cec72aa4c4d5fa81f3e1951e0b438cb7a82606d60008673ffffffffffffffffffffffffffffffffffffffff1673ffffffffffffffffffffffffffffffffffffffff168152602001908152602001600020600101601a9054906101000a900461ffff16336040516113a6939291906161e2565b60405180910390a25050565b60006001808111156113c7576113c6615df9565b5b600760009054906101000a900460ff1660018111156113e9576113e8615df9565b5b036113f757600190506113fc565b600090505b90565b60003390506000820361143e576040517f71799f2a00000000000000000000000000000000000000000000000000000000815260040160405180910390fd5b6000611449826133ea565b90506114568282856135c8565b60006114638383866137a3565b90508273ffffffffffffffffffffffffffffffffffffffff167f9746c6592592b17b45182a3deb967858803f9a26c5acdeae9c57f2b63760854285836040516114ad929190616148565b60405180910390a250505050565b6114c3612702565b6114cb612e02565b6114d484613c0e565b60006114df86613cdb565b90508481600001906bffffffffffffffffffffffff1690816bffffffffffffffffffffffff168152505081816020019061ffff16908161ffff168152505083816040019061ffff16908161ffff168152505080606e60008873ffffffffffffffffffffffffffffffffffffffff1673ffffffffffffffffffffffffffffffffffffffff16815260200190815260200160002060008201518160000160006101000a8154816bffffffffffffffffffffffff02191690836bffffffffffffffffffffffff160217905550602082015181600001600c6101000a81548161ffff021916908361ffff160217905550604082015181600001600e6101000a81548161ffff021916908361ffff16021790555060608201518160000160106101000a8154816bffffffffffffffffffffffff02191690836bffffffffffffffffffffffff1602179055509050506000611633876133ea565b9050838160c0019061ffff16908161ffff168152505061165b8761165683613df0565b613f5f565b8673ffffffffffffffffffffffffffffffffffffffff167f41119754b92e2181887e9b7b87648b112076668a140bdf8515b36563e590fb39878787876040516116a79493929190616219565b60405180910390a250505050505050565b6116c06159c4565b6005808111156116d3576116d2615df9565b5b606d60008473ffffffffffffffffffffffffffffffffffffffff1673ffffffffffffffffffffffffffffffffffffffff168152602001908152602001600020600101601c9054906101000a900460ff16600581111561173557611734615df9565b5b1461176f57611743826105b3565b1561175b5761175482600080612ef9565b9050611770565b6117688260006001612ef9565b9050611770565b5b919050565b61177d615a5a565b606e60008373ffffffffffffffffffffffffffffffffffffffff1673ffffffffffffffffffffffffffffffffffffffff1681526020019081526020016000206040518060800160405290816000820160009054906101000a90046bffffffffffffffffffffffff166bffffffffffffffffffffffff166bffffffffffffffffffffffff16815260200160008201600c9054906101000a900461ffff1661ffff1661ffff16815260200160008201600e9054906101000a900461ffff1661ffff1661ffff1681526020016000820160109054906101000a90046bffffffffffffffffffffffff166bffffffffffffffffffffffff166bffffffffffffffffffffffff16815250509050919050565b600260009054906101000a900473ffffffffffffffffffffffffffffffffffffffff1673ffffffffffffffffffffffffffffffffffffffff1663c8fb307a336040518263ffffffff1660e01b81526004016118e59190615ca0565b60006040518083038186803b1580156118fd57600080fd5b505afa158015611911573d6000803e3d6000fd5b5050505061191f338261412a565b50565b61192a612675565b6119326143e9565b565b61193c612702565b611946338261412a565b50565b6119516125a1565b6000600860008373ffffffffffffffffffffffffffffffffffffffff1673ffffffffffffffffffffffffffffffffffffffff16815260200190815260200160002060006101000a81548160ff0219169083151502179055508073ffffffffffffffffffffffffffffffffffffffff167fd544c312f8b518478a8716753ecf56270e81e9f14b80aa1bd71ec2dfeac42055336040516119ef9190615ca0565b60405180910390a250565b60008060019054906101000a900460ff16159050808015611a2b5750600160008054906101000a900460ff1660ff16105b80611a585750611a3a306145e6565b158015611a575750600160008054906101000a900460ff1660ff16145b5b611a97576040517f08c379a0000000000000000000000000000000000000000000000000000000008152600401611a8e906162e1565b60405180910390fd5b60016000806101000a81548160ff021916908360ff1602179055508015611ad4576001600060016101000a81548160ff0219169083151502179055505b81600260006101000a81548173ffffffffffffffffffffffffffffffffffffffff021916908373ffffffffffffffffffffffffffffffffffffffff160217905550611b1d6143e9565b611b467fffffffffffffffffffffffffffffffffffffffffffffffffffffffffffffffff612cbb565b6000600760006101000a81548160ff02191690836001811115611b6c57611b6b615df9565b5b02179055508015611bca5760008060016101000a81548160ff0219169083151502179055507f7f26b83ff96e1f2b6a682f133852f6798a09c465da95921460cefb38474024986001604051611bc19190616349565b60405180910390a15b5050565b600060026005811115611be457611be3615df9565b5b606d60008473ffffffffffffffffffffffffffffffffffffffff1673ffffffffffffffffffffffffffffffffffffffff168152602001908152602001600020600101601c9054906101000a900460ff166005811115611c4657611c45615df9565b5b118015611d1157506000606d60008473ffffffffffffffffffffffffffffffffffffffff1673ffffffffffffffffffffffffffffffffffffffff16815260200190815260200160002060010160189054906101000a900461ffff1661ffff161180611d105750606d60008373ffffffffffffffffffffffffffffffffffffffff1673ffffffffffffffffffffffffffffffffffffffff168152602001908152602001600020600001600c9054906101000a900467ffffffffffffffff1667ffffffffffffffff1642115b5b611d1c576000611d1f565b60015b9050919050565b611d2e612702565b611d3781613c0e565b6000606e60008473ffffffffffffffffffffffffffffffffffffffff1673ffffffffffffffffffffffffffffffffffffffff16815260200190815260200160002060000160009054906101000a90046bffffffffffffffffffffffff166bffffffffffffffffffffffff16905080821115611db957611db4612e02565b611ee9565b8273ffffffffffffffffffffffffffffffffffffffff163373ffffffffffffffffffffffffffffffffffffffff1614158015611eb15750600360009054906101000a900473ffffffffffffffffffffffffffffffffffffffff1673ffffffffffffffffffffffffffffffffffffffff1663848b2b056040518163ffffffff1660e01b8152600401602060405180830381865afa158015611e5d573d6000803e3d6000fd5b505050506040513d601f19601f82011682018060405250810190611e819190616379565b73ffffffffffffffffffffffffffffffffffffffff163373ffffffffffffffffffffffffffffffffffffffff1614155b15611ee8576040517fd61dbe3100000000000000000000000000000000000000000000000000000000815260040160405180910390fd5b5b81606e60008573ffffffffffffffffffffffffffffffffffffffff1673ffffffffffffffffffffffffffffffffffffffff16815260200190815260200160002060000160006101000a8154816bffffffffffffffffffffffff02191690836bffffffffffffffffffffffff160217905550600082036120c9576000611f718460006001612ef9565b9050600081606001516bffffffffffffffffffffffff16148015611fa75750600081600001516bffffffffffffffffffffffff16145b15612069576000606d60008673ffffffffffffffffffffffffffffffffffffffff1673ffffffffffffffffffffffffffffffffffffffff168152602001908152602001600020600101601c6101000a81548160ff0219169083600581111561201257612011615df9565b5b02179055508373ffffffffffffffffffffffffffffffffffffffff167fce0bab896b3cb48841a0bae00ecb73380a851414117c4faa23b090f0246f328c3360016040516120609291906163ee565b60405180910390a25b6000606d60008673ffffffffffffffffffffffffffffffffffffffff1673ffffffffffffffffffffffffffffffffffffffff168152602001908152602001600020600101601a6101000a81548161ffff021916908361ffff160217905550505b8273ffffffffffffffffffffffffffffffffffffffff167f628a521503c1fd7f83a1ffec5997c50e662e9e191be5168ade43b20a70b3344a8284604051612111929190616148565b60405180910390a2505050565b6000808373ffffffffffffffffffffffffffffffffffffffff163373ffffffffffffffffffffffffffffffffffffffff161461215d5761215c614609565b5b61216984846000614700565b5080925081935050509250929050565b6121816159c4565b606d60008373ffffffffffffffffffffffffffffffffffffffff1673ffffffffffffffffffffffffffffffffffffffff168152602001908152602001600020604051806101000160405290816000820160009054906101000a90046bffffffffffffffffffffffff166bffffffffffffffffffffffff166bffffffffffffffffffffffff16815260200160008201600c9054906101000a900467ffffffffffffffff1667ffffffffffffffff1667ffffffffffffffff1681526020016000820160149054906101000a9004600b0b600b0b600b0b81526020016001820160009054906101000a90046bffffffffffffffffffffffff166bffffffffffffffffffffffff166bffffffffffffffffffffffff16815260200160018201600c9054906101000a90046bffffffffffffffffffffffff166bffffffffffffffffffffffff166bffffffffffffffffffffffff1681526020016001820160189054906101000a900461ffff1661ffff1661ffff16815260200160018201601a9054906101000a900461ffff1661ffff1661ffff16815260200160018201601c9054906101000a900460ff16600581111561233a57612339615df9565b5b600581111561234c5761234b615df9565b5b815250509050919050565b6000612361612702565b600061236c836133ea565b905060058081111561238157612380615df9565b5b8160e00151600581111561239857612397615df9565b5b036123cf576040517feb8d2ccc00000000000000000000000000000000000000000000000000000000815260040160405180910390fd5b806020015167ffffffffffffffff164211156123f4576123f183600080612ef9565b90505b6123fd836105b3565b612433576040517f7872424e00000000000000000000000000000000000000000000000000000000815260040160405180910390fd5b80608001518160600151826000015161244c9190616417565b6124569190616457565b6bffffffffffffffffffffffff1691506005606d60008573ffffffffffffffffffffffffffffffffffffffff1673ffffffffffffffffffffffffffffffffffffffff168152602001908152602001600020600101601c6101000a81548160ff021916908360058111156124cc576124cb615df9565b5b021790555081606e60008573ffffffffffffffffffffffffffffffffffffffff1673ffffffffffffffffffffffffffffffffffffffff16815260200190815260200160002060000160106101000a8154816bffffffffffffffffffffffff02191690836bffffffffffffffffffffffff16021790555061254b826150ba565b8273ffffffffffffffffffffffffffffffffffffffff167f8e44ab46e168f7dd30b75bdf0f2d076c150375c131cba238ec348865e9f4d8b08333604051612593929190616497565b60405180910390a250919050565b600260009054906101000a900473ffffffffffffffffffffffffffffffffffffffff1673ffffffffffffffffffffffffffffffffffffffff16636d70f7ae336040518263ffffffff1660e01b81526004016125fc9190615ca0565b602060405180830381865afa158015612619573d6000803e3d6000fd5b505050506040513d601f19601f8201168201806040525081019061263d91906164ec565b612673576040517fdc2dc6d000000000000000000000000000000000000000000000000000000000815260040160405180910390fd5b565b600260009054906101000a900473ffffffffffffffffffffffffffffffffffffffff1673ffffffffffffffffffffffffffffffffffffffff16636f52071c336040518263ffffffff1660e01b81526004016126d09190615ca0565b60006040518083038186803b1580156126e857600080fd5b505afa1580156126fc573d6000803e3d6000fd5b50505050565b600360009054906101000a900473ffffffffffffffffffffffffffffffffffffffff1673ffffffffffffffffffffffffffffffffffffffff16635c975abb6040518163ffffffff1660e01b8152600401602060405180830381865afa15801561276f573d6000803e3d6000fd5b505050506040513d601f19601f8201168201806040525081019061279391906164ec565b156127ca576040517f8f6fa2d400000000000000000000000000000000000000000000000000000000815260040160405180910390fd5b6001808111156127dd576127dc615df9565b5b600760009054906101000a900460ff1660018111156127ff576127fe615df9565b5b14612836576040517f69b355df00000000000000000000000000000000000000000000000000000000815260040160405180910390fd5b565b6128b98363a9059cbb60e01b848460405160240161285792919061611f565b604051602081830303815290604052907bffffffffffffffffffffffffffffffffffffffffffffffffffffffff19166020820180517bffffffffffffffffffffffffffffffffffffffffffffffffffffffff8381831617835250505050615129565b505050565b600082036128f8576040517fb16dd34d00000000000000000000000000000000000000000000000000000000815260040160405180910390fd5b612900612702565b600061290b876133ea565b90506000600581111561292157612920615df9565b5b8160e00151600581111561293857612937615df9565b5b14612a545761294a8760006001612ef9565b9050600081606001516bffffffffffffffffffffffff161480156129805750600081600001516bffffffffffffffffffffffff16145b15612a215760008160e00190600581111561299e5761299d615df9565b5b908160058111156129b2576129b1615df9565b5b8152505060008160c0019061ffff16908161ffff16815250508673ffffffffffffffffffffffffffffffffffffffff167fce0bab896b3cb48841a0bae00ecb73380a851414117c4faa23b090f0246f328c336002604051612a149291906163ee565b60405180910390a2612a53565b6040517f6c5805f200000000000000000000000000000000000000000000000000000000815260040160405180910390fd5b5b612a5d86613c0e565b6040518060800160405280876bffffffffffffffffffffffff1681526020018661ffff1681526020018561ffff16815260200160006bffffffffffffffffffffffff16815250606e60008973ffffffffffffffffffffffffffffffffffffffff1673ffffffffffffffffffffffffffffffffffffffff16815260200190815260200160002060008201518160000160006101000a8154816bffffffffffffffffffffffff02191690836bffffffffffffffffffffffff160217905550602082015181600001600c6101000a81548161ffff021916908361ffff160217905550604082015181600001600e6101000a81548161ffff021916908361ffff16021790555060608201518160000160106101000a8154816bffffffffffffffffffffffff02191690836bffffffffffffffffffffffff160217905550905050612ba16159c4565b838160c0019061ffff16908161ffff16815250508215612c1f57612bc481613df0565b90508773ffffffffffffffffffffffffffffffffffffffff167f41119754b92e2181887e9b7b87648b112076668a140bdf8515b36563e590fb398887878a604051612c129493929190616219565b60405180910390a2612c51565b60018160e001906005811115612c3857612c37615df9565b5b90816005811115612c4c57612c4b615df9565b5b815250505b612c5b8882613f5f565b8773ffffffffffffffffffffffffffffffffffffffff167f606a044ecfd598a9ecc0b6e6b499b23d94fb45ce11b84a09831148622de88fdf8888888888604051612ca9959493929190616519565b60405180910390a25050505050505050565b6000600260009054906101000a900473ffffffffffffffffffffffffffffffffffffffff16905060008060029054906101000a900473ffffffffffffffffffffffffffffffffffffffff1673ffffffffffffffffffffffffffffffffffffffff1663dd62ed3e30846040518363ffffffff1660e01b8152600401612d4092919061656c565b602060405180830381865afa158015612d5d573d6000803e3d6000fd5b505050506040513d601f19601f82011682018060405250810190612d819190615fdc565b9050600083148015612d935750600081115b80612daa5750600083118015612da95750600081145b5b15612dfd57612dfc8284600060029054906101000a900473ffffffffffffffffffffffffffffffffffffffff1673ffffffffffffffffffffffffffffffffffffffff166151f09092919063ffffffff16565b5b505050565b600360009054906101000a900473ffffffffffffffffffffffffffffffffffffffff1673ffffffffffffffffffffffffffffffffffffffff1663848b2b056040518163ffffffff1660e01b8152600401602060405180830381865afa158015612e6f573d6000803e3d6000fd5b505050506040513d601f19601f82011682018060405250810190612e939190616379565b73ffffffffffffffffffffffffffffffffffffffff163373ffffffffffffffffffffffffffffffffffffffff1614612ef7576040517f9b3b1ed600000000000000000000000000000000000000000000000000000000815260040160405180910390fd5b565b612f016159c4565b612f0a846133ea565b90508215612f34576000816020019067ffffffffffffffff16908167ffffffffffffffff16815250505b60008082606001516bffffffffffffffffffffffff1611612f56576000612f59565b60015b9050600080600460009054906101000a900473ffffffffffffffffffffffffffffffffffffffff1673ffffffffffffffffffffffffffffffffffffffff1663b00db01d85612fa68a613cdb565b6040518363ffffffff1660e01b8152600401612fc3929190616595565b60a060405180830381865afa158015612fe0573d6000803e3d6000fd5b505050506040513d601f19601f820116820180604052508101906130049190616618565b88608001896060018a600001839850846bffffffffffffffffffffffff166bffffffffffffffffffffffff16815250846bffffffffffffffffffffffff166bffffffffffffffffffffffff16815250846bffffffffffffffffffffffff166bffffffffffffffffffffffff16815250849650505050505060008211156133e05760008460400190600b0b9081600b0b815250506005808111156130aa576130a9615df9565b5b8460e0015160058111156130c1576130c0615df9565b5b1461313857846130de578360800151816130db9190616693565b90505b600081600b0b131561310657613101816bffffffffffffffffffffffff1661533f565b613137565b600081600b0b1215613136576131358160006131229190616693565b6bffffffffffffffffffffffff166153fe565b5b5b5b6000606e60008973ffffffffffffffffffffffffffffffffffffffff1673ffffffffffffffffffffffffffffffffffffffff168152602001908152602001600020600001600e9054906101000a900461ffff1690506000856020015167ffffffffffffffff1611156131ff57620151808161ffff16846131b89190616075565b6131c29190616075565b856020015167ffffffffffffffff166131db91906160b7565b856020019067ffffffffffffffff16908167ffffffffffffffff168152505061323d565b620151808161ffff166132129190616075565b4261321d91906160b7565b856020019067ffffffffffffffff16908167ffffffffffffffff16815250505b828560c0015161ffff16111561327957828560c0015161ffff1661326191906160eb565b8560c0019061ffff16908161ffff168152505061328f565b60008560c0019061ffff16908161ffff16815250505b83156132c157828560a0015161ffff166132a991906160b7565b8560a0019061ffff16908161ffff16815250506132d7565b60008560a0019061ffff16908161ffff16815250505b60008560a0015161ffff16111561334e576005808111156132fb576132fa615df9565b5b8560e00151600581111561331257613311615df9565b5b146133495760048560e0019060058111156133305761332f615df9565b5b9081600581111561334457613343615df9565b5b815250505b613380565b60038560e00190600581111561336757613366615df9565b5b9081600581111561337b5761337a615df9565b5b815250505b61338a8886613f5f565b8773ffffffffffffffffffffffffffffffffffffffff167f5e06f3c1aadf157a3c3e16d2173f927b27c3c13e2864f97b8ac93f748388556e8660200151336040516133d6929190616728565b60405180910390a2505b5050509392505050565b6133f26159c4565b606d60008373ffffffffffffffffffffffffffffffffffffffff1673ffffffffffffffffffffffffffffffffffffffff168152602001908152602001600020604051806101000160405290816000820160009054906101000a90046bffffffffffffffffffffffff166bffffffffffffffffffffffff166bffffffffffffffffffffffff16815260200160008201600c9054906101000a900467ffffffffffffffff1667ffffffffffffffff1667ffffffffffffffff1681526020016000820160149054906101000a9004600b0b600b0b600b0b81526020016001820160009054906101000a90046bffffffffffffffffffffffff166bffffffffffffffffffffffff166bffffffffffffffffffffffff16815260200160018201600c9054906101000a90046bffffffffffffffffffffffff166bffffffffffffffffffffffff166bffffffffffffffffffffffff1681526020016001820160189054906101000a900461ffff1661ffff1661ffff16815260200160018201601a9054906101000a900461ffff1661ffff1661ffff16815260200160018201601c9054906101000a900460ff1660058111156135ab576135aa615df9565b5b60058111156135bd576135bc615df9565b5b815250509050919050565b6135d0612702565b600360058111156135e4576135e3615df9565b5b8260e0015160058111156135fb576135fa615df9565b5b1415801561363257506002600581111561361857613617615df9565b5b8260e00151600581111561362f5761362e615df9565b5b14155b15613669576040517f4ff95a6d00000000000000000000000000000000000000000000000000000000815260040160405180910390fd5b6002600581111561367d5761367c615df9565b5b8260e00151600581111561369457613693615df9565b5b0361379e576000826020015167ffffffffffffffff161180156136c45750816020015167ffffffffffffffff1642115b156136fb576040517f9fac739000000000000000000000000000000000000000000000000000000000815260040160405180910390fd5b606e60008473ffffffffffffffffffffffffffffffffffffffff1673ffffffffffffffffffffffffffffffffffffffff16815260200190815260200160002060000160009054906101000a90046bffffffffffffffffffffffff166bffffffffffffffffffffffff1681111561379d576040517fef7d66ff00000000000000000000000000000000000000000000000000000000815260040160405180910390fd5b5b505050565b6000600260058111156137b9576137b8615df9565b5b8360e0015160058111156137d0576137cf615df9565b5b0361388a5781606d60008673ffffffffffffffffffffffffffffffffffffffff1673ffffffffffffffffffffffffffffffffffffffff16815260200190815260200160002060000160006101000a8154816bffffffffffffffffffffffff02191690836bffffffffffffffffffffffff16021790555061385284600180612ef9565b925060038360e00190600581111561386d5761386c615df9565b5b9081600581111561388157613880615df9565b5b81525050613af6565b826020015167ffffffffffffffff16421115613912576138ad8460006001612ef9565b9250600360058111156138c3576138c2615df9565b5b8360e0015160058111156138da576138d9615df9565b5b14613911576040517f96e7947400000000000000000000000000000000000000000000000000000000815260040160405180910390fd5b5b826080015183606001516139269190616457565b8360000151606e60008773ffffffffffffffffffffffffffffffffffffffff1673ffffffffffffffffffffffffffffffffffffffff16815260200190815260200160002060000160009054906101000a90046bffffffffffffffffffffffff166139909190616457565b61399a9190616457565b6bffffffffffffffffffffffff168211156139e1576040517fef7d66ff00000000000000000000000000000000000000000000000000000000815260040160405180910390fd5b60008360c0015161ffff1603613a23576040517fa52f3c3f00000000000000000000000000000000000000000000000000000000815260040160405180910390fd5b613a90836020015167ffffffffffffffff16606e60008773ffffffffffffffffffffffffffffffffffffffff1673ffffffffffffffffffffffffffffffffffffffff168152602001908152602001600020600001600c9054906101000a900461ffff1661ffff16846154d5565b83604001818151613aa19190616751565b915090600b0b9081600b0b815250508183600001516bffffffffffffffffffffffff16613ace91906160b7565b83600001906bffffffffffffffffffffffff1690816bffffffffffffffffffffffff16815250505b613b008484613f5f565b600080600460009054906101000a900473ffffffffffffffffffffffffffffffffffffffff1673ffffffffffffffffffffffffffffffffffffffff16632a56916b856040518263ffffffff1660e01b8152600401613b5e9190615b85565b6040805180830381865afa158015613b7a573d6000803e3d6000fd5b505050506040513d601f19601f82011682018060405250810190613b9e91906167b5565b915091506000811115613bb557613bb48161533f565b5b613c028683600060029054906101000a900473ffffffffffffffffffffffffffffffffffffffff1673ffffffffffffffffffffffffffffffffffffffff166128389092919063ffffffff16565b81925050509392505050565b600260009054906101000a900473ffffffffffffffffffffffffffffffffffffffff1673ffffffffffffffffffffffffffffffffffffffff1663fe2a4ec96040518163ffffffff1660e01b8152600401602060405180830381865afa158015613c7b573d6000803e3d6000fd5b505050506040513d601f19601f82011682018060405250810190613c9f9190615fdc565b811115613cd8576040517f8a754ae800000000000000000000000000000000000000000000000000000000815260040160405180910390fd5b50565b613ce3615a5a565b606e60008373ffffffffffffffffffffffffffffffffffffffff1673ffffffffffffffffffffffffffffffffffffffff1681526020019081526020016000206040518060800160405290816000820160009054906101000a90046bffffffffffffffffffffffff166bffffffffffffffffffffffff166bffffffffffffffffffffffff16815260200160008201600c9054906101000a900461ffff1661ffff1661ffff16815260200160008201600e9054906101000a900461ffff1661ffff1661ffff1681526020016000820160109054906101000a90046bffffffffffffffffffffffff166bffffffffffffffffffffffff166bffffffffffffffffffffffff16815250509050919050565b613df86159c4565b60026005811115613e0c57613e0b615df9565b5b8260e001516005811115613e2357613e22615df9565b5b1115613e5b576040517fc64e338c00000000000000000000000000000000000000000000000000000000815260040160405180910390fd5b6000600260009054906101000a900473ffffffffffffffffffffffffffffffffffffffff1673ffffffffffffffffffffffffffffffffffffffff166318d170c46040518163ffffffff1660e01b8152600401602060405180830381865afa158015613eca573d6000803e3d6000fd5b505050506040513d601f19601f82011682018060405250810190613eee9190615fdc565b90506000811115613f25578042613f0591906160b7565b836020019067ffffffffffffffff16908167ffffffffffffffff16815250505b60028360e001906005811115613f3e57613f3d615df9565b5b90816005811115613f5257613f51615df9565b5b8152505082915050919050565b80606d60008473ffffffffffffffffffffffffffffffffffffffff1673ffffffffffffffffffffffffffffffffffffffff16815260200190815260200160002060008201518160000160006101000a8154816bffffffffffffffffffffffff02191690836bffffffffffffffffffffffff160217905550602082015181600001600c6101000a81548167ffffffffffffffff021916908367ffffffffffffffff16021790555060408201518160000160146101000a8154816bffffffffffffffffffffffff0219169083600b0b6bffffffffffffffffffffffff16021790555060608201518160010160006101000a8154816bffffffffffffffffffffffff02191690836bffffffffffffffffffffffff160217905550608082015181600101600c6101000a8154816bffffffffffffffffffffffff02191690836bffffffffffffffffffffffff16021790555060a08201518160010160186101000a81548161ffff021916908361ffff16021790555060c082015181600101601a6101000a81548161ffff021916908361ffff16021790555060e082015181600101601c6101000a81548160ff0219169083600581111561411e5761411d615df9565b5b02179055509050505050565b60008103614164576040517f71799f2a00000000000000000000000000000000000000000000000000000000815260040160405180910390fd5b61416d82615580565b600260009054906101000a900473ffffffffffffffffffffffffffffffffffffffff1673ffffffffffffffffffffffffffffffffffffffff1663b4583a926040518163ffffffff1660e01b8152600401602060405180830381865afa1580156141da573d6000803e3d6000fd5b505050506040513d601f19601f820116820180604052508101906141fe9190615fdc565b8160055461420c91906160b7565b1115614244576040517f5642ebd400000000000000000000000000000000000000000000000000000000815260040160405180910390fd5b6000600160009054906101000a900473ffffffffffffffffffffffffffffffffffffffff1673ffffffffffffffffffffffffffffffffffffffff16630e583dd284846040518363ffffffff1660e01b81526004016142a392919061611f565b6020604051808303816000875af11580156142c2573d6000803e3d6000fd5b505050506040513d601f19601f820116820180604052508101906142e69190615fdc565b905042600660008573ffffffffffffffffffffffffffffffffffffffff1673ffffffffffffffffffffffffffffffffffffffff16815260200190815260200160002081905550816005600082825461433e91906160b7565b92505081905550614394833084600060029054906101000a900473ffffffffffffffffffffffffffffffffffffffff1673ffffffffffffffffffffffffffffffffffffffff16615606909392919063ffffffff16565b8273ffffffffffffffffffffffffffffffffffffffff167fb7cd4486a08dcd2bf7da217a07d1069da69db8ffb3518c7014d6e6d4d973a55283836040516143dc929190616148565b60405180910390a2505050565b600080600080600260009054906101000a900473ffffffffffffffffffffffffffffffffffffffff1673ffffffffffffffffffffffffffffffffffffffff16634d9d55946040518163ffffffff1660e01b8152600401608060405180830381865afa15801561445c573d6000803e3d6000fd5b505050506040513d601f19601f8201168201806040525081019061448091906167f5565b935093509350935083600060026101000a81548173ffffffffffffffffffffffffffffffffffffffff021916908373ffffffffffffffffffffffffffffffffffffffff16021790555082600160006101000a81548173ffffffffffffffffffffffffffffffffffffffff021916908373ffffffffffffffffffffffffffffffffffffffff16021790555081600360006101000a81548173ffffffffffffffffffffffffffffffffffffffff021916908373ffffffffffffffffffffffffffffffffffffffff16021790555080600460006101000a81548173ffffffffffffffffffffffffffffffffffffffff021916908373ffffffffffffffffffffffffffffffffffffffff1602179055503373ffffffffffffffffffffffffffffffffffffffff167fcf5694ba4d292446cb12f93b0c317c6f3d28a9a7b37c43aa354bc95cfa9e5ac8858585856040516145d89493929190615c08565b60405180910390a250505050565b6000808273ffffffffffffffffffffffffffffffffffffffff163b119050919050565b600360009054906101000a900473ffffffffffffffffffffffffffffffffffffffff1673ffffffffffffffffffffffffffffffffffffffff166397e537876040518163ffffffff1660e01b8152600401602060405180830381865afa158015614676573d6000803e3d6000fd5b505050506040513d601f19601f8201168201806040525081019061469a9190616379565b73ffffffffffffffffffffffffffffffffffffffff163373ffffffffffffffffffffffffffffffffffffffff16146146fe576040517f731b978f00000000000000000000000000000000000000000000000000000000815260040160405180910390fd5b565b600080600061470d612702565b60008503614747576040517f71799f2a00000000000000000000000000000000000000000000000000000000815260040160405180910390fd5b6000614752876133ea565b90506001600581111561476857614767615df9565b5b8160e00151600581111561477f5761477e615df9565b5b14806147b357506002600581111561479a57614799615df9565b5b8160e0015160058111156147b1576147b0615df9565b5b145b806147e65750600060058111156147cd576147cc615df9565b5b8160e0015160058111156147e4576147e3615df9565b5b145b1561488757600060028111156147ff576147fe615df9565b5b85600281111561481257614811615df9565b5b03614849576040517ff023e48b00000000000000000000000000000000000000000000000000000000815260040160405180910390fd5b6001600281111561485d5761485c615df9565b5b8560028111156148705761486f615df9565b5b03614886576000806001935093509350506150b1565b5b806020015167ffffffffffffffff164211156148ad576148aa8760006001612ef9565b90505b600061494c826020015167ffffffffffffffff16606e60008b73ffffffffffffffffffffffffffffffffffffffff1673ffffffffffffffffffffffffffffffffffffffff168152602001908152602001600020600001600c9054906101000a900461ffff1661ffff1684608001518560600151866000015161492f9190616417565b6149399190616457565b6bffffffffffffffffffffffff166154d5565b90506000818360400151600b0b8460000151856060015161496d9190616417565b600b0b61497a9190616866565b61498491906160eb565b90506001600281111561499a57614999615df9565b5b8760028111156149ad576149ac615df9565b5b03614a09578060056149bf9190616075565b881115614a08576149cf89613cdb565b600001516bffffffffffffffffffffffff1660056149ed9190616075565b881115614a075760008060019550955095505050506150b1565b5b5b60008060009050828a1015614d435784606001516bffffffffffffffffffffffff168a1015614b2c578991508985606001516bffffffffffffffffffffffff16614a5391906160eb565b85606001906bffffffffffffffffffffffff1690816bffffffffffffffffffffffff168152505084608001516bffffffffffffffffffffffff168a11614add578985608001516bffffffffffffffffffffffff16614ab191906160eb565b85608001906bffffffffffffffffffffffff1690816bffffffffffffffffffffffff1681525050614b27565b84608001516bffffffffffffffffffffffff168a614afb91906160eb565b9050600085608001906bffffffffffffffffffffffff1690816bffffffffffffffffffffffff16815250505b614c6d565b89915084606001516bffffffffffffffffffffffff168a614b4d91906160eb565b85600001818151614b5e9190616457565b9150906bffffffffffffffffffffffff1690816bffffffffffffffffffffffff168152505084608001516bffffffffffffffffffffffff168a614ba191906160eb565b9050600085606001906bffffffffffffffffffffffff1690816bffffffffffffffffffffffff1681525050600085608001906bffffffffffffffffffffffff1690816bffffffffffffffffffffffff168152505060008560a0019061ffff16908161ffff168152505060046005811115614c1e57614c1d615df9565b5b8560e001516005811115614c3557614c34615df9565b5b03614c6c5760038560e001906005811115614c5357614c52615df9565b5b90816005811115614c6757614c66615df9565b5b815250505b5b6000811115614d0457614ce3856020015167ffffffffffffffff16606e60008e73ffffffffffffffffffffffffffffffffffffffff1673ffffffffffffffffffffffffffffffffffffffff168152602001908152602001600020600001600c9054906101000a900461ffff1661ffff16836154d5565b85604001818151614cf49190616693565b915090600b0b9081600b0b815250505b600580811115614d1757614d16615df9565b5b8560e001516005811115614d2e57614d2d615df9565b5b03614d3e57614d3d8b8361568f565b5b614faf565b846080015185606001518660000151614d5c9190616417565b614d669190616457565b6bffffffffffffffffffffffff169050829150600580811115614d8c57614d8b615df9565b5b8560e001516005811115614da357614da2615df9565b5b03614db757614db28b8361568f565b614e42565b838560400151614dc79190616693565b8560400190600b0b9081600b0b8152505060008560400151600b0b1315614e0857614e0385604001516bffffffffffffffffffffffff1661533f565b614e41565b60008560400151600b0b1215614e4057614e3f85604001516000614e2c9190616693565b6bffffffffffffffffffffffff166153fe565b5b5b5b60008560400190600b0b9081600b0b81525050600085600001906bffffffffffffffffffffffff1690816bffffffffffffffffffffffff1681525050600085608001906bffffffffffffffffffffffff1690816bffffffffffffffffffffffff1681525050600085606001906bffffffffffffffffffffffff1690816bffffffffffffffffffffffff168152505060008560a0019061ffff16908161ffff168152505060008560c0015161ffff1603614f7c5760008560e001906005811115614f0e57614f0d615df9565b5b90816005811115614f2257614f21615df9565b5b815250508a73ffffffffffffffffffffffffffffffffffffffff167fce0bab896b3cb48841a0bae00ecb73380a851414117c4faa23b090f0246f328c336000604051614f6f9291906163ee565b60405180910390a2614fae565b60038560e001906005811115614f9557614f94615df9565b5b90816005811115614fa957614fa8615df9565b5b815250505b5b614fb98b86613f5f565b600082118015614fed575060006002811115614fd857614fd7615df9565b5b896002811115614feb57614fea615df9565b5b145b1561509e576150418b3084600060029054906101000a900473ffffffffffffffffffffffffffffffffffffffff1673ffffffffffffffffffffffffffffffffffffffff16615606909392919063ffffffff16565b8a73ffffffffffffffffffffffffffffffffffffffff167f5faf7cfc2e1451bec12a4a97f663dbdb393a7a91e088623469c422df5dbfb44883876060015188600001513360405161509594939291906168db565b60405180910390a25b8183831015600097509750975050505050505b93509350939050565b8060055411156150e25780600560008282546150d691906160eb565b925050819055506150eb565b60006005819055505b7f59c31bb593c5b09a2986862f60318542557074991f7b6b3a96bb483360ac0bc38160055460405161511e929190616148565b60405180910390a150565b600061518b826040518060400160405280602081526020017f5361666545524332303a206c6f772d6c6576656c2063616c6c206661696c65648152508573ffffffffffffffffffffffffffffffffffffffff166157f79092919063ffffffff16565b90506000815111156151eb57808060200190518101906151ab91906164ec565b6151ea576040517f08c379a00000000000000000000000000000000000000000000000000000000081526004016151e190616992565b60405180910390fd5b5b505050565b600081148061527a575060008373ffffffffffffffffffffffffffffffffffffffff1663dd62ed3e30856040518363ffffffff1660e01b815260040161523792919061656c565b602060405180830381865afa158015615254573d6000803e3d6000fd5b505050506040513d601f19601f820116820180604052508101906152789190615fdc565b145b6152b9576040517f08c379a00000000000000000000000000000000000000000000000000000000081526004016152b090616a24565b60405180910390fd5b61533a8363095ea7b360e01b84846040516024016152d892919061611f565b604051602081830303815290604052907bffffffffffffffffffffffffffffffffffffffffffffffffffffffff19166020820180517bffffffffffffffffffffffffffffffffffffffffffffffffffffffff8381831617835250505050615129565b505050565b6000600260009054906101000a900473ffffffffffffffffffffffffffffffffffffffff1673ffffffffffffffffffffffffffffffffffffffff1663ef06fb73836040518263ffffffff1660e01b815260040161539c9190615b85565b6020604051808303816000875af11580156153bb573d6000803e3d6000fd5b505050506040513d601f19601f820116820180604052508101906153df9190615fdc565b905080600560008282546153f391906160b7565b925050819055505050565b6000600260009054906101000a900473ffffffffffffffffffffffffffffffffffffffff1673ffffffffffffffffffffffffffffffffffffffff1663228ec96a836040518263ffffffff1660e01b815260040161545b9190615b85565b6020604051808303816000875af115801561547a573d6000803e3d6000fd5b505050506040513d601f19601f8201168201806040525081019061549e9190615fdc565b90508060055411156154c85780600560008282546154bc91906160eb565b925050819055506154d1565b60006005819055505b5050565b6000600460009054906101000a900473ffffffffffffffffffffffffffffffffffffffff1673ffffffffffffffffffffffffffffffffffffffff16633d1123018585856040518463ffffffff1660e01b815260040161553693929190616a44565b602060405180830381865afa158015615553573d6000803e3d6000fd5b505050506040513d601f19601f820116820180604052508101906155779190615fdc565b90509392505050565b600860008273ffffffffffffffffffffffffffffffffffffffff1673ffffffffffffffffffffffffffffffffffffffff16815260200190815260200160002060009054906101000a900460ff16615603576040517f68299b2000000000000000000000000000000000000000000000000000000000815260040160405180910390fd5b50565b615689846323b872dd60e01b85858560405160240161562793929190616a7b565b604051602081830303815290604052907bffffffffffffffffffffffffffffffffffffffffffffffffffffffff19166020820180517bffffffffffffffffffffffffffffffffffffffffffffffffffffffff8381831617835250505050615129565b50505050565b6000606e60008473ffffffffffffffffffffffffffffffffffffffff1673ffffffffffffffffffffffffffffffffffffffff16815260200190815260200160002060000160109054906101000a90046bffffffffffffffffffffffff1690506000816bffffffffffffffffffffffff1611156157e857600082826bffffffffffffffffffffffff16106157245782905061574a565b816bffffffffffffffffffffffff169050615749818461574491906160eb565b61533f565b5b806005600082825461575c91906160b7565b92505081905550808261576f9190616457565b915081606e60008673ffffffffffffffffffffffffffffffffffffffff1673ffffffffffffffffffffffffffffffffffffffff16815260200190815260200160002060000160106101000a8154816bffffffffffffffffffffffff02191690836bffffffffffffffffffffffff160217905550506157f2565b6157f18261533f565b5b505050565b6060615806848460008561580f565b90509392505050565b606082471015615854576040517f08c379a000000000000000000000000000000000000000000000000000000000815260040161584b90616b24565b60405180910390fd5b6000808673ffffffffffffffffffffffffffffffffffffffff16858760405161587d9190616bb5565b60006040518083038185875af1925050503d80600081146158ba576040519150601f19603f3d011682016040523d82523d6000602084013e6158bf565b606091505b50915091506158d0878383876158dc565b92505050949350505050565b6060831561593e576000835103615936576158f685615951565b615935576040517f08c379a000000000000000000000000000000000000000000000000000000000815260040161592c90616c18565b60405180910390fd5b5b829050615949565b6159488383615974565b5b949350505050565b6000808273ffffffffffffffffffffffffffffffffffffffff163b119050919050565b6000825111156159875781518083602001fd5b806040517f08c379a00000000000000000000000000000000000000000000000000000000081526004016159bb9190616c8d565b60405180910390fd5b60405180610100016040528060006bffffffffffffffffffffffff168152602001600067ffffffffffffffff1681526020016000600b0b815260200160006bffffffffffffffffffffffff16815260200160006bffffffffffffffffffffffff168152602001600061ffff168152602001600061ffff16815260200160006005811115615a5457615a53615df9565b5b81525090565b604051806080016040528060006bffffffffffffffffffffffff168152602001600061ffff168152602001600061ffff16815260200160006bffffffffffffffffffffffff1681525090565b600080fd5b600073ffffffffffffffffffffffffffffffffffffffff82169050919050565b6000615ad682615aab565b9050919050565b615ae681615acb565b8114615af157600080fd5b50565b600081359050615b0381615add565b92915050565b600060208284031215615b1f57615b1e615aa6565b5b6000615b2d84828501615af4565b91505092915050565b60008115159050919050565b615b4b81615b36565b82525050565b6000602082019050615b666000830184615b42565b92915050565b6000819050919050565b615b7f81615b6c565b82525050565b6000602082019050615b9a6000830184615b76565b92915050565b615ba981615b6c565b8114615bb457600080fd5b50565b600081359050615bc681615ba0565b92915050565b600060208284031215615be257615be1615aa6565b5b6000615bf084828501615bb7565b91505092915050565b615c0281615acb565b82525050565b6000608082019050615c1d6000830187615bf9565b615c2a6020830186615bf9565b615c376040830185615bf9565b615c446060830184615bf9565b95945050505050565b600080600060608486031215615c6657615c65615aa6565b5b6000615c7486828701615bb7565b9350506020615c8586828701615bb7565b9250506040615c9686828701615bb7565b9150509250925092565b6000602082019050615cb56000830184615bf9565b92915050565b60008060408385031215615cd257615cd1615aa6565b5b6000615ce085828601615af4565b9250506020615cf185828601615bb7565b9150509250929050565b600080600080600060a08688031215615d1757615d16615aa6565b5b6000615d2588828901615af4565b9550506020615d3688828901615bb7565b9450506040615d4788828901615bb7565b9350506060615d5888828901615bb7565b9250506080615d6988828901615bb7565b9150509295509295909350565b60006bffffffffffffffffffffffff82169050919050565b615d9781615d76565b82525050565b600067ffffffffffffffff82169050919050565b615dba81615d9d565b82525050565b600081600b0b9050919050565b615dd681615dc0565b82525050565b600061ffff82169050919050565b615df381615ddc565b82525050565b7f4e487b7100000000000000000000000000000000000000000000000000000000600052602160045260246000fd5b60068110615e3957615e38615df9565b5b50565b6000819050615e4a82615e28565b919050565b6000615e5a82615e3c565b9050919050565b615e6a81615e4f565b82525050565b61010082016000820151615e876000850182615d8e565b506020820151615e9a6020850182615db1565b506040820151615ead6040850182615dcd565b506060820151615ec06060850182615d8e565b506080820151615ed36080850182615d8e565b5060a0820151615ee660a0850182615dea565b5060c0820151615ef960c0850182615dea565b5060e0820151615f0c60e0850182615e61565b50505050565b600061010082019050615f286000830184615e70565b92915050565b608082016000820151615f446000850182615d8e565b506020820151615f576020850182615dea565b506040820151615f6a6040850182615dea565b506060820151615f7d6060850182615d8e565b50505050565b6000608082019050615f986000830184615f2e565b92915050565b6000604082019050615fb36000830185615b76565b615fc06020830184615b42565b9392505050565b600081519050615fd681615ba0565b92915050565b600060208284031215615ff257615ff1615aa6565b5b600061600084828501615fc7565b91505092915050565b7f4e487b7100000000000000000000000000000000000000000000000000000000600052601160045260246000fd5b600061604382615ddc565b915061604e83615ddc565b925082820261605c81615ddc565b915080821461606e5761606d616009565b5b5092915050565b600061608082615b6c565b915061608b83615b6c565b925082820261609981615b6c565b915082820484148315176160b0576160af616009565b5b5092915050565b60006160c282615b6c565b91506160cd83615b6c565b92508282019050808211156160e5576160e4616009565b5b92915050565b60006160f682615b6c565b915061610183615b6c565b925082820390508181111561611957616118616009565b5b92915050565b60006040820190506161346000830185615bf9565b6161416020830184615b76565b9392505050565b600060408201905061615d6000830185615b76565b61616a6020830184615b76565b9392505050565b600061617c82615ddc565b915061618783615ddc565b9250828201905061ffff8111156161a1576161a0616009565b5b92915050565b6000819050919050565b60006161cc6161c76161c284615ddc565b6161a7565b615b6c565b9050919050565b6161dc816161b1565b82525050565b60006060820190506161f76000830186615b76565b61620460208301856161d3565b6162116040830184615bf9565b949350505050565b600060808201905061622e6000830187615b76565b61623b6020830186615b76565b6162486040830185615b76565b6162556060830184615b76565b95945050505050565b600082825260208201905092915050565b7f496e697469616c697a61626c653a20636f6e747261637420697320616c72656160008201527f647920696e697469616c697a6564000000000000000000000000000000000000602082015250565b60006162cb602e8361625e565b91506162d68261626f565b604082019050919050565b600060208201905081810360008301526162fa816162be565b9050919050565b6000819050919050565b600060ff82169050919050565b600061633361632e61632984616301565b6161a7565b61630b565b9050919050565b61634381616318565b82525050565b600060208201905061635e600083018461633a565b92915050565b60008151905061637381615add565b92915050565b60006020828403121561638f5761638e615aa6565b5b600061639d84828501616364565b91505092915050565b600381106163b7576163b6615df9565b5b50565b60008190506163c8826163a6565b919050565b60006163d8826163ba565b9050919050565b6163e8816163cd565b82525050565b60006040820190506164036000830185615bf9565b61641060208301846163df565b9392505050565b600061642282615d76565b915061642d83615d76565b925082820190506bffffffffffffffffffffffff81111561645157616450616009565b5b92915050565b600061646282615d76565b915061646d83615d76565b925082820390506bffffffffffffffffffffffff81111561649157616490616009565b5b92915050565b60006040820190506164ac6000830185615b76565b6164b96020830184615bf9565b9392505050565b6164c981615b36565b81146164d457600080fd5b50565b6000815190506164e6816164c0565b92915050565b60006020828403121561650257616501615aa6565b5b6000616510848285016164d7565b91505092915050565b600060a08201905061652e6000830188615b76565b61653b6020830187615b76565b6165486040830186615b76565b6165556060830185615b76565b6165626080830184615b42565b9695505050505050565b60006040820190506165816000830185615bf9565b61658e6020830184615bf9565b9392505050565b6000610180820190506165ab6000830185615e70565b6165b9610100830184615f2e565b9392505050565b6165c981615d76565b81146165d457600080fd5b50565b6000815190506165e6816165c0565b92915050565b6165f581615dc0565b811461660057600080fd5b50565b600081519050616612816165ec565b92915050565b600080600080600060a0868803121561663457616633615aa6565b5b600061664288828901615fc7565b9550506020616653888289016165d7565b9450506040616664888289016165d7565b9350506060616675888289016165d7565b925050608061668688828901616603565b9150509295509295909350565b600061669e82615dc0565b91506166a983615dc0565b925082820390506b7fffffffffffffffffffffff81137fffffffffffffffffffffffffffffffffffffffff800000000000000000000000821217156166f1576166f0616009565b5b92915050565b600061671261670d61670884615d9d565b6161a7565b615b6c565b9050919050565b616722816166f7565b82525050565b600060408201905061673d6000830185616719565b61674a6020830184615bf9565b9392505050565b600061675c82615dc0565b915061676783615dc0565b925082820190507fffffffffffffffffffffffffffffffffffffffff80000000000000000000000081126b7fffffffffffffffffffffff821317156167af576167ae616009565b5b92915050565b600080604083850312156167cc576167cb615aa6565b5b60006167da85828601615fc7565b92505060206167eb85828601615fc7565b9150509250929050565b6000806000806080858703121561680f5761680e615aa6565b5b600061681d87828801616364565b945050602061682e87828801616364565b935050604061683f87828801616364565b925050606061685087828801616364565b91505092959194509250565b6000819050919050565b60006168718261685c565b915061687c8361685c565b9250828201905082811215600083121683821260008412151617156168a4576168a3616009565b5b92915050565b60006168c56168c06168bb84615d76565b6161a7565b615b6c565b9050919050565b6168d5816168aa565b82525050565b60006080820190506168f06000830187615b76565b6168fd60208301866168cc565b61690a60408301856168cc565b6169176060830184615bf9565b95945050505050565b7f5361666545524332303a204552433230206f7065726174696f6e20646964206e60008201527f6f74207375636365656400000000000000000000000000000000000000000000602082015250565b600061697c602a8361625e565b915061698782616920565b604082019050919050565b600060208201905081810360008301526169ab8161696f565b9050919050565b7f5361666545524332303a20617070726f76652066726f6d206e6f6e2d7a65726f60008201527f20746f206e6f6e2d7a65726f20616c6c6f77616e636500000000000000000000602082015250565b6000616a0e60368361625e565b9150616a19826169b2565b604082019050919050565b60006020820190508181036000830152616a3d81616a01565b9050919050565b6000606082019050616a596000830186615b76565b616a666020830185615b76565b616a736040830184615b76565b949350505050565b6000606082019050616a906000830186615bf9565b616a9d6020830185615bf9565b616aaa6040830184615b76565b949350505050565b7f416464726573733a20696e73756666696369656e742062616c616e636520666f60008201527f722063616c6c0000000000000000000000000000000000000000000000000000602082015250565b6000616b0e60268361625e565b9150616b1982616ab2565b604082019050919050565b60006020820190508181036000830152616b3d81616b01565b9050919050565b600081519050919050565b600081905092915050565b60005b83811015616b78578082015181840152602081019050616b5d565b60008484015250505050565b6000616b8f82616b44565b616b998185616b4f565b9350616ba9818560208601616b5a565b80840191505092915050565b6000616bc18284616b84565b915081905092915050565b7f416464726573733a2063616c6c20746f206e6f6e2d636f6e7472616374000000600082015250565b6000616c02601d8361625e565b9150616c0d82616bcc565b602082019050919050565b60006020820190508181036000830152616c3181616bf5565b9050919050565b600081519050919050565b6000601f19601f8301169050919050565b6000616c5f82616c38565b616c69818561625e565b9350616c79818560208601616b5a565b616c8281616c43565b840191505092915050565b60006020820190508181036000830152616ca78184616c54565b90509291505056fea2646970667358221220ef37ce05c4eebae63a11d76782fe54bb2004bc61ab0a32e239e63026bde3186a64736f6c63430008110033",
  "linkReferences": {},
  "deployedLinkReferences": {}
}