{
  "_format": "hh-sol-artifact-1",
  "contractName": "EvaluationAgentNFT",
  "sourceName": "contracts/EvaluationAgentNFT.sol",
  "abi": [
    {
      "inputs": [],
      "stateMutability": "nonpayable",
      "type": "constructor"
    },
    {
      "inputs": [],
      "name": "notNFTOwner",
      "type": "error"
    },
    {
      "anonymous": false,
      "inputs": [
        {
          "indexed": true,
          "internalType": "address",
          "name": "owner",
          "type": "address"
        },
        {
          "indexed": true,
          "internalType": "address",
          "name": "approved",
          "type": "address"
        },
        {
          "indexed": true,
          "internalType": "uint256",
          "name": "tokenId",
          "type": "uint256"
        }
      ],
      "name": "Approval",
      "type": "event"
    },
    {
      "anonymous": false,
      "inputs": [
        {
          "indexed": true,
          "internalType": "address",
          "name": "owner",
          "type": "address"
        },
        {
          "indexed": true,
          "internalType": "address",
          "name": "operator",
          "type": "address"
        },
        {
          "indexed": false,
          "internalType": "bool",
          "name": "approved",
          "type": "bool"
        }
      ],
      "name": "ApprovalForAll",
      "type": "event"
    },
    {
      "anonymous": false,
      "inputs": [
        {
          "indexed": false,
          "internalType": "uint256",
          "name": "tokenId",
          "type": "uint256"
        },
        {
          "indexed": false,
          "internalType": "address",
          "name": "recipient",
          "type": "address"
        }
      ],
      "name": "NFTGenerated",
      "type": "event"
    },
    {
      "anonymous": false,
      "inputs": [
        {
          "indexed": true,
          "internalType": "address",
          "name": "previousOwner",
          "type": "address"
        },
        {
          "indexed": true,
          "internalType": "address",
          "name": "newOwner",
          "type": "address"
        }
      ],
      "name": "OwnershipTransferred",
      "type": "event"
    },
    {
      "anonymous": false,
      "inputs": [
        {
          "indexed": false,
          "internalType": "uint256",
          "name": "tokenId",
          "type": "uint256"
        },
        {
          "indexed": false,
          "internalType": "string",
          "name": "tokenURI",
          "type": "string"
        }
      ],
      "name": "SetURI",
      "type": "event"
    },
    {
      "anonymous": false,
      "inputs": [
        {
          "indexed": true,
          "internalType": "address",
          "name": "from",
          "type": "address"
        },
        {
          "indexed": true,
          "internalType": "address",
          "name": "to",
          "type": "address"
        },
        {
          "indexed": true,
          "internalType": "uint256",
          "name": "tokenId",
          "type": "uint256"
        }
      ],
      "name": "Transfer",
      "type": "event"
    },
    {
      "inputs": [
        {
          "internalType": "address",
          "name": "to",
          "type": "address"
        },
        {
          "internalType": "uint256",
          "name": "tokenId",
          "type": "uint256"
        }
      ],
      "name": "approve",
      "outputs": [],
      "stateMutability": "nonpayable",
      "type": "function"
    },
    {
      "inputs": [
        {
          "internalType": "address",
          "name": "owner",
          "type": "address"
        }
      ],
      "name": "balanceOf",
      "outputs": [
        {
          "internalType": "uint256",
          "name": "",
          "type": "uint256"
        }
      ],
      "stateMutability": "view",
      "type": "function"
    },
    {
      "inputs": [
        {
          "internalType": "uint256",
          "name": "tokenId",
          "type": "uint256"
        }
      ],
      "name": "burn",
      "outputs": [
        {
          "internalType": "uint256",
          "name": "",
          "type": "uint256"
        }
      ],
      "stateMutability": "nonpayable",
      "type": "function"
    },
    {
      "inputs": [
        {
          "internalType": "uint256",
          "name": "tokenId",
          "type": "uint256"
        }
      ],
      "name": "getApproved",
      "outputs": [
        {
          "internalType": "address",
          "name": "",
          "type": "address"
        }
      ],
      "stateMutability": "view",
      "type": "function"
    },
    {
      "inputs": [
        {
          "internalType": "address",
          "name": "owner",
          "type": "address"
        },
        {
          "internalType": "address",
          "name": "operator",
          "type": "address"
        }
      ],
      "name": "isApprovedForAll",
      "outputs": [
        {
          "internalType": "bool",
          "name": "",
          "type": "bool"
        }
      ],
      "stateMutability": "view",
      "type": "function"
    },
    {
      "inputs": [
        {
          "internalType": "address",
          "name": "recipient",
          "type": "address"
        }
      ],
      "name": "mintNFT",
      "outputs": [
        {
          "internalType": "uint256",
          "name": "",
          "type": "uint256"
        }
      ],
      "stateMutability": "nonpayable",
      "type": "function"
    },
    {
      "inputs": [],
      "name": "name",
      "outputs": [
        {
          "internalType": "string",
          "name": "",
          "type": "string"
        }
      ],
      "stateMutability": "view",
      "type": "function"
    },
    {
      "inputs": [],
      "name": "owner",
      "outputs": [
        {
          "internalType": "address",
          "name": "",
          "type": "address"
        }
      ],
      "stateMutability": "view",
      "type": "function"
    },
    {
      "inputs": [
        {
          "internalType": "uint256",
          "name": "tokenId",
          "type": "uint256"
        }
      ],
      "name": "ownerOf",
      "outputs": [
        {
          "internalType": "address",
          "name": "",
          "type": "address"
        }
      ],
      "stateMutability": "view",
      "type": "function"
    },
    {
      "inputs": [],
      "name": "renounceOwnership",
      "outputs": [],
      "stateMutability": "nonpayable",
      "type": "function"
    },
    {
      "inputs": [
        {
          "internalType": "address",
          "name": "from",
          "type": "address"
        },
        {
          "internalType": "address",
          "name": "to",
          "type": "address"
        },
        {
          "internalType": "uint256",
          "name": "tokenId",
          "type": "uint256"
        }
      ],
      "name": "safeTransferFrom",
      "outputs": [],
      "stateMutability": "nonpayable",
      "type": "function"
    },
    {
      "inputs": [
        {
          "internalType": "address",
          "name": "from",
          "type": "address"
        },
        {
          "internalType": "address",
          "name": "to",
          "type": "address"
        },
        {
          "internalType": "uint256",
          "name": "tokenId",
          "type": "uint256"
        },
        {
          "internalType": "bytes",
          "name": "data",
          "type": "bytes"
        }
      ],
      "name": "safeTransferFrom",
      "outputs": [],
      "stateMutability": "nonpayable",
      "type": "function"
    },
    {
      "inputs": [
        {
          "internalType": "address",
          "name": "operator",
          "type": "address"
        },
        {
          "internalType": "bool",
          "name": "approved",
          "type": "bool"
        }
      ],
      "name": "setApprovalForAll",
      "outputs": [],
      "stateMutability": "nonpayable",
      "type": "function"
    },
    {
      "inputs": [
        {
          "internalType": "uint256",
          "name": "tokenId",
          "type": "uint256"
        },
        {
          "internalType": "string",
          "name": "uri",
          "type": "string"
        }
      ],
      "name": "setTokenURI",
      "outputs": [],
      "stateMutability": "nonpayable",
      "type": "function"
    },
    {
      "inputs": [
        {
          "internalType": "bytes4",
          "name": "interfaceId",
          "type": "bytes4"
        }
      ],
      "name": "supportsInterface",
      "outputs": [
        {
          "internalType": "bool",
          "name": "",
          "type": "bool"
        }
      ],
      "stateMutability": "view",
      "type": "function"
    },
    {
      "inputs": [],
      "name": "symbol",
      "outputs": [
        {
          "internalType": "string",
          "name": "",
          "type": "string"
        }
      ],
      "stateMutability": "view",
      "type": "function"
    },
    {
      "inputs": [
        {
          "internalType": "uint256",
          "name": "tokenId",
          "type": "uint256"
        }
      ],
      "name": "tokenURI",
      "outputs": [
        {
          "internalType": "string",
          "name": "",
          "type": "string"
        }
      ],
      "stateMutability": "view",
      "type": "function"
    },
    {
      "inputs": [
        {
          "internalType": "address",
          "name": "from",
          "type": "address"
        },
        {
          "internalType": "address",
          "name": "to",
          "type": "address"
        },
        {
          "internalType": "uint256",
          "name": "tokenId",
          "type": "uint256"
        }
      ],
      "name": "transferFrom",
      "outputs": [],
      "stateMutability": "nonpayable",
      "type": "function"
    },
    {
      "inputs": [
        {
          "internalType": "address",
          "name": "newOwner",
          "type": "address"
        }
      ],
      "name": "transferOwnership",
      "outputs": [],
      "stateMutability": "nonpayable",
      "type": "function"
    }
  ],
  "bytecode": "0x60806040523480156200001157600080fd5b506040518060400160405280601281526020017f4576616c756174696f6e4167656e744e465400000000000000000000000000008152506040518060400160405280600581526020017f45414e465400000000000000000000000000000000000000000000000000000081525081600090816200008f919062000412565b508060019081620000a1919062000412565b505050620000c4620000b8620000ca60201b60201c565b620000d260201b60201c565b620004f9565b600033905090565b6000600760009054906101000a900473ffffffffffffffffffffffffffffffffffffffff16905081600760006101000a81548173ffffffffffffffffffffffffffffffffffffffff021916908373ffffffffffffffffffffffffffffffffffffffff1602179055508173ffffffffffffffffffffffffffffffffffffffff168173ffffffffffffffffffffffffffffffffffffffff167f8be0079c531659141344cd1fd0a4f28419497f9722a3daafe3b4186f6b6457e060405160405180910390a35050565b600081519050919050565b7f4e487b7100000000000000000000000000000000000000000000000000000000600052604160045260246000fd5b7f4e487b7100000000000000000000000000000000000000000000000000000000600052602260045260246000fd5b600060028204905060018216806200021a57607f821691505b60208210810362000230576200022f620001d2565b5b50919050565b60008190508160005260206000209050919050565b60006020601f8301049050919050565b600082821b905092915050565b6000600883026200029a7fffffffffffffffffffffffffffffffffffffffffffffffffffffffffffffffff826200025b565b620002a686836200025b565b95508019841693508086168417925050509392505050565b6000819050919050565b6000819050919050565b6000620002f3620002ed620002e784620002be565b620002c8565b620002be565b9050919050565b6000819050919050565b6200030f83620002d2565b620003276200031e82620002fa565b84845462000268565b825550505050565b600090565b6200033e6200032f565b6200034b81848462000304565b505050565b5b8181101562000373576200036760008262000334565b60018101905062000351565b5050565b601f821115620003c2576200038c8162000236565b62000397846200024b565b81016020851015620003a7578190505b620003bf620003b6856200024b565b83018262000350565b50505b505050565b600082821c905092915050565b6000620003e760001984600802620003c7565b1980831691505092915050565b6000620004028383620003d4565b9150826002028217905092915050565b6200041d8262000198565b67ffffffffffffffff811115620004395762000438620001a3565b5b62000445825462000201565b6200045282828562000377565b600060209050601f8311600181146200048a576000841562000475578287015190505b620004818582620003f4565b865550620004f1565b601f1984166200049a8662000236565b60005b82811015620004c4578489015182556001820191506020850194506020810190506200049d565b86831015620004e45784890151620004e0601f891682620003d4565b8355505b6001600288020188555050505b505050505050565b61298c80620005096000396000f3fe608060405234801561001057600080fd5b50600436106101215760003560e01c80636352211e116100ad578063a22cb46511610071578063a22cb4651461031a578063b88d4fde14610336578063c87b56dd14610352578063e985e9c514610382578063f2fde38b146103b257610121565b80636352211e1461027457806370a08231146102a4578063715018a6146102d45780638da5cb5b146102de57806395d89b41146102fc57610121565b8063162094c4116100f4578063162094c4146101c057806323b872dd146101dc57806342842e0e146101f857806342966c681461021457806354ba0f271461024457610121565b806301ffc9a71461012657806306fdde0314610156578063081812fc14610174578063095ea7b3146101a4575b600080fd5b610140600480360381019061013b91906119b8565b6103ce565b60405161014d9190611a00565b60405180910390f35b61015e6104b0565b60405161016b9190611aab565b60405180910390f35b61018e60048036038101906101899190611b03565b610542565b60405161019b9190611b71565b60405180910390f35b6101be60048036038101906101b99190611bb8565b610588565b005b6101da60048036038101906101d59190611d2d565b61069f565b005b6101f660048036038101906101f19190611d89565b6106ee565b005b610212600480360381019061020d9190611d89565b6106f3565b005b61022e60048036038101906102299190611b03565b6106f8565b60405161023b9190611deb565b60405180910390f35b61025e60048036038101906102599190611e06565b610778565b60405161026b9190611deb565b60405180910390f35b61028e60048036038101906102899190611b03565b6107de565b60405161029b9190611b71565b60405180910390f35b6102be60048036038101906102b99190611e06565b610864565b6040516102cb9190611deb565b60405180910390f35b6102dc61091b565b005b6102e661092f565b6040516102f39190611b71565b60405180910390f35b610304610959565b6040516103119190611aab565b60405180910390f35b610334600480360381019061032f9190611e5f565b6109eb565b005b610350600480360381019061034b9190611f40565b610a01565b005b61036c60048036038101906103679190611b03565b610a07565b6040516103799190611aab565b60405180910390f35b61039c60048036038101906103979190611fc3565b610b19565b6040516103a99190611a00565b60405180910390f35b6103cc60048036038101906103c79190611e06565b610bad565b005b60007f80ac58cd000000000000000000000000000000000000000000000000000000007bffffffffffffffffffffffffffffffffffffffffffffffffffffffff1916827bffffffffffffffffffffffffffffffffffffffffffffffffffffffff1916148061049957507f5b5e139f000000000000000000000000000000000000000000000000000000007bffffffffffffffffffffffffffffffffffffffffffffffffffffffff1916827bffffffffffffffffffffffffffffffffffffffffffffffffffffffff1916145b806104a957506104a882610c30565b5b9050919050565b6060600080546104bf90612032565b80601f01602080910402602001604051908101604052809291908181526020018280546104eb90612032565b80156105385780601f1061050d57610100808354040283529160200191610538565b820191906000526020600020905b81548152906001019060200180831161051b57829003601f168201915b5050505050905090565b600061054d82610c9a565b6004600083815260200190815260200160002060009054906101000a900473ffffffffffffffffffffffffffffffffffffffff169050919050565b6000610593826107de565b90508073ffffffffffffffffffffffffffffffffffffffff168373ffffffffffffffffffffffffffffffffffffffff1603610603576040517f08c379a00000000000000000000000000000000000000000000000000000000081526004016105fa906120d5565b60405180910390fd5b8073ffffffffffffffffffffffffffffffffffffffff16610622610ce5565b73ffffffffffffffffffffffffffffffffffffffff16148061065157506106508161064b610ce5565b610b19565b5b610690576040517f08c379a000000000000000000000000000000000000000000000000000000000815260040161068790612167565b60405180910390fd5b61069a8383610ced565b505050565b6106a7610da6565b7fee1bb82f380189104b74a7647d26f2f35679780e816626ffcaec7cafb7288e4682826040516106d8929190612187565b60405180910390a16106ea8282610e24565b5050565b505050565b505050565b6000610703826107de565b73ffffffffffffffffffffffffffffffffffffffff163373ffffffffffffffffffffffffffffffffffffffff1614610767576040517f091a576200000000000000000000000000000000000000000000000000000000815260040160405180910390fd5b61077082610e91565b819050919050565b60006107846008610ee4565b60006107906008610efa565b905061079c8382610f08565b7f7888d934de473513860404fcdfecd5e92187ce8a5d7f713604ed704725d2132181846040516107cd9291906121b7565b60405180910390a180915050919050565b6000806107ea83611125565b9050600073ffffffffffffffffffffffffffffffffffffffff168173ffffffffffffffffffffffffffffffffffffffff160361085b576040517f08c379a00000000000000000000000000000000000000000000000000000000081526004016108529061222c565b60405180910390fd5b80915050919050565b60008073ffffffffffffffffffffffffffffffffffffffff168273ffffffffffffffffffffffffffffffffffffffff16036108d4576040517f08c379a00000000000000000000000000000000000000000000000000000000081526004016108cb906122be565b60405180910390fd5b600360008373ffffffffffffffffffffffffffffffffffffffff1673ffffffffffffffffffffffffffffffffffffffff168152602001908152602001600020549050919050565b610923610da6565b61092d6000611162565b565b6000600760009054906101000a900473ffffffffffffffffffffffffffffffffffffffff16905090565b60606001805461096890612032565b80601f016020809104026020016040519081016040528092919081815260200182805461099490612032565b80156109e15780601f106109b6576101008083540402835291602001916109e1565b820191906000526020600020905b8154815290600101906020018083116109c457829003601f168201915b5050505050905090565b6109fd6109f6610ce5565b8383611228565b5050565b50505050565b6060610a1282610c9a565b6000600660008481526020019081526020016000208054610a3290612032565b80601f0160208091040260200160405190810160405280929190818152602001828054610a5e90612032565b8015610aab5780601f10610a8057610100808354040283529160200191610aab565b820191906000526020600020905b815481529060010190602001808311610a8e57829003601f168201915b505050505090506000610abc611394565b90506000815103610ad1578192505050610b14565b600082511115610b06578082604051602001610aee92919061231a565b60405160208183030381529060405292505050610b14565b610b0f846113ab565b925050505b919050565b6000600560008473ffffffffffffffffffffffffffffffffffffffff1673ffffffffffffffffffffffffffffffffffffffff16815260200190815260200160002060008373ffffffffffffffffffffffffffffffffffffffff1673ffffffffffffffffffffffffffffffffffffffff16815260200190815260200160002060009054906101000a900460ff16905092915050565b610bb5610da6565b600073ffffffffffffffffffffffffffffffffffffffff168173ffffffffffffffffffffffffffffffffffffffff1603610c24576040517f08c379a0000000000000000000000000000000000000000000000000000000008152600401610c1b906123b0565b60405180910390fd5b610c2d81611162565b50565b60007f01ffc9a7000000000000000000000000000000000000000000000000000000007bffffffffffffffffffffffffffffffffffffffffffffffffffffffff1916827bffffffffffffffffffffffffffffffffffffffffffffffffffffffff1916149050919050565b610ca381611413565b610ce2576040517f08c379a0000000000000000000000000000000000000000000000000000000008152600401610cd99061222c565b60405180910390fd5b50565b600033905090565b816004600083815260200190815260200160002060006101000a81548173ffffffffffffffffffffffffffffffffffffffff021916908373ffffffffffffffffffffffffffffffffffffffff160217905550808273ffffffffffffffffffffffffffffffffffffffff16610d60836107de565b73ffffffffffffffffffffffffffffffffffffffff167f8c5be1e5ebec7d5bd14f71427d1e84f3dd0314c0f7b2291e5b200ac8c7c3b92560405160405180910390a45050565b610dae610ce5565b73ffffffffffffffffffffffffffffffffffffffff16610dcc61092f565b73ffffffffffffffffffffffffffffffffffffffff1614610e22576040517f08c379a0000000000000000000000000000000000000000000000000000000008152600401610e199061241c565b60405180910390fd5b565b610e2d82611413565b610e6c576040517f08c379a0000000000000000000000000000000000000000000000000000000008152600401610e63906124ae565b60405180910390fd5b80600660008481526020019081526020016000209081610e8c919061267a565b505050565b610e9a81611454565b6000600660008381526020019081526020016000208054610eba90612032565b905014610ee157600660008281526020019081526020016000206000610ee091906118ef565b5b50565b6001816000016000828254019250508190555050565b600081600001549050919050565b600073ffffffffffffffffffffffffffffffffffffffff168273ffffffffffffffffffffffffffffffffffffffff1603610f77576040517f08c379a0000000000000000000000000000000000000000000000000000000008152600401610f6e90612798565b60405180910390fd5b610f8081611413565b15610fc0576040517f08c379a0000000000000000000000000000000000000000000000000000000008152600401610fb790612804565b60405180910390fd5b610fce6000838360016115a2565b610fd781611413565b15611017576040517f08c379a000000000000000000000000000000000000000000000000000000000815260040161100e90612804565b60405180910390fd5b6001600360008473ffffffffffffffffffffffffffffffffffffffff1673ffffffffffffffffffffffffffffffffffffffff16815260200190815260200160002060008282540192505081905550816002600083815260200190815260200160002060006101000a81548173ffffffffffffffffffffffffffffffffffffffff021916908373ffffffffffffffffffffffffffffffffffffffff160217905550808273ffffffffffffffffffffffffffffffffffffffff16600073ffffffffffffffffffffffffffffffffffffffff167fddf252ad1be2c89b69c2b068fc378daa952ba7f163c4a11628f55a4df523b3ef60405160405180910390a46111216000838360016116c8565b5050565b60006002600083815260200190815260200160002060009054906101000a900473ffffffffffffffffffffffffffffffffffffffff169050919050565b6000600760009054906101000a900473ffffffffffffffffffffffffffffffffffffffff16905081600760006101000a81548173ffffffffffffffffffffffffffffffffffffffff021916908373ffffffffffffffffffffffffffffffffffffffff1602179055508173ffffffffffffffffffffffffffffffffffffffff168173ffffffffffffffffffffffffffffffffffffffff167f8be0079c531659141344cd1fd0a4f28419497f9722a3daafe3b4186f6b6457e060405160405180910390a35050565b8173ffffffffffffffffffffffffffffffffffffffff168373ffffffffffffffffffffffffffffffffffffffff1603611296576040517f08c379a000000000000000000000000000000000000000000000000000000000815260040161128d90612870565b60405180910390fd5b80600560008573ffffffffffffffffffffffffffffffffffffffff1673ffffffffffffffffffffffffffffffffffffffff16815260200190815260200160002060008473ffffffffffffffffffffffffffffffffffffffff1673ffffffffffffffffffffffffffffffffffffffff16815260200190815260200160002060006101000a81548160ff0219169083151502179055508173ffffffffffffffffffffffffffffffffffffffff168373ffffffffffffffffffffffffffffffffffffffff167f17307eab39ab6107e8899845ad3d59bd9653f200f220920489ca2b5937696c31836040516113879190611a00565b60405180910390a3505050565b606060405180602001604052806000815250905090565b60606113b682610c9a565b60006113c0611394565b905060008151116113e0576040518060200160405280600081525061140b565b806113ea846116ce565b6040516020016113fb92919061231a565b6040516020818303038152906040525b915050919050565b60008073ffffffffffffffffffffffffffffffffffffffff1661143583611125565b73ffffffffffffffffffffffffffffffffffffffff1614159050919050565b600061145f826107de565b905061146f8160008460016115a2565b611478826107de565b90506004600083815260200190815260200160002060006101000a81549073ffffffffffffffffffffffffffffffffffffffff02191690556001600360008373ffffffffffffffffffffffffffffffffffffffff1673ffffffffffffffffffffffffffffffffffffffff168152602001908152602001600020600082825403925050819055506002600083815260200190815260200160002060006101000a81549073ffffffffffffffffffffffffffffffffffffffff021916905581600073ffffffffffffffffffffffffffffffffffffffff168273ffffffffffffffffffffffffffffffffffffffff167fddf252ad1be2c89b69c2b068fc378daa952ba7f163c4a11628f55a4df523b3ef60405160405180910390a461159e8160008460016116c8565b5050565b60018111156116c257600073ffffffffffffffffffffffffffffffffffffffff168473ffffffffffffffffffffffffffffffffffffffff16146116365780600360008673ffffffffffffffffffffffffffffffffffffffff1673ffffffffffffffffffffffffffffffffffffffff168152602001908152602001600020600082825461162e91906128bf565b925050819055505b600073ffffffffffffffffffffffffffffffffffffffff168373ffffffffffffffffffffffffffffffffffffffff16146116c15780600360008573ffffffffffffffffffffffffffffffffffffffff1673ffffffffffffffffffffffffffffffffffffffff16815260200190815260200160002060008282546116b991906128f3565b925050819055505b5b50505050565b50505050565b6060600060016116dd8461179c565b01905060008167ffffffffffffffff8111156116fc576116fb611c02565b5b6040519080825280601f01601f19166020018201604052801561172e5781602001600182028036833780820191505090505b509050600082602001820190505b600115611791578080600190039150507f3031323334353637383961626364656600000000000000000000000000000000600a86061a8153600a858161178557611784612927565b5b0494506000850361173c575b819350505050919050565b600080600090507a184f03e93ff9f4daa797ed6e38ed64bf6a1f01000000000000000083106117fa577a184f03e93ff9f4daa797ed6e38ed64bf6a1f01000000000000000083816117f0576117ef612927565b5b0492506040810190505b6d04ee2d6d415b85acef81000000008310611837576d04ee2d6d415b85acef8100000000838161182d5761182c612927565b5b0492506020810190505b662386f26fc10000831061186657662386f26fc10000838161185c5761185b612927565b5b0492506010810190505b6305f5e100831061188f576305f5e100838161188557611884612927565b5b0492506008810190505b61271083106118b45761271083816118aa576118a9612927565b5b0492506004810190505b606483106118d757606483816118cd576118cc612927565b5b0492506002810190505b600a83106118e6576001810190505b80915050919050565b5080546118fb90612032565b6000825580601f1061190d575061192c565b601f01602090049060005260206000209081019061192b919061192f565b5b50565b5b80821115611948576000816000905550600101611930565b5090565b6000604051905090565b600080fd5b600080fd5b60007fffffffff0000000000000000000000000000000000000000000000000000000082169050919050565b61199581611960565b81146119a057600080fd5b50565b6000813590506119b28161198c565b92915050565b6000602082840312156119ce576119cd611956565b5b60006119dc848285016119a3565b91505092915050565b60008115159050919050565b6119fa816119e5565b82525050565b6000602082019050611a1560008301846119f1565b92915050565b600081519050919050565b600082825260208201905092915050565b60005b83811015611a55578082015181840152602081019050611a3a565b60008484015250505050565b6000601f19601f8301169050919050565b6000611a7d82611a1b565b611a878185611a26565b9350611a97818560208601611a37565b611aa081611a61565b840191505092915050565b60006020820190508181036000830152611ac58184611a72565b905092915050565b6000819050919050565b611ae081611acd565b8114611aeb57600080fd5b50565b600081359050611afd81611ad7565b92915050565b600060208284031215611b1957611b18611956565b5b6000611b2784828501611aee565b91505092915050565b600073ffffffffffffffffffffffffffffffffffffffff82169050919050565b6000611b5b82611b30565b9050919050565b611b6b81611b50565b82525050565b6000602082019050611b866000830184611b62565b92915050565b611b9581611b50565b8114611ba057600080fd5b50565b600081359050611bb281611b8c565b92915050565b60008060408385031215611bcf57611bce611956565b5b6000611bdd85828601611ba3565b9250506020611bee85828601611aee565b9150509250929050565b600080fd5b600080fd5b7f4e487b7100000000000000000000000000000000000000000000000000000000600052604160045260246000fd5b611c3a82611a61565b810181811067ffffffffffffffff82111715611c5957611c58611c02565b5b80604052505050565b6000611c6c61194c565b9050611c788282611c31565b919050565b600067ffffffffffffffff821115611c9857611c97611c02565b5b611ca182611a61565b9050602081019050919050565b82818337600083830152505050565b6000611cd0611ccb84611c7d565b611c62565b905082815260208101848484011115611cec57611ceb611bfd565b5b611cf7848285611cae565b509392505050565b600082601f830112611d1457611d13611bf8565b5b8135611d24848260208601611cbd565b91505092915050565b60008060408385031215611d4457611d43611956565b5b6000611d5285828601611aee565b925050602083013567ffffffffffffffff811115611d7357611d7261195b565b5b611d7f85828601611cff565b9150509250929050565b600080600060608486031215611da257611da1611956565b5b6000611db086828701611ba3565b9350506020611dc186828701611ba3565b9250506040611dd286828701611aee565b9150509250925092565b611de581611acd565b82525050565b6000602082019050611e006000830184611ddc565b92915050565b600060208284031215611e1c57611e1b611956565b5b6000611e2a84828501611ba3565b91505092915050565b611e3c816119e5565b8114611e4757600080fd5b50565b600081359050611e5981611e33565b92915050565b60008060408385031215611e7657611e75611956565b5b6000611e8485828601611ba3565b9250506020611e9585828601611e4a565b9150509250929050565b600067ffffffffffffffff821115611eba57611eb9611c02565b5b611ec382611a61565b9050602081019050919050565b6000611ee3611ede84611e9f565b611c62565b905082815260208101848484011115611eff57611efe611bfd565b5b611f0a848285611cae565b509392505050565b600082601f830112611f2757611f26611bf8565b5b8135611f37848260208601611ed0565b91505092915050565b60008060008060808587031215611f5a57611f59611956565b5b6000611f6887828801611ba3565b9450506020611f7987828801611ba3565b9350506040611f8a87828801611aee565b925050606085013567ffffffffffffffff811115611fab57611faa61195b565b5b611fb787828801611f12565b91505092959194509250565b60008060408385031215611fda57611fd9611956565b5b6000611fe885828601611ba3565b9250506020611ff985828601611ba3565b9150509250929050565b7f4e487b7100000000000000000000000000000000000000000000000000000000600052602260045260246000fd5b6000600282049050600182168061204a57607f821691505b60208210810361205d5761205c612003565b5b50919050565b7f4552433732313a20617070726f76616c20746f2063757272656e74206f776e6560008201527f7200000000000000000000000000000000000000000000000000000000000000602082015250565b60006120bf602183611a26565b91506120ca82612063565b604082019050919050565b600060208201905081810360008301526120ee816120b2565b9050919050565b7f4552433732313a20617070726f76652063616c6c6572206973206e6f7420746f60008201527f6b656e206f776e6572206f7220617070726f76656420666f7220616c6c000000602082015250565b6000612151603d83611a26565b915061215c826120f5565b604082019050919050565b6000602082019050818103600083015261218081612144565b9050919050565b600060408201905061219c6000830185611ddc565b81810360208301526121ae8184611a72565b90509392505050565b60006040820190506121cc6000830185611ddc565b6121d96020830184611b62565b9392505050565b7f4552433732313a20696e76616c696420746f6b656e2049440000000000000000600082015250565b6000612216601883611a26565b9150612221826121e0565b602082019050919050565b6000602082019050818103600083015261224581612209565b9050919050565b7f4552433732313a2061646472657373207a65726f206973206e6f74206120766160008201527f6c6964206f776e65720000000000000000000000000000000000000000000000602082015250565b60006122a8602983611a26565b91506122b38261224c565b604082019050919050565b600060208201905081810360008301526122d78161229b565b9050919050565b600081905092915050565b60006122f482611a1b565b6122fe81856122de565b935061230e818560208601611a37565b80840191505092915050565b600061232682856122e9565b915061233282846122e9565b91508190509392505050565b7f4f776e61626c653a206e6577206f776e657220697320746865207a65726f206160008201527f6464726573730000000000000000000000000000000000000000000000000000602082015250565b600061239a602683611a26565b91506123a58261233e565b604082019050919050565b600060208201905081810360008301526123c98161238d565b9050919050565b7f4f776e61626c653a2063616c6c6572206973206e6f7420746865206f776e6572600082015250565b6000612406602083611a26565b9150612411826123d0565b602082019050919050565b60006020820190508181036000830152612435816123f9565b9050919050565b7f45524337323155524953746f726167653a2055524920736574206f66206e6f6e60008201527f6578697374656e7420746f6b656e000000000000000000000000000000000000602082015250565b6000612498602e83611a26565b91506124a38261243c565b604082019050919050565b600060208201905081810360008301526124c78161248b565b9050919050565b60008190508160005260206000209050919050565b60006020601f8301049050919050565b600082821b905092915050565b6000600883026125307fffffffffffffffffffffffffffffffffffffffffffffffffffffffffffffffff826124f3565b61253a86836124f3565b95508019841693508086168417925050509392505050565b6000819050919050565b600061257761257261256d84611acd565b612552565b611acd565b9050919050565b6000819050919050565b6125918361255c565b6125a561259d8261257e565b848454612500565b825550505050565b600090565b6125ba6125ad565b6125c5818484612588565b505050565b5b818110156125e9576125de6000826125b2565b6001810190506125cb565b5050565b601f82111561262e576125ff816124ce565b612608846124e3565b81016020851015612617578190505b61262b612623856124e3565b8301826125ca565b50505b505050565b600082821c905092915050565b600061265160001984600802612633565b1980831691505092915050565b600061266a8383612640565b9150826002028217905092915050565b61268382611a1b565b67ffffffffffffffff81111561269c5761269b611c02565b5b6126a68254612032565b6126b18282856125ed565b600060209050601f8311600181146126e457600084156126d2578287015190505b6126dc858261265e565b865550612744565b601f1984166126f2866124ce565b60005b8281101561271a578489015182556001820191506020850194506020810190506126f5565b868310156127375784890151612733601f891682612640565b8355505b6001600288020188555050505b505050505050565b7f4552433732313a206d696e7420746f20746865207a65726f2061646472657373600082015250565b6000612782602083611a26565b915061278d8261274c565b602082019050919050565b600060208201905081810360008301526127b181612775565b9050919050565b7f4552433732313a20746f6b656e20616c7265616479206d696e74656400000000600082015250565b60006127ee601c83611a26565b91506127f9826127b8565b602082019050919050565b6000602082019050818103600083015261281d816127e1565b9050919050565b7f4552433732313a20617070726f766520746f2063616c6c657200000000000000600082015250565b600061285a601983611a26565b915061286582612824565b602082019050919050565b600060208201905081810360008301526128898161284d565b9050919050565b7f4e487b7100000000000000000000000000000000000000000000000000000000600052601160045260246000fd5b60006128ca82611acd565b91506128d583611acd565b92508282039050818111156128ed576128ec612890565b5b92915050565b60006128fe82611acd565b915061290983611acd565b925082820190508082111561292157612920612890565b5b92915050565b7f4e487b7100000000000000000000000000000000000000000000000000000000600052601260045260246000fdfea2646970667358221220a7adbbc8ce29e906767f87b8fef69a86efc018d8f7305c8cb051c034c5e5a5c364736f6c63430008110033",
  "linkReferences": {},
  "deployedLinkReferences": {}
}