{
  "_format": "hh-sol-artifact-1",
  "contractName": "ReceivableFactoringPool",
  "sourceName": "contracts/ReceivableFactoringPool.sol",
  "abi": [
    {
      "inputs": [],
      "name": "creditExpiredDueToFirstDrawdownTooLate",
      "type": "error"
    },
    {
      "inputs": [],
      "name": "creditExpiredDueToMaturity",
      "type": "error"
    },
    {
      "inputs": [],
      "name": "creditLineAlreadyExists",
      "type": "error"
    },
    {
      "inputs": [],
      "name": "creditLineExceeded",
      "type": "error"
    },
    {
      "inputs": [],
      "name": "creditLineNotInApprovedState",
      "type": "error"
    },
    {
      "inputs": [],
      "name": "creditLineNotInGoodStandingState",
      "type": "error"
    },
    {
      "inputs": [],
      "name": "creditLineNotInStateForDrawdown",
      "type": "error"
    },
    {
      "inputs": [],
      "name": "creditLineNotInStateForMakingPayment",
      "type": "error"
    },
    {
      "inputs": [],
      "name": "creditLineOutstanding",
      "type": "error"
    },
    {
      "inputs": [],
      "name": "defaultHasAlreadyBeenTriggered",
      "type": "error"
    },
    {
      "inputs": [],
      "name": "defaultTriggeredTooEarly",
      "type": "error"
    },
    {
      "inputs": [],
      "name": "drawdownFunctionUsedInsteadofDrawdownWithReceivable",
      "type": "error"
    },
    {
      "inputs": [],
      "name": "evaluationAgentServiceAccountRequired",
      "type": "error"
    },
    {
      "inputs": [],
      "name": "exceededPoolLiquidityCap",
      "type": "error"
    },
    {
      "inputs": [],
      "name": "greaterThanMaxCreditLine",
      "type": "error"
    },
    {
      "inputs": [],
      "name": "insufficientReceivableAmount",
      "type": "error"
    },
    {
      "inputs": [],
      "name": "onlyBorrowerOrEACanReduceCreditLine",
      "type": "error"
    },
    {
      "inputs": [],
      "name": "paymentAlreadyProcessed",
      "type": "error"
    },
    {
      "inputs": [],
      "name": "paymentDetectionServiceAccountRequired",
      "type": "error"
    },
    {
      "inputs": [],
      "name": "paymentIdNotUnderReview",
      "type": "error"
    },
    {
      "inputs": [],
      "name": "permissionDeniedNotLender",
      "type": "error"
    },
    {
      "inputs": [],
      "name": "poolIsNotOn",
      "type": "error"
    },
    {
      "inputs": [],
      "name": "poolOperatorRequired",
      "type": "error"
    },
    {
      "inputs": [],
      "name": "protocolIsPaused",
      "type": "error"
    },
    {
      "inputs": [],
      "name": "receivableAssetMismatch",
      "type": "error"
    },
    {
      "inputs": [],
      "name": "receivableAssetParamMismatch",
      "type": "error"
    },
    {
      "inputs": [],
      "name": "requestedCreditWithZeroDuration",
      "type": "error"
    },
    {
      "inputs": [],
      "name": "sameValue",
      "type": "error"
    },
    {
      "inputs": [],
      "name": "unsupportedReceivableAsset",
      "type": "error"
    },
    {
      "inputs": [],
      "name": "withdrawTooSoon",
      "type": "error"
    },
    {
      "inputs": [],
      "name": "withdrawnAmountHigherThanBalance",
      "type": "error"
    },
    {
      "inputs": [],
      "name": "zeroAddressProvided",
      "type": "error"
    },
    {
      "inputs": [],
      "name": "zeroAmountProvided",
      "type": "error"
    },
    {
      "anonymous": false,
      "inputs": [
        {
          "indexed": true,
          "internalType": "address",
          "name": "lender",
          "type": "address"
        },
        {
          "indexed": false,
          "internalType": "address",
          "name": "by",
          "type": "address"
        }
      ],
      "name": "AddApprovedLender",
      "type": "event"
    },
    {
      "anonymous": false,
      "inputs": [
        {
          "indexed": true,
          "internalType": "address",
          "name": "borrower",
          "type": "address"
        },
        {
          "indexed": false,
          "internalType": "uint256",
          "name": "newDueDate",
          "type": "uint256"
        },
        {
          "indexed": false,
          "internalType": "address",
          "name": "by",
          "type": "address"
        }
      ],
      "name": "BillRefreshed",
      "type": "event"
    },
    {
      "anonymous": false,
      "inputs": [
        {
          "indexed": true,
          "internalType": "address",
          "name": "borrower",
          "type": "address"
        },
        {
          "indexed": false,
          "internalType": "uint256",
          "name": "creditLimit",
          "type": "uint256"
        },
        {
          "indexed": false,
          "internalType": "uint256",
          "name": "intervalInDays",
          "type": "uint256"
        },
        {
          "indexed": false,
          "internalType": "uint256",
          "name": "remainingPeriods",
          "type": "uint256"
        },
        {
          "indexed": false,
          "internalType": "uint256",
          "name": "aprInBps",
          "type": "uint256"
        }
      ],
      "name": "CreditApproved",
      "type": "event"
    },
    {
      "anonymous": false,
      "inputs": [
        {
          "indexed": true,
          "internalType": "address",
          "name": "borrower",
          "type": "address"
        },
        {
          "indexed": false,
          "internalType": "uint256",
          "name": "creditLimit",
          "type": "uint256"
        },
        {
          "indexed": false,
          "internalType": "uint256",
          "name": "aprInBps",
          "type": "uint256"
        },
        {
          "indexed": false,
          "internalType": "uint256",
          "name": "payPeriodInDays",
          "type": "uint256"
        },
        {
          "indexed": false,
          "internalType": "uint256",
          "name": "remainingPeriods",
          "type": "uint256"
        },
        {
          "indexed": false,
          "internalType": "bool",
          "name": "approved",
          "type": "bool"
        }
      ],
      "name": "CreditInitiated",
      "type": "event"
    },
    {
      "anonymous": false,
      "inputs": [
        {
          "indexed": true,
          "internalType": "address",
          "name": "borrower",
          "type": "address"
        },
        {
          "indexed": false,
          "internalType": "uint256",
          "name": "oldCreditLimit",
          "type": "uint256"
        },
        {
          "indexed": false,
          "internalType": "uint256",
          "name": "newCreditLimit",
          "type": "uint256"
        }
      ],
      "name": "CreditLineChanged",
      "type": "event"
    },
    {
      "anonymous": false,
      "inputs": [
        {
          "indexed": true,
          "internalType": "address",
          "name": "borrower",
          "type": "address"
        },
        {
          "indexed": false,
          "internalType": "address",
          "name": "by",
          "type": "address"
        },
        {
          "indexed": false,
          "internalType": "enum BaseCreditPool.CreditLineClosureReason",
          "name": "reasonCode",
          "type": "uint8"
        }
      ],
      "name": "CreditLineClosed",
      "type": "event"
    },
    {
      "anonymous": false,
      "inputs": [
        {
          "indexed": true,
          "internalType": "address",
          "name": "borrower",
          "type": "address"
        },
        {
          "indexed": false,
          "internalType": "uint256",
          "name": "numOfPeriods",
          "type": "uint256"
        },
        {
          "indexed": false,
          "internalType": "uint256",
          "name": "remainingPeriods",
          "type": "uint256"
        },
        {
          "indexed": false,
          "internalType": "address",
          "name": "by",
          "type": "address"
        }
      ],
      "name": "CreditLineExtended",
      "type": "event"
    },
    {
      "anonymous": false,
      "inputs": [
        {
          "indexed": true,
          "internalType": "address",
          "name": "borrower",
          "type": "address"
        },
        {
          "indexed": false,
          "internalType": "uint256",
          "name": "losses",
          "type": "uint256"
        },
        {
          "indexed": false,
          "internalType": "address",
          "name": "by",
          "type": "address"
        }
      ],
      "name": "DefaultTriggered",
      "type": "event"
    },
    {
      "anonymous": false,
      "inputs": [
        {
          "indexed": true,
          "internalType": "address",
          "name": "borrower",
          "type": "address"
        },
        {
          "indexed": false,
          "internalType": "uint256",
          "name": "borrowAmount",
          "type": "uint256"
        },
        {
          "indexed": false,
          "internalType": "uint256",
          "name": "netAmountToBorrower",
          "type": "uint256"
        }
      ],
      "name": "DrawdownMade",
      "type": "event"
    },
    {
      "anonymous": false,
      "inputs": [
        {
          "indexed": true,
          "internalType": "address",
          "name": "borrower",
          "type": "address"
        },
        {
          "indexed": false,
          "internalType": "uint256",
          "name": "borrowAmount",
          "type": "uint256"
        },
        {
          "indexed": false,
          "internalType": "uint256",
          "name": "netAmountToBorrower",
          "type": "uint256"
        },
        {
          "indexed": false,
          "internalType": "address",
          "name": "receivableAsset",
          "type": "address"
        },
        {
          "indexed": false,
          "internalType": "uint256",
          "name": "receivableParam",
          "type": "uint256"
        }
      ],
      "name": "DrawdownMadeWithReceivable",
      "type": "event"
    },
    {
      "anonymous": false,
      "inputs": [
        {
          "indexed": true,
          "internalType": "address",
          "name": "receiver",
          "type": "address"
        },
        {
          "indexed": false,
          "internalType": "uint256",
          "name": "amount",
          "type": "uint256"
        }
      ],
      "name": "ExtraFundsDispersed",
      "type": "event"
    },
    {
      "anonymous": false,
      "inputs": [
        {
          "indexed": false,
          "internalType": "uint8",
          "name": "version",
          "type": "uint8"
        }
      ],
      "name": "Initialized",
      "type": "event"
    },
    {
      "anonymous": false,
      "inputs": [
        {
          "indexed": true,
          "internalType": "address",
          "name": "account",
          "type": "address"
        },
        {
          "indexed": false,
          "internalType": "uint256",
          "name": "assetAmount",
          "type": "uint256"
        },
        {
          "indexed": false,
          "internalType": "uint256",
          "name": "shareAmount",
          "type": "uint256"
        }
      ],
      "name": "LiquidityDeposited",
      "type": "event"
    },
    {
      "anonymous": false,
      "inputs": [
        {
          "indexed": true,
          "internalType": "address",
          "name": "account",
          "type": "address"
        },
        {
          "indexed": false,
          "internalType": "uint256",
          "name": "assetAmount",
          "type": "uint256"
        },
        {
          "indexed": false,
          "internalType": "uint256",
          "name": "shareAmount",
          "type": "uint256"
        }
      ],
      "name": "LiquidityWithdrawn",
      "type": "event"
    },
    {
      "anonymous": false,
      "inputs": [
        {
          "indexed": false,
          "internalType": "uint256",
          "name": "lossesDistributed",
          "type": "uint256"
        },
        {
          "indexed": false,
          "internalType": "uint256",
          "name": "updatedPoolValue",
          "type": "uint256"
        }
      ],
      "name": "LossesDistributed",
      "type": "event"
    },
    {
      "anonymous": false,
      "inputs": [
        {
          "indexed": true,
          "internalType": "bytes32",
          "name": "paymentIdHash",
          "type": "bytes32"
        },
        {
          "indexed": true,
          "internalType": "address",
          "name": "borrower",
          "type": "address"
        },
        {
          "indexed": false,
          "internalType": "uint256",
          "name": "amount",
          "type": "uint256"
        }
      ],
      "name": "PaymentFlaggedForReview",
      "type": "event"
    },
    {
      "anonymous": false,
      "inputs": [
        {
          "indexed": false,
          "internalType": "bytes32",
          "name": "paymentIdHash",
          "type": "bytes32"
        }
      ],
      "name": "PaymentInvalidated",
      "type": "event"
    },
    {
      "anonymous": false,
      "inputs": [
        {
          "indexed": true,
          "internalType": "address",
          "name": "borrower",
          "type": "address"
        },
        {
          "indexed": false,
          "internalType": "uint256",
          "name": "amount",
          "type": "uint256"
        },
        {
          "indexed": false,
          "internalType": "uint256",
          "name": "totalDue",
          "type": "uint256"
        },
        {
          "indexed": false,
          "internalType": "uint256",
          "name": "unbilledPrincipal",
          "type": "uint256"
        },
        {
          "indexed": false,
          "internalType": "address",
          "name": "by",
          "type": "address"
        }
      ],
      "name": "PaymentMade",
      "type": "event"
    },
    {
      "anonymous": false,
      "inputs": [
        {
          "indexed": true,
          "internalType": "address",
          "name": "sender",
          "type": "address"
        },
        {
          "indexed": false,
          "internalType": "address",
          "name": "newPoolConfig",
          "type": "address"
        }
      ],
      "name": "PoolConfigChanged",
      "type": "event"
    },
    {
      "anonymous": false,
      "inputs": [
        {
          "indexed": true,
          "internalType": "address",
          "name": "sender",
          "type": "address"
        },
        {
          "indexed": false,
          "internalType": "address",
          "name": "underlyingToken",
          "type": "address"
        },
        {
          "indexed": false,
          "internalType": "address",
          "name": "poolToken",
          "type": "address"
        },
        {
          "indexed": false,
          "internalType": "address",
          "name": "humaConfig",
          "type": "address"
        },
        {
          "indexed": false,
          "internalType": "address",
          "name": "feeManager",
          "type": "address"
        }
      ],
      "name": "PoolCoreDataChanged",
      "type": "event"
    },
    {
      "anonymous": false,
      "inputs": [
        {
          "indexed": true,
          "internalType": "address",
          "name": "by",
          "type": "address"
        }
      ],
      "name": "PoolDisabled",
      "type": "event"
    },
    {
      "anonymous": false,
      "inputs": [
        {
          "indexed": true,
          "internalType": "address",
          "name": "by",
          "type": "address"
        }
      ],
      "name": "PoolEnabled",
      "type": "event"
    },
    {
      "anonymous": false,
      "inputs": [
        {
          "indexed": true,
          "internalType": "address",
          "name": "sender",
          "type": "address"
        },
        {
          "indexed": true,
          "internalType": "address",
          "name": "borrower",
          "type": "address"
        },
        {
          "indexed": false,
          "internalType": "uint256",
          "name": "amount",
          "type": "uint256"
        },
        {
          "indexed": false,
          "internalType": "bytes32",
          "name": "paymentIdHash",
          "type": "bytes32"
        }
      ],
      "name": "ReceivedPaymentProcessed",
      "type": "event"
    },
    {
      "anonymous": false,
      "inputs": [
        {
          "indexed": true,
          "internalType": "address",
          "name": "lender",
          "type": "address"
        },
        {
          "indexed": false,
          "internalType": "address",
          "name": "by",
          "type": "address"
        }
      ],
      "name": "RemoveApprovedLender",
      "type": "event"
    },
    {
      "inputs": [
        {
          "internalType": "address",
          "name": "lender",
          "type": "address"
        }
      ],
      "name": "addApprovedLender",
      "outputs": [],
      "stateMutability": "nonpayable",
      "type": "function"
    },
    {
      "inputs": [
        {
          "internalType": "address",
          "name": "borrower",
          "type": "address"
        },
        {
          "internalType": "uint256",
          "name": "creditLimit",
          "type": "uint256"
        },
        {
          "internalType": "uint256",
          "name": "intervalInDays",
          "type": "uint256"
        },
        {
          "internalType": "uint256",
          "name": "remainingPeriods",
          "type": "uint256"
        },
        {
          "internalType": "uint256",
          "name": "aprInBps",
          "type": "uint256"
        }
      ],
      "name": "approveCredit",
      "outputs": [],
      "stateMutability": "nonpayable",
      "type": "function"
    },
    {
      "inputs": [
        {
          "internalType": "address",
          "name": "borrower",
          "type": "address"
        },
        {
          "internalType": "uint256",
          "name": "creditLimit",
          "type": "uint256"
        },
        {
          "internalType": "uint256",
          "name": "intervalInDays",
          "type": "uint256"
        },
        {
          "internalType": "uint256",
          "name": "remainingPeriods",
          "type": "uint256"
        },
        {
          "internalType": "uint256",
          "name": "aprInBps",
          "type": "uint256"
        },
        {
          "internalType": "address",
          "name": "receivableAsset",
          "type": "address"
        },
        {
          "internalType": "uint256",
          "name": "receivableParam",
          "type": "uint256"
        },
        {
          "internalType": "uint256",
          "name": "receivableAmount",
          "type": "uint256"
        }
      ],
      "name": "approveCredit",
      "outputs": [],
      "stateMutability": "nonpayable",
      "type": "function"
    },
    {
      "inputs": [
        {
          "internalType": "address",
          "name": "borrower",
          "type": "address"
        },
        {
          "internalType": "uint256",
          "name": "newCreditLimit",
          "type": "uint256"
        }
      ],
      "name": "changeCreditLine",
      "outputs": [],
      "stateMutability": "nonpayable",
      "type": "function"
    },
    {
      "inputs": [
        {
          "internalType": "address",
          "name": "account",
          "type": "address"
        }
      ],
      "name": "creditRecordMapping",
      "outputs": [
        {
          "components": [
            {
              "internalType": "uint96",
              "name": "unbilledPrincipal",
              "type": "uint96"
            },
            {
              "internalType": "uint64",
              "name": "dueDate",
              "type": "uint64"
            },
            {
              "internalType": "int96",
              "name": "correction",
              "type": "int96"
            },
            {
              "internalType": "uint96",
              "name": "totalDue",
              "type": "uint96"
            },
            {
              "internalType": "uint96",
              "name": "feesAndInterestDue",
              "type": "uint96"
            },
            {
              "internalType": "uint16",
              "name": "missedPeriods",
              "type": "uint16"
            },
            {
              "internalType": "uint16",
              "name": "remainingPeriods",
              "type": "uint16"
            },
            {
              "internalType": "enum BaseStructs.CreditState",
              "name": "state",
              "type": "uint8"
            }
          ],
          "internalType": "struct BaseStructs.CreditRecord",
          "name": "",
          "type": "tuple"
        }
      ],
      "stateMutability": "view",
      "type": "function"
    },
    {
      "inputs": [
        {
          "internalType": "address",
          "name": "account",
          "type": "address"
        }
      ],
      "name": "creditRecordStaticMapping",
      "outputs": [
        {
          "components": [
            {
              "internalType": "uint96",
              "name": "creditLimit",
              "type": "uint96"
            },
            {
              "internalType": "uint16",
              "name": "aprInBps",
              "type": "uint16"
            },
            {
              "internalType": "uint16",
              "name": "intervalInDays",
              "type": "uint16"
            },
            {
              "internalType": "uint96",
              "name": "defaultAmount",
              "type": "uint96"
            }
          ],
          "internalType": "struct BaseStructs.CreditRecordStatic",
          "name": "",
          "type": "tuple"
        }
      ],
      "stateMutability": "view",
      "type": "function"
    },
    {
      "inputs": [
        {
          "internalType": "uint256",
          "name": "amount",
          "type": "uint256"
        }
      ],
      "name": "deposit",
      "outputs": [],
      "stateMutability": "nonpayable",
      "type": "function"
    },
    {
      "inputs": [],
      "name": "disablePool",
      "outputs": [],
      "stateMutability": "nonpayable",
      "type": "function"
    },
    {
      "inputs": [
        {
          "internalType": "uint256",
          "name": "",
          "type": "uint256"
        }
      ],
      "name": "drawdown",
      "outputs": [],
      "stateMutability": "nonpayable",
      "type": "function"
    },
    {
      "inputs": [
        {
          "internalType": "uint256",
          "name": "borrowAmount",
          "type": "uint256"
        },
        {
          "internalType": "address",
          "name": "receivableAsset",
          "type": "address"
        },
        {
          "internalType": "uint256",
          "name": "receivableParam",
          "type": "uint256"
        }
      ],
      "name": "drawdownWithReceivable",
      "outputs": [],
      "stateMutability": "nonpayable",
      "type": "function"
    },
    {
      "inputs": [],
      "name": "enablePool",
      "outputs": [],
      "stateMutability": "nonpayable",
      "type": "function"
    },
    {
      "inputs": [
        {
          "internalType": "address",
          "name": "borrower",
          "type": "address"
        },
        {
          "internalType": "uint256",
          "name": "numOfPeriods",
          "type": "uint256"
        }
      ],
      "name": "extendCreditLineDuration",
      "outputs": [],
      "stateMutability": "nonpayable",
      "type": "function"
    },
    {
      "inputs": [],
      "name": "getCoreData",
      "outputs": [
        {
          "internalType": "address",
          "name": "underlyingToken_",
          "type": "address"
        },
        {
          "internalType": "address",
          "name": "poolToken_",
          "type": "address"
        },
        {
          "internalType": "address",
          "name": "humaConfig_",
          "type": "address"
        },
        {
          "internalType": "address",
          "name": "feeManager_",
          "type": "address"
        }
      ],
      "stateMutability": "view",
      "type": "function"
    },
    {
      "inputs": [
        {
          "internalType": "address",
          "name": "poolConfigAddr",
          "type": "address"
        }
      ],
      "name": "initialize",
      "outputs": [],
      "stateMutability": "nonpayable",
      "type": "function"
    },
    {
      "inputs": [
        {
          "internalType": "address",
          "name": "borrower",
          "type": "address"
        }
      ],
      "name": "isApproved",
      "outputs": [
        {
          "internalType": "bool",
          "name": "",
          "type": "bool"
        }
      ],
      "stateMutability": "view",
      "type": "function"
    },
    {
      "inputs": [
        {
          "internalType": "address",
          "name": "account",
          "type": "address"
        }
      ],
      "name": "isApprovedLender",
      "outputs": [
        {
          "internalType": "bool",
          "name": "",
          "type": "bool"
        }
      ],
      "stateMutability": "view",
      "type": "function"
    },
    {
      "inputs": [
        {
          "internalType": "address",
          "name": "borrower",
          "type": "address"
        }
      ],
      "name": "isDefaultReady",
      "outputs": [
        {
          "internalType": "bool",
          "name": "",
          "type": "bool"
        }
      ],
      "stateMutability": "view",
      "type": "function"
    },
    {
      "inputs": [
        {
          "internalType": "address",
          "name": "borrower",
          "type": "address"
        }
      ],
      "name": "isLate",
      "outputs": [
        {
          "internalType": "bool",
          "name": "",
          "type": "bool"
        }
      ],
      "stateMutability": "view",
      "type": "function"
    },
    {
      "inputs": [
        {
          "internalType": "bytes32",
          "name": "paymentIdHash",
          "type": "bytes32"
        }
      ],
      "name": "isPaymentProcessed",
      "outputs": [
        {
          "internalType": "bool",
          "name": "",
          "type": "bool"
        }
      ],
      "stateMutability": "view",
      "type": "function"
    },
    {
      "inputs": [
        {
          "internalType": "bytes32",
          "name": "paymentIdHash",
          "type": "bytes32"
        }
      ],
      "name": "isPaymentUnderReview",
      "outputs": [
        {
          "internalType": "bool",
          "name": "",
          "type": "bool"
        }
      ],
      "stateMutability": "view",
      "type": "function"
    },
    {
      "inputs": [],
      "name": "isPoolOn",
      "outputs": [
        {
          "internalType": "bool",
          "name": "status",
          "type": "bool"
        }
      ],
      "stateMutability": "view",
      "type": "function"
    },
    {
      "inputs": [
        {
          "internalType": "address",
          "name": "account",
          "type": "address"
        }
      ],
      "name": "lastDepositTime",
      "outputs": [
        {
          "internalType": "uint256",
          "name": "",
          "type": "uint256"
        }
      ],
      "stateMutability": "view",
      "type": "function"
    },
    {
      "inputs": [
        {
          "internalType": "uint256",
          "name": "amount",
          "type": "uint256"
        }
      ],
      "name": "makeInitialDeposit",
      "outputs": [],
      "stateMutability": "nonpayable",
      "type": "function"
    },
    {
      "inputs": [
        {
          "internalType": "address",
          "name": "borrower",
          "type": "address"
        },
        {
          "internalType": "uint256",
          "name": "amount",
          "type": "uint256"
        }
      ],
      "name": "makePayment",
      "outputs": [
        {
          "internalType": "uint256",
          "name": "amountPaid",
          "type": "uint256"
        },
        {
          "internalType": "bool",
          "name": "paidoff",
          "type": "bool"
        }
      ],
      "stateMutability": "nonpayable",
      "type": "function"
    },
    {
      "inputs": [
        {
          "internalType": "bytes32",
          "name": "paymentIdHash",
          "type": "bytes32"
        }
      ],
      "name": "markPaymentInvalid",
      "outputs": [],
      "stateMutability": "nonpayable",
      "type": "function"
    },
    {
      "inputs": [
        {
          "internalType": "address",
          "name": "",
          "type": "address"
        },
        {
          "internalType": "address",
          "name": "",
          "type": "address"
        },
        {
          "internalType": "uint256",
          "name": "",
          "type": "uint256"
        },
        {
          "internalType": "bytes",
          "name": "",
          "type": "bytes"
        }
      ],
      "name": "onERC721Received",
      "outputs": [
        {
          "internalType": "bytes4",
          "name": "",
          "type": "bytes4"
        }
      ],
      "stateMutability": "nonpayable",
      "type": "function"
    },
    {
      "inputs": [
        {
          "internalType": "address",
          "name": "borrower",
          "type": "address"
        },
        {
          "internalType": "uint256",
          "name": "amount",
          "type": "uint256"
        },
        {
          "internalType": "bytes32",
          "name": "paymentIdHash",
          "type": "bytes32"
        }
      ],
      "name": "onReceivedPayment",
      "outputs": [],
      "stateMutability": "nonpayable",
      "type": "function"
    },
    {
      "inputs": [],
      "name": "poolConfig",
      "outputs": [
        {
          "internalType": "address",
          "name": "",
          "type": "address"
        }
      ],
      "stateMutability": "view",
      "type": "function"
    },
    {
      "inputs": [
        {
          "internalType": "bytes32",
          "name": "paymentIdHash",
          "type": "bytes32"
        },
        {
          "internalType": "bool",
          "name": "approved",
          "type": "bool"
        }
      ],
      "name": "processPaymentAfterReview",
      "outputs": [],
      "stateMutability": "nonpayable",
      "type": "function"
    },
    {
      "inputs": [
        {
          "internalType": "address",
          "name": "account",
          "type": "address"
        }
      ],
      "name": "receivableInfoMapping",
      "outputs": [
        {
          "components": [
            {
              "internalType": "address",
              "name": "receivableAsset",
              "type": "address"
            },
            {
              "internalType": "uint96",
              "name": "receivableAmount",
              "type": "uint96"
            },
            {
              "internalType": "uint256",
              "name": "receivableParam",
              "type": "uint256"
            }
          ],
          "internalType": "struct BaseStructs.ReceivableInfo",
          "name": "",
          "type": "tuple"
        }
      ],
      "stateMutability": "view",
      "type": "function"
    },
    {
      "inputs": [
        {
          "internalType": "bytes32",
          "name": "receivableHash",
          "type": "bytes32"
        }
      ],
      "name": "receivableOwnershipMapping",
      "outputs": [
        {
          "internalType": "address",
          "name": "",
          "type": "address"
        }
      ],
      "stateMutability": "view",
      "type": "function"
    },
    {
      "inputs": [
        {
          "internalType": "address",
          "name": "borrower",
          "type": "address"
        }
      ],
      "name": "refreshAccount",
      "outputs": [
        {
          "components": [
            {
              "internalType": "uint96",
              "name": "unbilledPrincipal",
              "type": "uint96"
            },
            {
              "internalType": "uint64",
              "name": "dueDate",
              "type": "uint64"
            },
            {
              "internalType": "int96",
              "name": "correction",
              "type": "int96"
            },
            {
              "internalType": "uint96",
              "name": "totalDue",
              "type": "uint96"
            },
            {
              "internalType": "uint96",
              "name": "feesAndInterestDue",
              "type": "uint96"
            },
            {
              "internalType": "uint16",
              "name": "missedPeriods",
              "type": "uint16"
            },
            {
              "internalType": "uint16",
              "name": "remainingPeriods",
              "type": "uint16"
            },
            {
              "internalType": "enum BaseStructs.CreditState",
              "name": "state",
              "type": "uint8"
            }
          ],
          "internalType": "struct BaseStructs.CreditRecord",
          "name": "cr",
          "type": "tuple"
        }
      ],
      "stateMutability": "nonpayable",
      "type": "function"
    },
    {
      "inputs": [
        {
          "internalType": "address",
          "name": "lender",
          "type": "address"
        }
      ],
      "name": "removeApprovedLender",
      "outputs": [],
      "stateMutability": "nonpayable",
      "type": "function"
    },
    {
      "inputs": [
        {
          "internalType": "uint256",
          "name": "creditLimit",
          "type": "uint256"
        },
        {
          "internalType": "uint256",
          "name": "intervalInDays",
          "type": "uint256"
        },
        {
          "internalType": "uint256",
          "name": "numOfPayments",
          "type": "uint256"
        }
      ],
      "name": "requestCredit",
      "outputs": [],
      "stateMutability": "nonpayable",
      "type": "function"
    },
    {
      "inputs": [
        {
          "internalType": "address",
          "name": "poolConfigAddr",
          "type": "address"
        }
      ],
      "name": "setPoolConfig",
      "outputs": [],
      "stateMutability": "nonpayable",
      "type": "function"
    },
    {
      "inputs": [],
      "name": "totalPoolValue",
      "outputs": [
        {
          "internalType": "uint256",
          "name": "",
          "type": "uint256"
        }
      ],
      "stateMutability": "view",
      "type": "function"
    },
    {
      "inputs": [
        {
          "internalType": "address",
          "name": "borrower",
          "type": "address"
        }
      ],
      "name": "triggerDefault",
      "outputs": [
        {
          "internalType": "uint256",
          "name": "losses",
          "type": "uint256"
        }
      ],
      "stateMutability": "nonpayable",
      "type": "function"
    },
    {
      "inputs": [],
      "name": "updateCoreData",
      "outputs": [],
      "stateMutability": "nonpayable",
      "type": "function"
    },
    {
      "inputs": [
        {
          "internalType": "uint256",
          "name": "amount",
          "type": "uint256"
        }
      ],
      "name": "withdraw",
      "outputs": [],
      "stateMutability": "nonpayable",
      "type": "function"
    },
    {
      "inputs": [],
      "name": "withdrawAll",
      "outputs": [],
      "stateMutability": "nonpayable",
      "type": "function"
    }
  ],
  "bytecode": "0x60806040523480156200001157600080fd5b50620000226200002860201b60201c565b620001d3565b600060019054906101000a900460ff16156200007b576040517f08c379a0000000000000000000000000000000000000000000000000000000008152600401620000729062000176565b60405180910390fd5b60ff801660008054906101000a900460ff1660ff161015620000ed5760ff6000806101000a81548160ff021916908360ff1602179055507f7f26b83ff96e1f2b6a682f133852f6798a09c465da95921460cefb384740249860ff604051620000e49190620001b6565b60405180910390a15b565b600082825260208201905092915050565b7f496e697469616c697a61626c653a20636f6e747261637420697320696e69746960008201527f616c697a696e6700000000000000000000000000000000000000000000000000602082015250565b60006200015e602783620000ef565b91506200016b8262000100565b604082019050919050565b6000602082019050818103600083015262000191816200014f565b9050919050565b600060ff82169050919050565b620001b08162000198565b82525050565b6000602082019050620001cd6000830184620001a5565b92915050565b61860480620001e36000396000f3fe608060405234801561001057600080fd5b50600436106102485760003560e01c80638a02775b1161013b578063b2fc259c116100b8578063db0140d31161007c578063db0140d3146106c0578063e287c70c146106f0578063f98cf07c1461070c578063fcc509761461073d578063ffb43a5f1461076d57610248565b8063b2fc259c14610646578063b40a344614610662578063b6b55f251461066c578063c189768514610688578063c4d66de8146106a457610248565b8063a079a4dd116100ff578063a079a4dd14610592578063a1725aaa146105ae578063a3e35f36146105ca578063a9038a7d146105fa578063ab0e3f5d1461062a57610248565b80638a02775b146105005780638acf37551461051e5780639695e1951461053a57806397a90662146105585780639842054c1461057457610248565b80634a0ea4d7116101c95780636bfad6521161018d5780636bfad6521461045e5780637ad53f4d1461047a57806381a4e310146104aa578063853828b6146104da578063893584d7146104e457610248565b80634a0ea4d7146103a55780634d9d5594146103d55780635b45f936146103f6578063673448dd146104125780636b568dad1461044257610248565b806315da81581161021057806315da8158146103295780631effb1061461034557806325216e921461034f5780632e1a7d4d146103595780634804693f1461037557610248565b80630147d6291461024d578063021fd03f1461027d578063025277531461029957806306f6dfda146102c9578063150b7a02146102f9575b600080fd5b61026760048036038101906102629190616f2f565b61079d565b6040516102749190616f77565b60405180910390f35b61029760048036038101906102929190616fc8565b610909565b005b6102b360048036038101906102ae9190616f2f565b61091d565b6040516102c0919061700e565b60405180910390f35b6102e360048036038101906102de9190616fc8565b610966565b6040516102f09190616f77565b60405180910390f35b610313600480360381019061030e91906170ba565b610a26565b604051610320919061717d565b60405180910390f35b610343600480360381019061033e9190617198565b610a3b565b005b61034d610a55565b005b610357610acd565b005b610373600480360381019061036e91906171eb565b610bc5565b005b61038f600480360381019061038a9190616fc8565b610fec565b60405161039c9190617227565b60405180910390f35b6103bf60048036038101906103ba9190616fc8565b611029565b6040516103cc9190616f77565b60405180910390f35b6103dd611053565b6040516103ed9493929190617242565b60405180910390f35b610410600480360381019061040b91906172b3565b6110f3565b005b61042c60048036038101906104279190616f2f565b6112dd565b6040516104399190616f77565b60405180910390f35b61045c600480360381019061045791906172f3565b61136d565b005b61047860048036038101906104739190616f2f565b611411565b005b610494600480360381019061048f9190616f2f565b6115da565b6040516104a191906173cd565b60405180910390f35b6104c460048036038101906104bf9190616f2f565b6116d1565b6040516104d19190616f77565b60405180910390f35b6104e2611727565b005b6104fe60048036038101906104f99190616f2f565b6117cd565b005b61050861187e565b604051610515919061700e565b60405180910390f35b610538600480360381019061053391906173e8565b611888565b005b6105426119e3565b60405161054f9190617227565b60405180910390f35b610572600480360381019061056d919061743b565b611a0d565b005b61057c611b42565b6040516105899190616f77565b60405180910390f35b6105ac60048036038101906105a791906171eb565b611b8f565b005b6105c860048036038101906105c3919061747b565b611bc1565b005b6105e460048036038101906105df9190616f2f565b611dbe565b6040516105f1919061766b565b60405180910390f35b610614600480360381019061060f9190616f2f565b611e7b565b60405161062191906176dc565b60405180910390f35b610644600480360381019061063f91906176f7565b611f90565b005b610660600480360381019061065b91906171eb565b61202d565b005b61066a6120c5565b005b610686600480360381019061068191906171eb565b6120d7565b005b6106a2600480360381019061069d9190616f2f565b6120ec565b005b6106be60048036038101906106b99190616f2f565b61219d565b005b6106da60048036038101906106d59190616f2f565b612371565b6040516106e79190616f77565b60405180910390f35b61070a6004803603810190610705919061743b565b6124c9565b005b6107266004803603810190610721919061743b565b6124e1565b6040516107349291906177ad565b60405180910390f35b61075760048036038101906107529190616f2f565b61253c565b604051610764919061766b565b60405180910390f35b61078760048036038101906107829190616f2f565b61271a565b604051610794919061700e565b60405180910390f35b600080606e60008473ffffffffffffffffffffffffffffffffffffffff1673ffffffffffffffffffffffffffffffffffffffff168152602001908152602001600020600001600e9054906101000a900461ffff169050600260009054906101000a900473ffffffffffffffffffffffffffffffffffffffff1673ffffffffffffffffffffffffffffffffffffffff16630b437b666040518163ffffffff1660e01b8152600401602060405180830381865afa158015610860573d6000803e3d6000fd5b505050506040513d601f19601f8201168201806040525081019061088491906177eb565b6201518082606d60008773ffffffffffffffffffffffffffffffffffffffff1673ffffffffffffffffffffffffffffffffffffffff16815260200190815260200160002060010160189054906101000a900461ffff166108e49190617847565b61ffff166108f29190617884565b116108fe576000610901565b60015b915050919050565b610911612964565b61091a81612a5b565b50565b6000600660008373ffffffffffffffffffffffffffffffffffffffff1673ffffffffffffffffffffffffffffffffffffffff168152602001908152602001600020549050919050565b60008060d660008481526020019081526020016000206040518060400160405290816000820160009054906101000a900473ffffffffffffffffffffffffffffffffffffffff1673ffffffffffffffffffffffffffffffffffffffff1673ffffffffffffffffffffffffffffffffffffffff1681526020016001820154815250509050600073ffffffffffffffffffffffffffffffffffffffff16816000015173ffffffffffffffffffffffffffffffffffffffff161415915050919050565b600063150b7a0260e01b905095945050505050565b610a43612964565b610a508383836001612ac1565b505050565b610a5d612c1c565b6000600760006101000a81548160ff02191690836001811115610a8357610a82617552565b5b02179055503373ffffffffffffffffffffffffffffffffffffffff167ff82ae9a5785e9b261d7e8bba20ced7516919ec7bdc4b18e7d916316f4991e53260405160405180910390a2565b610ad5612cf0565b600260009054906101000a900473ffffffffffffffffffffffffffffffffffffffff1673ffffffffffffffffffffffffffffffffffffffff16633087fbc66040518163ffffffff1660e01b815260040160006040518083038186803b158015610b3d57600080fd5b505afa158015610b51573d6000803e3d6000fd5b505050506001600760006101000a81548160ff02191690836001811115610b7b57610b7a617552565b5b02179055503373ffffffffffffffffffffffffffffffffffffffff167ff37bc7d2dc2b5bd3afd83f8325fd7f602d73391cc33915689bea4c61f81b12d960405160405180910390a2565b610bcd612d7d565b60008103610c07576040517f71799f2a00000000000000000000000000000000000000000000000000000000815260040160405180910390fd5b600260009054906101000a900473ffffffffffffffffffffffffffffffffffffffff1673ffffffffffffffffffffffffffffffffffffffff166310ee73f16040518163ffffffff1660e01b8152600401602060405180830381865afa158015610c74573d6000803e3d6000fd5b505050506040513d601f19601f82011682018060405250810190610c9891906177eb565b600660003373ffffffffffffffffffffffffffffffffffffffff1673ffffffffffffffffffffffffffffffffffffffff16815260200190815260200160002054610ce291906178c6565b421015610d1b576040517f6798247200000000000000000000000000000000000000000000000000000000815260040160405180910390fd5b6000600160009054906101000a900473ffffffffffffffffffffffffffffffffffffffff1673ffffffffffffffffffffffffffffffffffffffff1663443bb293336040518263ffffffff1660e01b8152600401610d789190617227565b602060405180830381865afa158015610d95573d6000803e3d6000fd5b505050506040513d601f19601f82011682018060405250810190610db991906177eb565b905080821115610df5576040517f477c0ab200000000000000000000000000000000000000000000000000000000815260040160405180910390fd5b600260009054906101000a900473ffffffffffffffffffffffffffffffffffffffff1673ffffffffffffffffffffffffffffffffffffffff1663deb791d4338484610e4091906178fa565b6040518363ffffffff1660e01b8152600401610e5d92919061792e565b60006040518083038186803b158015610e7557600080fd5b505afa158015610e89573d6000803e3d6000fd5b505050506000600160009054906101000a900473ffffffffffffffffffffffffffffffffffffffff1673ffffffffffffffffffffffffffffffffffffffff1663fb8bd26f33856040518363ffffffff1660e01b8152600401610eec92919061792e565b6020604051808303816000875af1158015610f0b573d6000803e3d6000fd5b505050506040513d601f19601f82011682018060405250810190610f2f91906177eb565b90508260056000828254610f4391906178fa565b92505081905550610f973384600060029054906101000a900473ffffffffffffffffffffffffffffffffffffffff1673ffffffffffffffffffffffffffffffffffffffff16612eb39092919063ffffffff16565b3373ffffffffffffffffffffffffffffffffffffffff167fb195a67e698c5700e4f48f7b7748dda3a206ee2767ef024b61a26d7b17b2d63a8483604051610fdf929190617957565b60405180910390a2505050565b600060d5600083815260200190815260200160002060009054906101000a900473ffffffffffffffffffffffffffffffffffffffff169050919050565b600060d4600083815260200190815260200160002060009054906101000a900460ff169050919050565b600080600080600060029054906101000a900473ffffffffffffffffffffffffffffffffffffffff169350600160009054906101000a900473ffffffffffffffffffffffffffffffffffffffff169250600360009054906101000a900473ffffffffffffffffffffffffffffffffffffffff169150600460009054906101000a900473ffffffffffffffffffffffffffffffffffffffff16905090919293565b600260009054906101000a900473ffffffffffffffffffffffffffffffffffffffff1673ffffffffffffffffffffffffffffffffffffffff1663d8217e48336040518263ffffffff1660e01b815260040161114e9190617227565b60006040518083038186803b15801561116657600080fd5b505afa15801561117a573d6000803e3d6000fd5b50505050600060d660008481526020019081526020016000206040518060400160405290816000820160009054906101000a900473ffffffffffffffffffffffffffffffffffffffff1673ffffffffffffffffffffffffffffffffffffffff1673ffffffffffffffffffffffffffffffffffffffff1681526020016001820154815250509050600073ffffffffffffffffffffffffffffffffffffffff16816000015173ffffffffffffffffffffffffffffffffffffffff160361126a576040517fd1696aaa00000000000000000000000000000000000000000000000000000000815260040160405180910390fd5b60d66000848152602001908152602001600020600080820160006101000a81549073ffffffffffffffffffffffffffffffffffffffff021916905560018201600090555050816112c2576112bd83612a5b565b6112d8565b6112d781600001518260200151856002612ac1565b5b505050565b6000600260058111156112f3576112f2617552565b5b606d60008473ffffffffffffffffffffffffffffffffffffffff1673ffffffffffffffffffffffffffffffffffffffff168152602001908152602001600020600101601c9054906101000a900460ff16600581111561135557611354617552565b5b106113635760019050611368565b600090505b919050565b61140c3384600260009054906101000a900473ffffffffffffffffffffffffffffffffffffffff1673ffffffffffffffffffffffffffffffffffffffff166399bf392c6040518163ffffffff1660e01b8152600401602060405180830381865afa1580156113df573d6000803e3d6000fd5b505050506040513d601f19601f8201168201806040525081019061140391906177eb565b85856000612f39565b505050565b611419612cf0565b6000600260009054906101000a900473ffffffffffffffffffffffffffffffffffffffff1690508073ffffffffffffffffffffffffffffffffffffffff168273ffffffffffffffffffffffffffffffffffffffff16036114a5576040517f0811ff0900000000000000000000000000000000000000000000000000000000815260040160405180910390fd5b6114af6000613336565b60008290508073ffffffffffffffffffffffffffffffffffffffff16636f52071c336040518263ffffffff1660e01b81526004016114ed9190617227565b60006040518083038186803b15801561150557600080fd5b505afa158015611519573d6000803e3d6000fd5b5050505080600260006101000a81548173ffffffffffffffffffffffffffffffffffffffff021916908373ffffffffffffffffffffffffffffffffffffffff1602179055506115877fffffffffffffffffffffffffffffffffffffffffffffffffffffffffffffffff613336565b3373ffffffffffffffffffffffffffffffffffffffff167f3b4ee357b2324b710644b79f0128178b3d3d4151d9886318feedad4d78aa8e5e846040516115cd9190617227565b60405180910390a2505050565b6115e2616da0565b60d360008373ffffffffffffffffffffffffffffffffffffffff1673ffffffffffffffffffffffffffffffffffffffff1681526020019081526020016000206040518060600160405290816000820160009054906101000a900473ffffffffffffffffffffffffffffffffffffffff1673ffffffffffffffffffffffffffffffffffffffff1673ffffffffffffffffffffffffffffffffffffffff1681526020016000820160149054906101000a90046bffffffffffffffffffffffff166bffffffffffffffffffffffff166bffffffffffffffffffffffff1681526020016001820154815250509050919050565b6000600860008373ffffffffffffffffffffffffffffffffffffffff1673ffffffffffffffffffffffffffffffffffffffff16815260200190815260200160002060009054906101000a900460ff169050919050565b6117cb600160009054906101000a900473ffffffffffffffffffffffffffffffffffffffff1673ffffffffffffffffffffffffffffffffffffffff1663443bb293336040518263ffffffff1660e01b81526004016117859190617227565b602060405180830381865afa1580156117a2573d6000803e3d6000fd5b505050506040513d601f19601f820116820180604052508101906117c691906177eb565b610bc5565b565b6117d5612c1c565b6001600860008373ffffffffffffffffffffffffffffffffffffffff1673ffffffffffffffffffffffffffffffffffffffff16815260200190815260200160002060006101000a81548160ff0219169083151502179055508073ffffffffffffffffffffffffffffffffffffffff167fa9f7067c5f9d50447dc3bcc7383e76a5823bc40ba532c95cb71ebc44468bd651336040516118739190617227565b60405180910390a250565b6000600554905090565b600033905060006118988261347d565b90506118a582828761365b565b600073ffffffffffffffffffffffffffffffffffffffff168473ffffffffffffffffffffffffffffffffffffffff160361190b576040517f5ff75ab000000000000000000000000000000000000000000000000000000000815260040160405180910390fd5b6002600581111561191f5761191e617552565b5b8160e00151600581111561193657611935617552565b5b1461196d576040517ffc91a98900000000000000000000000000000000000000000000000000000000815260040160405180910390fd5b611978828585613836565b6000611985838388613bb7565b90508273ffffffffffffffffffffffffffffffffffffffff167fefc1af15703d4f00dc2be0d5afb6cba6a7b80e8e63c4ae6bf208b180b47b3da6878388886040516119d39493929190617980565b60405180910390a2505050505050565b6000600260009054906101000a900473ffffffffffffffffffffffffffffffffffffffff16905090565b611a15614022565b611a228260006001614119565b5080606d60008473ffffffffffffffffffffffffffffffffffffffff1673ffffffffffffffffffffffffffffffffffffffff168152602001908152602001600020600101601a8282829054906101000a900461ffff16611a8291906179c5565b92506101000a81548161ffff021916908361ffff1602179055508173ffffffffffffffffffffffffffffffffffffffff167f4fe61c0e9f2d4693e20e44c7358b8b7cec72aa4c4d5fa81f3e1951e0b438cb7a82606d60008673ffffffffffffffffffffffffffffffffffffffff1673ffffffffffffffffffffffffffffffffffffffff168152602001908152602001600020600101601a9054906101000a900461ffff1633604051611b3693929190617a36565b60405180910390a25050565b6000600180811115611b5757611b56617552565b5b600760009054906101000a900460ff166001811115611b7957611b78617552565b5b03611b875760019050611b8c565b600090505b90565b6040517f7e73753700000000000000000000000000000000000000000000000000000000815260040160405180910390fd5b611bc9612d7d565b611bd1614022565b611bda8461460a565b6000611be5866146d7565b90508481600001906bffffffffffffffffffffffff1690816bffffffffffffffffffffffff168152505081816020019061ffff16908161ffff168152505083816040019061ffff16908161ffff168152505080606e60008873ffffffffffffffffffffffffffffffffffffffff1673ffffffffffffffffffffffffffffffffffffffff16815260200190815260200160002060008201518160000160006101000a8154816bffffffffffffffffffffffff02191690836bffffffffffffffffffffffff160217905550602082015181600001600c6101000a81548161ffff021916908361ffff160217905550604082015181600001600e6101000a81548161ffff021916908361ffff16021790555060608201518160000160106101000a8154816bffffffffffffffffffffffff02191690836bffffffffffffffffffffffff1602179055509050506000611d398761347d565b9050838160c0019061ffff16908161ffff1681525050611d6187611d5c836147ec565b61495b565b8673ffffffffffffffffffffffffffffffffffffffff167f41119754b92e2181887e9b7b87648b112076668a140bdf8515b36563e590fb3987878787604051611dad9493929190617a6d565b60405180910390a250505050505050565b611dc6616de5565b600580811115611dd957611dd8617552565b5b606d60008473ffffffffffffffffffffffffffffffffffffffff1673ffffffffffffffffffffffffffffffffffffffff168152602001908152602001600020600101601c9054906101000a900460ff166005811115611e3b57611e3a617552565b5b14611e7557611e498261079d565b15611e6157611e5a82600080614119565b9050611e76565b611e6e8260006001614119565b9050611e76565b5b919050565b611e83616e7b565b606e60008373ffffffffffffffffffffffffffffffffffffffff1673ffffffffffffffffffffffffffffffffffffffff1681526020019081526020016000206040518060800160405290816000820160009054906101000a90046bffffffffffffffffffffffff166bffffffffffffffffffffffff166bffffffffffffffffffffffff16815260200160008201600c9054906101000a900461ffff1661ffff1661ffff16815260200160008201600e9054906101000a900461ffff1661ffff1661ffff1681526020016000820160109054906101000a90046bffffffffffffffffffffffff166bffffffffffffffffffffffff166bffffffffffffffffffffffff16815250509050919050565b611f98614022565b611fa28782614b26565b600073ffffffffffffffffffffffffffffffffffffffff168373ffffffffffffffffffffffffffffffffffffffff1603612008576040517f5ff75ab000000000000000000000000000000000000000000000000000000000815260040160405180910390fd5b61201488848484614c0c565b61202388888689896001612f39565b5050505050505050565b600260009054906101000a900473ffffffffffffffffffffffffffffffffffffffff1673ffffffffffffffffffffffffffffffffffffffff1663c8fb307a336040518263ffffffff1660e01b81526004016120889190617227565b60006040518083038186803b1580156120a057600080fd5b505afa1580156120b4573d6000803e3d6000fd5b505050506120c23382614e3a565b50565b6120cd612cf0565b6120d56150f9565b565b6120df612d7d565b6120e93382614e3a565b50565b6120f4612c1c565b6000600860008373ffffffffffffffffffffffffffffffffffffffff1673ffffffffffffffffffffffffffffffffffffffff16815260200190815260200160002060006101000a81548160ff0219169083151502179055508073ffffffffffffffffffffffffffffffffffffffff167fd544c312f8b518478a8716753ecf56270e81e9f14b80aa1bd71ec2dfeac42055336040516121929190617227565b60405180910390a250565b60008060019054906101000a900460ff161590508080156121ce5750600160008054906101000a900460ff1660ff16105b806121fb57506121dd306152f6565b1580156121fa5750600160008054906101000a900460ff1660ff16145b5b61223a576040517f08c379a000000000000000000000000000000000000000000000000000000000815260040161223190617b35565b60405180910390fd5b60016000806101000a81548160ff021916908360ff1602179055508015612277576001600060016101000a81548160ff0219169083151502179055505b81600260006101000a81548173ffffffffffffffffffffffffffffffffffffffff021916908373ffffffffffffffffffffffffffffffffffffffff1602179055506122c06150f9565b6122e97fffffffffffffffffffffffffffffffffffffffffffffffffffffffffffffffff613336565b6000600760006101000a81548160ff0219169083600181111561230f5761230e617552565b5b0217905550801561236d5760008060016101000a81548160ff0219169083151502179055507f7f26b83ff96e1f2b6a682f133852f6798a09c465da95921460cefb384740249860016040516123649190617b9d565b60405180910390a15b5050565b60006002600581111561238757612386617552565b5b606d60008473ffffffffffffffffffffffffffffffffffffffff1673ffffffffffffffffffffffffffffffffffffffff168152602001908152602001600020600101601c9054906101000a900460ff1660058111156123e9576123e8617552565b5b1180156124b457506000606d60008473ffffffffffffffffffffffffffffffffffffffff1673ffffffffffffffffffffffffffffffffffffffff16815260200190815260200160002060010160189054906101000a900461ffff1661ffff1611806124b35750606d60008373ffffffffffffffffffffffffffffffffffffffff1673ffffffffffffffffffffffffffffffffffffffff168152602001908152602001600020600001600c9054906101000a900467ffffffffffffffff1667ffffffffffffffff1642115b5b6124bf5760006124c2565b60015b9050919050565b6124d38282615319565b6124dd828261542e565b5050565b6000808373ffffffffffffffffffffffffffffffffffffffff163373ffffffffffffffffffffffffffffffffffffffff16146125205761251f612964565b5b61252c84846000615826565b5080925081935050509250929050565b612544616de5565b606d60008373ffffffffffffffffffffffffffffffffffffffff1673ffffffffffffffffffffffffffffffffffffffff168152602001908152602001600020604051806101000160405290816000820160009054906101000a90046bffffffffffffffffffffffff166bffffffffffffffffffffffff166bffffffffffffffffffffffff16815260200160008201600c9054906101000a900467ffffffffffffffff1667ffffffffffffffff1667ffffffffffffffff1681526020016000820160149054906101000a9004600b0b600b0b600b0b81526020016001820160009054906101000a90046bffffffffffffffffffffffff166bffffffffffffffffffffffff166bffffffffffffffffffffffff16815260200160018201600c9054906101000a90046bffffffffffffffffffffffff166bffffffffffffffffffffffff166bffffffffffffffffffffffff1681526020016001820160189054906101000a900461ffff1661ffff1661ffff16815260200160018201601a9054906101000a900461ffff1661ffff1661ffff16815260200160018201601c9054906101000a900460ff1660058111156126fd576126fc617552565b5b600581111561270f5761270e617552565b5b815250509050919050565b6000612724612d7d565b600061272f8361347d565b905060058081111561274457612743617552565b5b8160e00151600581111561275b5761275a617552565b5b03612792576040517feb8d2ccc00000000000000000000000000000000000000000000000000000000815260040160405180910390fd5b806020015167ffffffffffffffff164211156127b7576127b483600080614119565b90505b6127c08361079d565b6127f6576040517f7872424e00000000000000000000000000000000000000000000000000000000815260040160405180910390fd5b80608001518160600151826000015161280f9190617bb8565b6128199190617bf8565b6bffffffffffffffffffffffff1691506005606d60008573ffffffffffffffffffffffffffffffffffffffff1673ffffffffffffffffffffffffffffffffffffffff168152602001908152602001600020600101601c6101000a81548160ff0219169083600581111561288f5761288e617552565b5b021790555081606e60008573ffffffffffffffffffffffffffffffffffffffff1673ffffffffffffffffffffffffffffffffffffffff16815260200190815260200160002060000160106101000a8154816bffffffffffffffffffffffff02191690836bffffffffffffffffffffffff16021790555061290e826161e0565b8273ffffffffffffffffffffffffffffffffffffffff167f8e44ab46e168f7dd30b75bdf0f2d076c150375c131cba238ec348865e9f4d8b08333604051612956929190617c38565b60405180910390a250919050565b600360009054906101000a900473ffffffffffffffffffffffffffffffffffffffff1673ffffffffffffffffffffffffffffffffffffffff166397e537876040518163ffffffff1660e01b8152600401602060405180830381865afa1580156129d1573d6000803e3d6000fd5b505050506040513d601f19601f820116820180604052508101906129f59190617c76565b73ffffffffffffffffffffffffffffffffffffffff163373ffffffffffffffffffffffffffffffffffffffff1614612a59576040517f731b978f00000000000000000000000000000000000000000000000000000000815260040160405180910390fd5b565b600160d4600083815260200190815260200160002060006101000a81548160ff0219169083151502179055507f6a9acb03f2a4f5d762bd6059c47f29908bc5bccede200d331de6e3281e9ce40a81604051612ab69190617cb2565b60405180910390a150565b612ac9612d7d565b60d4600083815260200190815260200160002060009054906101000a900460ff1615612b21576040517ffd6754cf00000000000000000000000000000000000000000000000000000000815260040160405180910390fd5b6000806000612b31878786615826565b92509250925080612c0757600160d4600087815260200190815260200160002060006101000a81548160ff02191690831515021790555082861115612b8657612b85878488612b8091906178fa565b61624f565b5b8115612b9b57612b9a876000806000614c0c565b5b8673ffffffffffffffffffffffffffffffffffffffff163373ffffffffffffffffffffffffffffffffffffffff167fed44f95a94b2e3cf217c84deed062e2b574346e1d71ffc03a07b2cac406a93f58888604051612bfa929190617ccd565b60405180910390a3612c13565b612c128588886162ee565b5b50505050505050565b600260009054906101000a900473ffffffffffffffffffffffffffffffffffffffff1673ffffffffffffffffffffffffffffffffffffffff16636d70f7ae336040518263ffffffff1660e01b8152600401612c779190617227565b602060405180830381865afa158015612c94573d6000803e3d6000fd5b505050506040513d601f19601f82011682018060405250810190612cb89190617d0b565b612cee576040517fdc2dc6d000000000000000000000000000000000000000000000000000000000815260040160405180910390fd5b565b600260009054906101000a900473ffffffffffffffffffffffffffffffffffffffff1673ffffffffffffffffffffffffffffffffffffffff16636f52071c336040518263ffffffff1660e01b8152600401612d4b9190617227565b60006040518083038186803b158015612d6357600080fd5b505afa158015612d77573d6000803e3d6000fd5b50505050565b600360009054906101000a900473ffffffffffffffffffffffffffffffffffffffff1673ffffffffffffffffffffffffffffffffffffffff16635c975abb6040518163ffffffff1660e01b8152600401602060405180830381865afa158015612dea573d6000803e3d6000fd5b505050506040513d601f19601f82011682018060405250810190612e0e9190617d0b565b15612e45576040517f8f6fa2d400000000000000000000000000000000000000000000000000000000815260040160405180910390fd5b600180811115612e5857612e57617552565b5b600760009054906101000a900460ff166001811115612e7a57612e79617552565b5b14612eb1576040517f69b355df00000000000000000000000000000000000000000000000000000000815260040160405180910390fd5b565b612f348363a9059cbb60e01b8484604051602401612ed292919061792e565b604051602081830303815290604052907bffffffffffffffffffffffffffffffffffffffffffffffffffffffff19166020820180517bffffffffffffffffffffffffffffffffffffffffffffffffffffffff83818316178352505050506163d4565b505050565b60008203612f73576040517fb16dd34d00000000000000000000000000000000000000000000000000000000815260040160405180910390fd5b612f7b612d7d565b6000612f868761347d565b905060006005811115612f9c57612f9b617552565b5b8160e001516005811115612fb357612fb2617552565b5b146130cf57612fc58760006001614119565b9050600081606001516bffffffffffffffffffffffff16148015612ffb5750600081600001516bffffffffffffffffffffffff16145b1561309c5760008160e00190600581111561301957613018617552565b5b9081600581111561302d5761302c617552565b5b8152505060008160c0019061ffff16908161ffff16815250508673ffffffffffffffffffffffffffffffffffffffff167fce0bab896b3cb48841a0bae00ecb73380a851414117c4faa23b090f0246f328c33600260405161308f929190617d80565b60405180910390a26130ce565b6040517f6c5805f200000000000000000000000000000000000000000000000000000000815260040160405180910390fd5b5b6130d88661460a565b6040518060800160405280876bffffffffffffffffffffffff1681526020018661ffff1681526020018561ffff16815260200160006bffffffffffffffffffffffff16815250606e60008973ffffffffffffffffffffffffffffffffffffffff1673ffffffffffffffffffffffffffffffffffffffff16815260200190815260200160002060008201518160000160006101000a8154816bffffffffffffffffffffffff02191690836bffffffffffffffffffffffff160217905550602082015181600001600c6101000a81548161ffff021916908361ffff160217905550604082015181600001600e6101000a81548161ffff021916908361ffff16021790555060608201518160000160106101000a8154816bffffffffffffffffffffffff02191690836bffffffffffffffffffffffff16021790555090505061321c616de5565b838160c0019061ffff16908161ffff1681525050821561329a5761323f816147ec565b90508773ffffffffffffffffffffffffffffffffffffffff167f41119754b92e2181887e9b7b87648b112076668a140bdf8515b36563e590fb398887878a60405161328d9493929190617a6d565b60405180910390a26132cc565b60018160e0019060058111156132b3576132b2617552565b5b908160058111156132c7576132c6617552565b5b815250505b6132d6888261495b565b8773ffffffffffffffffffffffffffffffffffffffff167f606a044ecfd598a9ecc0b6e6b499b23d94fb45ce11b84a09831148622de88fdf8888888888604051613324959493929190617da9565b60405180910390a25050505050505050565b6000600260009054906101000a900473ffffffffffffffffffffffffffffffffffffffff16905060008060029054906101000a900473ffffffffffffffffffffffffffffffffffffffff1673ffffffffffffffffffffffffffffffffffffffff1663dd62ed3e30846040518363ffffffff1660e01b81526004016133bb929190617dfc565b602060405180830381865afa1580156133d8573d6000803e3d6000fd5b505050506040513d601f19601f820116820180604052508101906133fc91906177eb565b905060008314801561340e5750600081115b8061342557506000831180156134245750600081145b5b15613478576134778284600060029054906101000a900473ffffffffffffffffffffffffffffffffffffffff1673ffffffffffffffffffffffffffffffffffffffff1661649b9092919063ffffffff16565b5b505050565b613485616de5565b606d60008373ffffffffffffffffffffffffffffffffffffffff1673ffffffffffffffffffffffffffffffffffffffff168152602001908152602001600020604051806101000160405290816000820160009054906101000a90046bffffffffffffffffffffffff166bffffffffffffffffffffffff166bffffffffffffffffffffffff16815260200160008201600c9054906101000a900467ffffffffffffffff1667ffffffffffffffff1667ffffffffffffffff1681526020016000820160149054906101000a9004600b0b600b0b600b0b81526020016001820160009054906101000a90046bffffffffffffffffffffffff166bffffffffffffffffffffffff166bffffffffffffffffffffffff16815260200160018201600c9054906101000a90046bffffffffffffffffffffffff166bffffffffffffffffffffffff166bffffffffffffffffffffffff1681526020016001820160189054906101000a900461ffff1661ffff1661ffff16815260200160018201601a9054906101000a900461ffff1661ffff1661ffff16815260200160018201601c9054906101000a900460ff16600581111561363e5761363d617552565b5b60058111156136505761364f617552565b5b815250509050919050565b613663612d7d565b6003600581111561367757613676617552565b5b8260e00151600581111561368e5761368d617552565b5b141580156136c55750600260058111156136ab576136aa617552565b5b8260e0015160058111156136c2576136c1617552565b5b14155b156136fc576040517f4ff95a6d00000000000000000000000000000000000000000000000000000000815260040160405180910390fd5b600260058111156137105761370f617552565b5b8260e00151600581111561372757613726617552565b5b03613831576000826020015167ffffffffffffffff161180156137575750816020015167ffffffffffffffff1642115b1561378e576040517f9fac739000000000000000000000000000000000000000000000000000000000815260040160405180910390fd5b606e60008473ffffffffffffffffffffffffffffffffffffffff1673ffffffffffffffffffffffffffffffffffffffff16815260200190815260200160002060000160009054906101000a90046bffffffffffffffffffffffff166bffffffffffffffffffffffff16811115613830576040517fef7d66ff00000000000000000000000000000000000000000000000000000000815260040160405180910390fd5b5b505050565b600060d360008573ffffffffffffffffffffffffffffffffffffffff1673ffffffffffffffffffffffffffffffffffffffff1681526020019081526020016000206040518060600160405290816000820160009054906101000a900473ffffffffffffffffffffffffffffffffffffffff1673ffffffffffffffffffffffffffffffffffffffff1673ffffffffffffffffffffffffffffffffffffffff1681526020016000820160149054906101000a90046bffffffffffffffffffffffff166bffffffffffffffffffffffff166bffffffffffffffffffffffff1681526020016001820154815250509050600073ffffffffffffffffffffffffffffffffffffffff16816000015173ffffffffffffffffffffffffffffffffffffffff160361396357613962617e25565b5b806000015173ffffffffffffffffffffffffffffffffffffffff168373ffffffffffffffffffffffffffffffffffffffff16146139cc576040517f41dbeec100000000000000000000000000000000000000000000000000000000815260040160405180910390fd5b613a157f80ac58cd000000000000000000000000000000000000000000000000000000008473ffffffffffffffffffffffffffffffffffffffff166165ea90919063ffffffff16565b15613b45578360d560008585604051602001613a3292919061792e565b60405160208183030381529060405280519060200120815260200190815260200160002060006101000a81548173ffffffffffffffffffffffffffffffffffffffff021916908373ffffffffffffffffffffffffffffffffffffffff16021790555081816040015114613ad1576040517f1400a0b400000000000000000000000000000000000000000000000000000000815260040160405180910390fd5b8273ffffffffffffffffffffffffffffffffffffffff166342842e0e8530856040518463ffffffff1660e01b8152600401613b0e93929190617e54565b600060405180830381600087803b158015613b2857600080fd5b505af1158015613b3c573d6000803e3d6000fd5b50505050613bb1565b8060400151821015613b83576040517ff7f3485400000000000000000000000000000000000000000000000000000000815260040160405180910390fd5b613bb08430848673ffffffffffffffffffffffffffffffffffffffff1661660f909392919063ffffffff16565b5b50505050565b600060026005811115613bcd57613bcc617552565b5b8360e001516005811115613be457613be3617552565b5b03613c9e5781606d60008673ffffffffffffffffffffffffffffffffffffffff1673ffffffffffffffffffffffffffffffffffffffff16815260200190815260200160002060000160006101000a8154816bffffffffffffffffffffffff02191690836bffffffffffffffffffffffff160217905550613c6684600180614119565b925060038360e001906005811115613c8157613c80617552565b5b90816005811115613c9557613c94617552565b5b81525050613f0a565b826020015167ffffffffffffffff16421115613d2657613cc18460006001614119565b925060036005811115613cd757613cd6617552565b5b8360e001516005811115613cee57613ced617552565b5b14613d25576040517f96e7947400000000000000000000000000000000000000000000000000000000815260040160405180910390fd5b5b82608001518360600151613d3a9190617bf8565b8360000151606e60008773ffffffffffffffffffffffffffffffffffffffff1673ffffffffffffffffffffffffffffffffffffffff16815260200190815260200160002060000160009054906101000a90046bffffffffffffffffffffffff16613da49190617bf8565b613dae9190617bf8565b6bffffffffffffffffffffffff16821115613df5576040517fef7d66ff00000000000000000000000000000000000000000000000000000000815260040160405180910390fd5b60008360c0015161ffff1603613e37576040517fa52f3c3f00000000000000000000000000000000000000000000000000000000815260040160405180910390fd5b613ea4836020015167ffffffffffffffff16606e60008773ffffffffffffffffffffffffffffffffffffffff1673ffffffffffffffffffffffffffffffffffffffff168152602001908152602001600020600001600c9054906101000a900461ffff1661ffff1684616698565b83604001818151613eb59190617e8b565b915090600b0b9081600b0b815250508183600001516bffffffffffffffffffffffff16613ee291906178c6565b83600001906bffffffffffffffffffffffff1690816bffffffffffffffffffffffff16815250505b613f14848461495b565b600080600460009054906101000a900473ffffffffffffffffffffffffffffffffffffffff1673ffffffffffffffffffffffffffffffffffffffff16632a56916b856040518263ffffffff1660e01b8152600401613f72919061700e565b6040805180830381865afa158015613f8e573d6000803e3d6000fd5b505050506040513d601f19601f82011682018060405250810190613fb29190617eef565b915091506000811115613fc957613fc881616743565b5b6140168683600060029054906101000a900473ffffffffffffffffffffffffffffffffffffffff1673ffffffffffffffffffffffffffffffffffffffff16612eb39092919063ffffffff16565b81925050509392505050565b600360009054906101000a900473ffffffffffffffffffffffffffffffffffffffff1673ffffffffffffffffffffffffffffffffffffffff1663848b2b056040518163ffffffff1660e01b8152600401602060405180830381865afa15801561408f573d6000803e3d6000fd5b505050506040513d601f19601f820116820180604052508101906140b39190617c76565b73ffffffffffffffffffffffffffffffffffffffff163373ffffffffffffffffffffffffffffffffffffffff1614614117576040517f9b3b1ed600000000000000000000000000000000000000000000000000000000815260040160405180910390fd5b565b614121616de5565b61412a8461347d565b90508215614154576000816020019067ffffffffffffffff16908167ffffffffffffffff16815250505b60008082606001516bffffffffffffffffffffffff1611614176576000614179565b60015b9050600080600460009054906101000a900473ffffffffffffffffffffffffffffffffffffffff1673ffffffffffffffffffffffffffffffffffffffff1663b00db01d856141c68a6146d7565b6040518363ffffffff1660e01b81526004016141e3929190617f2f565b60a060405180830381865afa158015614200573d6000803e3d6000fd5b505050506040513d601f19601f820116820180604052508101906142249190617fb2565b88608001896060018a600001839850846bffffffffffffffffffffffff166bffffffffffffffffffffffff16815250846bffffffffffffffffffffffff166bffffffffffffffffffffffff16815250846bffffffffffffffffffffffff166bffffffffffffffffffffffff16815250849650505050505060008211156146005760008460400190600b0b9081600b0b815250506005808111156142ca576142c9617552565b5b8460e0015160058111156142e1576142e0617552565b5b1461435857846142fe578360800151816142fb919061802d565b90505b600081600b0b131561432657614321816bffffffffffffffffffffffff16616743565b614357565b600081600b0b121561435657614355816000614342919061802d565b6bffffffffffffffffffffffff16616802565b5b5b5b6000606e60008973ffffffffffffffffffffffffffffffffffffffff1673ffffffffffffffffffffffffffffffffffffffff168152602001908152602001600020600001600e9054906101000a900461ffff1690506000856020015167ffffffffffffffff16111561441f57620151808161ffff16846143d89190617884565b6143e29190617884565b856020015167ffffffffffffffff166143fb91906178c6565b856020019067ffffffffffffffff16908167ffffffffffffffff168152505061445d565b620151808161ffff166144329190617884565b4261443d91906178c6565b856020019067ffffffffffffffff16908167ffffffffffffffff16815250505b828560c0015161ffff16111561449957828560c0015161ffff1661448191906178fa565b8560c0019061ffff16908161ffff16815250506144af565b60008560c0019061ffff16908161ffff16815250505b83156144e157828560a0015161ffff166144c991906178c6565b8560a0019061ffff16908161ffff16815250506144f7565b60008560a0019061ffff16908161ffff16815250505b60008560a0015161ffff16111561456e5760058081111561451b5761451a617552565b5b8560e00151600581111561453257614531617552565b5b146145695760048560e0019060058111156145505761454f617552565b5b9081600581111561456457614563617552565b5b815250505b6145a0565b60038560e00190600581111561458757614586617552565b5b9081600581111561459b5761459a617552565b5b815250505b6145aa888661495b565b8773ffffffffffffffffffffffffffffffffffffffff167f5e06f3c1aadf157a3c3e16d2173f927b27c3c13e2864f97b8ac93f748388556e8660200151336040516145f69291906180c2565b60405180910390a2505b5050509392505050565b600260009054906101000a900473ffffffffffffffffffffffffffffffffffffffff1673ffffffffffffffffffffffffffffffffffffffff1663fe2a4ec96040518163ffffffff1660e01b8152600401602060405180830381865afa158015614677573d6000803e3d6000fd5b505050506040513d601f19601f8201168201806040525081019061469b91906177eb565b8111156146d4576040517f8a754ae800000000000000000000000000000000000000000000000000000000815260040160405180910390fd5b50565b6146df616e7b565b606e60008373ffffffffffffffffffffffffffffffffffffffff1673ffffffffffffffffffffffffffffffffffffffff1681526020019081526020016000206040518060800160405290816000820160009054906101000a90046bffffffffffffffffffffffff166bffffffffffffffffffffffff166bffffffffffffffffffffffff16815260200160008201600c9054906101000a900461ffff1661ffff1661ffff16815260200160008201600e9054906101000a900461ffff1661ffff1661ffff1681526020016000820160109054906101000a90046bffffffffffffffffffffffff166bffffffffffffffffffffffff166bffffffffffffffffffffffff16815250509050919050565b6147f4616de5565b6002600581111561480857614807617552565b5b8260e00151600581111561481f5761481e617552565b5b1115614857576040517fc64e338c00000000000000000000000000000000000000000000000000000000815260040160405180910390fd5b6000600260009054906101000a900473ffffffffffffffffffffffffffffffffffffffff1673ffffffffffffffffffffffffffffffffffffffff166318d170c46040518163ffffffff1660e01b8152600401602060405180830381865afa1580156148c6573d6000803e3d6000fd5b505050506040513d601f19601f820116820180604052508101906148ea91906177eb565b9050600081111561492157804261490191906178c6565b836020019067ffffffffffffffff16908167ffffffffffffffff16815250505b60028360e00190600581111561493a57614939617552565b5b9081600581111561494e5761494d617552565b5b8152505082915050919050565b80606d60008473ffffffffffffffffffffffffffffffffffffffff1673ffffffffffffffffffffffffffffffffffffffff16815260200190815260200160002060008201518160000160006101000a8154816bffffffffffffffffffffffff02191690836bffffffffffffffffffffffff160217905550602082015181600001600c6101000a81548167ffffffffffffffff021916908367ffffffffffffffff16021790555060408201518160000160146101000a8154816bffffffffffffffffffffffff0219169083600b0b6bffffffffffffffffffffffff16021790555060608201518160010160006101000a8154816bffffffffffffffffffffffff02191690836bffffffffffffffffffffffff160217905550608082015181600101600c6101000a8154816bffffffffffffffffffffffff02191690836bffffffffffffffffffffffff16021790555060a08201518160010160186101000a81548161ffff021916908361ffff16021790555060c082015181600101601a6101000a81548161ffff021916908361ffff16021790555060e082015181600101601c6101000a81548160ff02191690836005811115614b1a57614b19617552565b5b02179055509050505050565b612710600260009054906101000a900473ffffffffffffffffffffffffffffffffffffffff1673ffffffffffffffffffffffffffffffffffffffff1663a55238986040518163ffffffff1660e01b8152600401602060405180830381865afa158015614b96573d6000803e3d6000fd5b505050506040513d601f19601f82011682018060405250810190614bba91906177eb565b83614bc59190617884565b614bcf919061811a565b811015614c08576040517ff7f3485400000000000000000000000000000000000000000000000000000000815260040160405180910390fd5b5050565b600073ffffffffffffffffffffffffffffffffffffffff168373ffffffffffffffffffffffffffffffffffffffff1614158015614c8f5750614c8d7f80ac58cd000000000000000000000000000000000000000000000000000000008473ffffffffffffffffffffffffffffffffffffffff166165ea90919063ffffffff16565b155b8015614ce15750614cdf7f36372b07000000000000000000000000000000000000000000000000000000008473ffffffffffffffffffffffffffffffffffffffff166165ea90919063ffffffff16565b155b15614d18576040517fe60c383e00000000000000000000000000000000000000000000000000000000815260040160405180910390fd5b600060405180606001604052808573ffffffffffffffffffffffffffffffffffffffff168152602001836affffffffffffffffffffff166bffffffffffffffffffffffff1681526020018481525090508060d360008773ffffffffffffffffffffffffffffffffffffffff1673ffffffffffffffffffffffffffffffffffffffff16815260200190815260200160002060008201518160000160006101000a81548173ffffffffffffffffffffffffffffffffffffffff021916908373ffffffffffffffffffffffffffffffffffffffff16021790555060208201518160000160146101000a8154816bffffffffffffffffffffffff02191690836bffffffffffffffffffffffff160217905550604082015181600101559050505050505050565b60008103614e74576040517f71799f2a00000000000000000000000000000000000000000000000000000000815260040160405180910390fd5b614e7d826168d9565b600260009054906101000a900473ffffffffffffffffffffffffffffffffffffffff1673ffffffffffffffffffffffffffffffffffffffff1663b4583a926040518163ffffffff1660e01b8152600401602060405180830381865afa158015614eea573d6000803e3d6000fd5b505050506040513d601f19601f82011682018060405250810190614f0e91906177eb565b81600554614f1c91906178c6565b1115614f54576040517f5642ebd400000000000000000000000000000000000000000000000000000000815260040160405180910390fd5b6000600160009054906101000a900473ffffffffffffffffffffffffffffffffffffffff1673ffffffffffffffffffffffffffffffffffffffff16630e583dd284846040518363ffffffff1660e01b8152600401614fb392919061792e565b6020604051808303816000875af1158015614fd2573d6000803e3d6000fd5b505050506040513d601f19601f82011682018060405250810190614ff691906177eb565b905042600660008573ffffffffffffffffffffffffffffffffffffffff1673ffffffffffffffffffffffffffffffffffffffff16815260200190815260200160002081905550816005600082825461504e91906178c6565b925050819055506150a4833084600060029054906101000a900473ffffffffffffffffffffffffffffffffffffffff1673ffffffffffffffffffffffffffffffffffffffff1661660f909392919063ffffffff16565b8273ffffffffffffffffffffffffffffffffffffffff167fb7cd4486a08dcd2bf7da217a07d1069da69db8ffb3518c7014d6e6d4d973a55283836040516150ec929190617957565b60405180910390a2505050565b600080600080600260009054906101000a900473ffffffffffffffffffffffffffffffffffffffff1673ffffffffffffffffffffffffffffffffffffffff16634d9d55946040518163ffffffff1660e01b8152600401608060405180830381865afa15801561516c573d6000803e3d6000fd5b505050506040513d601f19601f82011682018060405250810190615190919061814b565b935093509350935083600060026101000a81548173ffffffffffffffffffffffffffffffffffffffff021916908373ffffffffffffffffffffffffffffffffffffffff16021790555082600160006101000a81548173ffffffffffffffffffffffffffffffffffffffff021916908373ffffffffffffffffffffffffffffffffffffffff16021790555081600360006101000a81548173ffffffffffffffffffffffffffffffffffffffff021916908373ffffffffffffffffffffffffffffffffffffffff16021790555080600460006101000a81548173ffffffffffffffffffffffffffffffffffffffff021916908373ffffffffffffffffffffffffffffffffffffffff1602179055503373ffffffffffffffffffffffffffffffffffffffff167fcf5694ba4d292446cb12f93b0c317c6f3d28a9a7b37c43aa354bc95cfa9e5ac8858585856040516152e89493929190617242565b60405180910390a250505050565b6000808273ffffffffffffffffffffffffffffffffffffffff163b119050919050565b600073ffffffffffffffffffffffffffffffffffffffff1660d360008473ffffffffffffffffffffffffffffffffffffffff1673ffffffffffffffffffffffffffffffffffffffff16815260200190815260200160002060000160009054906101000a900473ffffffffffffffffffffffffffffffffffffffff1673ffffffffffffffffffffffffffffffffffffffff16036153b8576153b7617e25565b5b61542a8160d360008573ffffffffffffffffffffffffffffffffffffffff1673ffffffffffffffffffffffffffffffffffffffff16815260200190815260200160002060000160149054906101000a90046bffffffffffffffffffffffff166bffffffffffffffffffffffff16614b26565b5050565b615436612d7d565b61543f8161460a565b6000606e60008473ffffffffffffffffffffffffffffffffffffffff1673ffffffffffffffffffffffffffffffffffffffff16815260200190815260200160002060000160009054906101000a90046bffffffffffffffffffffffff166bffffffffffffffffffffffff169050808211156154c1576154bc614022565b6155f1565b8273ffffffffffffffffffffffffffffffffffffffff163373ffffffffffffffffffffffffffffffffffffffff16141580156155b95750600360009054906101000a900473ffffffffffffffffffffffffffffffffffffffff1673ffffffffffffffffffffffffffffffffffffffff1663848b2b056040518163ffffffff1660e01b8152600401602060405180830381865afa158015615565573d6000803e3d6000fd5b505050506040513d601f19601f820116820180604052508101906155899190617c76565b73ffffffffffffffffffffffffffffffffffffffff163373ffffffffffffffffffffffffffffffffffffffff1614155b156155f0576040517fd61dbe3100000000000000000000000000000000000000000000000000000000815260040160405180910390fd5b5b81606e60008573ffffffffffffffffffffffffffffffffffffffff1673ffffffffffffffffffffffffffffffffffffffff16815260200190815260200160002060000160006101000a8154816bffffffffffffffffffffffff02191690836bffffffffffffffffffffffff160217905550600082036157d15760006156798460006001614119565b9050600081606001516bffffffffffffffffffffffff161480156156af5750600081600001516bffffffffffffffffffffffff16145b15615771576000606d60008673ffffffffffffffffffffffffffffffffffffffff1673ffffffffffffffffffffffffffffffffffffffff168152602001908152602001600020600101601c6101000a81548160ff0219169083600581111561571a57615719617552565b5b02179055508373ffffffffffffffffffffffffffffffffffffffff167fce0bab896b3cb48841a0bae00ecb73380a851414117c4faa23b090f0246f328c336001604051615768929190617d80565b60405180910390a25b6000606d60008673ffffffffffffffffffffffffffffffffffffffff1673ffffffffffffffffffffffffffffffffffffffff168152602001908152602001600020600101601a6101000a81548161ffff021916908361ffff160217905550505b8273ffffffffffffffffffffffffffffffffffffffff167f628a521503c1fd7f83a1ffec5997c50e662e9e191be5168ade43b20a70b3344a8284604051615819929190617957565b60405180910390a2505050565b6000806000615833612d7d565b6000850361586d576040517f71799f2a00000000000000000000000000000000000000000000000000000000815260040160405180910390fd5b60006158788761347d565b90506001600581111561588e5761588d617552565b5b8160e0015160058111156158a5576158a4617552565b5b14806158d95750600260058111156158c0576158bf617552565b5b8160e0015160058111156158d7576158d6617552565b5b145b8061590c5750600060058111156158f3576158f2617552565b5b8160e00151600581111561590a57615909617552565b5b145b156159ad576000600281111561592557615924617552565b5b85600281111561593857615937617552565b5b0361596f576040517ff023e48b00000000000000000000000000000000000000000000000000000000815260040160405180910390fd5b6001600281111561598357615982617552565b5b85600281111561599657615995617552565b5b036159ac576000806001935093509350506161d7565b5b806020015167ffffffffffffffff164211156159d3576159d08760006001614119565b90505b6000615a72826020015167ffffffffffffffff16606e60008b73ffffffffffffffffffffffffffffffffffffffff1673ffffffffffffffffffffffffffffffffffffffff168152602001908152602001600020600001600c9054906101000a900461ffff1661ffff16846080015185606001518660000151615a559190617bb8565b615a5f9190617bf8565b6bffffffffffffffffffffffff16616698565b90506000818360400151600b0b84600001518560600151615a939190617bb8565b600b0b615aa091906181bc565b615aaa91906178fa565b905060016002811115615ac057615abf617552565b5b876002811115615ad357615ad2617552565b5b03615b2f57806005615ae59190617884565b881115615b2e57615af5896146d7565b600001516bffffffffffffffffffffffff166005615b139190617884565b881115615b2d5760008060019550955095505050506161d7565b5b5b60008060009050828a1015615e695784606001516bffffffffffffffffffffffff168a1015615c52578991508985606001516bffffffffffffffffffffffff16615b7991906178fa565b85606001906bffffffffffffffffffffffff1690816bffffffffffffffffffffffff168152505084608001516bffffffffffffffffffffffff168a11615c03578985608001516bffffffffffffffffffffffff16615bd791906178fa565b85608001906bffffffffffffffffffffffff1690816bffffffffffffffffffffffff1681525050615c4d565b84608001516bffffffffffffffffffffffff168a615c2191906178fa565b9050600085608001906bffffffffffffffffffffffff1690816bffffffffffffffffffffffff16815250505b615d93565b89915084606001516bffffffffffffffffffffffff168a615c7391906178fa565b85600001818151615c849190617bf8565b9150906bffffffffffffffffffffffff1690816bffffffffffffffffffffffff168152505084608001516bffffffffffffffffffffffff168a615cc791906178fa565b9050600085606001906bffffffffffffffffffffffff1690816bffffffffffffffffffffffff1681525050600085608001906bffffffffffffffffffffffff1690816bffffffffffffffffffffffff168152505060008560a0019061ffff16908161ffff168152505060046005811115615d4457615d43617552565b5b8560e001516005811115615d5b57615d5a617552565b5b03615d925760038560e001906005811115615d7957615d78617552565b5b90816005811115615d8d57615d8c617552565b5b815250505b5b6000811115615e2a57615e09856020015167ffffffffffffffff16606e60008e73ffffffffffffffffffffffffffffffffffffffff1673ffffffffffffffffffffffffffffffffffffffff168152602001908152602001600020600001600c9054906101000a900461ffff1661ffff1683616698565b85604001818151615e1a919061802d565b915090600b0b9081600b0b815250505b600580811115615e3d57615e3c617552565b5b8560e001516005811115615e5457615e53617552565b5b03615e6457615e638b8361695f565b5b6160d5565b846080015185606001518660000151615e829190617bb8565b615e8c9190617bf8565b6bffffffffffffffffffffffff169050829150600580811115615eb257615eb1617552565b5b8560e001516005811115615ec957615ec8617552565b5b03615edd57615ed88b8361695f565b615f68565b838560400151615eed919061802d565b8560400190600b0b9081600b0b8152505060008560400151600b0b1315615f2e57615f2985604001516bffffffffffffffffffffffff16616743565b615f67565b60008560400151600b0b1215615f6657615f6585604001516000615f52919061802d565b6bffffffffffffffffffffffff16616802565b5b5b5b60008560400190600b0b9081600b0b81525050600085600001906bffffffffffffffffffffffff1690816bffffffffffffffffffffffff1681525050600085608001906bffffffffffffffffffffffff1690816bffffffffffffffffffffffff1681525050600085606001906bffffffffffffffffffffffff1690816bffffffffffffffffffffffff168152505060008560a0019061ffff16908161ffff168152505060008560c0015161ffff16036160a25760008560e00190600581111561603457616033617552565b5b9081600581111561604857616047617552565b5b815250508a73ffffffffffffffffffffffffffffffffffffffff167fce0bab896b3cb48841a0bae00ecb73380a851414117c4faa23b090f0246f328c336000604051616095929190617d80565b60405180910390a26160d4565b60038560e0019060058111156160bb576160ba617552565b5b908160058111156160cf576160ce617552565b5b815250505b5b6160df8b8661495b565b6000821180156161135750600060028111156160fe576160fd617552565b5b89600281111561611157616110617552565b5b145b156161c4576161678b3084600060029054906101000a900473ffffffffffffffffffffffffffffffffffffffff1673ffffffffffffffffffffffffffffffffffffffff1661660f909392919063ffffffff16565b8a73ffffffffffffffffffffffffffffffffffffffff167f5faf7cfc2e1451bec12a4a97f663dbdb393a7a91e088623469c422df5dbfb4488387606001518860000151336040516161bb9493929190618231565b60405180910390a25b8183831015600097509750975050505050505b93509350939050565b8060055411156162085780600560008282546161fc91906178fa565b92505081905550616211565b60006005819055505b7f59c31bb593c5b09a2986862f60318542557074991f7b6b3a96bb483360ac0bc381600554604051616244929190617957565b60405180910390a150565b61629c8282600060029054906101000a900473ffffffffffffffffffffffffffffffffffffffff1673ffffffffffffffffffffffffffffffffffffffff16612eb39092919063ffffffff16565b8173ffffffffffffffffffffffffffffffffffffffff167f110ac2eef454b54bd374f43f7425877cc41fc1bda99cd86ee84d2c84478c88a8826040516162e2919061700e565b60405180910390a25050565b60405180604001604052808373ffffffffffffffffffffffffffffffffffffffff1681526020018281525060d6600085815260200190815260200160002060008201518160000160006101000a81548173ffffffffffffffffffffffffffffffffffffffff021916908373ffffffffffffffffffffffffffffffffffffffff160217905550602082015181600101559050508173ffffffffffffffffffffffffffffffffffffffff16837ffc263b13935051afa54b00c0339cd28d0c71d7f94f2e1b7fac477b549269f906836040516163c7919061700e565b60405180910390a3505050565b6000616436826040518060400160405280602081526020017f5361666545524332303a206c6f772d6c6576656c2063616c6c206661696c65648152508573ffffffffffffffffffffffffffffffffffffffff16616ac79092919063ffffffff16565b905060008151111561649657808060200190518101906164569190617d0b565b616495576040517f08c379a000000000000000000000000000000000000000000000000000000000815260040161648c906182e8565b60405180910390fd5b5b505050565b6000811480616525575060008373ffffffffffffffffffffffffffffffffffffffff1663dd62ed3e30856040518363ffffffff1660e01b81526004016164e2929190617dfc565b602060405180830381865afa1580156164ff573d6000803e3d6000fd5b505050506040513d601f19601f8201168201806040525081019061652391906177eb565b145b616564576040517f08c379a000000000000000000000000000000000000000000000000000000000815260040161655b9061837a565b60405180910390fd5b6165e58363095ea7b360e01b848460405160240161658392919061792e565b604051602081830303815290604052907bffffffffffffffffffffffffffffffffffffffffffffffffffffffff19166020820180517bffffffffffffffffffffffffffffffffffffffffffffffffffffffff83818316178352505050506163d4565b505050565b60006165f583616adf565b801561660757506166068383616b2c565b5b905092915050565b616692846323b872dd60e01b85858560405160240161663093929190617e54565b604051602081830303815290604052907bffffffffffffffffffffffffffffffffffffffffffffffffffffffff19166020820180517bffffffffffffffffffffffffffffffffffffffffffffffffffffffff83818316178352505050506163d4565b50505050565b6000600460009054906101000a900473ffffffffffffffffffffffffffffffffffffffff1673ffffffffffffffffffffffffffffffffffffffff16633d1123018585856040518463ffffffff1660e01b81526004016166f99392919061839a565b602060405180830381865afa158015616716573d6000803e3d6000fd5b505050506040513d601f19601f8201168201806040525081019061673a91906177eb565b90509392505050565b6000600260009054906101000a900473ffffffffffffffffffffffffffffffffffffffff1673ffffffffffffffffffffffffffffffffffffffff1663ef06fb73836040518263ffffffff1660e01b81526004016167a0919061700e565b6020604051808303816000875af11580156167bf573d6000803e3d6000fd5b505050506040513d601f19601f820116820180604052508101906167e391906177eb565b905080600560008282546167f791906178c6565b925050819055505050565b6000600260009054906101000a900473ffffffffffffffffffffffffffffffffffffffff1673ffffffffffffffffffffffffffffffffffffffff1663228ec96a836040518263ffffffff1660e01b815260040161685f919061700e565b6020604051808303816000875af115801561687e573d6000803e3d6000fd5b505050506040513d601f19601f820116820180604052508101906168a291906177eb565b90508060055411156168cc5780600560008282546168c091906178fa565b925050819055506168d5565b60006005819055505b5050565b600860008273ffffffffffffffffffffffffffffffffffffffff1673ffffffffffffffffffffffffffffffffffffffff16815260200190815260200160002060009054906101000a900460ff1661695c576040517f68299b2000000000000000000000000000000000000000000000000000000000815260040160405180910390fd5b50565b6000606e60008473ffffffffffffffffffffffffffffffffffffffff1673ffffffffffffffffffffffffffffffffffffffff16815260200190815260200160002060000160109054906101000a90046bffffffffffffffffffffffff1690506000816bffffffffffffffffffffffff161115616ab857600082826bffffffffffffffffffffffff16106169f457829050616a1a565b816bffffffffffffffffffffffff169050616a198184616a1491906178fa565b616743565b5b8060056000828254616a2c91906178c6565b925050819055508082616a3f9190617bf8565b915081606e60008673ffffffffffffffffffffffffffffffffffffffff1673ffffffffffffffffffffffffffffffffffffffff16815260200190815260200160002060000160106101000a8154816bffffffffffffffffffffffff02191690836bffffffffffffffffffffffff16021790555050616ac2565b616ac182616743565b5b505050565b6060616ad68484600085616beb565b90509392505050565b6000616b0b827f01ffc9a700000000000000000000000000000000000000000000000000000000616b2c565b8015616b255750616b238263ffffffff60e01b616b2c565b155b9050919050565b6000806301ffc9a760e01b83604051602401616b48919061717d565b604051602081830303815290604052907bffffffffffffffffffffffffffffffffffffffffffffffffffffffff19166020820180517bffffffffffffffffffffffffffffffffffffffffffffffffffffffff838183161783525050505090506000806000602060008551602087018a617530fa92503d91506000519050828015616bd3575060208210155b8015616bdf5750600081115b94505050505092915050565b606082471015616c30576040517f08c379a0000000000000000000000000000000000000000000000000000000008152600401616c2790618443565b60405180910390fd5b6000808673ffffffffffffffffffffffffffffffffffffffff168587604051616c5991906184d4565b60006040518083038185875af1925050503d8060008114616c96576040519150601f19603f3d011682016040523d82523d6000602084013e616c9b565b606091505b5091509150616cac87838387616cb8565b92505050949350505050565b60608315616d1a576000835103616d1257616cd285616d2d565b616d11576040517f08c379a0000000000000000000000000000000000000000000000000000000008152600401616d0890618537565b60405180910390fd5b5b829050616d25565b616d248383616d50565b5b949350505050565b6000808273ffffffffffffffffffffffffffffffffffffffff163b119050919050565b600082511115616d635781518083602001fd5b806040517f08c379a0000000000000000000000000000000000000000000000000000000008152600401616d9791906185ac565b60405180910390fd5b6040518060600160405280600073ffffffffffffffffffffffffffffffffffffffff16815260200160006bffffffffffffffffffffffff168152602001600081525090565b60405180610100016040528060006bffffffffffffffffffffffff168152602001600067ffffffffffffffff1681526020016000600b0b815260200160006bffffffffffffffffffffffff16815260200160006bffffffffffffffffffffffff168152602001600061ffff168152602001600061ffff16815260200160006005811115616e7557616e74617552565b5b81525090565b604051806080016040528060006bffffffffffffffffffffffff168152602001600061ffff168152602001600061ffff16815260200160006bffffffffffffffffffffffff1681525090565b600080fd5b600080fd5b600073ffffffffffffffffffffffffffffffffffffffff82169050919050565b6000616efc82616ed1565b9050919050565b616f0c81616ef1565b8114616f1757600080fd5b50565b600081359050616f2981616f03565b92915050565b600060208284031215616f4557616f44616ec7565b5b6000616f5384828501616f1a565b91505092915050565b60008115159050919050565b616f7181616f5c565b82525050565b6000602082019050616f8c6000830184616f68565b92915050565b6000819050919050565b616fa581616f92565b8114616fb057600080fd5b50565b600081359050616fc281616f9c565b92915050565b600060208284031215616fde57616fdd616ec7565b5b6000616fec84828501616fb3565b91505092915050565b6000819050919050565b61700881616ff5565b82525050565b60006020820190506170236000830184616fff565b92915050565b61703281616ff5565b811461703d57600080fd5b50565b60008135905061704f81617029565b92915050565b600080fd5b600080fd5b600080fd5b60008083601f84011261707a57617079617055565b5b8235905067ffffffffffffffff8111156170975761709661705a565b5b6020830191508360018202830111156170b3576170b261705f565b5b9250929050565b6000806000806000608086880312156170d6576170d5616ec7565b5b60006170e488828901616f1a565b95505060206170f588828901616f1a565b945050604061710688828901617040565b935050606086013567ffffffffffffffff81111561712757617126616ecc565b5b61713388828901617064565b92509250509295509295909350565b60007fffffffff0000000000000000000000000000000000000000000000000000000082169050919050565b61717781617142565b82525050565b6000602082019050617192600083018461716e565b92915050565b6000806000606084860312156171b1576171b0616ec7565b5b60006171bf86828701616f1a565b93505060206171d086828701617040565b92505060406171e186828701616fb3565b9150509250925092565b60006020828403121561720157617200616ec7565b5b600061720f84828501617040565b91505092915050565b61722181616ef1565b82525050565b600060208201905061723c6000830184617218565b92915050565b60006080820190506172576000830187617218565b6172646020830186617218565b6172716040830185617218565b61727e6060830184617218565b95945050505050565b61729081616f5c565b811461729b57600080fd5b50565b6000813590506172ad81617287565b92915050565b600080604083850312156172ca576172c9616ec7565b5b60006172d885828601616fb3565b92505060206172e98582860161729e565b9150509250929050565b60008060006060848603121561730c5761730b616ec7565b5b600061731a86828701617040565b935050602061732b86828701617040565b925050604061733c86828701617040565b9150509250925092565b61734f81616ef1565b82525050565b60006bffffffffffffffffffffffff82169050919050565b61737681617355565b82525050565b61738581616ff5565b82525050565b6060820160008201516173a16000850182617346565b5060208201516173b4602085018261736d565b5060408201516173c7604085018261737c565b50505050565b60006060820190506173e2600083018461738b565b92915050565b60008060006060848603121561740157617400616ec7565b5b600061740f86828701617040565b935050602061742086828701616f1a565b925050604061743186828701617040565b9150509250925092565b6000806040838503121561745257617451616ec7565b5b600061746085828601616f1a565b925050602061747185828601617040565b9150509250929050565b600080600080600060a0868803121561749757617496616ec7565b5b60006174a588828901616f1a565b95505060206174b688828901617040565b94505060406174c788828901617040565b93505060606174d888828901617040565b92505060806174e988828901617040565b9150509295509295909350565b600067ffffffffffffffff82169050919050565b617513816174f6565b82525050565b600081600b0b9050919050565b61752f81617519565b82525050565b600061ffff82169050919050565b61754c81617535565b82525050565b7f4e487b7100000000000000000000000000000000000000000000000000000000600052602160045260246000fd5b6006811061759257617591617552565b5b50565b60008190506175a382617581565b919050565b60006175b382617595565b9050919050565b6175c3816175a8565b82525050565b610100820160008201516175e0600085018261736d565b5060208201516175f3602085018261750a565b5060408201516176066040850182617526565b506060820151617619606085018261736d565b50608082015161762c608085018261736d565b5060a082015161763f60a0850182617543565b5060c082015161765260c0850182617543565b5060e082015161766560e08501826175ba565b50505050565b60006101008201905061768160008301846175c9565b92915050565b60808201600082015161769d600085018261736d565b5060208201516176b06020850182617543565b5060408201516176c36040850182617543565b5060608201516176d6606085018261736d565b50505050565b60006080820190506176f16000830184617687565b92915050565b600080600080600080600080610100898b03121561771857617717616ec7565b5b60006177268b828c01616f1a565b98505060206177378b828c01617040565b97505060406177488b828c01617040565b96505060606177598b828c01617040565b955050608061776a8b828c01617040565b94505060a061777b8b828c01616f1a565b93505060c061778c8b828c01617040565b92505060e061779d8b828c01617040565b9150509295985092959890939650565b60006040820190506177c26000830185616fff565b6177cf6020830184616f68565b9392505050565b6000815190506177e581617029565b92915050565b60006020828403121561780157617800616ec7565b5b600061780f848285016177d6565b91505092915050565b7f4e487b7100000000000000000000000000000000000000000000000000000000600052601160045260246000fd5b600061785282617535565b915061785d83617535565b925082820261786b81617535565b915080821461787d5761787c617818565b5b5092915050565b600061788f82616ff5565b915061789a83616ff5565b92508282026178a881616ff5565b915082820484148315176178bf576178be617818565b5b5092915050565b60006178d182616ff5565b91506178dc83616ff5565b92508282019050808211156178f4576178f3617818565b5b92915050565b600061790582616ff5565b915061791083616ff5565b925082820390508181111561792857617927617818565b5b92915050565b60006040820190506179436000830185617218565b6179506020830184616fff565b9392505050565b600060408201905061796c6000830185616fff565b6179796020830184616fff565b9392505050565b60006080820190506179956000830187616fff565b6179a26020830186616fff565b6179af6040830185617218565b6179bc6060830184616fff565b95945050505050565b60006179d082617535565b91506179db83617535565b9250828201905061ffff8111156179f5576179f4617818565b5b92915050565b6000819050919050565b6000617a20617a1b617a1684617535565b6179fb565b616ff5565b9050919050565b617a3081617a05565b82525050565b6000606082019050617a4b6000830186616fff565b617a586020830185617a27565b617a656040830184617218565b949350505050565b6000608082019050617a826000830187616fff565b617a8f6020830186616fff565b617a9c6040830185616fff565b617aa96060830184616fff565b95945050505050565b600082825260208201905092915050565b7f496e697469616c697a61626c653a20636f6e747261637420697320616c72656160008201527f647920696e697469616c697a6564000000000000000000000000000000000000602082015250565b6000617b1f602e83617ab2565b9150617b2a82617ac3565b604082019050919050565b60006020820190508181036000830152617b4e81617b12565b9050919050565b6000819050919050565b600060ff82169050919050565b6000617b87617b82617b7d84617b55565b6179fb565b617b5f565b9050919050565b617b9781617b6c565b82525050565b6000602082019050617bb26000830184617b8e565b92915050565b6000617bc382617355565b9150617bce83617355565b925082820190506bffffffffffffffffffffffff811115617bf257617bf1617818565b5b92915050565b6000617c0382617355565b9150617c0e83617355565b925082820390506bffffffffffffffffffffffff811115617c3257617c31617818565b5b92915050565b6000604082019050617c4d6000830185616fff565b617c5a6020830184617218565b9392505050565b600081519050617c7081616f03565b92915050565b600060208284031215617c8c57617c8b616ec7565b5b6000617c9a84828501617c61565b91505092915050565b617cac81616f92565b82525050565b6000602082019050617cc76000830184617ca3565b92915050565b6000604082019050617ce26000830185616fff565b617cef6020830184617ca3565b9392505050565b600081519050617d0581617287565b92915050565b600060208284031215617d2157617d20616ec7565b5b6000617d2f84828501617cf6565b91505092915050565b60038110617d4957617d48617552565b5b50565b6000819050617d5a82617d38565b919050565b6000617d6a82617d4c565b9050919050565b617d7a81617d5f565b82525050565b6000604082019050617d956000830185617218565b617da26020830184617d71565b9392505050565b600060a082019050617dbe6000830188616fff565b617dcb6020830187616fff565b617dd86040830186616fff565b617de56060830185616fff565b617df26080830184616f68565b9695505050505050565b6000604082019050617e116000830185617218565b617e1e6020830184617218565b9392505050565b7f4e487b7100000000000000000000000000000000000000000000000000000000600052600160045260246000fd5b6000606082019050617e696000830186617218565b617e766020830185617218565b617e836040830184616fff565b949350505050565b6000617e9682617519565b9150617ea183617519565b925082820190507fffffffffffffffffffffffffffffffffffffffff80000000000000000000000081126b7fffffffffffffffffffffff82131715617ee957617ee8617818565b5b92915050565b60008060408385031215617f0657617f05616ec7565b5b6000617f14858286016177d6565b9250506020617f25858286016177d6565b9150509250929050565b600061018082019050617f4560008301856175c9565b617f53610100830184617687565b9392505050565b617f6381617355565b8114617f6e57600080fd5b50565b600081519050617f8081617f5a565b92915050565b617f8f81617519565b8114617f9a57600080fd5b50565b600081519050617fac81617f86565b92915050565b600080600080600060a08688031215617fce57617fcd616ec7565b5b6000617fdc888289016177d6565b9550506020617fed88828901617f71565b9450506040617ffe88828901617f71565b935050606061800f88828901617f71565b925050608061802088828901617f9d565b9150509295509295909350565b600061803882617519565b915061804383617519565b925082820390506b7fffffffffffffffffffffff81137fffffffffffffffffffffffffffffffffffffffff8000000000000000000000008212171561808b5761808a617818565b5b92915050565b60006180ac6180a76180a2846174f6565b6179fb565b616ff5565b9050919050565b6180bc81618091565b82525050565b60006040820190506180d760008301856180b3565b6180e46020830184617218565b9392505050565b7f4e487b7100000000000000000000000000000000000000000000000000000000600052601260045260246000fd5b600061812582616ff5565b915061813083616ff5565b9250826181405761813f6180eb565b5b828204905092915050565b6000806000806080858703121561816557618164616ec7565b5b600061817387828801617c61565b945050602061818487828801617c61565b935050604061819587828801617c61565b92505060606181a687828801617c61565b91505092959194509250565b6000819050919050565b60006181c7826181b2565b91506181d2836181b2565b9250828201905082811215600083121683821260008412151617156181fa576181f9617818565b5b92915050565b600061821b61821661821184617355565b6179fb565b616ff5565b9050919050565b61822b81618200565b82525050565b60006080820190506182466000830187616fff565b6182536020830186618222565b6182606040830185618222565b61826d6060830184617218565b95945050505050565b7f5361666545524332303a204552433230206f7065726174696f6e20646964206e60008201527f6f74207375636365656400000000000000000000000000000000000000000000602082015250565b60006182d2602a83617ab2565b91506182dd82618276565b604082019050919050565b60006020820190508181036000830152618301816182c5565b9050919050565b7f5361666545524332303a20617070726f76652066726f6d206e6f6e2d7a65726f60008201527f20746f206e6f6e2d7a65726f20616c6c6f77616e636500000000000000000000602082015250565b6000618364603683617ab2565b915061836f82618308565b604082019050919050565b6000602082019050818103600083015261839381618357565b9050919050565b60006060820190506183af6000830186616fff565b6183bc6020830185616fff565b6183c96040830184616fff565b949350505050565b7f416464726573733a20696e73756666696369656e742062616c616e636520666f60008201527f722063616c6c0000000000000000000000000000000000000000000000000000602082015250565b600061842d602683617ab2565b9150618438826183d1565b604082019050919050565b6000602082019050818103600083015261845c81618420565b9050919050565b600081519050919050565b600081905092915050565b60005b8381101561849757808201518184015260208101905061847c565b60008484015250505050565b60006184ae82618463565b6184b8818561846e565b93506184c8818560208601618479565b80840191505092915050565b60006184e082846184a3565b915081905092915050565b7f416464726573733a2063616c6c20746f206e6f6e2d636f6e7472616374000000600082015250565b6000618521601d83617ab2565b915061852c826184eb565b602082019050919050565b6000602082019050818103600083015261855081618514565b9050919050565b600081519050919050565b6000601f19601f8301169050919050565b600061857e82618557565b6185888185617ab2565b9350618598818560208601618479565b6185a181618562565b840191505092915050565b600060208201905081810360008301526185c68184618573565b90509291505056fea2646970667358221220c24cbc88fd2f6af48450ef8a99301d64cee828077590c2d54e4b766ef4c6058064736f6c63430008110033",
  "linkReferences": {},
  "deployedLinkReferences": {}
}