{
  "_format": "hh-sol-artifact-1",
  "contractName": "ReceivableFactoringPool",
  "sourceName": "contracts/ReceivableFactoringPool.sol",
  "abi": [
    {
      "inputs": [],
      "name": "creditExpiredDueToFirstDrawdownTooLate",
      "type": "error"
    },
    {
      "inputs": [],
      "name": "creditExpiredDueToMaturity",
      "type": "error"
    },
    {
      "inputs": [],
      "name": "creditLineAlreadyExists",
      "type": "error"
    },
    {
      "inputs": [],
      "name": "creditLineExceeded",
      "type": "error"
    },
    {
      "inputs": [],
      "name": "creditLineNotInApprovedState",
      "type": "error"
    },
    {
      "inputs": [],
      "name": "creditLineNotInGoodStandingState",
      "type": "error"
    },
    {
      "inputs": [],
      "name": "creditLineNotInStateForDrawdown",
      "type": "error"
    },
    {
      "inputs": [],
      "name": "creditLineNotInStateForMakingPayment",
      "type": "error"
    },
    {
      "inputs": [],
      "name": "creditLineOutstanding",
      "type": "error"
    },
    {
      "inputs": [],
      "name": "defaultHasAlreadyBeenTriggered",
      "type": "error"
    },
    {
      "inputs": [],
      "name": "defaultTriggeredTooEarly",
      "type": "error"
    },
    {
      "inputs": [],
      "name": "drawdownFunctionUsedInsteadofDrawdownWithReceivable",
      "type": "error"
    },
    {
      "inputs": [],
      "name": "evaluationAgentServiceAccountRequired",
      "type": "error"
    },
    {
      "inputs": [],
      "name": "exceededPoolLiquidityCap",
      "type": "error"
    },
    {
      "inputs": [],
      "name": "greaterThanMaxCreditLine",
      "type": "error"
    },
    {
      "inputs": [],
      "name": "insufficientReceivableAmount",
      "type": "error"
    },
    {
      "inputs": [],
      "name": "onlyBorrowerOrEACanReduceCreditLine",
      "type": "error"
    },
    {
      "inputs": [],
      "name": "paymentAlreadyProcessed",
      "type": "error"
    },
    {
      "inputs": [],
      "name": "paymentDetectionServiceAccountRequired",
      "type": "error"
    },
    {
      "inputs": [],
      "name": "paymentIdNotUnderReview",
      "type": "error"
    },
    {
      "inputs": [],
      "name": "permissionDeniedNotLender",
      "type": "error"
    },
    {
      "inputs": [],
      "name": "poolIsNotOn",
      "type": "error"
    },
    {
      "inputs": [],
      "name": "poolOperatorRequired",
      "type": "error"
    },
    {
      "inputs": [],
      "name": "protocolIsPaused",
      "type": "error"
    },
    {
      "inputs": [],
      "name": "receivableAssetMismatch",
      "type": "error"
    },
    {
      "inputs": [],
      "name": "receivableAssetParamMismatch",
      "type": "error"
    },
    {
      "inputs": [],
      "name": "requestedCreditWithZeroDuration",
      "type": "error"
    },
    {
      "inputs": [],
      "name": "sameValue",
      "type": "error"
    },
    {
      "inputs": [],
      "name": "unsupportedReceivableAsset",
      "type": "error"
    },
    {
      "inputs": [],
      "name": "withdrawTooSoon",
      "type": "error"
    },
    {
      "inputs": [],
      "name": "withdrawnAmountHigherThanBalance",
      "type": "error"
    },
    {
      "inputs": [],
      "name": "zeroAddressProvided",
      "type": "error"
    },
    {
      "inputs": [],
      "name": "zeroAmountProvided",
      "type": "error"
    },
    {
      "anonymous": false,
      "inputs": [
        {
          "indexed": true,
          "internalType": "address",
          "name": "lender",
          "type": "address"
        },
        {
          "indexed": false,
          "internalType": "address",
          "name": "by",
          "type": "address"
        }
      ],
      "name": "AddApprovedLender",
      "type": "event"
    },
    {
      "anonymous": false,
      "inputs": [
        {
          "indexed": true,
          "internalType": "address",
          "name": "borrower",
          "type": "address"
        },
        {
          "indexed": false,
          "internalType": "uint256",
          "name": "newDueDate",
          "type": "uint256"
        },
        {
          "indexed": false,
          "internalType": "address",
          "name": "by",
          "type": "address"
        }
      ],
      "name": "BillRefreshed",
      "type": "event"
    },
    {
      "anonymous": false,
      "inputs": [
        {
          "indexed": true,
          "internalType": "address",
          "name": "borrower",
          "type": "address"
        },
        {
          "indexed": false,
          "internalType": "uint256",
          "name": "creditLimit",
          "type": "uint256"
        },
        {
          "indexed": false,
          "internalType": "uint256",
          "name": "intervalInDays",
          "type": "uint256"
        },
        {
          "indexed": false,
          "internalType": "uint256",
          "name": "remainingPeriods",
          "type": "uint256"
        },
        {
          "indexed": false,
          "internalType": "uint256",
          "name": "aprInBps",
          "type": "uint256"
        }
      ],
      "name": "CreditApproved",
      "type": "event"
    },
    {
      "anonymous": false,
      "inputs": [
        {
          "indexed": true,
          "internalType": "address",
          "name": "borrower",
          "type": "address"
        },
        {
          "indexed": false,
          "internalType": "uint256",
          "name": "creditLimit",
          "type": "uint256"
        },
        {
          "indexed": false,
          "internalType": "uint256",
          "name": "aprInBps",
          "type": "uint256"
        },
        {
          "indexed": false,
          "internalType": "uint256",
          "name": "payPeriodInDays",
          "type": "uint256"
        },
        {
          "indexed": false,
          "internalType": "uint256",
          "name": "remainingPeriods",
          "type": "uint256"
        },
        {
          "indexed": false,
          "internalType": "bool",
          "name": "approved",
          "type": "bool"
        }
      ],
      "name": "CreditInitiated",
      "type": "event"
    },
    {
      "anonymous": false,
      "inputs": [
        {
          "indexed": true,
          "internalType": "address",
          "name": "borrower",
          "type": "address"
        },
        {
          "indexed": false,
          "internalType": "uint256",
          "name": "oldCreditLimit",
          "type": "uint256"
        },
        {
          "indexed": false,
          "internalType": "uint256",
          "name": "newCreditLimit",
          "type": "uint256"
        }
      ],
      "name": "CreditLineChanged",
      "type": "event"
    },
    {
      "anonymous": false,
      "inputs": [
        {
          "indexed": true,
          "internalType": "address",
          "name": "borrower",
          "type": "address"
        },
        {
          "indexed": false,
          "internalType": "address",
          "name": "by",
          "type": "address"
        },
        {
          "indexed": false,
          "internalType": "enum BaseCreditPool.CreditLineClosureReason",
          "name": "reasonCode",
          "type": "uint8"
        }
      ],
      "name": "CreditLineClosed",
      "type": "event"
    },
    {
      "anonymous": false,
      "inputs": [
        {
          "indexed": true,
          "internalType": "address",
          "name": "borrower",
          "type": "address"
        },
        {
          "indexed": false,
          "internalType": "uint256",
          "name": "numOfPeriods",
          "type": "uint256"
        },
        {
          "indexed": false,
          "internalType": "uint256",
          "name": "remainingPeriods",
          "type": "uint256"
        },
        {
          "indexed": false,
          "internalType": "address",
          "name": "by",
          "type": "address"
        }
      ],
      "name": "CreditLineExtended",
      "type": "event"
    },
    {
      "anonymous": false,
      "inputs": [
        {
          "indexed": true,
          "internalType": "address",
          "name": "borrower",
          "type": "address"
        },
        {
          "indexed": false,
          "internalType": "uint256",
          "name": "losses",
          "type": "uint256"
        },
        {
          "indexed": false,
          "internalType": "address",
          "name": "by",
          "type": "address"
        }
      ],
      "name": "DefaultTriggered",
      "type": "event"
    },
    {
      "anonymous": false,
      "inputs": [
        {
          "indexed": true,
          "internalType": "address",
          "name": "borrower",
          "type": "address"
        },
        {
          "indexed": false,
          "internalType": "uint256",
          "name": "borrowAmount",
          "type": "uint256"
        },
        {
          "indexed": false,
          "internalType": "uint256",
          "name": "netAmountToBorrower",
          "type": "uint256"
        }
      ],
      "name": "DrawdownMade",
      "type": "event"
    },
    {
      "anonymous": false,
      "inputs": [
        {
          "indexed": true,
          "internalType": "address",
          "name": "borrower",
          "type": "address"
        },
        {
          "indexed": false,
          "internalType": "uint256",
          "name": "borrowAmount",
          "type": "uint256"
        },
        {
          "indexed": false,
          "internalType": "uint256",
          "name": "netAmountToBorrower",
          "type": "uint256"
        },
        {
          "indexed": false,
          "internalType": "address",
          "name": "receivableAsset",
          "type": "address"
        },
        {
          "indexed": false,
          "internalType": "uint256",
          "name": "receivableParam",
          "type": "uint256"
        }
      ],
      "name": "DrawdownMadeWithReceivable",
      "type": "event"
    },
    {
      "anonymous": false,
      "inputs": [
        {
          "indexed": true,
          "internalType": "address",
          "name": "receiver",
          "type": "address"
        },
        {
          "indexed": false,
          "internalType": "uint256",
          "name": "amount",
          "type": "uint256"
        }
      ],
      "name": "ExtraFundsDispersed",
      "type": "event"
    },
    {
      "anonymous": false,
      "inputs": [
        {
          "indexed": false,
          "internalType": "uint8",
          "name": "version",
          "type": "uint8"
        }
      ],
      "name": "Initialized",
      "type": "event"
    },
    {
      "anonymous": false,
      "inputs": [
        {
          "indexed": true,
          "internalType": "address",
          "name": "account",
          "type": "address"
        },
        {
          "indexed": false,
          "internalType": "uint256",
          "name": "assetAmount",
          "type": "uint256"
        },
        {
          "indexed": false,
          "internalType": "uint256",
          "name": "shareAmount",
          "type": "uint256"
        }
      ],
      "name": "LiquidityDeposited",
      "type": "event"
    },
    {
      "anonymous": false,
      "inputs": [
        {
          "indexed": true,
          "internalType": "address",
          "name": "account",
          "type": "address"
        },
        {
          "indexed": false,
          "internalType": "uint256",
          "name": "assetAmount",
          "type": "uint256"
        },
        {
          "indexed": false,
          "internalType": "uint256",
          "name": "shareAmount",
          "type": "uint256"
        }
      ],
      "name": "LiquidityWithdrawn",
      "type": "event"
    },
    {
      "anonymous": false,
      "inputs": [
        {
          "indexed": false,
          "internalType": "uint256",
          "name": "lossesDistributed",
          "type": "uint256"
        },
        {
          "indexed": false,
          "internalType": "uint256",
          "name": "updatedPoolValue",
          "type": "uint256"
        }
      ],
      "name": "LossesDistributed",
      "type": "event"
    },
    {
      "anonymous": false,
      "inputs": [
        {
          "indexed": true,
          "internalType": "bytes32",
          "name": "paymentIdHash",
          "type": "bytes32"
        },
        {
          "indexed": true,
          "internalType": "address",
          "name": "borrower",
          "type": "address"
        },
        {
          "indexed": false,
          "internalType": "uint256",
          "name": "amount",
          "type": "uint256"
        }
      ],
      "name": "PaymentFlaggedForReview",
      "type": "event"
    },
    {
      "anonymous": false,
      "inputs": [
        {
          "indexed": false,
          "internalType": "bytes32",
          "name": "paymentIdHash",
          "type": "bytes32"
        }
      ],
      "name": "PaymentInvalidated",
      "type": "event"
    },
    {
      "anonymous": false,
      "inputs": [
        {
          "indexed": true,
          "internalType": "address",
          "name": "borrower",
          "type": "address"
        },
        {
          "indexed": false,
          "internalType": "uint256",
          "name": "amount",
          "type": "uint256"
        },
        {
          "indexed": false,
          "internalType": "uint256",
          "name": "totalDue",
          "type": "uint256"
        },
        {
          "indexed": false,
          "internalType": "uint256",
          "name": "unbilledPrincipal",
          "type": "uint256"
        },
        {
          "indexed": false,
          "internalType": "address",
          "name": "by",
          "type": "address"
        }
      ],
      "name": "PaymentMade",
      "type": "event"
    },
    {
      "anonymous": false,
      "inputs": [
        {
          "indexed": true,
          "internalType": "address",
          "name": "sender",
          "type": "address"
        },
        {
          "indexed": false,
          "internalType": "address",
          "name": "newPoolConfig",
          "type": "address"
        }
      ],
      "name": "PoolConfigChanged",
      "type": "event"
    },
    {
      "anonymous": false,
      "inputs": [
        {
          "indexed": true,
          "internalType": "address",
          "name": "sender",
          "type": "address"
        },
        {
          "indexed": false,
          "internalType": "address",
          "name": "underlyingToken",
          "type": "address"
        },
        {
          "indexed": false,
          "internalType": "address",
          "name": "poolToken",
          "type": "address"
        },
        {
          "indexed": false,
          "internalType": "address",
          "name": "humaConfig",
          "type": "address"
        },
        {
          "indexed": false,
          "internalType": "address",
          "name": "feeManager",
          "type": "address"
        }
      ],
      "name": "PoolCoreDataChanged",
      "type": "event"
    },
    {
      "anonymous": false,
      "inputs": [
        {
          "indexed": true,
          "internalType": "address",
          "name": "by",
          "type": "address"
        }
      ],
      "name": "PoolDisabled",
      "type": "event"
    },
    {
      "anonymous": false,
      "inputs": [
        {
          "indexed": true,
          "internalType": "address",
          "name": "by",
          "type": "address"
        }
      ],
      "name": "PoolEnabled",
      "type": "event"
    },
    {
      "anonymous": false,
      "inputs": [
        {
          "indexed": true,
          "internalType": "address",
          "name": "sender",
          "type": "address"
        },
        {
          "indexed": true,
          "internalType": "address",
          "name": "borrower",
          "type": "address"
        },
        {
          "indexed": false,
          "internalType": "uint256",
          "name": "amount",
          "type": "uint256"
        },
        {
          "indexed": false,
          "internalType": "bytes32",
          "name": "paymentIdHash",
          "type": "bytes32"
        }
      ],
      "name": "ReceivedPaymentProcessed",
      "type": "event"
    },
    {
      "anonymous": false,
      "inputs": [
        {
          "indexed": true,
          "internalType": "address",
          "name": "lender",
          "type": "address"
        },
        {
          "indexed": false,
          "internalType": "address",
          "name": "by",
          "type": "address"
        }
      ],
      "name": "RemoveApprovedLender",
      "type": "event"
    },
    {
      "inputs": [
        {
          "internalType": "address",
          "name": "lender",
          "type": "address"
        }
      ],
      "name": "addApprovedLender",
      "outputs": [],
      "stateMutability": "nonpayable",
      "type": "function"
    },
    {
      "inputs": [
        {
          "internalType": "address",
          "name": "borrower",
          "type": "address"
        },
        {
          "internalType": "uint256",
          "name": "creditLimit",
          "type": "uint256"
        },
        {
          "internalType": "uint256",
          "name": "intervalInDays",
          "type": "uint256"
        },
        {
          "internalType": "uint256",
          "name": "remainingPeriods",
          "type": "uint256"
        },
        {
          "internalType": "uint256",
          "name": "aprInBps",
          "type": "uint256"
        }
      ],
      "name": "approveCredit",
      "outputs": [],
      "stateMutability": "nonpayable",
      "type": "function"
    },
    {
      "inputs": [
        {
          "internalType": "address",
          "name": "borrower",
          "type": "address"
        },
        {
          "internalType": "uint256",
          "name": "creditLimit",
          "type": "uint256"
        },
        {
          "internalType": "uint256",
          "name": "intervalInDays",
          "type": "uint256"
        },
        {
          "internalType": "uint256",
          "name": "remainingPeriods",
          "type": "uint256"
        },
        {
          "internalType": "uint256",
          "name": "aprInBps",
          "type": "uint256"
        },
        {
          "internalType": "address",
          "name": "receivableAsset",
          "type": "address"
        },
        {
          "internalType": "uint256",
          "name": "receivableParam",
          "type": "uint256"
        },
        {
          "internalType": "uint256",
          "name": "receivableAmount",
          "type": "uint256"
        }
      ],
      "name": "approveCredit",
      "outputs": [],
      "stateMutability": "nonpayable",
      "type": "function"
    },
    {
      "inputs": [
        {
          "internalType": "address",
          "name": "borrower",
          "type": "address"
        },
        {
          "internalType": "uint256",
          "name": "newCreditLimit",
          "type": "uint256"
        }
      ],
      "name": "changeCreditLine",
      "outputs": [],
      "stateMutability": "nonpayable",
      "type": "function"
    },
    {
      "inputs": [
        {
          "internalType": "address",
          "name": "account",
          "type": "address"
        }
      ],
      "name": "creditRecordMapping",
      "outputs": [
        {
          "components": [
            {
              "internalType": "uint96",
              "name": "unbilledPrincipal",
              "type": "uint96"
            },
            {
              "internalType": "uint64",
              "name": "dueDate",
              "type": "uint64"
            },
            {
              "internalType": "int96",
              "name": "correction",
              "type": "int96"
            },
            {
              "internalType": "uint96",
              "name": "totalDue",
              "type": "uint96"
            },
            {
              "internalType": "uint96",
              "name": "feesAndInterestDue",
              "type": "uint96"
            },
            {
              "internalType": "uint16",
              "name": "missedPeriods",
              "type": "uint16"
            },
            {
              "internalType": "uint16",
              "name": "remainingPeriods",
              "type": "uint16"
            },
            {
              "internalType": "enum BaseStructs.CreditState",
              "name": "state",
              "type": "uint8"
            }
          ],
          "internalType": "struct BaseStructs.CreditRecord",
          "name": "",
          "type": "tuple"
        }
      ],
      "stateMutability": "view",
      "type": "function"
    },
    {
      "inputs": [
        {
          "internalType": "address",
          "name": "account",
          "type": "address"
        }
      ],
      "name": "creditRecordStaticMapping",
      "outputs": [
        {
          "components": [
            {
              "internalType": "uint96",
              "name": "creditLimit",
              "type": "uint96"
            },
            {
              "internalType": "uint16",
              "name": "aprInBps",
              "type": "uint16"
            },
            {
              "internalType": "uint16",
              "name": "intervalInDays",
              "type": "uint16"
            },
            {
              "internalType": "uint96",
              "name": "defaultAmount",
              "type": "uint96"
            }
          ],
          "internalType": "struct BaseStructs.CreditRecordStatic",
          "name": "",
          "type": "tuple"
        }
      ],
      "stateMutability": "view",
      "type": "function"
    },
    {
      "inputs": [
        {
          "internalType": "uint256",
          "name": "amount",
          "type": "uint256"
        }
      ],
      "name": "deposit",
      "outputs": [],
      "stateMutability": "nonpayable",
      "type": "function"
    },
    {
      "inputs": [],
      "name": "disablePool",
      "outputs": [],
      "stateMutability": "nonpayable",
      "type": "function"
    },
    {
      "inputs": [
        {
          "internalType": "uint256",
          "name": "borrowAmount",
          "type": "uint256"
        },
        {
          "internalType": "address",
          "name": "receiver",
          "type": "address"
        }
      ],
      "name": "drawdown",
      "outputs": [],
      "stateMutability": "nonpayable",
      "type": "function"
    },
    {
      "inputs": [
        {
          "internalType": "uint256",
          "name": "",
          "type": "uint256"
        }
      ],
      "name": "drawdown",
      "outputs": [],
      "stateMutability": "nonpayable",
      "type": "function"
    },
    {
      "inputs": [
        {
          "internalType": "uint256",
          "name": "borrowAmount",
          "type": "uint256"
        },
        {
          "internalType": "address",
          "name": "receivableAsset",
          "type": "address"
        },
        {
          "internalType": "uint256",
          "name": "receivableParam",
          "type": "uint256"
        },
        {
          "internalType": "address",
          "name": "receiver",
          "type": "address"
        }
      ],
      "name": "drawdownWithReceivable",
      "outputs": [],
      "stateMutability": "nonpayable",
      "type": "function"
    },
    {
      "inputs": [],
      "name": "enablePool",
      "outputs": [],
      "stateMutability": "nonpayable",
      "type": "function"
    },
    {
      "inputs": [
        {
          "internalType": "address",
          "name": "borrower",
          "type": "address"
        },
        {
          "internalType": "uint256",
          "name": "numOfPeriods",
          "type": "uint256"
        }
      ],
      "name": "extendCreditLineDuration",
      "outputs": [],
      "stateMutability": "nonpayable",
      "type": "function"
    },
    {
      "inputs": [],
      "name": "getCoreData",
      "outputs": [
        {
          "internalType": "address",
          "name": "underlyingToken_",
          "type": "address"
        },
        {
          "internalType": "address",
          "name": "poolToken_",
          "type": "address"
        },
        {
          "internalType": "address",
          "name": "humaConfig_",
          "type": "address"
        },
        {
          "internalType": "address",
          "name": "feeManager_",
          "type": "address"
        }
      ],
      "stateMutability": "view",
      "type": "function"
    },
    {
      "inputs": [
        {
          "internalType": "address",
          "name": "poolConfigAddr",
          "type": "address"
        }
      ],
      "name": "initialize",
      "outputs": [],
      "stateMutability": "nonpayable",
      "type": "function"
    },
    {
      "inputs": [
        {
          "internalType": "address",
          "name": "borrower",
          "type": "address"
        }
      ],
      "name": "isApproved",
      "outputs": [
        {
          "internalType": "bool",
          "name": "",
          "type": "bool"
        }
      ],
      "stateMutability": "view",
      "type": "function"
    },
    {
      "inputs": [
        {
          "internalType": "address",
          "name": "account",
          "type": "address"
        }
      ],
      "name": "isApprovedLender",
      "outputs": [
        {
          "internalType": "bool",
          "name": "",
          "type": "bool"
        }
      ],
      "stateMutability": "view",
      "type": "function"
    },
    {
      "inputs": [
        {
          "internalType": "address",
          "name": "borrower",
          "type": "address"
        }
      ],
      "name": "isDefaultReady",
      "outputs": [
        {
          "internalType": "bool",
          "name": "",
          "type": "bool"
        }
      ],
      "stateMutability": "view",
      "type": "function"
    },
    {
      "inputs": [
        {
          "internalType": "address",
          "name": "borrower",
          "type": "address"
        }
      ],
      "name": "isLate",
      "outputs": [
        {
          "internalType": "bool",
          "name": "",
          "type": "bool"
        }
      ],
      "stateMutability": "view",
      "type": "function"
    },
    {
      "inputs": [
        {
          "internalType": "bytes32",
          "name": "paymentIdHash",
          "type": "bytes32"
        }
      ],
      "name": "isPaymentProcessed",
      "outputs": [
        {
          "internalType": "bool",
          "name": "",
          "type": "bool"
        }
      ],
      "stateMutability": "view",
      "type": "function"
    },
    {
      "inputs": [
        {
          "internalType": "bytes32",
          "name": "paymentIdHash",
          "type": "bytes32"
        }
      ],
      "name": "isPaymentUnderReview",
      "outputs": [
        {
          "internalType": "bool",
          "name": "",
          "type": "bool"
        }
      ],
      "stateMutability": "view",
      "type": "function"
    },
    {
      "inputs": [],
      "name": "isPoolOn",
      "outputs": [
        {
          "internalType": "bool",
          "name": "status",
          "type": "bool"
        }
      ],
      "stateMutability": "view",
      "type": "function"
    },
    {
      "inputs": [
        {
          "internalType": "address",
          "name": "account",
          "type": "address"
        }
      ],
      "name": "lastDepositTime",
      "outputs": [
        {
          "internalType": "uint256",
          "name": "",
          "type": "uint256"
        }
      ],
      "stateMutability": "view",
      "type": "function"
    },
    {
      "inputs": [
        {
          "internalType": "uint256",
          "name": "amount",
          "type": "uint256"
        }
      ],
      "name": "makeInitialDeposit",
      "outputs": [],
      "stateMutability": "nonpayable",
      "type": "function"
    },
    {
      "inputs": [
        {
          "internalType": "address",
          "name": "borrower",
          "type": "address"
        },
        {
          "internalType": "uint256",
          "name": "amount",
          "type": "uint256"
        }
      ],
      "name": "makePayment",
      "outputs": [
        {
          "internalType": "uint256",
          "name": "amountPaid",
          "type": "uint256"
        },
        {
          "internalType": "bool",
          "name": "paidoff",
          "type": "bool"
        }
      ],
      "stateMutability": "nonpayable",
      "type": "function"
    },
    {
      "inputs": [
        {
          "internalType": "bytes32",
          "name": "paymentIdHash",
          "type": "bytes32"
        }
      ],
      "name": "markPaymentInvalid",
      "outputs": [],
      "stateMutability": "nonpayable",
      "type": "function"
    },
    {
      "inputs": [
        {
          "internalType": "address",
          "name": "",
          "type": "address"
        },
        {
          "internalType": "address",
          "name": "",
          "type": "address"
        },
        {
          "internalType": "uint256",
          "name": "",
          "type": "uint256"
        },
        {
          "internalType": "bytes",
          "name": "",
          "type": "bytes"
        }
      ],
      "name": "onERC721Received",
      "outputs": [
        {
          "internalType": "bytes4",
          "name": "",
          "type": "bytes4"
        }
      ],
      "stateMutability": "nonpayable",
      "type": "function"
    },
    {
      "inputs": [
        {
          "internalType": "address",
          "name": "borrower",
          "type": "address"
        },
        {
          "internalType": "uint256",
          "name": "amount",
          "type": "uint256"
        },
        {
          "internalType": "bytes32",
          "name": "paymentIdHash",
          "type": "bytes32"
        }
      ],
      "name": "onReceivedPayment",
      "outputs": [],
      "stateMutability": "nonpayable",
      "type": "function"
    },
    {
      "inputs": [],
      "name": "poolConfig",
      "outputs": [
        {
          "internalType": "address",
          "name": "",
          "type": "address"
        }
      ],
      "stateMutability": "view",
      "type": "function"
    },
    {
      "inputs": [
        {
          "internalType": "bytes32",
          "name": "paymentIdHash",
          "type": "bytes32"
        },
        {
          "internalType": "bool",
          "name": "approved",
          "type": "bool"
        }
      ],
      "name": "processPaymentAfterReview",
      "outputs": [],
      "stateMutability": "nonpayable",
      "type": "function"
    },
    {
      "inputs": [
        {
          "internalType": "address",
          "name": "account",
          "type": "address"
        }
      ],
      "name": "receivableInfoMapping",
      "outputs": [
        {
          "components": [
            {
              "internalType": "address",
              "name": "receivableAsset",
              "type": "address"
            },
            {
              "internalType": "uint96",
              "name": "receivableAmount",
              "type": "uint96"
            },
            {
              "internalType": "uint256",
              "name": "receivableParam",
              "type": "uint256"
            }
          ],
          "internalType": "struct BaseStructs.ReceivableInfo",
          "name": "",
          "type": "tuple"
        }
      ],
      "stateMutability": "view",
      "type": "function"
    },
    {
      "inputs": [
        {
          "internalType": "bytes32",
          "name": "receivableHash",
          "type": "bytes32"
        }
      ],
      "name": "receivableOwnershipMapping",
      "outputs": [
        {
          "internalType": "address",
          "name": "",
          "type": "address"
        }
      ],
      "stateMutability": "view",
      "type": "function"
    },
    {
      "inputs": [
        {
          "internalType": "address",
          "name": "borrower",
          "type": "address"
        }
      ],
      "name": "refreshAccount",
      "outputs": [
        {
          "components": [
            {
              "internalType": "uint96",
              "name": "unbilledPrincipal",
              "type": "uint96"
            },
            {
              "internalType": "uint64",
              "name": "dueDate",
              "type": "uint64"
            },
            {
              "internalType": "int96",
              "name": "correction",
              "type": "int96"
            },
            {
              "internalType": "uint96",
              "name": "totalDue",
              "type": "uint96"
            },
            {
              "internalType": "uint96",
              "name": "feesAndInterestDue",
              "type": "uint96"
            },
            {
              "internalType": "uint16",
              "name": "missedPeriods",
              "type": "uint16"
            },
            {
              "internalType": "uint16",
              "name": "remainingPeriods",
              "type": "uint16"
            },
            {
              "internalType": "enum BaseStructs.CreditState",
              "name": "state",
              "type": "uint8"
            }
          ],
          "internalType": "struct BaseStructs.CreditRecord",
          "name": "cr",
          "type": "tuple"
        }
      ],
      "stateMutability": "nonpayable",
      "type": "function"
    },
    {
      "inputs": [
        {
          "internalType": "address",
          "name": "lender",
          "type": "address"
        }
      ],
      "name": "removeApprovedLender",
      "outputs": [],
      "stateMutability": "nonpayable",
      "type": "function"
    },
    {
      "inputs": [
        {
          "internalType": "uint256",
          "name": "creditLimit",
          "type": "uint256"
        },
        {
          "internalType": "uint256",
          "name": "intervalInDays",
          "type": "uint256"
        },
        {
          "internalType": "uint256",
          "name": "numOfPayments",
          "type": "uint256"
        }
      ],
      "name": "requestCredit",
      "outputs": [],
      "stateMutability": "nonpayable",
      "type": "function"
    },
    {
      "inputs": [
        {
          "internalType": "address",
          "name": "poolConfigAddr",
          "type": "address"
        }
      ],
      "name": "setPoolConfig",
      "outputs": [],
      "stateMutability": "nonpayable",
      "type": "function"
    },
    {
      "inputs": [],
      "name": "totalPoolValue",
      "outputs": [
        {
          "internalType": "uint256",
          "name": "",
          "type": "uint256"
        }
      ],
      "stateMutability": "view",
      "type": "function"
    },
    {
      "inputs": [
        {
          "internalType": "address",
          "name": "borrower",
          "type": "address"
        }
      ],
      "name": "triggerDefault",
      "outputs": [
        {
          "internalType": "uint256",
          "name": "losses",
          "type": "uint256"
        }
      ],
      "stateMutability": "nonpayable",
      "type": "function"
    },
    {
      "inputs": [],
      "name": "updateCoreData",
      "outputs": [],
      "stateMutability": "nonpayable",
      "type": "function"
    },
    {
      "inputs": [
        {
          "internalType": "uint256",
          "name": "amount",
          "type": "uint256"
        }
      ],
      "name": "withdraw",
      "outputs": [],
      "stateMutability": "nonpayable",
      "type": "function"
    },
    {
      "inputs": [],
      "name": "withdrawAll",
      "outputs": [],
      "stateMutability": "nonpayable",
      "type": "function"
    }
  ],
  "bytecode": "0x60806040523480156200001157600080fd5b50620000226200002860201b60201c565b620001d3565b600060019054906101000a900460ff16156200007b576040517f08c379a0000000000000000000000000000000000000000000000000000000008152600401620000729062000176565b60405180910390fd5b60ff801660008054906101000a900460ff1660ff161015620000ed5760ff6000806101000a81548160ff021916908360ff1602179055507f7f26b83ff96e1f2b6a682f133852f6798a09c465da95921460cefb384740249860ff604051620000e49190620001b6565b60405180910390a15b565b600082825260208201905092915050565b7f496e697469616c697a61626c653a20636f6e747261637420697320696e69746960008201527f616c697a696e6700000000000000000000000000000000000000000000000000602082015250565b60006200015e602783620000ef565b91506200016b8262000100565b604082019050919050565b6000602082019050818103600083015262000191816200014f565b9050919050565b600060ff82169050919050565b620001b08162000198565b82525050565b6000602082019050620001cd6000830184620001a5565b92915050565b61876980620001e36000396000f3fe608060405234801561001057600080fd5b50600436106102535760003560e01c8063853828b611610146578063ab0e3f5d116100c3578063c4d66de811610087578063c4d66de8146106cb578063db0140d3146106e7578063e287c70c14610717578063f98cf07c14610733578063fcc5097614610764578063ffb43a5f1461079457610253565b8063ab0e3f5d14610651578063b2fc259c1461066d578063b40a344614610689578063b6b55f2514610693578063c1897685146106af57610253565b80639842054c1161010a5780639842054c1461059b578063a079a4dd146105b9578063a1725aaa146105d5578063a3e35f36146105f1578063a9038a7d1461062157610253565b8063853828b61461051d578063893584d7146105275780638a02775b146105435780639695e1951461056157806397a906621461057f57610253565b80634804693f116101d45780636b568dad116101985780636b568dad146104695780636bfad652146104855780637ad53f4d146104a15780637e67bbe0146104d157806381a4e310146104ed57610253565b80634804693f1461039c5780634a0ea4d7146103cc5780634d9d5594146103fc5780635b45f9361461041d578063673448dd1461043957610253565b806315da81581161021b57806315da8158146103345780631effb1061461035057806325216e921461035a5780632e1a7d4d14610364578063440c41bb1461038057610253565b80630147d62914610258578063021fd03f1461028857806302527753146102a457806306f6dfda146102d4578063150b7a0214610304575b600080fd5b610272600480360381019061026d9190617040565b6107c4565b60405161027f9190617088565b60405180910390f35b6102a2600480360381019061029d91906170d9565b610930565b005b6102be60048036038101906102b99190617040565b610944565b6040516102cb919061711f565b60405180910390f35b6102ee60048036038101906102e991906170d9565b61098d565b6040516102fb9190617088565b60405180910390f35b61031e600480360381019061031991906171cb565b610a4d565b60405161032b919061728e565b60405180910390f35b61034e600480360381019061034991906172a9565b610a62565b005b610358610a7c565b005b610362610af4565b005b61037e600480360381019061037991906172fc565b610bec565b005b61039a60048036038101906103959190617329565b611035565b005b6103b660048036038101906103b191906170d9565b6110f3565b6040516103c39190617378565b60405180910390f35b6103e660048036038101906103e191906170d9565b611130565b6040516103f39190617088565b60405180910390f35b61040461115a565b6040516104149493929190617393565b60405180910390f35b61043760048036038101906104329190617404565b6111fa565b005b610453600480360381019061044e9190617040565b6113e4565b6040516104609190617088565b60405180910390f35b610483600480360381019061047e9190617444565b611474565b005b61049f600480360381019061049a9190617040565b611518565b005b6104bb60048036038101906104b69190617040565b6116e1565b6040516104c8919061751e565b60405180910390f35b6104eb60048036038101906104e69190617539565b6117d8565b005b61050760048036038101906105029190617040565b611935565b6040516105149190617088565b60405180910390f35b61052561198b565b005b610541600480360381019061053c9190617040565b611a31565b005b61054b611ae2565b604051610558919061711f565b60405180910390f35b610569611aec565b6040516105769190617378565b60405180910390f35b610599600480360381019061059491906175a0565b611b16565b005b6105a3611c4b565b6040516105b09190617088565b60405180910390f35b6105d360048036038101906105ce91906172fc565b611c98565b005b6105ef60048036038101906105ea91906175e0565b611cca565b005b61060b60048036038101906106069190617040565b611ec7565b60405161061891906177d0565b60405180910390f35b61063b60048036038101906106369190617040565b611f84565b6040516106489190617841565b60405180910390f35b61066b6004803603810190610666919061785c565b612099565b005b610687600480360381019061068291906172fc565b612136565b005b6106916121ce565b005b6106ad60048036038101906106a891906172fc565b6121e0565b005b6106c960048036038101906106c49190617040565b6121f5565b005b6106e560048036038101906106e09190617040565b6122a6565b005b61070160048036038101906106fc9190617040565b61247a565b60405161070e9190617088565b60405180910390f35b610731600480360381019061072c91906175a0565b6125d2565b005b61074d600480360381019061074891906175a0565b6125ea565b60405161075b929190617912565b60405180910390f35b61077e60048036038101906107799190617040565b612645565b60405161078b91906177d0565b60405180910390f35b6107ae60048036038101906107a99190617040565b612823565b6040516107bb919061711f565b60405180910390f35b600080606e60008473ffffffffffffffffffffffffffffffffffffffff1673ffffffffffffffffffffffffffffffffffffffff168152602001908152602001600020600001600e9054906101000a900461ffff169050600260009054906101000a900473ffffffffffffffffffffffffffffffffffffffff1673ffffffffffffffffffffffffffffffffffffffff16630b437b666040518163ffffffff1660e01b8152600401602060405180830381865afa158015610887573d6000803e3d6000fd5b505050506040513d601f19601f820116820180604052508101906108ab9190617950565b6201518082606d60008773ffffffffffffffffffffffffffffffffffffffff1673ffffffffffffffffffffffffffffffffffffffff16815260200190815260200160002060010160189054906101000a900461ffff1661090b91906179ac565b61ffff1661091991906179e9565b11610925576000610928565b60015b915050919050565b610938612a6d565b61094181612b64565b50565b6000600660008373ffffffffffffffffffffffffffffffffffffffff1673ffffffffffffffffffffffffffffffffffffffff168152602001908152602001600020549050919050565b60008060d660008481526020019081526020016000206040518060400160405290816000820160009054906101000a900473ffffffffffffffffffffffffffffffffffffffff1673ffffffffffffffffffffffffffffffffffffffff1673ffffffffffffffffffffffffffffffffffffffff1681526020016001820154815250509050600073ffffffffffffffffffffffffffffffffffffffff16816000015173ffffffffffffffffffffffffffffffffffffffff161415915050919050565b600063150b7a0260e01b905095945050505050565b610a6a612a6d565b610a778383836001612bca565b505050565b610a84612d25565b6000600760006101000a81548160ff02191690836001811115610aaa57610aa96176b7565b5b02179055503373ffffffffffffffffffffffffffffffffffffffff167ff82ae9a5785e9b261d7e8bba20ced7516919ec7bdc4b18e7d916316f4991e53260405160405180910390a2565b610afc612df9565b600260009054906101000a900473ffffffffffffffffffffffffffffffffffffffff1673ffffffffffffffffffffffffffffffffffffffff16633087fbc66040518163ffffffff1660e01b815260040160006040518083038186803b158015610b6457600080fd5b505afa158015610b78573d6000803e3d6000fd5b505050506001600760006101000a81548160ff02191690836001811115610ba257610ba16176b7565b5b02179055503373ffffffffffffffffffffffffffffffffffffffff167ff37bc7d2dc2b5bd3afd83f8325fd7f602d73391cc33915689bea4c61f81b12d960405160405180910390a2565b610bf4612e86565b60008103610c2e576040517f71799f2a00000000000000000000000000000000000000000000000000000000815260040160405180910390fd5b600260009054906101000a900473ffffffffffffffffffffffffffffffffffffffff1673ffffffffffffffffffffffffffffffffffffffff166310ee73f16040518163ffffffff1660e01b8152600401602060405180830381865afa158015610c9b573d6000803e3d6000fd5b505050506040513d601f19601f82011682018060405250810190610cbf9190617950565b600660003373ffffffffffffffffffffffffffffffffffffffff1673ffffffffffffffffffffffffffffffffffffffff16815260200190815260200160002054610d099190617a2b565b421015610d42576040517f6798247200000000000000000000000000000000000000000000000000000000815260040160405180910390fd5b6000600160009054906101000a900473ffffffffffffffffffffffffffffffffffffffff1673ffffffffffffffffffffffffffffffffffffffff1663443bb293336040518263ffffffff1660e01b8152600401610d9f9190617378565b602060405180830381865afa158015610dbc573d6000803e3d6000fd5b505050506040513d601f19601f82011682018060405250810190610de09190617950565b905080821115610e1c576040517f477c0ab200000000000000000000000000000000000000000000000000000000815260040160405180910390fd5b600260009054906101000a900473ffffffffffffffffffffffffffffffffffffffff1673ffffffffffffffffffffffffffffffffffffffff1663deb791d4338484610e679190617a5f565b6040518363ffffffff1660e01b8152600401610e84929190617a93565b60006040518083038186803b158015610e9c57600080fd5b505afa158015610eb0573d6000803e3d6000fd5b505050506000610ebf83612fbc565b90506000600160009054906101000a900473ffffffffffffffffffffffffffffffffffffffff1673ffffffffffffffffffffffffffffffffffffffff1663fb8bd26f33866040518363ffffffff1660e01b8152600401610f20929190617a93565b6020604051808303816000875af1158015610f3f573d6000803e3d6000fd5b505050506040513d601f19601f82011682018060405250810190610f639190617950565b90508360056000828254610f779190617a5f565b92505081905550610fd6338386610f8e9190617a5f565b600060029054906101000a900473ffffffffffffffffffffffffffffffffffffffff1673ffffffffffffffffffffffffffffffffffffffff16612fc39092919063ffffffff16565b610fdf82613049565b3373ffffffffffffffffffffffffffffffffffffffff167fb195a67e698c5700e4f48f7b7748dda3a206ee2767ef024b61a26d7b17b2d63a8583604051611027929190617abc565b60405180910390a250505050565b600033905060008303611074576040517f71799f2a00000000000000000000000000000000000000000000000000000000815260040160405180910390fd5b600061107f82613108565b905061108c8282866132e6565b600061109a838387876134c1565b90508273ffffffffffffffffffffffffffffffffffffffff167f9746c6592592b17b45182a3deb967858803f9a26c5acdeae9c57f2b63760854286836040516110e4929190617abc565b60405180910390a25050505050565b600060d5600083815260200190815260200160002060009054906101000a900473ffffffffffffffffffffffffffffffffffffffff169050919050565b600060d4600083815260200190815260200160002060009054906101000a900460ff169050919050565b600080600080600060029054906101000a900473ffffffffffffffffffffffffffffffffffffffff169350600160009054906101000a900473ffffffffffffffffffffffffffffffffffffffff169250600360009054906101000a900473ffffffffffffffffffffffffffffffffffffffff169150600460009054906101000a900473ffffffffffffffffffffffffffffffffffffffff16905090919293565b600260009054906101000a900473ffffffffffffffffffffffffffffffffffffffff1673ffffffffffffffffffffffffffffffffffffffff1663d8217e48336040518263ffffffff1660e01b81526004016112559190617378565b60006040518083038186803b15801561126d57600080fd5b505afa158015611281573d6000803e3d6000fd5b50505050600060d660008481526020019081526020016000206040518060400160405290816000820160009054906101000a900473ffffffffffffffffffffffffffffffffffffffff1673ffffffffffffffffffffffffffffffffffffffff1673ffffffffffffffffffffffffffffffffffffffff1681526020016001820154815250509050600073ffffffffffffffffffffffffffffffffffffffff16816000015173ffffffffffffffffffffffffffffffffffffffff1603611371576040517fd1696aaa00000000000000000000000000000000000000000000000000000000815260040160405180910390fd5b60d66000848152602001908152602001600020600080820160006101000a81549073ffffffffffffffffffffffffffffffffffffffff021916905560018201600090555050816113c9576113c483612b64565b6113df565b6113de81600001518260200151856002612bca565b5b505050565b6000600260058111156113fa576113f96176b7565b5b606d60008473ffffffffffffffffffffffffffffffffffffffff1673ffffffffffffffffffffffffffffffffffffffff168152602001908152602001600020600101601c9054906101000a900460ff16600581111561145c5761145b6176b7565b5b1061146a576001905061146f565b600090505b919050565b6115133384600260009054906101000a900473ffffffffffffffffffffffffffffffffffffffff1673ffffffffffffffffffffffffffffffffffffffff166399bf392c6040518163ffffffff1660e01b8152600401602060405180830381865afa1580156114e6573d6000803e3d6000fd5b505050506040513d601f19601f8201168201806040525081019061150a9190617950565b8585600061392d565b505050565b611520612df9565b6000600260009054906101000a900473ffffffffffffffffffffffffffffffffffffffff1690508073ffffffffffffffffffffffffffffffffffffffff168273ffffffffffffffffffffffffffffffffffffffff16036115ac576040517f0811ff0900000000000000000000000000000000000000000000000000000000815260040160405180910390fd5b6115b66000613d2a565b60008290508073ffffffffffffffffffffffffffffffffffffffff16636f52071c336040518263ffffffff1660e01b81526004016115f49190617378565b60006040518083038186803b15801561160c57600080fd5b505afa158015611620573d6000803e3d6000fd5b5050505080600260006101000a81548173ffffffffffffffffffffffffffffffffffffffff021916908373ffffffffffffffffffffffffffffffffffffffff16021790555061168e7fffffffffffffffffffffffffffffffffffffffffffffffffffffffffffffffff613d2a565b3373ffffffffffffffffffffffffffffffffffffffff167f3b4ee357b2324b710644b79f0128178b3d3d4151d9886318feedad4d78aa8e5e846040516116d49190617378565b60405180910390a2505050565b6116e9616eb1565b60d360008373ffffffffffffffffffffffffffffffffffffffff1673ffffffffffffffffffffffffffffffffffffffff1681526020019081526020016000206040518060600160405290816000820160009054906101000a900473ffffffffffffffffffffffffffffffffffffffff1673ffffffffffffffffffffffffffffffffffffffff1673ffffffffffffffffffffffffffffffffffffffff1681526020016000820160149054906101000a90046bffffffffffffffffffffffff166bffffffffffffffffffffffff166bffffffffffffffffffffffff1681526020016001820154815250509050919050565b600033905060006117e882613108565b90506117f58282886132e6565b600073ffffffffffffffffffffffffffffffffffffffff168573ffffffffffffffffffffffffffffffffffffffff160361185b576040517f5ff75ab000000000000000000000000000000000000000000000000000000000815260040160405180910390fd5b6002600581111561186f5761186e6176b7565b5b8160e001516005811115611886576118856176b7565b5b146118bd576040517ffc91a98900000000000000000000000000000000000000000000000000000000815260040160405180910390fd5b6118c8828686613e71565b60006118d6838389876134c1565b90508273ffffffffffffffffffffffffffffffffffffffff167fefc1af15703d4f00dc2be0d5afb6cba6a7b80e8e63c4ae6bf208b180b47b3da6888389896040516119249493929190617ae5565b60405180910390a250505050505050565b6000600860008373ffffffffffffffffffffffffffffffffffffffff1673ffffffffffffffffffffffffffffffffffffffff16815260200190815260200160002060009054906101000a900460ff169050919050565b611a2f600160009054906101000a900473ffffffffffffffffffffffffffffffffffffffff1673ffffffffffffffffffffffffffffffffffffffff1663443bb293336040518263ffffffff1660e01b81526004016119e99190617378565b602060405180830381865afa158015611a06573d6000803e3d6000fd5b505050506040513d601f19601f82011682018060405250810190611a2a9190617950565b610bec565b565b611a39612d25565b6001600860008373ffffffffffffffffffffffffffffffffffffffff1673ffffffffffffffffffffffffffffffffffffffff16815260200190815260200160002060006101000a81548160ff0219169083151502179055508073ffffffffffffffffffffffffffffffffffffffff167fa9f7067c5f9d50447dc3bcc7383e76a5823bc40ba532c95cb71ebc44468bd65133604051611ad79190617378565b60405180910390a250565b6000600554905090565b6000600260009054906101000a900473ffffffffffffffffffffffffffffffffffffffff16905090565b611b1e6141f2565b611b2b82600060016142e9565b5080606d60008473ffffffffffffffffffffffffffffffffffffffff1673ffffffffffffffffffffffffffffffffffffffff168152602001908152602001600020600101601a8282829054906101000a900461ffff16611b8b9190617b2a565b92506101000a81548161ffff021916908361ffff1602179055508173ffffffffffffffffffffffffffffffffffffffff167f4fe61c0e9f2d4693e20e44c7358b8b7cec72aa4c4d5fa81f3e1951e0b438cb7a82606d60008673ffffffffffffffffffffffffffffffffffffffff1673ffffffffffffffffffffffffffffffffffffffff168152602001908152602001600020600101601a9054906101000a900461ffff1633604051611c3f93929190617b9b565b60405180910390a25050565b6000600180811115611c6057611c5f6176b7565b5b600760009054906101000a900460ff166001811115611c8257611c816176b7565b5b03611c905760019050611c95565b600090505b90565b6040517f7e73753700000000000000000000000000000000000000000000000000000000815260040160405180910390fd5b611cd2612e86565b611cda6141f2565b611ce3846147da565b6000611cee866148a7565b90508481600001906bffffffffffffffffffffffff1690816bffffffffffffffffffffffff168152505081816020019061ffff16908161ffff168152505083816040019061ffff16908161ffff168152505080606e60008873ffffffffffffffffffffffffffffffffffffffff1673ffffffffffffffffffffffffffffffffffffffff16815260200190815260200160002060008201518160000160006101000a8154816bffffffffffffffffffffffff02191690836bffffffffffffffffffffffff160217905550602082015181600001600c6101000a81548161ffff021916908361ffff160217905550604082015181600001600e6101000a81548161ffff021916908361ffff16021790555060608201518160000160106101000a8154816bffffffffffffffffffffffff02191690836bffffffffffffffffffffffff1602179055509050506000611e4287613108565b9050838160c0019061ffff16908161ffff1681525050611e6a87611e65836149bc565b614b2b565b8673ffffffffffffffffffffffffffffffffffffffff167f41119754b92e2181887e9b7b87648b112076668a140bdf8515b36563e590fb3987878787604051611eb69493929190617bd2565b60405180910390a250505050505050565b611ecf616ef6565b600580811115611ee257611ee16176b7565b5b606d60008473ffffffffffffffffffffffffffffffffffffffff1673ffffffffffffffffffffffffffffffffffffffff168152602001908152602001600020600101601c9054906101000a900460ff166005811115611f4457611f436176b7565b5b14611f7e57611f52826107c4565b15611f6a57611f63826000806142e9565b9050611f7f565b611f7782600060016142e9565b9050611f7f565b5b919050565b611f8c616f8c565b606e60008373ffffffffffffffffffffffffffffffffffffffff1673ffffffffffffffffffffffffffffffffffffffff1681526020019081526020016000206040518060800160405290816000820160009054906101000a90046bffffffffffffffffffffffff166bffffffffffffffffffffffff166bffffffffffffffffffffffff16815260200160008201600c9054906101000a900461ffff1661ffff1661ffff16815260200160008201600e9054906101000a900461ffff1661ffff1661ffff1681526020016000820160109054906101000a90046bffffffffffffffffffffffff166bffffffffffffffffffffffff166bffffffffffffffffffffffff16815250509050919050565b6120a16141f2565b6120ab8782614cf6565b600073ffffffffffffffffffffffffffffffffffffffff168373ffffffffffffffffffffffffffffffffffffffff1603612111576040517f5ff75ab000000000000000000000000000000000000000000000000000000000815260040160405180910390fd5b61211d88848484614ddc565b61212c8888868989600161392d565b5050505050505050565b600260009054906101000a900473ffffffffffffffffffffffffffffffffffffffff1673ffffffffffffffffffffffffffffffffffffffff1663c8fb307a336040518263ffffffff1660e01b81526004016121919190617378565b60006040518083038186803b1580156121a957600080fd5b505afa1580156121bd573d6000803e3d6000fd5b505050506121cb338261500a565b50565b6121d6612df9565b6121de6152c9565b565b6121e8612e86565b6121f2338261500a565b50565b6121fd612d25565b6000600860008373ffffffffffffffffffffffffffffffffffffffff1673ffffffffffffffffffffffffffffffffffffffff16815260200190815260200160002060006101000a81548160ff0219169083151502179055508073ffffffffffffffffffffffffffffffffffffffff167fd544c312f8b518478a8716753ecf56270e81e9f14b80aa1bd71ec2dfeac420553360405161229b9190617378565b60405180910390a250565b60008060019054906101000a900460ff161590508080156122d75750600160008054906101000a900460ff1660ff16105b8061230457506122e6306154c6565b1580156123035750600160008054906101000a900460ff1660ff16145b5b612343576040517f08c379a000000000000000000000000000000000000000000000000000000000815260040161233a90617c9a565b60405180910390fd5b60016000806101000a81548160ff021916908360ff1602179055508015612380576001600060016101000a81548160ff0219169083151502179055505b81600260006101000a81548173ffffffffffffffffffffffffffffffffffffffff021916908373ffffffffffffffffffffffffffffffffffffffff1602179055506123c96152c9565b6123f27fffffffffffffffffffffffffffffffffffffffffffffffffffffffffffffffff613d2a565b6000600760006101000a81548160ff02191690836001811115612418576124176176b7565b5b021790555080156124765760008060016101000a81548160ff0219169083151502179055507f7f26b83ff96e1f2b6a682f133852f6798a09c465da95921460cefb3847402498600160405161246d9190617d02565b60405180910390a15b5050565b6000600260058111156124905761248f6176b7565b5b606d60008473ffffffffffffffffffffffffffffffffffffffff1673ffffffffffffffffffffffffffffffffffffffff168152602001908152602001600020600101601c9054906101000a900460ff1660058111156124f2576124f16176b7565b5b1180156125bd57506000606d60008473ffffffffffffffffffffffffffffffffffffffff1673ffffffffffffffffffffffffffffffffffffffff16815260200190815260200160002060010160189054906101000a900461ffff1661ffff1611806125bc5750606d60008373ffffffffffffffffffffffffffffffffffffffff1673ffffffffffffffffffffffffffffffffffffffff168152602001908152602001600020600001600c9054906101000a900467ffffffffffffffff1667ffffffffffffffff1642115b5b6125c85760006125cb565b60015b9050919050565b6125dc82826154e9565b6125e682826155fe565b5050565b6000808373ffffffffffffffffffffffffffffffffffffffff163373ffffffffffffffffffffffffffffffffffffffff161461262957612628612a6d565b5b612635848460006159f6565b5080925081935050509250929050565b61264d616ef6565b606d60008373ffffffffffffffffffffffffffffffffffffffff1673ffffffffffffffffffffffffffffffffffffffff168152602001908152602001600020604051806101000160405290816000820160009054906101000a90046bffffffffffffffffffffffff166bffffffffffffffffffffffff166bffffffffffffffffffffffff16815260200160008201600c9054906101000a900467ffffffffffffffff1667ffffffffffffffff1667ffffffffffffffff1681526020016000820160149054906101000a9004600b0b600b0b600b0b81526020016001820160009054906101000a90046bffffffffffffffffffffffff166bffffffffffffffffffffffff166bffffffffffffffffffffffff16815260200160018201600c9054906101000a90046bffffffffffffffffffffffff166bffffffffffffffffffffffff166bffffffffffffffffffffffff1681526020016001820160189054906101000a900461ffff1661ffff1661ffff16815260200160018201601a9054906101000a900461ffff1661ffff1661ffff16815260200160018201601c9054906101000a900460ff166005811115612806576128056176b7565b5b6005811115612818576128176176b7565b5b815250509050919050565b600061282d612e86565b600061283883613108565b905060058081111561284d5761284c6176b7565b5b8160e001516005811115612864576128636176b7565b5b0361289b576040517feb8d2ccc00000000000000000000000000000000000000000000000000000000815260040160405180910390fd5b806020015167ffffffffffffffff164211156128c0576128bd836000806142e9565b90505b6128c9836107c4565b6128ff576040517f7872424e00000000000000000000000000000000000000000000000000000000815260040160405180910390fd5b8060800151816060015182600001516129189190617d1d565b6129229190617d5d565b6bffffffffffffffffffffffff1691506005606d60008573ffffffffffffffffffffffffffffffffffffffff1673ffffffffffffffffffffffffffffffffffffffff168152602001908152602001600020600101601c6101000a81548160ff02191690836005811115612998576129976176b7565b5b021790555081606e60008573ffffffffffffffffffffffffffffffffffffffff1673ffffffffffffffffffffffffffffffffffffffff16815260200190815260200160002060000160106101000a8154816bffffffffffffffffffffffff02191690836bffffffffffffffffffffffff160217905550612a17826163b0565b8273ffffffffffffffffffffffffffffffffffffffff167f8e44ab46e168f7dd30b75bdf0f2d076c150375c131cba238ec348865e9f4d8b08333604051612a5f929190617d9d565b60405180910390a250919050565b600360009054906101000a900473ffffffffffffffffffffffffffffffffffffffff1673ffffffffffffffffffffffffffffffffffffffff166397e537876040518163ffffffff1660e01b8152600401602060405180830381865afa158015612ada573d6000803e3d6000fd5b505050506040513d601f19601f82011682018060405250810190612afe9190617ddb565b73ffffffffffffffffffffffffffffffffffffffff163373ffffffffffffffffffffffffffffffffffffffff1614612b62576040517f731b978f00000000000000000000000000000000000000000000000000000000815260040160405180910390fd5b565b600160d4600083815260200190815260200160002060006101000a81548160ff0219169083151502179055507f6a9acb03f2a4f5d762bd6059c47f29908bc5bccede200d331de6e3281e9ce40a81604051612bbf9190617e17565b60405180910390a150565b612bd2612e86565b60d4600083815260200190815260200160002060009054906101000a900460ff1615612c2a576040517ffd6754cf00000000000000000000000000000000000000000000000000000000815260040160405180910390fd5b6000806000612c3a8787866159f6565b92509250925080612d1057600160d4600087815260200190815260200160002060006101000a81548160ff02191690831515021790555082861115612c8f57612c8e878488612c899190617a5f565b61641f565b5b8115612ca457612ca3876000806000614ddc565b5b8673ffffffffffffffffffffffffffffffffffffffff163373ffffffffffffffffffffffffffffffffffffffff167fed44f95a94b2e3cf217c84deed062e2b574346e1d71ffc03a07b2cac406a93f58888604051612d03929190617e32565b60405180910390a3612d1c565b612d1b8588886164be565b5b50505050505050565b600260009054906101000a900473ffffffffffffffffffffffffffffffffffffffff1673ffffffffffffffffffffffffffffffffffffffff16636d70f7ae336040518263ffffffff1660e01b8152600401612d809190617378565b602060405180830381865afa158015612d9d573d6000803e3d6000fd5b505050506040513d601f19601f82011682018060405250810190612dc19190617e70565b612df7576040517fdc2dc6d000000000000000000000000000000000000000000000000000000000815260040160405180910390fd5b565b600260009054906101000a900473ffffffffffffffffffffffffffffffffffffffff1673ffffffffffffffffffffffffffffffffffffffff16636f52071c336040518263ffffffff1660e01b8152600401612e549190617378565b60006040518083038186803b158015612e6c57600080fd5b505afa158015612e80573d6000803e3d6000fd5b50505050565b600360009054906101000a900473ffffffffffffffffffffffffffffffffffffffff1673ffffffffffffffffffffffffffffffffffffffff16635c975abb6040518163ffffffff1660e01b8152600401602060405180830381865afa158015612ef3573d6000803e3d6000fd5b505050506040513d601f19601f82011682018060405250810190612f179190617e70565b15612f4e576040517f8f6fa2d400000000000000000000000000000000000000000000000000000000815260040160405180910390fd5b600180811115612f6157612f606176b7565b5b600760009054906101000a900460ff166001811115612f8357612f826176b7565b5b14612fba576040517f69b355df00000000000000000000000000000000000000000000000000000000815260040160405180910390fd5b565b6000919050565b6130448363a9059cbb60e01b8484604051602401612fe2929190617a93565b604051602081830303815290604052907bffffffffffffffffffffffffffffffffffffffffffffffffffffffff19166020820180517bffffffffffffffffffffffffffffffffffffffffffffffffffffffff83818316178352505050506165a4565b505050565b6000600260009054906101000a900473ffffffffffffffffffffffffffffffffffffffff1673ffffffffffffffffffffffffffffffffffffffff1663ef06fb73836040518263ffffffff1660e01b81526004016130a6919061711f565b6020604051808303816000875af11580156130c5573d6000803e3d6000fd5b505050506040513d601f19601f820116820180604052508101906130e99190617950565b905080600560008282546130fd9190617a2b565b925050819055505050565b613110616ef6565b606d60008373ffffffffffffffffffffffffffffffffffffffff1673ffffffffffffffffffffffffffffffffffffffff168152602001908152602001600020604051806101000160405290816000820160009054906101000a90046bffffffffffffffffffffffff166bffffffffffffffffffffffff166bffffffffffffffffffffffff16815260200160008201600c9054906101000a900467ffffffffffffffff1667ffffffffffffffff1667ffffffffffffffff1681526020016000820160149054906101000a9004600b0b600b0b600b0b81526020016001820160009054906101000a90046bffffffffffffffffffffffff166bffffffffffffffffffffffff166bffffffffffffffffffffffff16815260200160018201600c9054906101000a90046bffffffffffffffffffffffff166bffffffffffffffffffffffff166bffffffffffffffffffffffff1681526020016001820160189054906101000a900461ffff1661ffff1661ffff16815260200160018201601a9054906101000a900461ffff1661ffff1661ffff16815260200160018201601c9054906101000a900460ff1660058111156132c9576132c86176b7565b5b60058111156132db576132da6176b7565b5b815250509050919050565b6132ee612e86565b60036005811115613302576133016176b7565b5b8260e001516005811115613319576133186176b7565b5b14158015613350575060026005811115613336576133356176b7565b5b8260e00151600581111561334d5761334c6176b7565b5b14155b15613387576040517f4ff95a6d00000000000000000000000000000000000000000000000000000000815260040160405180910390fd5b6002600581111561339b5761339a6176b7565b5b8260e0015160058111156133b2576133b16176b7565b5b036134bc576000826020015167ffffffffffffffff161180156133e25750816020015167ffffffffffffffff1642115b15613419576040517f9fac739000000000000000000000000000000000000000000000000000000000815260040160405180910390fd5b606e60008473ffffffffffffffffffffffffffffffffffffffff1673ffffffffffffffffffffffffffffffffffffffff16815260200190815260200160002060000160009054906101000a90046bffffffffffffffffffffffff166bffffffffffffffffffffffff168111156134bb576040517fef7d66ff00000000000000000000000000000000000000000000000000000000815260040160405180910390fd5b5b505050565b6000600260058111156134d7576134d66176b7565b5b8460e0015160058111156134ee576134ed6176b7565b5b036135a85782606d60008773ffffffffffffffffffffffffffffffffffffffff1673ffffffffffffffffffffffffffffffffffffffff16815260200190815260200160002060000160006101000a8154816bffffffffffffffffffffffff02191690836bffffffffffffffffffffffff160217905550613570856001806142e9565b935060038460e00190600581111561358b5761358a6176b7565b5b9081600581111561359f5761359e6176b7565b5b81525050613814565b836020015167ffffffffffffffff16421115613630576135cb85600060016142e9565b9350600360058111156135e1576135e06176b7565b5b8460e0015160058111156135f8576135f76176b7565b5b1461362f576040517f96e7947400000000000000000000000000000000000000000000000000000000815260040160405180910390fd5b5b836080015184606001516136449190617d5d565b8460000151606e60008873ffffffffffffffffffffffffffffffffffffffff1673ffffffffffffffffffffffffffffffffffffffff16815260200190815260200160002060000160009054906101000a90046bffffffffffffffffffffffff166136ae9190617d5d565b6136b89190617d5d565b6bffffffffffffffffffffffff168311156136ff576040517fef7d66ff00000000000000000000000000000000000000000000000000000000815260040160405180910390fd5b60008460c0015161ffff1603613741576040517fa52f3c3f00000000000000000000000000000000000000000000000000000000815260040160405180910390fd5b6137ae846020015167ffffffffffffffff16606e60008873ffffffffffffffffffffffffffffffffffffffff1673ffffffffffffffffffffffffffffffffffffffff168152602001908152602001600020600001600c9054906101000a900461ffff1661ffff168561666b565b846040018181516137bf9190617e9d565b915090600b0b9081600b0b815250508284600001516bffffffffffffffffffffffff166137ec9190617a2b565b84600001906bffffffffffffffffffffffff1690816bffffffffffffffffffffffff16815250505b61381e8585614b2b565b600080600460009054906101000a900473ffffffffffffffffffffffffffffffffffffffff1673ffffffffffffffffffffffffffffffffffffffff16632a56916b866040518263ffffffff1660e01b815260040161387c919061711f565b6040805180830381865afa158015613898573d6000803e3d6000fd5b505050506040513d601f19601f820116820180604052508101906138bc9190617f01565b9150915060008111156138d3576138d281613049565b5b6139208483600060029054906101000a900473ffffffffffffffffffffffffffffffffffffffff1673ffffffffffffffffffffffffffffffffffffffff16612fc39092919063ffffffff16565b8192505050949350505050565b60008203613967576040517fb16dd34d00000000000000000000000000000000000000000000000000000000815260040160405180910390fd5b61396f612e86565b600061397a87613108565b9050600060058111156139905761398f6176b7565b5b8160e0015160058111156139a7576139a66176b7565b5b14613ac3576139b987600060016142e9565b9050600081606001516bffffffffffffffffffffffff161480156139ef5750600081600001516bffffffffffffffffffffffff16145b15613a905760008160e001906005811115613a0d57613a0c6176b7565b5b90816005811115613a2157613a206176b7565b5b8152505060008160c0019061ffff16908161ffff16815250508673ffffffffffffffffffffffffffffffffffffffff167fce0bab896b3cb48841a0bae00ecb73380a851414117c4faa23b090f0246f328c336002604051613a83929190617f89565b60405180910390a2613ac2565b6040517f6c5805f200000000000000000000000000000000000000000000000000000000815260040160405180910390fd5b5b613acc866147da565b6040518060800160405280876bffffffffffffffffffffffff1681526020018661ffff1681526020018561ffff16815260200160006bffffffffffffffffffffffff16815250606e60008973ffffffffffffffffffffffffffffffffffffffff1673ffffffffffffffffffffffffffffffffffffffff16815260200190815260200160002060008201518160000160006101000a8154816bffffffffffffffffffffffff02191690836bffffffffffffffffffffffff160217905550602082015181600001600c6101000a81548161ffff021916908361ffff160217905550604082015181600001600e6101000a81548161ffff021916908361ffff16021790555060608201518160000160106101000a8154816bffffffffffffffffffffffff02191690836bffffffffffffffffffffffff160217905550905050613c10616ef6565b838160c0019061ffff16908161ffff16815250508215613c8e57613c33816149bc565b90508773ffffffffffffffffffffffffffffffffffffffff167f41119754b92e2181887e9b7b87648b112076668a140bdf8515b36563e590fb398887878a604051613c819493929190617bd2565b60405180910390a2613cc0565b60018160e001906005811115613ca757613ca66176b7565b5b90816005811115613cbb57613cba6176b7565b5b815250505b613cca8882614b2b565b8773ffffffffffffffffffffffffffffffffffffffff167f606a044ecfd598a9ecc0b6e6b499b23d94fb45ce11b84a09831148622de88fdf8888888888604051613d18959493929190617fb2565b60405180910390a25050505050505050565b6000600260009054906101000a900473ffffffffffffffffffffffffffffffffffffffff16905060008060029054906101000a900473ffffffffffffffffffffffffffffffffffffffff1673ffffffffffffffffffffffffffffffffffffffff1663dd62ed3e30846040518363ffffffff1660e01b8152600401613daf929190618005565b602060405180830381865afa158015613dcc573d6000803e3d6000fd5b505050506040513d601f19601f82011682018060405250810190613df09190617950565b9050600083148015613e025750600081115b80613e195750600083118015613e185750600081145b5b15613e6c57613e6b8284600060029054906101000a900473ffffffffffffffffffffffffffffffffffffffff1673ffffffffffffffffffffffffffffffffffffffff166167169092919063ffffffff16565b5b505050565b600060d360008573ffffffffffffffffffffffffffffffffffffffff1673ffffffffffffffffffffffffffffffffffffffff1681526020019081526020016000206040518060600160405290816000820160009054906101000a900473ffffffffffffffffffffffffffffffffffffffff1673ffffffffffffffffffffffffffffffffffffffff1673ffffffffffffffffffffffffffffffffffffffff1681526020016000820160149054906101000a90046bffffffffffffffffffffffff166bffffffffffffffffffffffff166bffffffffffffffffffffffff1681526020016001820154815250509050600073ffffffffffffffffffffffffffffffffffffffff16816000015173ffffffffffffffffffffffffffffffffffffffff1603613f9e57613f9d61802e565b5b806000015173ffffffffffffffffffffffffffffffffffffffff168373ffffffffffffffffffffffffffffffffffffffff1614614007576040517f41dbeec100000000000000000000000000000000000000000000000000000000815260040160405180910390fd5b6140507f80ac58cd000000000000000000000000000000000000000000000000000000008473ffffffffffffffffffffffffffffffffffffffff1661686590919063ffffffff16565b15614180578360d56000858560405160200161406d929190617a93565b60405160208183030381529060405280519060200120815260200190815260200160002060006101000a81548173ffffffffffffffffffffffffffffffffffffffff021916908373ffffffffffffffffffffffffffffffffffffffff1602179055508181604001511461410c576040517f1400a0b400000000000000000000000000000000000000000000000000000000815260040160405180910390fd5b8273ffffffffffffffffffffffffffffffffffffffff166342842e0e8530856040518463ffffffff1660e01b81526004016141499392919061805d565b600060405180830381600087803b15801561416357600080fd5b505af1158015614177573d6000803e3d6000fd5b505050506141ec565b80604001518210156141be576040517ff7f3485400000000000000000000000000000000000000000000000000000000815260040160405180910390fd5b6141eb8430848673ffffffffffffffffffffffffffffffffffffffff1661688a909392919063ffffffff16565b5b50505050565b600360009054906101000a900473ffffffffffffffffffffffffffffffffffffffff1673ffffffffffffffffffffffffffffffffffffffff1663848b2b056040518163ffffffff1660e01b8152600401602060405180830381865afa15801561425f573d6000803e3d6000fd5b505050506040513d601f19601f820116820180604052508101906142839190617ddb565b73ffffffffffffffffffffffffffffffffffffffff163373ffffffffffffffffffffffffffffffffffffffff16146142e7576040517f9b3b1ed600000000000000000000000000000000000000000000000000000000815260040160405180910390fd5b565b6142f1616ef6565b6142fa84613108565b90508215614324576000816020019067ffffffffffffffff16908167ffffffffffffffff16815250505b60008082606001516bffffffffffffffffffffffff1611614346576000614349565b60015b9050600080600460009054906101000a900473ffffffffffffffffffffffffffffffffffffffff1673ffffffffffffffffffffffffffffffffffffffff1663b00db01d856143968a6148a7565b6040518363ffffffff1660e01b81526004016143b3929190618094565b60a060405180830381865afa1580156143d0573d6000803e3d6000fd5b505050506040513d601f19601f820116820180604052508101906143f49190618117565b88608001896060018a600001839850846bffffffffffffffffffffffff166bffffffffffffffffffffffff16815250846bffffffffffffffffffffffff166bffffffffffffffffffffffff16815250846bffffffffffffffffffffffff166bffffffffffffffffffffffff16815250849650505050505060008211156147d05760008460400190600b0b9081600b0b8152505060058081111561449a576144996176b7565b5b8460e0015160058111156144b1576144b06176b7565b5b1461452857846144ce578360800151816144cb9190618192565b90505b600081600b0b13156144f6576144f1816bffffffffffffffffffffffff16613049565b614527565b600081600b0b1215614526576145258160006145129190618192565b6bffffffffffffffffffffffff16616913565b5b5b5b6000606e60008973ffffffffffffffffffffffffffffffffffffffff1673ffffffffffffffffffffffffffffffffffffffff168152602001908152602001600020600001600e9054906101000a900461ffff1690506000856020015167ffffffffffffffff1611156145ef57620151808161ffff16846145a891906179e9565b6145b291906179e9565b856020015167ffffffffffffffff166145cb9190617a2b565b856020019067ffffffffffffffff16908167ffffffffffffffff168152505061462d565b620151808161ffff1661460291906179e9565b4261460d9190617a2b565b856020019067ffffffffffffffff16908167ffffffffffffffff16815250505b828560c0015161ffff16111561466957828560c0015161ffff166146519190617a5f565b8560c0019061ffff16908161ffff168152505061467f565b60008560c0019061ffff16908161ffff16815250505b83156146b157828560a0015161ffff166146999190617a2b565b8560a0019061ffff16908161ffff16815250506146c7565b60008560a0019061ffff16908161ffff16815250505b60008560a0015161ffff16111561473e576005808111156146eb576146ea6176b7565b5b8560e001516005811115614702576147016176b7565b5b146147395760048560e0019060058111156147205761471f6176b7565b5b90816005811115614734576147336176b7565b5b815250505b614770565b60038560e001906005811115614757576147566176b7565b5b9081600581111561476b5761476a6176b7565b5b815250505b61477a8886614b2b565b8773ffffffffffffffffffffffffffffffffffffffff167f5e06f3c1aadf157a3c3e16d2173f927b27c3c13e2864f97b8ac93f748388556e8660200151336040516147c6929190618227565b60405180910390a2505b5050509392505050565b600260009054906101000a900473ffffffffffffffffffffffffffffffffffffffff1673ffffffffffffffffffffffffffffffffffffffff1663fe2a4ec96040518163ffffffff1660e01b8152600401602060405180830381865afa158015614847573d6000803e3d6000fd5b505050506040513d601f19601f8201168201806040525081019061486b9190617950565b8111156148a4576040517f8a754ae800000000000000000000000000000000000000000000000000000000815260040160405180910390fd5b50565b6148af616f8c565b606e60008373ffffffffffffffffffffffffffffffffffffffff1673ffffffffffffffffffffffffffffffffffffffff1681526020019081526020016000206040518060800160405290816000820160009054906101000a90046bffffffffffffffffffffffff166bffffffffffffffffffffffff166bffffffffffffffffffffffff16815260200160008201600c9054906101000a900461ffff1661ffff1661ffff16815260200160008201600e9054906101000a900461ffff1661ffff1661ffff1681526020016000820160109054906101000a90046bffffffffffffffffffffffff166bffffffffffffffffffffffff166bffffffffffffffffffffffff16815250509050919050565b6149c4616ef6565b600260058111156149d8576149d76176b7565b5b8260e0015160058111156149ef576149ee6176b7565b5b1115614a27576040517fc64e338c00000000000000000000000000000000000000000000000000000000815260040160405180910390fd5b6000600260009054906101000a900473ffffffffffffffffffffffffffffffffffffffff1673ffffffffffffffffffffffffffffffffffffffff166318d170c46040518163ffffffff1660e01b8152600401602060405180830381865afa158015614a96573d6000803e3d6000fd5b505050506040513d601f19601f82011682018060405250810190614aba9190617950565b90506000811115614af1578042614ad19190617a2b565b836020019067ffffffffffffffff16908167ffffffffffffffff16815250505b60028360e001906005811115614b0a57614b096176b7565b5b90816005811115614b1e57614b1d6176b7565b5b8152505082915050919050565b80606d60008473ffffffffffffffffffffffffffffffffffffffff1673ffffffffffffffffffffffffffffffffffffffff16815260200190815260200160002060008201518160000160006101000a8154816bffffffffffffffffffffffff02191690836bffffffffffffffffffffffff160217905550602082015181600001600c6101000a81548167ffffffffffffffff021916908367ffffffffffffffff16021790555060408201518160000160146101000a8154816bffffffffffffffffffffffff0219169083600b0b6bffffffffffffffffffffffff16021790555060608201518160010160006101000a8154816bffffffffffffffffffffffff02191690836bffffffffffffffffffffffff160217905550608082015181600101600c6101000a8154816bffffffffffffffffffffffff02191690836bffffffffffffffffffffffff16021790555060a08201518160010160186101000a81548161ffff021916908361ffff16021790555060c082015181600101601a6101000a81548161ffff021916908361ffff16021790555060e082015181600101601c6101000a81548160ff02191690836005811115614cea57614ce96176b7565b5b02179055509050505050565b612710600260009054906101000a900473ffffffffffffffffffffffffffffffffffffffff1673ffffffffffffffffffffffffffffffffffffffff1663a55238986040518163ffffffff1660e01b8152600401602060405180830381865afa158015614d66573d6000803e3d6000fd5b505050506040513d601f19601f82011682018060405250810190614d8a9190617950565b83614d9591906179e9565b614d9f919061827f565b811015614dd8576040517ff7f3485400000000000000000000000000000000000000000000000000000000815260040160405180910390fd5b5050565b600073ffffffffffffffffffffffffffffffffffffffff168373ffffffffffffffffffffffffffffffffffffffff1614158015614e5f5750614e5d7f80ac58cd000000000000000000000000000000000000000000000000000000008473ffffffffffffffffffffffffffffffffffffffff1661686590919063ffffffff16565b155b8015614eb15750614eaf7f36372b07000000000000000000000000000000000000000000000000000000008473ffffffffffffffffffffffffffffffffffffffff1661686590919063ffffffff16565b155b15614ee8576040517fe60c383e00000000000000000000000000000000000000000000000000000000815260040160405180910390fd5b600060405180606001604052808573ffffffffffffffffffffffffffffffffffffffff168152602001836affffffffffffffffffffff166bffffffffffffffffffffffff1681526020018481525090508060d360008773ffffffffffffffffffffffffffffffffffffffff1673ffffffffffffffffffffffffffffffffffffffff16815260200190815260200160002060008201518160000160006101000a81548173ffffffffffffffffffffffffffffffffffffffff021916908373ffffffffffffffffffffffffffffffffffffffff16021790555060208201518160000160146101000a8154816bffffffffffffffffffffffff02191690836bffffffffffffffffffffffff160217905550604082015181600101559050505050505050565b60008103615044576040517f71799f2a00000000000000000000000000000000000000000000000000000000815260040160405180910390fd5b61504d826169ea565b600260009054906101000a900473ffffffffffffffffffffffffffffffffffffffff1673ffffffffffffffffffffffffffffffffffffffff1663b4583a926040518163ffffffff1660e01b8152600401602060405180830381865afa1580156150ba573d6000803e3d6000fd5b505050506040513d601f19601f820116820180604052508101906150de9190617950565b816005546150ec9190617a2b565b1115615124576040517f5642ebd400000000000000000000000000000000000000000000000000000000815260040160405180910390fd5b6000600160009054906101000a900473ffffffffffffffffffffffffffffffffffffffff1673ffffffffffffffffffffffffffffffffffffffff16630e583dd284846040518363ffffffff1660e01b8152600401615183929190617a93565b6020604051808303816000875af11580156151a2573d6000803e3d6000fd5b505050506040513d601f19601f820116820180604052508101906151c69190617950565b905042600660008573ffffffffffffffffffffffffffffffffffffffff1673ffffffffffffffffffffffffffffffffffffffff16815260200190815260200160002081905550816005600082825461521e9190617a2b565b92505081905550615274833084600060029054906101000a900473ffffffffffffffffffffffffffffffffffffffff1673ffffffffffffffffffffffffffffffffffffffff1661688a909392919063ffffffff16565b8273ffffffffffffffffffffffffffffffffffffffff167fb7cd4486a08dcd2bf7da217a07d1069da69db8ffb3518c7014d6e6d4d973a55283836040516152bc929190617abc565b60405180910390a2505050565b600080600080600260009054906101000a900473ffffffffffffffffffffffffffffffffffffffff1673ffffffffffffffffffffffffffffffffffffffff16634d9d55946040518163ffffffff1660e01b8152600401608060405180830381865afa15801561533c573d6000803e3d6000fd5b505050506040513d601f19601f8201168201806040525081019061536091906182b0565b935093509350935083600060026101000a81548173ffffffffffffffffffffffffffffffffffffffff021916908373ffffffffffffffffffffffffffffffffffffffff16021790555082600160006101000a81548173ffffffffffffffffffffffffffffffffffffffff021916908373ffffffffffffffffffffffffffffffffffffffff16021790555081600360006101000a81548173ffffffffffffffffffffffffffffffffffffffff021916908373ffffffffffffffffffffffffffffffffffffffff16021790555080600460006101000a81548173ffffffffffffffffffffffffffffffffffffffff021916908373ffffffffffffffffffffffffffffffffffffffff1602179055503373ffffffffffffffffffffffffffffffffffffffff167fcf5694ba4d292446cb12f93b0c317c6f3d28a9a7b37c43aa354bc95cfa9e5ac8858585856040516154b89493929190617393565b60405180910390a250505050565b6000808273ffffffffffffffffffffffffffffffffffffffff163b119050919050565b600073ffffffffffffffffffffffffffffffffffffffff1660d360008473ffffffffffffffffffffffffffffffffffffffff1673ffffffffffffffffffffffffffffffffffffffff16815260200190815260200160002060000160009054906101000a900473ffffffffffffffffffffffffffffffffffffffff1673ffffffffffffffffffffffffffffffffffffffff16036155885761558761802e565b5b6155fa8160d360008573ffffffffffffffffffffffffffffffffffffffff1673ffffffffffffffffffffffffffffffffffffffff16815260200190815260200160002060000160149054906101000a90046bffffffffffffffffffffffff166bffffffffffffffffffffffff16614cf6565b5050565b615606612e86565b61560f816147da565b6000606e60008473ffffffffffffffffffffffffffffffffffffffff1673ffffffffffffffffffffffffffffffffffffffff16815260200190815260200160002060000160009054906101000a90046bffffffffffffffffffffffff166bffffffffffffffffffffffff169050808211156156915761568c6141f2565b6157c1565b8273ffffffffffffffffffffffffffffffffffffffff163373ffffffffffffffffffffffffffffffffffffffff16141580156157895750600360009054906101000a900473ffffffffffffffffffffffffffffffffffffffff1673ffffffffffffffffffffffffffffffffffffffff1663848b2b056040518163ffffffff1660e01b8152600401602060405180830381865afa158015615735573d6000803e3d6000fd5b505050506040513d601f19601f820116820180604052508101906157599190617ddb565b73ffffffffffffffffffffffffffffffffffffffff163373ffffffffffffffffffffffffffffffffffffffff1614155b156157c0576040517fd61dbe3100000000000000000000000000000000000000000000000000000000815260040160405180910390fd5b5b81606e60008573ffffffffffffffffffffffffffffffffffffffff1673ffffffffffffffffffffffffffffffffffffffff16815260200190815260200160002060000160006101000a8154816bffffffffffffffffffffffff02191690836bffffffffffffffffffffffff160217905550600082036159a157600061584984600060016142e9565b9050600081606001516bffffffffffffffffffffffff1614801561587f5750600081600001516bffffffffffffffffffffffff16145b15615941576000606d60008673ffffffffffffffffffffffffffffffffffffffff1673ffffffffffffffffffffffffffffffffffffffff168152602001908152602001600020600101601c6101000a81548160ff021916908360058111156158ea576158e96176b7565b5b02179055508373ffffffffffffffffffffffffffffffffffffffff167fce0bab896b3cb48841a0bae00ecb73380a851414117c4faa23b090f0246f328c336001604051615938929190617f89565b60405180910390a25b6000606d60008673ffffffffffffffffffffffffffffffffffffffff1673ffffffffffffffffffffffffffffffffffffffff168152602001908152602001600020600101601a6101000a81548161ffff021916908361ffff160217905550505b8273ffffffffffffffffffffffffffffffffffffffff167f628a521503c1fd7f83a1ffec5997c50e662e9e191be5168ade43b20a70b3344a82846040516159e9929190617abc565b60405180910390a2505050565b6000806000615a03612e86565b60008503615a3d576040517f71799f2a00000000000000000000000000000000000000000000000000000000815260040160405180910390fd5b6000615a4887613108565b905060016005811115615a5e57615a5d6176b7565b5b8160e001516005811115615a7557615a746176b7565b5b1480615aa9575060026005811115615a9057615a8f6176b7565b5b8160e001516005811115615aa757615aa66176b7565b5b145b80615adc575060006005811115615ac357615ac26176b7565b5b8160e001516005811115615ada57615ad96176b7565b5b145b15615b7d5760006002811115615af557615af46176b7565b5b856002811115615b0857615b076176b7565b5b03615b3f576040517ff023e48b00000000000000000000000000000000000000000000000000000000815260040160405180910390fd5b60016002811115615b5357615b526176b7565b5b856002811115615b6657615b656176b7565b5b03615b7c576000806001935093509350506163a7565b5b806020015167ffffffffffffffff16421115615ba357615ba087600060016142e9565b90505b6000615c42826020015167ffffffffffffffff16606e60008b73ffffffffffffffffffffffffffffffffffffffff1673ffffffffffffffffffffffffffffffffffffffff168152602001908152602001600020600001600c9054906101000a900461ffff1661ffff16846080015185606001518660000151615c259190617d1d565b615c2f9190617d5d565b6bffffffffffffffffffffffff1661666b565b90506000818360400151600b0b84600001518560600151615c639190617d1d565b600b0b615c709190618321565b615c7a9190617a5f565b905060016002811115615c9057615c8f6176b7565b5b876002811115615ca357615ca26176b7565b5b03615cff57806005615cb591906179e9565b881115615cfe57615cc5896148a7565b600001516bffffffffffffffffffffffff166005615ce391906179e9565b881115615cfd5760008060019550955095505050506163a7565b5b5b60008060009050828a10156160395784606001516bffffffffffffffffffffffff168a1015615e22578991508985606001516bffffffffffffffffffffffff16615d499190617a5f565b85606001906bffffffffffffffffffffffff1690816bffffffffffffffffffffffff168152505084608001516bffffffffffffffffffffffff168a11615dd3578985608001516bffffffffffffffffffffffff16615da79190617a5f565b85608001906bffffffffffffffffffffffff1690816bffffffffffffffffffffffff1681525050615e1d565b84608001516bffffffffffffffffffffffff168a615df19190617a5f565b9050600085608001906bffffffffffffffffffffffff1690816bffffffffffffffffffffffff16815250505b615f63565b89915084606001516bffffffffffffffffffffffff168a615e439190617a5f565b85600001818151615e549190617d5d565b9150906bffffffffffffffffffffffff1690816bffffffffffffffffffffffff168152505084608001516bffffffffffffffffffffffff168a615e979190617a5f565b9050600085606001906bffffffffffffffffffffffff1690816bffffffffffffffffffffffff1681525050600085608001906bffffffffffffffffffffffff1690816bffffffffffffffffffffffff168152505060008560a0019061ffff16908161ffff168152505060046005811115615f1457615f136176b7565b5b8560e001516005811115615f2b57615f2a6176b7565b5b03615f625760038560e001906005811115615f4957615f486176b7565b5b90816005811115615f5d57615f5c6176b7565b5b815250505b5b6000811115615ffa57615fd9856020015167ffffffffffffffff16606e60008e73ffffffffffffffffffffffffffffffffffffffff1673ffffffffffffffffffffffffffffffffffffffff168152602001908152602001600020600001600c9054906101000a900461ffff1661ffff168361666b565b85604001818151615fea9190618192565b915090600b0b9081600b0b815250505b60058081111561600d5761600c6176b7565b5b8560e001516005811115616024576160236176b7565b5b03616034576160338b83616a70565b5b6162a5565b8460800151856060015186600001516160529190617d1d565b61605c9190617d5d565b6bffffffffffffffffffffffff169050829150600580811115616082576160816176b7565b5b8560e001516005811115616099576160986176b7565b5b036160ad576160a88b83616a70565b616138565b8385604001516160bd9190618192565b8560400190600b0b9081600b0b8152505060008560400151600b0b13156160fe576160f985604001516bffffffffffffffffffffffff16613049565b616137565b60008560400151600b0b121561613657616135856040015160006161229190618192565b6bffffffffffffffffffffffff16616913565b5b5b5b60008560400190600b0b9081600b0b81525050600085600001906bffffffffffffffffffffffff1690816bffffffffffffffffffffffff1681525050600085608001906bffffffffffffffffffffffff1690816bffffffffffffffffffffffff1681525050600085606001906bffffffffffffffffffffffff1690816bffffffffffffffffffffffff168152505060008560a0019061ffff16908161ffff168152505060008560c0015161ffff16036162725760008560e001906005811115616204576162036176b7565b5b90816005811115616218576162176176b7565b5b815250508a73ffffffffffffffffffffffffffffffffffffffff167fce0bab896b3cb48841a0bae00ecb73380a851414117c4faa23b090f0246f328c336000604051616265929190617f89565b60405180910390a26162a4565b60038560e00190600581111561628b5761628a6176b7565b5b9081600581111561629f5761629e6176b7565b5b815250505b5b6162af8b86614b2b565b6000821180156162e35750600060028111156162ce576162cd6176b7565b5b8960028111156162e1576162e06176b7565b5b145b15616394576163378b3084600060029054906101000a900473ffffffffffffffffffffffffffffffffffffffff1673ffffffffffffffffffffffffffffffffffffffff1661688a909392919063ffffffff16565b8a73ffffffffffffffffffffffffffffffffffffffff167f5faf7cfc2e1451bec12a4a97f663dbdb393a7a91e088623469c422df5dbfb44883876060015188600001513360405161638b9493929190618396565b60405180910390a25b8183831015600097509750975050505050505b93509350939050565b8060055411156163d85780600560008282546163cc9190617a5f565b925050819055506163e1565b60006005819055505b7f59c31bb593c5b09a2986862f60318542557074991f7b6b3a96bb483360ac0bc381600554604051616414929190617abc565b60405180910390a150565b61646c8282600060029054906101000a900473ffffffffffffffffffffffffffffffffffffffff1673ffffffffffffffffffffffffffffffffffffffff16612fc39092919063ffffffff16565b8173ffffffffffffffffffffffffffffffffffffffff167f110ac2eef454b54bd374f43f7425877cc41fc1bda99cd86ee84d2c84478c88a8826040516164b2919061711f565b60405180910390a25050565b60405180604001604052808373ffffffffffffffffffffffffffffffffffffffff1681526020018281525060d6600085815260200190815260200160002060008201518160000160006101000a81548173ffffffffffffffffffffffffffffffffffffffff021916908373ffffffffffffffffffffffffffffffffffffffff160217905550602082015181600101559050508173ffffffffffffffffffffffffffffffffffffffff16837ffc263b13935051afa54b00c0339cd28d0c71d7f94f2e1b7fac477b549269f90683604051616597919061711f565b60405180910390a3505050565b6000616606826040518060400160405280602081526020017f5361666545524332303a206c6f772d6c6576656c2063616c6c206661696c65648152508573ffffffffffffffffffffffffffffffffffffffff16616bd89092919063ffffffff16565b905060008151111561666657808060200190518101906166269190617e70565b616665576040517f08c379a000000000000000000000000000000000000000000000000000000000815260040161665c9061844d565b60405180910390fd5b5b505050565b6000600460009054906101000a900473ffffffffffffffffffffffffffffffffffffffff1673ffffffffffffffffffffffffffffffffffffffff16633d1123018585856040518463ffffffff1660e01b81526004016166cc9392919061846d565b602060405180830381865afa1580156166e9573d6000803e3d6000fd5b505050506040513d601f19601f8201168201806040525081019061670d9190617950565b90509392505050565b60008114806167a0575060008373ffffffffffffffffffffffffffffffffffffffff1663dd62ed3e30856040518363ffffffff1660e01b815260040161675d929190618005565b602060405180830381865afa15801561677a573d6000803e3d6000fd5b505050506040513d601f19601f8201168201806040525081019061679e9190617950565b145b6167df576040517f08c379a00000000000000000000000000000000000000000000000000000000081526004016167d690618516565b60405180910390fd5b6168608363095ea7b360e01b84846040516024016167fe929190617a93565b604051602081830303815290604052907bffffffffffffffffffffffffffffffffffffffffffffffffffffffff19166020820180517bffffffffffffffffffffffffffffffffffffffffffffffffffffffff83818316178352505050506165a4565b505050565b600061687083616bf0565b801561688257506168818383616c3d565b5b905092915050565b61690d846323b872dd60e01b8585856040516024016168ab9392919061805d565b604051602081830303815290604052907bffffffffffffffffffffffffffffffffffffffffffffffffffffffff19166020820180517bffffffffffffffffffffffffffffffffffffffffffffffffffffffff83818316178352505050506165a4565b50505050565b6000600260009054906101000a900473ffffffffffffffffffffffffffffffffffffffff1673ffffffffffffffffffffffffffffffffffffffff1663228ec96a836040518263ffffffff1660e01b8152600401616970919061711f565b6020604051808303816000875af115801561698f573d6000803e3d6000fd5b505050506040513d601f19601f820116820180604052508101906169b39190617950565b90508060055411156169dd5780600560008282546169d19190617a5f565b925050819055506169e6565b60006005819055505b5050565b600860008273ffffffffffffffffffffffffffffffffffffffff1673ffffffffffffffffffffffffffffffffffffffff16815260200190815260200160002060009054906101000a900460ff16616a6d576040517f68299b2000000000000000000000000000000000000000000000000000000000815260040160405180910390fd5b50565b6000606e60008473ffffffffffffffffffffffffffffffffffffffff1673ffffffffffffffffffffffffffffffffffffffff16815260200190815260200160002060000160109054906101000a90046bffffffffffffffffffffffff1690506000816bffffffffffffffffffffffff161115616bc957600082826bffffffffffffffffffffffff1610616b0557829050616b2b565b816bffffffffffffffffffffffff169050616b2a8184616b259190617a5f565b613049565b5b8060056000828254616b3d9190617a2b565b925050819055508082616b509190617d5d565b915081606e60008673ffffffffffffffffffffffffffffffffffffffff1673ffffffffffffffffffffffffffffffffffffffff16815260200190815260200160002060000160106101000a8154816bffffffffffffffffffffffff02191690836bffffffffffffffffffffffff16021790555050616bd3565b616bd282613049565b5b505050565b6060616be78484600085616cfc565b90509392505050565b6000616c1c827f01ffc9a700000000000000000000000000000000000000000000000000000000616c3d565b8015616c365750616c348263ffffffff60e01b616c3d565b155b9050919050565b6000806301ffc9a760e01b83604051602401616c59919061728e565b604051602081830303815290604052907bffffffffffffffffffffffffffffffffffffffffffffffffffffffff19166020820180517bffffffffffffffffffffffffffffffffffffffffffffffffffffffff838183161783525050505090506000806000602060008551602087018a617530fa92503d91506000519050828015616ce4575060208210155b8015616cf05750600081115b94505050505092915050565b606082471015616d41576040517f08c379a0000000000000000000000000000000000000000000000000000000008152600401616d38906185a8565b60405180910390fd5b6000808673ffffffffffffffffffffffffffffffffffffffff168587604051616d6a9190618639565b60006040518083038185875af1925050503d8060008114616da7576040519150601f19603f3d011682016040523d82523d6000602084013e616dac565b606091505b5091509150616dbd87838387616dc9565b92505050949350505050565b60608315616e2b576000835103616e2357616de385616e3e565b616e22576040517f08c379a0000000000000000000000000000000000000000000000000000000008152600401616e199061869c565b60405180910390fd5b5b829050616e36565b616e358383616e61565b5b949350505050565b6000808273ffffffffffffffffffffffffffffffffffffffff163b119050919050565b600082511115616e745781518083602001fd5b806040517f08c379a0000000000000000000000000000000000000000000000000000000008152600401616ea89190618711565b60405180910390fd5b6040518060600160405280600073ffffffffffffffffffffffffffffffffffffffff16815260200160006bffffffffffffffffffffffff168152602001600081525090565b60405180610100016040528060006bffffffffffffffffffffffff168152602001600067ffffffffffffffff1681526020016000600b0b815260200160006bffffffffffffffffffffffff16815260200160006bffffffffffffffffffffffff168152602001600061ffff168152602001600061ffff16815260200160006005811115616f8657616f856176b7565b5b81525090565b604051806080016040528060006bffffffffffffffffffffffff168152602001600061ffff168152602001600061ffff16815260200160006bffffffffffffffffffffffff1681525090565b600080fd5b600080fd5b600073ffffffffffffffffffffffffffffffffffffffff82169050919050565b600061700d82616fe2565b9050919050565b61701d81617002565b811461702857600080fd5b50565b60008135905061703a81617014565b92915050565b60006020828403121561705657617055616fd8565b5b60006170648482850161702b565b91505092915050565b60008115159050919050565b6170828161706d565b82525050565b600060208201905061709d6000830184617079565b92915050565b6000819050919050565b6170b6816170a3565b81146170c157600080fd5b50565b6000813590506170d3816170ad565b92915050565b6000602082840312156170ef576170ee616fd8565b5b60006170fd848285016170c4565b91505092915050565b6000819050919050565b61711981617106565b82525050565b60006020820190506171346000830184617110565b92915050565b61714381617106565b811461714e57600080fd5b50565b6000813590506171608161713a565b92915050565b600080fd5b600080fd5b600080fd5b60008083601f84011261718b5761718a617166565b5b8235905067ffffffffffffffff8111156171a8576171a761716b565b5b6020830191508360018202830111156171c4576171c3617170565b5b9250929050565b6000806000806000608086880312156171e7576171e6616fd8565b5b60006171f58882890161702b565b95505060206172068882890161702b565b945050604061721788828901617151565b935050606086013567ffffffffffffffff81111561723857617237616fdd565b5b61724488828901617175565b92509250509295509295909350565b60007fffffffff0000000000000000000000000000000000000000000000000000000082169050919050565b61728881617253565b82525050565b60006020820190506172a3600083018461727f565b92915050565b6000806000606084860312156172c2576172c1616fd8565b5b60006172d08682870161702b565b93505060206172e186828701617151565b92505060406172f2868287016170c4565b9150509250925092565b60006020828403121561731257617311616fd8565b5b600061732084828501617151565b91505092915050565b600080604083850312156173405761733f616fd8565b5b600061734e85828601617151565b925050602061735f8582860161702b565b9150509250929050565b61737281617002565b82525050565b600060208201905061738d6000830184617369565b92915050565b60006080820190506173a86000830187617369565b6173b56020830186617369565b6173c26040830185617369565b6173cf6060830184617369565b95945050505050565b6173e18161706d565b81146173ec57600080fd5b50565b6000813590506173fe816173d8565b92915050565b6000806040838503121561741b5761741a616fd8565b5b6000617429858286016170c4565b925050602061743a858286016173ef565b9150509250929050565b60008060006060848603121561745d5761745c616fd8565b5b600061746b86828701617151565b935050602061747c86828701617151565b925050604061748d86828701617151565b9150509250925092565b6174a081617002565b82525050565b60006bffffffffffffffffffffffff82169050919050565b6174c7816174a6565b82525050565b6174d681617106565b82525050565b6060820160008201516174f26000850182617497565b50602082015161750560208501826174be565b50604082015161751860408501826174cd565b50505050565b600060608201905061753360008301846174dc565b92915050565b6000806000806080858703121561755357617552616fd8565b5b600061756187828801617151565b94505060206175728782880161702b565b935050604061758387828801617151565b92505060606175948782880161702b565b91505092959194509250565b600080604083850312156175b7576175b6616fd8565b5b60006175c58582860161702b565b92505060206175d685828601617151565b9150509250929050565b600080600080600060a086880312156175fc576175fb616fd8565b5b600061760a8882890161702b565b955050602061761b88828901617151565b945050604061762c88828901617151565b935050606061763d88828901617151565b925050608061764e88828901617151565b9150509295509295909350565b600067ffffffffffffffff82169050919050565b6176788161765b565b82525050565b600081600b0b9050919050565b6176948161767e565b82525050565b600061ffff82169050919050565b6176b18161769a565b82525050565b7f4e487b7100000000000000000000000000000000000000000000000000000000600052602160045260246000fd5b600681106176f7576176f66176b7565b5b50565b6000819050617708826176e6565b919050565b6000617718826176fa565b9050919050565b6177288161770d565b82525050565b6101008201600082015161774560008501826174be565b506020820151617758602085018261766f565b50604082015161776b604085018261768b565b50606082015161777e60608501826174be565b50608082015161779160808501826174be565b5060a08201516177a460a08501826176a8565b5060c08201516177b760c08501826176a8565b5060e08201516177ca60e085018261771f565b50505050565b6000610100820190506177e6600083018461772e565b92915050565b60808201600082015161780260008501826174be565b50602082015161781560208501826176a8565b50604082015161782860408501826176a8565b50606082015161783b60608501826174be565b50505050565b600060808201905061785660008301846177ec565b92915050565b600080600080600080600080610100898b03121561787d5761787c616fd8565b5b600061788b8b828c0161702b565b985050602061789c8b828c01617151565b97505060406178ad8b828c01617151565b96505060606178be8b828c01617151565b95505060806178cf8b828c01617151565b94505060a06178e08b828c0161702b565b93505060c06178f18b828c01617151565b92505060e06179028b828c01617151565b9150509295985092959890939650565b60006040820190506179276000830185617110565b6179346020830184617079565b9392505050565b60008151905061794a8161713a565b92915050565b60006020828403121561796657617965616fd8565b5b60006179748482850161793b565b91505092915050565b7f4e487b7100000000000000000000000000000000000000000000000000000000600052601160045260246000fd5b60006179b78261769a565b91506179c28361769a565b92508282026179d08161769a565b91508082146179e2576179e161797d565b5b5092915050565b60006179f482617106565b91506179ff83617106565b9250828202617a0d81617106565b91508282048414831517617a2457617a2361797d565b5b5092915050565b6000617a3682617106565b9150617a4183617106565b9250828201905080821115617a5957617a5861797d565b5b92915050565b6000617a6a82617106565b9150617a7583617106565b9250828203905081811115617a8d57617a8c61797d565b5b92915050565b6000604082019050617aa86000830185617369565b617ab56020830184617110565b9392505050565b6000604082019050617ad16000830185617110565b617ade6020830184617110565b9392505050565b6000608082019050617afa6000830187617110565b617b076020830186617110565b617b146040830185617369565b617b216060830184617110565b95945050505050565b6000617b358261769a565b9150617b408361769a565b9250828201905061ffff811115617b5a57617b5961797d565b5b92915050565b6000819050919050565b6000617b85617b80617b7b8461769a565b617b60565b617106565b9050919050565b617b9581617b6a565b82525050565b6000606082019050617bb06000830186617110565b617bbd6020830185617b8c565b617bca6040830184617369565b949350505050565b6000608082019050617be76000830187617110565b617bf46020830186617110565b617c016040830185617110565b617c0e6060830184617110565b95945050505050565b600082825260208201905092915050565b7f496e697469616c697a61626c653a20636f6e747261637420697320616c72656160008201527f647920696e697469616c697a6564000000000000000000000000000000000000602082015250565b6000617c84602e83617c17565b9150617c8f82617c28565b604082019050919050565b60006020820190508181036000830152617cb381617c77565b9050919050565b6000819050919050565b600060ff82169050919050565b6000617cec617ce7617ce284617cba565b617b60565b617cc4565b9050919050565b617cfc81617cd1565b82525050565b6000602082019050617d176000830184617cf3565b92915050565b6000617d28826174a6565b9150617d33836174a6565b925082820190506bffffffffffffffffffffffff811115617d5757617d5661797d565b5b92915050565b6000617d68826174a6565b9150617d73836174a6565b925082820390506bffffffffffffffffffffffff811115617d9757617d9661797d565b5b92915050565b6000604082019050617db26000830185617110565b617dbf6020830184617369565b9392505050565b600081519050617dd581617014565b92915050565b600060208284031215617df157617df0616fd8565b5b6000617dff84828501617dc6565b91505092915050565b617e11816170a3565b82525050565b6000602082019050617e2c6000830184617e08565b92915050565b6000604082019050617e476000830185617110565b617e546020830184617e08565b9392505050565b600081519050617e6a816173d8565b92915050565b600060208284031215617e8657617e85616fd8565b5b6000617e9484828501617e5b565b91505092915050565b6000617ea88261767e565b9150617eb38361767e565b925082820190507fffffffffffffffffffffffffffffffffffffffff80000000000000000000000081126b7fffffffffffffffffffffff82131715617efb57617efa61797d565b5b92915050565b60008060408385031215617f1857617f17616fd8565b5b6000617f268582860161793b565b9250506020617f378582860161793b565b9150509250929050565b60038110617f5257617f516176b7565b5b50565b6000819050617f6382617f41565b919050565b6000617f7382617f55565b9050919050565b617f8381617f68565b82525050565b6000604082019050617f9e6000830185617369565b617fab6020830184617f7a565b9392505050565b600060a082019050617fc76000830188617110565b617fd46020830187617110565b617fe16040830186617110565b617fee6060830185617110565b617ffb6080830184617079565b9695505050505050565b600060408201905061801a6000830185617369565b6180276020830184617369565b9392505050565b7f4e487b7100000000000000000000000000000000000000000000000000000000600052600160045260246000fd5b60006060820190506180726000830186617369565b61807f6020830185617369565b61808c6040830184617110565b949350505050565b6000610180820190506180aa600083018561772e565b6180b86101008301846177ec565b9392505050565b6180c8816174a6565b81146180d357600080fd5b50565b6000815190506180e5816180bf565b92915050565b6180f48161767e565b81146180ff57600080fd5b50565b600081519050618111816180eb565b92915050565b600080600080600060a0868803121561813357618132616fd8565b5b60006181418882890161793b565b9550506020618152888289016180d6565b9450506040618163888289016180d6565b9350506060618174888289016180d6565b925050608061818588828901618102565b9150509295509295909350565b600061819d8261767e565b91506181a88361767e565b925082820390506b7fffffffffffffffffffffff81137fffffffffffffffffffffffffffffffffffffffff800000000000000000000000821217156181f0576181ef61797d565b5b92915050565b600061821161820c6182078461765b565b617b60565b617106565b9050919050565b618221816181f6565b82525050565b600060408201905061823c6000830185618218565b6182496020830184617369565b9392505050565b7f4e487b7100000000000000000000000000000000000000000000000000000000600052601260045260246000fd5b600061828a82617106565b915061829583617106565b9250826182a5576182a4618250565b5b828204905092915050565b600080600080608085870312156182ca576182c9616fd8565b5b60006182d887828801617dc6565b94505060206182e987828801617dc6565b93505060406182fa87828801617dc6565b925050606061830b87828801617dc6565b91505092959194509250565b6000819050919050565b600061832c82618317565b915061833783618317565b92508282019050828112156000831216838212600084121516171561835f5761835e61797d565b5b92915050565b600061838061837b618376846174a6565b617b60565b617106565b9050919050565b61839081618365565b82525050565b60006080820190506183ab6000830187617110565b6183b86020830186618387565b6183c56040830185618387565b6183d26060830184617369565b95945050505050565b7f5361666545524332303a204552433230206f7065726174696f6e20646964206e60008201527f6f74207375636365656400000000000000000000000000000000000000000000602082015250565b6000618437602a83617c17565b9150618442826183db565b604082019050919050565b600060208201905081810360008301526184668161842a565b9050919050565b60006060820190506184826000830186617110565b61848f6020830185617110565b61849c6040830184617110565b949350505050565b7f5361666545524332303a20617070726f76652066726f6d206e6f6e2d7a65726f60008201527f20746f206e6f6e2d7a65726f20616c6c6f77616e636500000000000000000000602082015250565b6000618500603683617c17565b915061850b826184a4565b604082019050919050565b6000602082019050818103600083015261852f816184f3565b9050919050565b7f416464726573733a20696e73756666696369656e742062616c616e636520666f60008201527f722063616c6c0000000000000000000000000000000000000000000000000000602082015250565b6000618592602683617c17565b915061859d82618536565b604082019050919050565b600060208201905081810360008301526185c181618585565b9050919050565b600081519050919050565b600081905092915050565b60005b838110156185fc5780820151818401526020810190506185e1565b60008484015250505050565b6000618613826185c8565b61861d81856185d3565b935061862d8185602086016185de565b80840191505092915050565b60006186458284618608565b915081905092915050565b7f416464726573733a2063616c6c20746f206e6f6e2d636f6e7472616374000000600082015250565b6000618686601d83617c17565b915061869182618650565b602082019050919050565b600060208201905081810360008301526186b581618679565b9050919050565b600081519050919050565b6000601f19601f8301169050919050565b60006186e3826186bc565b6186ed8185617c17565b93506186fd8185602086016185de565b618706816186c7565b840191505092915050565b6000602082019050818103600083015261872b81846186d8565b90509291505056fea26469706673582212207abb1de40fa18f3ffd2cbddac5b64c04e6b7b5ae4fdc159db3076af8bbb7078864736f6c63430008110033",
  "linkReferences": {},
  "deployedLinkReferences": {}
}