{
  "_format": "hh-sol-artifact-1",
  "contractName": "BaseFeeManager",
  "sourceName": "contracts/BaseFeeManager.sol",
  "abi": [
    {
      "inputs": [],
      "name": "borrowingAmountLessThanPlatformFees",
      "type": "error"
    },
    {
      "inputs": [],
      "name": "minPrincipalPaymentRateSettingTooHigh",
      "type": "error"
    },
    {
      "anonymous": false,
      "inputs": [
        {
          "indexed": false,
          "internalType": "uint256",
          "name": "frontLoandingFeeFlat",
          "type": "uint256"
        },
        {
          "indexed": false,
          "internalType": "uint256",
          "name": "frontLoadingFeeBps",
          "type": "uint256"
        },
        {
          "indexed": false,
          "internalType": "uint256",
          "name": "lateFeeFlat",
          "type": "uint256"
        },
        {
          "indexed": false,
          "internalType": "uint256",
          "name": "lateFeeBps",
          "type": "uint256"
        },
        {
          "indexed": false,
          "internalType": "uint256",
          "name": "membershipFee",
          "type": "uint256"
        }
      ],
      "name": "FeeChanged",
      "type": "event"
    },
    {
      "anonymous": false,
      "inputs": [
        {
          "indexed": false,
          "internalType": "uint256",
          "name": "minPrincipalRateInBps",
          "type": "uint256"
        }
      ],
      "name": "MinPrincipalRateChanged",
      "type": "event"
    },
    {
      "anonymous": false,
      "inputs": [
        {
          "indexed": true,
          "internalType": "address",
          "name": "previousOwner",
          "type": "address"
        },
        {
          "indexed": true,
          "internalType": "address",
          "name": "newOwner",
          "type": "address"
        }
      ],
      "name": "OwnershipTransferred",
      "type": "event"
    },
    {
      "inputs": [
        {
          "internalType": "uint256",
          "name": "dueDate",
          "type": "uint256"
        },
        {
          "internalType": "uint256",
          "name": "aprInBps",
          "type": "uint256"
        },
        {
          "internalType": "uint256",
          "name": "amount",
          "type": "uint256"
        }
      ],
      "name": "calcCorrection",
      "outputs": [
        {
          "internalType": "uint256",
          "name": "correction",
          "type": "uint256"
        }
      ],
      "stateMutability": "view",
      "type": "function"
    },
    {
      "inputs": [
        {
          "internalType": "uint256",
          "name": "_amount",
          "type": "uint256"
        }
      ],
      "name": "calcFrontLoadingFee",
      "outputs": [
        {
          "internalType": "uint256",
          "name": "fees",
          "type": "uint256"
        }
      ],
      "stateMutability": "view",
      "type": "function"
    },
    {
      "inputs": [
        {
          "internalType": "uint256",
          "name": "dueDate",
          "type": "uint256"
        },
        {
          "internalType": "uint256",
          "name": "totalDue",
          "type": "uint256"
        },
        {
          "internalType": "uint256",
          "name": "totalBalance",
          "type": "uint256"
        }
      ],
      "name": "calcLateFee",
      "outputs": [
        {
          "internalType": "uint256",
          "name": "fees",
          "type": "uint256"
        }
      ],
      "stateMutability": "view",
      "type": "function"
    },
    {
      "inputs": [
        {
          "internalType": "uint256",
          "name": "borrowAmount",
          "type": "uint256"
        }
      ],
      "name": "distBorrowingAmount",
      "outputs": [
        {
          "internalType": "uint256",
          "name": "amtToBorrower",
          "type": "uint256"
        },
        {
          "internalType": "uint256",
          "name": "platformFees",
          "type": "uint256"
        }
      ],
      "stateMutability": "view",
      "type": "function"
    },
    {
      "inputs": [],
      "name": "frontLoadingFeeBps",
      "outputs": [
        {
          "internalType": "uint256",
          "name": "",
          "type": "uint256"
        }
      ],
      "stateMutability": "view",
      "type": "function"
    },
    {
      "inputs": [],
      "name": "frontLoadingFeeFlat",
      "outputs": [
        {
          "internalType": "uint256",
          "name": "",
          "type": "uint256"
        }
      ],
      "stateMutability": "view",
      "type": "function"
    },
    {
      "inputs": [
        {
          "components": [
            {
              "internalType": "uint96",
              "name": "unbilledPrincipal",
              "type": "uint96"
            },
            {
              "internalType": "uint64",
              "name": "dueDate",
              "type": "uint64"
            },
            {
              "internalType": "int96",
              "name": "correction",
              "type": "int96"
            },
            {
              "internalType": "uint96",
              "name": "totalDue",
              "type": "uint96"
            },
            {
              "internalType": "uint96",
              "name": "feesAndInterestDue",
              "type": "uint96"
            },
            {
              "internalType": "uint16",
              "name": "missedPeriods",
              "type": "uint16"
            },
            {
              "internalType": "uint16",
              "name": "remainingPeriods",
              "type": "uint16"
            },
            {
              "internalType": "enum BaseStructs.CreditState",
              "name": "state",
              "type": "uint8"
            }
          ],
          "internalType": "struct BaseStructs.CreditRecord",
          "name": "_cr",
          "type": "tuple"
        },
        {
          "components": [
            {
              "internalType": "uint96",
              "name": "creditLimit",
              "type": "uint96"
            },
            {
              "internalType": "uint16",
              "name": "aprInBps",
              "type": "uint16"
            },
            {
              "internalType": "uint16",
              "name": "intervalInDays",
              "type": "uint16"
            },
            {
              "internalType": "uint96",
              "name": "defaultAmount",
              "type": "uint96"
            }
          ],
          "internalType": "struct BaseStructs.CreditRecordStatic",
          "name": "_crStatic",
          "type": "tuple"
        }
      ],
      "name": "getDueInfo",
      "outputs": [
        {
          "internalType": "uint256",
          "name": "periodsPassed",
          "type": "uint256"
        },
        {
          "internalType": "uint96",
          "name": "feesAndInterestDue",
          "type": "uint96"
        },
        {
          "internalType": "uint96",
          "name": "totalDue",
          "type": "uint96"
        },
        {
          "internalType": "uint96",
          "name": "unbilledPrincipal",
          "type": "uint96"
        },
        {
          "internalType": "int96",
          "name": "totalCharges",
          "type": "int96"
        }
      ],
      "stateMutability": "view",
      "type": "function"
    },
    {
      "inputs": [],
      "name": "getFees",
      "outputs": [
        {
          "internalType": "uint256",
          "name": "_frontLoadingFeeFlat",
          "type": "uint256"
        },
        {
          "internalType": "uint256",
          "name": "_frontLoadingFeeBps",
          "type": "uint256"
        },
        {
          "internalType": "uint256",
          "name": "_lateFeeFlat",
          "type": "uint256"
        },
        {
          "internalType": "uint256",
          "name": "_lateFeeBps",
          "type": "uint256"
        },
        {
          "internalType": "uint256",
          "name": "_membershipFee",
          "type": "uint256"
        }
      ],
      "stateMutability": "view",
      "type": "function"
    },
    {
      "inputs": [],
      "name": "lateFeeBps",
      "outputs": [
        {
          "internalType": "uint256",
          "name": "",
          "type": "uint256"
        }
      ],
      "stateMutability": "view",
      "type": "function"
    },
    {
      "inputs": [],
      "name": "lateFeeFlat",
      "outputs": [
        {
          "internalType": "uint256",
          "name": "",
          "type": "uint256"
        }
      ],
      "stateMutability": "view",
      "type": "function"
    },
    {
      "inputs": [],
      "name": "membershipFee",
      "outputs": [
        {
          "internalType": "uint256",
          "name": "",
          "type": "uint256"
        }
      ],
      "stateMutability": "view",
      "type": "function"
    },
    {
      "inputs": [],
      "name": "minPrincipalRateInBps",
      "outputs": [
        {
          "internalType": "uint256",
          "name": "",
          "type": "uint256"
        }
      ],
      "stateMutability": "view",
      "type": "function"
    },
    {
      "inputs": [],
      "name": "owner",
      "outputs": [
        {
          "internalType": "address",
          "name": "",
          "type": "address"
        }
      ],
      "stateMutability": "view",
      "type": "function"
    },
    {
      "inputs": [],
      "name": "renounceOwnership",
      "outputs": [],
      "stateMutability": "nonpayable",
      "type": "function"
    },
    {
      "inputs": [
        {
          "internalType": "uint256",
          "name": "_frontLoadingFeeFlat",
          "type": "uint256"
        },
        {
          "internalType": "uint256",
          "name": "_frontLoadingFeeBps",
          "type": "uint256"
        },
        {
          "internalType": "uint256",
          "name": "_lateFeeFlat",
          "type": "uint256"
        },
        {
          "internalType": "uint256",
          "name": "_lateFeeBps",
          "type": "uint256"
        },
        {
          "internalType": "uint256",
          "name": "_membershipFee",
          "type": "uint256"
        }
      ],
      "name": "setFees",
      "outputs": [],
      "stateMutability": "nonpayable",
      "type": "function"
    },
    {
      "inputs": [
        {
          "internalType": "uint256",
          "name": "_minPrincipalRateInBps",
          "type": "uint256"
        }
      ],
      "name": "setMinPrincipalRateInBps",
      "outputs": [],
      "stateMutability": "nonpayable",
      "type": "function"
    },
    {
      "inputs": [
        {
          "internalType": "address",
          "name": "newOwner",
          "type": "address"
        }
      ],
      "name": "transferOwnership",
      "outputs": [],
      "stateMutability": "nonpayable",
      "type": "function"
    }
  ],
  "bytecode": "0x608060405234801561001057600080fd5b5061002d61002261003260201b60201c565b61003a60201b60201c565b6100fe565b600033905090565b60008060009054906101000a900473ffffffffffffffffffffffffffffffffffffffff169050816000806101000a81548173ffffffffffffffffffffffffffffffffffffffff021916908373ffffffffffffffffffffffffffffffffffffffff1602179055508173ffffffffffffffffffffffffffffffffffffffff168173ffffffffffffffffffffffffffffffffffffffff167f8be0079c531659141344cd1fd0a4f28419497f9722a3daafe3b4186f6b6457e060405160405180910390a35050565b61175a8061010d6000396000f3fe608060405234801561001057600080fd5b506004361061010b5760003560e01c80639faebb8d116100a2578063d17220b211610071578063d17220b2146102c1578063db8d55f1146102dd578063ee9fc852146102ff578063f2fde38b1461031d578063f58b9af1146103395761010b565b80639faebb8d1461020f578063b00db01d1461023f578063c713a28914610273578063d14f4d59146102915761010b565b80634b749d6e116100de5780634b749d6e146101ab5780635837622b146101c9578063715018a6146101e75780638da5cb5b146101f15761010b565b806304a66b48146101105780631b05a41b1461012c5780632a56916b1461014a5780633d1123011461017b575b600080fd5b61012a60048036038101906101259190610ce8565b610357565b005b6101346103c8565b6040516101419190610d72565b60405180910390f35b610164600480360381019061015f9190610d8d565b6103ce565b604051610172929190610dba565b60405180910390f35b61019560048036038101906101909190610de3565b610429565b6040516101a29190610d72565b60405180910390f35b6101b3610477565b6040516101c09190610d72565b60405180910390f35b6101d161047d565b6040516101de9190610d72565b60405180910390f35b6101ef610483565b005b6101f9610497565b6040516102069190610e77565b60405180910390f35b61022960048036038101906102249190610de3565b6104c0565b6040516102369190610d72565b60405180910390f35b61025960048036038101906102549190611181565b610517565b60405161026a9594939291906111e1565b60405180910390f35b61027b6109d8565b6040516102889190610d72565b60405180910390f35b6102ab60048036038101906102a69190610d8d565b6109de565b6040516102b89190610d72565b60405180910390f35b6102db60048036038101906102d69190610d8d565b610a1e565b005b6102e5610aa2565b6040516102f6959493929190611234565b60405180910390f35b610307610aca565b6040516103149190610d72565b60405180910390f35b610337600480360381019061033291906112b3565b610ad0565b005b610341610b53565b60405161034e9190610d72565b60405180910390f35b61035f610b59565b84600181905550836002819055508260038190555081600481905550806005819055507f41dfc91e84b5bf78ed571fd06d7e0b1bc563e3841d3aea847152dc341d0efbae85858585856040516103b9959493929190611234565b60405180910390a15050505050565b60015481565b6000806103da836109de565b905080831015610416576040517f97fde11800000000000000000000000000000000000000000000000000000000815260040160405180910390fd5b8083610422919061130f565b9150915091565b6000804285610438919061130f565b90506127106301e1338082868661044f9190611343565b6104599190611343565b61046391906113b4565b61046d91906113b4565b9150509392505050565b60045481565b60035481565b61048b610b59565b6104956000610bd7565b565b60008060009054906101000a900473ffffffffffffffffffffffffffffffffffffffff16905090565b600083421180156104d15750600083115b156105105760035490506000600454111561050f57612710600454836104f79190611343565b61050191906113b4565b8161050c91906113e5565b90505b5b9392505050565b6000806000806000866020015167ffffffffffffffff1642116105565760008760800151886060015189600001516000945094509450945094506109ce565b6000876020015167ffffffffffffffff1611156105ce5762015180866040015161ffff166105849190611343565b876020015167ffffffffffffffff164261059e919061130f565b6105a891906113b4565b60016105b491906113e5565b94506101688511156105c9576105c8611419565b5b6105d3565b600194505b60008060005b8781101561093e5760008a606001516bffffffffffffffffffffffff16111561067757610674620151808a6040015161ffff16836106179190611343565b6106219190611343565b8b6020015167ffffffffffffffff1661063a91906113e5565b8b606001516bffffffffffffffffffffffff168c606001518d600001516106619190611448565b6bffffffffffffffffffffffff166104c0565b92505b6005548361068591906113e5565b925089606001518a60000181815161069d9190611448565b9150906bffffffffffffffffffffffff1690816bffffffffffffffffffffffff168152505060008a60400151600b0b146107c5578960400151846106e19190611488565b935060008a60400151600b0b12156107755760008a60400151600061070691906114ec565b9050806bffffffffffffffffffffffff168b600001516bffffffffffffffffffffffff161161073857610737611419565b5b808b60000181815161074a9190611550565b9150906bffffffffffffffffffffffff1690816bffffffffffffffffffffffff1681525050506107b1565b89604001518a60000181815161078b9190611448565b9150906bffffffffffffffffffffffff1690816bffffffffffffffffffffffff16815250505b60008a60400190600b0b9081600b0b815250505b6127106301e13380620151808b6040015161ffff168c6020015161ffff168e600001516107f29190611590565b6107fc9190611590565b6bffffffffffffffffffffffff166108149190611343565b61081e91906113b4565b61082891906113b4565b915060006127106006548c600001516bffffffffffffffffffffffff1661084f9190611343565b61085991906113b4565b9050828461086791906113e5565b8b608001906bffffffffffffffffffffffff1690816bffffffffffffffffffffffff1681525050828461089a91906113e5565b856108a59190611488565b94508083856108b491906113e5565b6108be91906113e5565b8b606001906bffffffffffffffffffffffff1690816bffffffffffffffffffffffff1681525050808b600001516bffffffffffffffffffffffff16610903919061130f565b8b600001906bffffffffffffffffffffffff1690816bffffffffffffffffffffffff1681525050508080610936906115cd565b9150506105d9565b508860c0015161ffff1687106109b3578860000151896060018181516109649190611448565b9150906bffffffffffffffffffffffff1690816bffffffffffffffffffffffff1681525050600089600001906bffffffffffffffffffffffff1690816bffffffffffffffffffffffff16815250505b8689608001518a606001518b60000151965096509650965050505b9295509295909350565b60055481565b6000600154905060006002541115610a195761271060025483610a019190611343565b610a0b91906113b4565b81610a1691906113e5565b90505b919050565b610a26610b59565b6113888110610a61576040517fc11fc04200000000000000000000000000000000000000000000000000000000815260040160405180910390fd5b806006819055507fa1f685dd4df1c09ac8eeb44e33385bc36adda8f4cba94d5a27d06fe67750425181604051610a979190610d72565b60405180910390a150565b6000806000806000600154600254600354600454600554945094509450945094509091929394565b60025481565b610ad8610b59565b600073ffffffffffffffffffffffffffffffffffffffff168173ffffffffffffffffffffffffffffffffffffffff1603610b47576040517f08c379a0000000000000000000000000000000000000000000000000000000008152600401610b3e90611698565b60405180910390fd5b610b5081610bd7565b50565b60065481565b610b61610c9b565b73ffffffffffffffffffffffffffffffffffffffff16610b7f610497565b73ffffffffffffffffffffffffffffffffffffffff1614610bd5576040517f08c379a0000000000000000000000000000000000000000000000000000000008152600401610bcc90611704565b60405180910390fd5b565b60008060009054906101000a900473ffffffffffffffffffffffffffffffffffffffff169050816000806101000a81548173ffffffffffffffffffffffffffffffffffffffff021916908373ffffffffffffffffffffffffffffffffffffffff1602179055508173ffffffffffffffffffffffffffffffffffffffff168173ffffffffffffffffffffffffffffffffffffffff167f8be0079c531659141344cd1fd0a4f28419497f9722a3daafe3b4186f6b6457e060405160405180910390a35050565b600033905090565b6000604051905090565b600080fd5b6000819050919050565b610cc581610cb2565b8114610cd057600080fd5b50565b600081359050610ce281610cbc565b92915050565b600080600080600060a08688031215610d0457610d03610cad565b5b6000610d1288828901610cd3565b9550506020610d2388828901610cd3565b9450506040610d3488828901610cd3565b9350506060610d4588828901610cd3565b9250506080610d5688828901610cd3565b9150509295509295909350565b610d6c81610cb2565b82525050565b6000602082019050610d876000830184610d63565b92915050565b600060208284031215610da357610da2610cad565b5b6000610db184828501610cd3565b91505092915050565b6000604082019050610dcf6000830185610d63565b610ddc6020830184610d63565b9392505050565b600080600060608486031215610dfc57610dfb610cad565b5b6000610e0a86828701610cd3565b9350506020610e1b86828701610cd3565b9250506040610e2c86828701610cd3565b9150509250925092565b600073ffffffffffffffffffffffffffffffffffffffff82169050919050565b6000610e6182610e36565b9050919050565b610e7181610e56565b82525050565b6000602082019050610e8c6000830184610e68565b92915050565b600080fd5b6000601f19601f8301169050919050565b7f4e487b7100000000000000000000000000000000000000000000000000000000600052604160045260246000fd5b610ee082610e97565b810181811067ffffffffffffffff82111715610eff57610efe610ea8565b5b80604052505050565b6000610f12610ca3565b9050610f1e8282610ed7565b919050565b60006bffffffffffffffffffffffff82169050919050565b610f4481610f23565b8114610f4f57600080fd5b50565b600081359050610f6181610f3b565b92915050565b600067ffffffffffffffff82169050919050565b610f8481610f67565b8114610f8f57600080fd5b50565b600081359050610fa181610f7b565b92915050565b600081600b0b9050919050565b610fbd81610fa7565b8114610fc857600080fd5b50565b600081359050610fda81610fb4565b92915050565b600061ffff82169050919050565b610ff781610fe0565b811461100257600080fd5b50565b60008135905061101481610fee565b92915050565b6006811061102757600080fd5b50565b6000813590506110398161101a565b92915050565b6000610100828403121561105657611055610e92565b5b611061610100610f08565b9050600061107184828501610f52565b600083015250602061108584828501610f92565b602083015250604061109984828501610fcb565b60408301525060606110ad84828501610f52565b60608301525060806110c184828501610f52565b60808301525060a06110d584828501611005565b60a08301525060c06110e984828501611005565b60c08301525060e06110fd8482850161102a565b60e08301525092915050565b60006080828403121561111f5761111e610e92565b5b6111296080610f08565b9050600061113984828501610f52565b600083015250602061114d84828501611005565b602083015250604061116184828501611005565b604083015250606061117584828501610f52565b60608301525092915050565b600080610180838503121561119957611198610cad565b5b60006111a78582860161103f565b9250506101006111b985828601611109565b9150509250929050565b6111cc81610f23565b82525050565b6111db81610fa7565b82525050565b600060a0820190506111f66000830188610d63565b61120360208301876111c3565b61121060408301866111c3565b61121d60608301856111c3565b61122a60808301846111d2565b9695505050505050565b600060a0820190506112496000830188610d63565b6112566020830187610d63565b6112636040830186610d63565b6112706060830185610d63565b61127d6080830184610d63565b9695505050505050565b61129081610e56565b811461129b57600080fd5b50565b6000813590506112ad81611287565b92915050565b6000602082840312156112c9576112c8610cad565b5b60006112d78482850161129e565b91505092915050565b7f4e487b7100000000000000000000000000000000000000000000000000000000600052601160045260246000fd5b600061131a82610cb2565b915061132583610cb2565b925082820390508181111561133d5761133c6112e0565b5b92915050565b600061134e82610cb2565b915061135983610cb2565b925082820261136781610cb2565b9150828204841483151761137e5761137d6112e0565b5b5092915050565b7f4e487b7100000000000000000000000000000000000000000000000000000000600052601260045260246000fd5b60006113bf82610cb2565b91506113ca83610cb2565b9250826113da576113d9611385565b5b828204905092915050565b60006113f082610cb2565b91506113fb83610cb2565b9250828201905080821115611413576114126112e0565b5b92915050565b7f4e487b7100000000000000000000000000000000000000000000000000000000600052600160045260246000fd5b600061145382610f23565b915061145e83610f23565b925082820190506bffffffffffffffffffffffff811115611482576114816112e0565b5b92915050565b600061149382610fa7565b915061149e83610fa7565b925082820190507fffffffffffffffffffffffffffffffffffffffff80000000000000000000000081126b7fffffffffffffffffffffff821317156114e6576114e56112e0565b5b92915050565b60006114f782610fa7565b915061150283610fa7565b925082820390506b7fffffffffffffffffffffff81137fffffffffffffffffffffffffffffffffffffffff8000000000000000000000008212171561154a576115496112e0565b5b92915050565b600061155b82610f23565b915061156683610f23565b925082820390506bffffffffffffffffffffffff81111561158a576115896112e0565b5b92915050565b600061159b82610f23565b91506115a683610f23565b92508282026115b481610f23565b91508082146115c6576115c56112e0565b5b5092915050565b60006115d882610cb2565b91507fffffffffffffffffffffffffffffffffffffffffffffffffffffffffffffffff820361160a576116096112e0565b5b600182019050919050565b600082825260208201905092915050565b7f4f776e61626c653a206e6577206f776e657220697320746865207a65726f206160008201527f6464726573730000000000000000000000000000000000000000000000000000602082015250565b6000611682602683611615565b915061168d82611626565b604082019050919050565b600060208201905081810360008301526116b181611675565b9050919050565b7f4f776e61626c653a2063616c6c6572206973206e6f7420746865206f776e6572600082015250565b60006116ee602083611615565b91506116f9826116b8565b602082019050919050565b6000602082019050818103600083015261171d816116e1565b905091905056fea26469706673582212204fe68b0e397b814ad60010d20a9c9b61a5840c67017371c241f506d921948cac64736f6c63430008110033",
  "linkReferences": {},
  "deployedLinkReferences": {}
}