{
  "_format": "hh-sol-artifact-1",
  "contractName": "MockPool",
  "sourceName": "contracts/mock/MockPool.sol",
  "abi": [
    {
      "inputs": [
        {
          "internalType": "contract IHDT",
          "name": "_HDT",
          "type": "address"
        }
      ],
      "stateMutability": "nonpayable",
      "type": "constructor"
    },
    {
      "inputs": [],
      "name": "HDT",
      "outputs": [
        {
          "internalType": "contract IHDT",
          "name": "",
          "type": "address"
        }
      ],
      "stateMutability": "view",
      "type": "function"
    },
    {
      "inputs": [
        {
          "internalType": "address",
          "name": "account",
          "type": "address"
        },
        {
          "internalType": "uint256",
          "name": "amount",
          "type": "uint256"
        }
      ],
      "name": "burnAmount",
      "outputs": [
        {
          "internalType": "uint256",
          "name": "shares",
          "type": "uint256"
        }
      ],
      "stateMutability": "nonpayable",
      "type": "function"
    },
    {
      "inputs": [
        {
          "internalType": "address",
          "name": "account",
          "type": "address"
        },
        {
          "internalType": "uint256",
          "name": "amount",
          "type": "uint256"
        }
      ],
      "name": "mintAmount",
      "outputs": [
        {
          "internalType": "uint256",
          "name": "shares",
          "type": "uint256"
        }
      ],
      "stateMutability": "nonpayable",
      "type": "function"
    },
    {
      "inputs": [
        {
          "internalType": "uint256",
          "name": "_value",
          "type": "uint256"
        }
      ],
      "name": "setValue",
      "outputs": [],
      "stateMutability": "nonpayable",
      "type": "function"
    },
    {
      "inputs": [],
      "name": "totalPoolValue",
      "outputs": [
        {
          "internalType": "uint256",
          "name": "",
          "type": "uint256"
        }
      ],
      "stateMutability": "view",
      "type": "function"
    },
    {
      "inputs": [],
      "name": "value",
      "outputs": [
        {
          "internalType": "uint256",
          "name": "",
          "type": "uint256"
        }
      ],
      "stateMutability": "view",
      "type": "function"
    }
  ],
  "bytecode": "0x608060405234801561001057600080fd5b50604051610650380380610650833981810160405281019061003291906100ed565b806000806101000a81548173ffffffffffffffffffffffffffffffffffffffff021916908373ffffffffffffffffffffffffffffffffffffffff1602179055505061011a565b600080fd5b600073ffffffffffffffffffffffffffffffffffffffff82169050919050565b60006100a88261007d565b9050919050565b60006100ba8261009d565b9050919050565b6100ca816100af565b81146100d557600080fd5b50565b6000815190506100e7816100c1565b92915050565b60006020828403121561010357610102610078565b5b6000610111848285016100d8565b91505092915050565b610527806101296000396000f3fe608060405234801561001057600080fd5b50600436106100625760003560e01c80630e583dd2146100675780633fa4f2451461009757806355241077146100b557806356b1ddbb146100d15780638a02775b146100ef578063fb8bd26f1461010d575b600080fd5b610081600480360381019061007c9190610366565b61013d565b60405161008e91906103b5565b60405180910390f35b61009f6101e6565b6040516100ac91906103b5565b60405180910390f35b6100cf60048036038101906100ca91906103d0565b6101ec565b005b6100d96101f6565b6040516100e6919061045c565b60405180910390f35b6100f761021a565b60405161010491906103b5565b60405180910390f35b61012760048036038101906101229190610366565b610224565b60405161013491906103b5565b60405180910390f35b60008060009054906101000a900473ffffffffffffffffffffffffffffffffffffffff1673ffffffffffffffffffffffffffffffffffffffff16630e583dd284846040518363ffffffff1660e01b815260040161019b929190610486565b6020604051808303816000875af11580156101ba573d6000803e3d6000fd5b505050506040513d601f19601f820116820180604052508101906101de91906104c4565b905092915050565b60015481565b8060018190555050565b60008054906101000a900473ffffffffffffffffffffffffffffffffffffffff1681565b6000600154905090565b60008060009054906101000a900473ffffffffffffffffffffffffffffffffffffffff1673ffffffffffffffffffffffffffffffffffffffff1663fb8bd26f84846040518363ffffffff1660e01b8152600401610282929190610486565b6020604051808303816000875af11580156102a1573d6000803e3d6000fd5b505050506040513d601f19601f820116820180604052508101906102c591906104c4565b905092915050565b600080fd5b600073ffffffffffffffffffffffffffffffffffffffff82169050919050565b60006102fd826102d2565b9050919050565b61030d816102f2565b811461031857600080fd5b50565b60008135905061032a81610304565b92915050565b6000819050919050565b61034381610330565b811461034e57600080fd5b50565b6000813590506103608161033a565b92915050565b6000806040838503121561037d5761037c6102cd565b5b600061038b8582860161031b565b925050602061039c85828601610351565b9150509250929050565b6103af81610330565b82525050565b60006020820190506103ca60008301846103a6565b92915050565b6000602082840312156103e6576103e56102cd565b5b60006103f484828501610351565b91505092915050565b6000819050919050565b600061042261041d610418846102d2565b6103fd565b6102d2565b9050919050565b600061043482610407565b9050919050565b600061044682610429565b9050919050565b6104568161043b565b82525050565b6000602082019050610471600083018461044d565b92915050565b610480816102f2565b82525050565b600060408201905061049b6000830185610477565b6104a860208301846103a6565b9392505050565b6000815190506104be8161033a565b92915050565b6000602082840312156104da576104d96102cd565b5b60006104e8848285016104af565b9150509291505056fea2646970667358221220b4d77d499a9ef69525cf14d108814d0469e4097d20e7a55daf3e7ddb4e76248364736f6c63430008110033",
  "linkReferences": {},
  "deployedLinkReferences": {}
}