{
  "_format": "hh-sol-artifact-1",
  "contractName": "MockBaseCreditPoolV2",
  "sourceName": "contracts/mock/MockBaseCreditPoolV2.sol",
  "abi": [
    {
      "inputs": [],
      "name": "creditLineGreatThanUpperLimit",
      "type": "error"
    },
    {
      "inputs": [],
      "name": "evaluationAgentServiceAccountRequired",
      "type": "error"
    },
    {
      "inputs": [],
      "name": "exceededPoolLiquidityCap",
      "type": "error"
    },
    {
      "inputs": [],
      "name": "permissionDeniedNotLender",
      "type": "error"
    },
    {
      "inputs": [],
      "name": "poolIsNotOn",
      "type": "error"
    },
    {
      "inputs": [],
      "name": "poolOperatorRequired",
      "type": "error"
    },
    {
      "inputs": [],
      "name": "protocolIsPaused",
      "type": "error"
    },
    {
      "inputs": [],
      "name": "sameValue",
      "type": "error"
    },
    {
      "inputs": [],
      "name": "withdrawTooSoon",
      "type": "error"
    },
    {
      "inputs": [],
      "name": "withdrawnAmountHigherThanBalance",
      "type": "error"
    },
    {
      "inputs": [],
      "name": "zeroAmountProvided",
      "type": "error"
    },
    {
      "anonymous": false,
      "inputs": [
        {
          "indexed": true,
          "internalType": "address",
          "name": "lender",
          "type": "address"
        },
        {
          "indexed": false,
          "internalType": "address",
          "name": "by",
          "type": "address"
        }
      ],
      "name": "AddApprovedLender",
      "type": "event"
    },
    {
      "anonymous": false,
      "inputs": [
        {
          "indexed": false,
          "internalType": "uint8",
          "name": "version",
          "type": "uint8"
        }
      ],
      "name": "Initialized",
      "type": "event"
    },
    {
      "anonymous": false,
      "inputs": [
        {
          "indexed": true,
          "internalType": "address",
          "name": "account",
          "type": "address"
        },
        {
          "indexed": false,
          "internalType": "uint256",
          "name": "assetAmount",
          "type": "uint256"
        },
        {
          "indexed": false,
          "internalType": "uint256",
          "name": "shareAmount",
          "type": "uint256"
        }
      ],
      "name": "LiquidityDeposited",
      "type": "event"
    },
    {
      "anonymous": false,
      "inputs": [
        {
          "indexed": true,
          "internalType": "address",
          "name": "account",
          "type": "address"
        },
        {
          "indexed": false,
          "internalType": "uint256",
          "name": "assetAmount",
          "type": "uint256"
        },
        {
          "indexed": false,
          "internalType": "uint256",
          "name": "shareAmount",
          "type": "uint256"
        }
      ],
      "name": "LiquidityWithdrawn",
      "type": "event"
    },
    {
      "anonymous": false,
      "inputs": [
        {
          "indexed": false,
          "internalType": "uint256",
          "name": "lossesDistributed",
          "type": "uint256"
        },
        {
          "indexed": false,
          "internalType": "uint256",
          "name": "updatedPoolValue",
          "type": "uint256"
        }
      ],
      "name": "LossesDistributed",
      "type": "event"
    },
    {
      "anonymous": false,
      "inputs": [
        {
          "indexed": true,
          "internalType": "address",
          "name": "sender",
          "type": "address"
        },
        {
          "indexed": false,
          "internalType": "address",
          "name": "newPoolConfig",
          "type": "address"
        }
      ],
      "name": "PoolConfigChanged",
      "type": "event"
    },
    {
      "anonymous": false,
      "inputs": [
        {
          "indexed": true,
          "internalType": "address",
          "name": "sender",
          "type": "address"
        },
        {
          "indexed": false,
          "internalType": "address",
          "name": "underlyingToken",
          "type": "address"
        },
        {
          "indexed": false,
          "internalType": "address",
          "name": "poolToken",
          "type": "address"
        },
        {
          "indexed": false,
          "internalType": "address",
          "name": "humaConfig",
          "type": "address"
        },
        {
          "indexed": false,
          "internalType": "address",
          "name": "feeManager",
          "type": "address"
        }
      ],
      "name": "PoolCoreDataChanged",
      "type": "event"
    },
    {
      "anonymous": false,
      "inputs": [
        {
          "indexed": true,
          "internalType": "address",
          "name": "by",
          "type": "address"
        }
      ],
      "name": "PoolDisabled",
      "type": "event"
    },
    {
      "anonymous": false,
      "inputs": [
        {
          "indexed": true,
          "internalType": "address",
          "name": "by",
          "type": "address"
        }
      ],
      "name": "PoolEnabled",
      "type": "event"
    },
    {
      "anonymous": false,
      "inputs": [
        {
          "indexed": true,
          "internalType": "address",
          "name": "lender",
          "type": "address"
        },
        {
          "indexed": false,
          "internalType": "address",
          "name": "by",
          "type": "address"
        }
      ],
      "name": "RemoveApprovedLender",
      "type": "event"
    },
    {
      "inputs": [
        {
          "internalType": "address",
          "name": "lender",
          "type": "address"
        }
      ],
      "name": "addApprovedLender",
      "outputs": [],
      "stateMutability": "nonpayable",
      "type": "function"
    },
    {
      "inputs": [
        {
          "internalType": "address",
          "name": "borrower",
          "type": "address"
        },
        {
          "internalType": "uint256",
          "name": "newLine",
          "type": "uint256"
        }
      ],
      "name": "changeCreditLine",
      "outputs": [],
      "stateMutability": "nonpayable",
      "type": "function"
    },
    {
      "inputs": [
        {
          "internalType": "address",
          "name": "account",
          "type": "address"
        }
      ],
      "name": "creditRecordMapping",
      "outputs": [
        {
          "components": [
            {
              "internalType": "uint96",
              "name": "unbilledPrincipal",
              "type": "uint96"
            },
            {
              "internalType": "uint64",
              "name": "dueDate",
              "type": "uint64"
            },
            {
              "internalType": "int96",
              "name": "correction",
              "type": "int96"
            },
            {
              "internalType": "uint96",
              "name": "totalDue",
              "type": "uint96"
            },
            {
              "internalType": "uint96",
              "name": "feesAndInterestDue",
              "type": "uint96"
            },
            {
              "internalType": "uint16",
              "name": "missedPeriods",
              "type": "uint16"
            },
            {
              "internalType": "uint16",
              "name": "remainingPeriods",
              "type": "uint16"
            },
            {
              "internalType": "enum BaseStructs.CreditState",
              "name": "state",
              "type": "uint8"
            }
          ],
          "internalType": "struct BaseStructs.CreditRecord",
          "name": "",
          "type": "tuple"
        }
      ],
      "stateMutability": "view",
      "type": "function"
    },
    {
      "inputs": [
        {
          "internalType": "uint256",
          "name": "amount",
          "type": "uint256"
        }
      ],
      "name": "deposit",
      "outputs": [],
      "stateMutability": "nonpayable",
      "type": "function"
    },
    {
      "inputs": [],
      "name": "disablePool",
      "outputs": [],
      "stateMutability": "nonpayable",
      "type": "function"
    },
    {
      "inputs": [],
      "name": "enablePool",
      "outputs": [],
      "stateMutability": "nonpayable",
      "type": "function"
    },
    {
      "inputs": [],
      "name": "getCoreData",
      "outputs": [
        {
          "internalType": "address",
          "name": "underlyingToken_",
          "type": "address"
        },
        {
          "internalType": "address",
          "name": "poolToken_",
          "type": "address"
        },
        {
          "internalType": "address",
          "name": "humaConfig_",
          "type": "address"
        },
        {
          "internalType": "address",
          "name": "feeManager_",
          "type": "address"
        }
      ],
      "stateMutability": "view",
      "type": "function"
    },
    {
      "inputs": [
        {
          "internalType": "address",
          "name": "account",
          "type": "address"
        }
      ],
      "name": "getCreditLine",
      "outputs": [
        {
          "internalType": "uint256",
          "name": "",
          "type": "uint256"
        }
      ],
      "stateMutability": "view",
      "type": "function"
    },
    {
      "inputs": [
        {
          "internalType": "address",
          "name": "poolConfigAddr",
          "type": "address"
        }
      ],
      "name": "initialize",
      "outputs": [],
      "stateMutability": "nonpayable",
      "type": "function"
    },
    {
      "inputs": [
        {
          "internalType": "address",
          "name": "account",
          "type": "address"
        }
      ],
      "name": "isApprovedLender",
      "outputs": [
        {
          "internalType": "bool",
          "name": "",
          "type": "bool"
        }
      ],
      "stateMutability": "view",
      "type": "function"
    },
    {
      "inputs": [],
      "name": "isPoolOn",
      "outputs": [
        {
          "internalType": "bool",
          "name": "status",
          "type": "bool"
        }
      ],
      "stateMutability": "view",
      "type": "function"
    },
    {
      "inputs": [
        {
          "internalType": "address",
          "name": "account",
          "type": "address"
        }
      ],
      "name": "lastDepositTime",
      "outputs": [
        {
          "internalType": "uint256",
          "name": "",
          "type": "uint256"
        }
      ],
      "stateMutability": "view",
      "type": "function"
    },
    {
      "inputs": [
        {
          "internalType": "uint256",
          "name": "amount",
          "type": "uint256"
        }
      ],
      "name": "makeInitialDeposit",
      "outputs": [],
      "stateMutability": "nonpayable",
      "type": "function"
    },
    {
      "inputs": [],
      "name": "poolConfig",
      "outputs": [
        {
          "internalType": "address",
          "name": "",
          "type": "address"
        }
      ],
      "stateMutability": "view",
      "type": "function"
    },
    {
      "inputs": [
        {
          "internalType": "address",
          "name": "lender",
          "type": "address"
        }
      ],
      "name": "removeApprovedLender",
      "outputs": [],
      "stateMutability": "nonpayable",
      "type": "function"
    },
    {
      "inputs": [
        {
          "internalType": "address",
          "name": "poolConfigAddr",
          "type": "address"
        }
      ],
      "name": "setPoolConfig",
      "outputs": [],
      "stateMutability": "nonpayable",
      "type": "function"
    },
    {
      "inputs": [],
      "name": "totalPoolValue",
      "outputs": [
        {
          "internalType": "uint256",
          "name": "",
          "type": "uint256"
        }
      ],
      "stateMutability": "view",
      "type": "function"
    },
    {
      "inputs": [],
      "name": "updateCoreData",
      "outputs": [],
      "stateMutability": "nonpayable",
      "type": "function"
    },
    {
      "inputs": [
        {
          "internalType": "uint256",
          "name": "amount",
          "type": "uint256"
        }
      ],
      "name": "withdraw",
      "outputs": [],
      "stateMutability": "nonpayable",
      "type": "function"
    },
    {
      "inputs": [],
      "name": "withdrawAll",
      "outputs": [],
      "stateMutability": "nonpayable",
      "type": "function"
    }
  ],
  "bytecode": "0x60806040523480156200001157600080fd5b50620000226200002860201b60201c565b620001d3565b600060019054906101000a900460ff16156200007b576040517f08c379a0000000000000000000000000000000000000000000000000000000008152600401620000729062000176565b60405180910390fd5b60ff801660008054906101000a900460ff1660ff161015620000ed5760ff6000806101000a81548160ff021916908360ff1602179055507f7f26b83ff96e1f2b6a682f133852f6798a09c465da95921460cefb384740249860ff604051620000e49190620001b6565b60405180910390a15b565b600082825260208201905092915050565b7f496e697469616c697a61626c653a20636f6e747261637420697320696e69746960008201527f616c697a696e6700000000000000000000000000000000000000000000000000602082015250565b60006200015e602783620000ef565b91506200016b8262000100565b604082019050919050565b6000602082019050818103600083015262000191816200014f565b9050919050565b600060ff82169050919050565b620001b08162000198565b82525050565b6000602082019050620001cd6000830184620001a5565b92915050565b612f8c80620001e36000396000f3fe608060405234801561001057600080fd5b506004361061012c5760003560e01c80638a02775b116100ad578063b6b55f2511610071578063b6b55f25146102d4578063c1897685146102f0578063c4d66de81461030c578063e287c70c14610328578063fcc50976146103445761012c565b80638a02775b146102545780639695e195146102725780639842054c14610290578063b2fc259c146102ae578063b40a3446146102ca5761012c565b806350d866c5116100f457806350d866c5146101b25780636bfad652146101e257806381a4e310146101fe578063853828b61461022e578063893584d7146102385761012c565b806302527753146101315780631effb1061461016157806325216e921461016b5780632e1a7d4d146101755780634d9d559414610191575b600080fd5b61014b600480360381019061014691906124ff565b610374565b6040516101589190612545565b60405180910390f35b6101696103bd565b005b610173610435565b005b61018f600480360381019061018a919061258c565b61052d565b005b610199610954565b6040516101a994939291906125c8565b60405180910390f35b6101cc60048036038101906101c791906124ff565b6109f4565b6040516101d99190612545565b60405180910390f35b6101fc60048036038101906101f791906124ff565b610a66565b005b610218600480360381019061021391906124ff565b610c2f565b6040516102259190612628565b60405180910390f35b610236610c85565b005b610252600480360381019061024d91906124ff565b610d2b565b005b61025c610ddc565b6040516102699190612545565b60405180910390f35b61027a610de6565b6040516102879190612643565b60405180910390f35b610298610e10565b6040516102a59190612628565b60405180910390f35b6102c860048036038101906102c3919061258c565b610e5d565b005b6102d2610ef5565b005b6102ee60048036038101906102e9919061258c565b610f07565b005b61030a600480360381019061030591906124ff565b610f1c565b005b610326600480360381019061032191906124ff565b610fcd565b005b610342600480360381019061033d919061265e565b6111a1565b005b61035e600480360381019061035991906124ff565b6112fc565b60405161036b919061283a565b60405180910390f35b6000600660008373ffffffffffffffffffffffffffffffffffffffff1673ffffffffffffffffffffffffffffffffffffffff168152602001908152602001600020549050919050565b6103c56114da565b6000600760006101000a81548160ff021916908360018111156103eb576103ea612721565b5b02179055503373ffffffffffffffffffffffffffffffffffffffff167ff82ae9a5785e9b261d7e8bba20ced7516919ec7bdc4b18e7d916316f4991e53260405160405180910390a2565b61043d6115ae565b600260009054906101000a900473ffffffffffffffffffffffffffffffffffffffff1673ffffffffffffffffffffffffffffffffffffffff16633087fbc66040518163ffffffff1660e01b815260040160006040518083038186803b1580156104a557600080fd5b505afa1580156104b9573d6000803e3d6000fd5b505050506001600760006101000a81548160ff021916908360018111156104e3576104e2612721565b5b02179055503373ffffffffffffffffffffffffffffffffffffffff167ff37bc7d2dc2b5bd3afd83f8325fd7f602d73391cc33915689bea4c61f81b12d960405160405180910390a2565b61053561163b565b6000810361056f576040517f71799f2a00000000000000000000000000000000000000000000000000000000815260040160405180910390fd5b600260009054906101000a900473ffffffffffffffffffffffffffffffffffffffff1673ffffffffffffffffffffffffffffffffffffffff166310ee73f16040518163ffffffff1660e01b8152600401602060405180830381865afa1580156105dc573d6000803e3d6000fd5b505050506040513d601f19601f82011682018060405250810190610600919061286b565b600660003373ffffffffffffffffffffffffffffffffffffffff1673ffffffffffffffffffffffffffffffffffffffff1681526020019081526020016000205461064a91906128c7565b421015610683576040517f6798247200000000000000000000000000000000000000000000000000000000815260040160405180910390fd5b6000600160009054906101000a900473ffffffffffffffffffffffffffffffffffffffff1673ffffffffffffffffffffffffffffffffffffffff1663443bb293336040518263ffffffff1660e01b81526004016106e09190612643565b602060405180830381865afa1580156106fd573d6000803e3d6000fd5b505050506040513d601f19601f82011682018060405250810190610721919061286b565b90508082111561075d576040517f477c0ab200000000000000000000000000000000000000000000000000000000815260040160405180910390fd5b600260009054906101000a900473ffffffffffffffffffffffffffffffffffffffff1673ffffffffffffffffffffffffffffffffffffffff1663deb791d43384846107a891906128fb565b6040518363ffffffff1660e01b81526004016107c592919061292f565b60006040518083038186803b1580156107dd57600080fd5b505afa1580156107f1573d6000803e3d6000fd5b505050506000600160009054906101000a900473ffffffffffffffffffffffffffffffffffffffff1673ffffffffffffffffffffffffffffffffffffffff1663fb8bd26f33856040518363ffffffff1660e01b815260040161085492919061292f565b6020604051808303816000875af1158015610873573d6000803e3d6000fd5b505050506040513d601f19601f82011682018060405250810190610897919061286b565b905082600560008282546108ab91906128fb565b925050819055506108ff3384600060029054906101000a900473ffffffffffffffffffffffffffffffffffffffff1673ffffffffffffffffffffffffffffffffffffffff166117719092919063ffffffff16565b3373ffffffffffffffffffffffffffffffffffffffff167fb195a67e698c5700e4f48f7b7748dda3a206ee2767ef024b61a26d7b17b2d63a8483604051610947929190612958565b60405180910390a2505050565b600080600080600060029054906101000a900473ffffffffffffffffffffffffffffffffffffffff169350600160009054906101000a900473ffffffffffffffffffffffffffffffffffffffff169250600360009054906101000a900473ffffffffffffffffffffffffffffffffffffffff169150600460009054906101000a900473ffffffffffffffffffffffffffffffffffffffff16905090919293565b6000606e60008373ffffffffffffffffffffffffffffffffffffffff1673ffffffffffffffffffffffffffffffffffffffff16815260200190815260200160002060000160009054906101000a90046bffffffffffffffffffffffff166bffffffffffffffffffffffff169050919050565b610a6e6115ae565b6000600260009054906101000a900473ffffffffffffffffffffffffffffffffffffffff1690508073ffffffffffffffffffffffffffffffffffffffff168273ffffffffffffffffffffffffffffffffffffffff1603610afa576040517f0811ff0900000000000000000000000000000000000000000000000000000000815260040160405180910390fd5b610b0460006117f7565b60008290508073ffffffffffffffffffffffffffffffffffffffff16636f52071c336040518263ffffffff1660e01b8152600401610b429190612643565b60006040518083038186803b158015610b5a57600080fd5b505afa158015610b6e573d6000803e3d6000fd5b5050505080600260006101000a81548173ffffffffffffffffffffffffffffffffffffffff021916908373ffffffffffffffffffffffffffffffffffffffff160217905550610bdc7fffffffffffffffffffffffffffffffffffffffffffffffffffffffffffffffff6117f7565b3373ffffffffffffffffffffffffffffffffffffffff167f3b4ee357b2324b710644b79f0128178b3d3d4151d9886318feedad4d78aa8e5e84604051610c229190612643565b60405180910390a2505050565b6000600860008373ffffffffffffffffffffffffffffffffffffffff1673ffffffffffffffffffffffffffffffffffffffff16815260200190815260200160002060009054906101000a900460ff169050919050565b610d29600160009054906101000a900473ffffffffffffffffffffffffffffffffffffffff1673ffffffffffffffffffffffffffffffffffffffff1663443bb293336040518263ffffffff1660e01b8152600401610ce39190612643565b602060405180830381865afa158015610d00573d6000803e3d6000fd5b505050506040513d601f19601f82011682018060405250810190610d24919061286b565b61052d565b565b610d336114da565b6001600860008373ffffffffffffffffffffffffffffffffffffffff1673ffffffffffffffffffffffffffffffffffffffff16815260200190815260200160002060006101000a81548160ff0219169083151502179055508073ffffffffffffffffffffffffffffffffffffffff167fa9f7067c5f9d50447dc3bcc7383e76a5823bc40ba532c95cb71ebc44468bd65133604051610dd19190612643565b60405180910390a250565b6000600554905090565b6000600260009054906101000a900473ffffffffffffffffffffffffffffffffffffffff16905090565b6000600180811115610e2557610e24612721565b5b600760009054906101000a900460ff166001811115610e4757610e46612721565b5b03610e555760019050610e5a565b600090505b90565b600260009054906101000a900473ffffffffffffffffffffffffffffffffffffffff1673ffffffffffffffffffffffffffffffffffffffff1663c8fb307a336040518263ffffffff1660e01b8152600401610eb89190612643565b60006040518083038186803b158015610ed057600080fd5b505afa158015610ee4573d6000803e3d6000fd5b50505050610ef2338261193e565b50565b610efd6115ae565b610f05611bfd565b565b610f0f61163b565b610f19338261193e565b50565b610f246114da565b6000600860008373ffffffffffffffffffffffffffffffffffffffff1673ffffffffffffffffffffffffffffffffffffffff16815260200190815260200160002060006101000a81548160ff0219169083151502179055508073ffffffffffffffffffffffffffffffffffffffff167fd544c312f8b518478a8716753ecf56270e81e9f14b80aa1bd71ec2dfeac4205533604051610fc29190612643565b60405180910390a250565b60008060019054906101000a900460ff16159050808015610ffe5750600160008054906101000a900460ff1660ff16105b8061102b575061100d30611dfa565b15801561102a5750600160008054906101000a900460ff1660ff16145b5b61106a576040517f08c379a000000000000000000000000000000000000000000000000000000000815260040161106190612a04565b60405180910390fd5b60016000806101000a81548160ff021916908360ff16021790555080156110a7576001600060016101000a81548160ff0219169083151502179055505b81600260006101000a81548173ffffffffffffffffffffffffffffffffffffffff021916908373ffffffffffffffffffffffffffffffffffffffff1602179055506110f0611bfd565b6111197fffffffffffffffffffffffffffffffffffffffffffffffffffffffffffffffff6117f7565b6000600760006101000a81548160ff0219169083600181111561113f5761113e612721565b5b0217905550801561119d5760008060016101000a81548160ff0219169083151502179055507f7f26b83ff96e1f2b6a682f133852f6798a09c465da95921460cefb384740249860016040516111949190612a76565b60405180910390a15b5050565b6111a961163b565b6111b1611e1d565b600260009054906101000a900473ffffffffffffffffffffffffffffffffffffffff1673ffffffffffffffffffffffffffffffffffffffff1663fe2a4ec96040518163ffffffff1660e01b8152600401602060405180830381865afa15801561121e573d6000803e3d6000fd5b505050506040513d601f19601f82011682018060405250810190611242919061286b565b81111561127b576040517fd8c27d2f00000000000000000000000000000000000000000000000000000000815260040160405180910390fd5b6002816112889190612a91565b606e60008473ffffffffffffffffffffffffffffffffffffffff1673ffffffffffffffffffffffffffffffffffffffff16815260200190815260200160002060000160006101000a8154816bffffffffffffffffffffffff02191690836bffffffffffffffffffffffff1602179055505050565b611304612406565b606d60008373ffffffffffffffffffffffffffffffffffffffff1673ffffffffffffffffffffffffffffffffffffffff168152602001908152602001600020604051806101000160405290816000820160009054906101000a90046bffffffffffffffffffffffff166bffffffffffffffffffffffff166bffffffffffffffffffffffff16815260200160008201600c9054906101000a900467ffffffffffffffff1667ffffffffffffffff1667ffffffffffffffff1681526020016000820160149054906101000a9004600b0b600b0b600b0b81526020016001820160009054906101000a90046bffffffffffffffffffffffff166bffffffffffffffffffffffff166bffffffffffffffffffffffff16815260200160018201600c9054906101000a90046bffffffffffffffffffffffff166bffffffffffffffffffffffff166bffffffffffffffffffffffff1681526020016001820160189054906101000a900461ffff1661ffff1661ffff16815260200160018201601a9054906101000a900461ffff1661ffff1661ffff16815260200160018201601c9054906101000a900460ff1660058111156114bd576114bc612721565b5b60058111156114cf576114ce612721565b5b815250509050919050565b600260009054906101000a900473ffffffffffffffffffffffffffffffffffffffff1673ffffffffffffffffffffffffffffffffffffffff16636d70f7ae336040518263ffffffff1660e01b81526004016115359190612643565b602060405180830381865afa158015611552573d6000803e3d6000fd5b505050506040513d601f19601f820116820180604052508101906115769190612aff565b6115ac576040517fdc2dc6d000000000000000000000000000000000000000000000000000000000815260040160405180910390fd5b565b600260009054906101000a900473ffffffffffffffffffffffffffffffffffffffff1673ffffffffffffffffffffffffffffffffffffffff16636f52071c336040518263ffffffff1660e01b81526004016116099190612643565b60006040518083038186803b15801561162157600080fd5b505afa158015611635573d6000803e3d6000fd5b50505050565b600360009054906101000a900473ffffffffffffffffffffffffffffffffffffffff1673ffffffffffffffffffffffffffffffffffffffff16635c975abb6040518163ffffffff1660e01b8152600401602060405180830381865afa1580156116a8573d6000803e3d6000fd5b505050506040513d601f19601f820116820180604052508101906116cc9190612aff565b15611703576040517f8f6fa2d400000000000000000000000000000000000000000000000000000000815260040160405180910390fd5b60018081111561171657611715612721565b5b600760009054906101000a900460ff16600181111561173857611737612721565b5b1461176f576040517f69b355df00000000000000000000000000000000000000000000000000000000815260040160405180910390fd5b565b6117f28363a9059cbb60e01b848460405160240161179092919061292f565b604051602081830303815290604052907bffffffffffffffffffffffffffffffffffffffffffffffffffffffff19166020820180517bffffffffffffffffffffffffffffffffffffffffffffffffffffffff8381831617835250505050611f14565b505050565b6000600260009054906101000a900473ffffffffffffffffffffffffffffffffffffffff16905060008060029054906101000a900473ffffffffffffffffffffffffffffffffffffffff1673ffffffffffffffffffffffffffffffffffffffff1663dd62ed3e30846040518363ffffffff1660e01b815260040161187c929190612b2c565b602060405180830381865afa158015611899573d6000803e3d6000fd5b505050506040513d601f19601f820116820180604052508101906118bd919061286b565b90506000831480156118cf5750600081115b806118e657506000831180156118e55750600081145b5b15611939576119388284600060029054906101000a900473ffffffffffffffffffffffffffffffffffffffff1673ffffffffffffffffffffffffffffffffffffffff16611fdb9092919063ffffffff16565b5b505050565b60008103611978576040517f71799f2a00000000000000000000000000000000000000000000000000000000815260040160405180910390fd5b6119818261212a565b600260009054906101000a900473ffffffffffffffffffffffffffffffffffffffff1673ffffffffffffffffffffffffffffffffffffffff1663b4583a926040518163ffffffff1660e01b8152600401602060405180830381865afa1580156119ee573d6000803e3d6000fd5b505050506040513d601f19601f82011682018060405250810190611a12919061286b565b81600554611a2091906128c7565b1115611a58576040517f5642ebd400000000000000000000000000000000000000000000000000000000815260040160405180910390fd5b6000600160009054906101000a900473ffffffffffffffffffffffffffffffffffffffff1673ffffffffffffffffffffffffffffffffffffffff16630e583dd284846040518363ffffffff1660e01b8152600401611ab792919061292f565b6020604051808303816000875af1158015611ad6573d6000803e3d6000fd5b505050506040513d601f19601f82011682018060405250810190611afa919061286b565b905042600660008573ffffffffffffffffffffffffffffffffffffffff1673ffffffffffffffffffffffffffffffffffffffff168152602001908152602001600020819055508160056000828254611b5291906128c7565b92505081905550611ba8833084600060029054906101000a900473ffffffffffffffffffffffffffffffffffffffff1673ffffffffffffffffffffffffffffffffffffffff166121b0909392919063ffffffff16565b8273ffffffffffffffffffffffffffffffffffffffff167fb7cd4486a08dcd2bf7da217a07d1069da69db8ffb3518c7014d6e6d4d973a5528383604051611bf0929190612958565b60405180910390a2505050565b600080600080600260009054906101000a900473ffffffffffffffffffffffffffffffffffffffff1673ffffffffffffffffffffffffffffffffffffffff16634d9d55946040518163ffffffff1660e01b8152600401608060405180830381865afa158015611c70573d6000803e3d6000fd5b505050506040513d601f19601f82011682018060405250810190611c949190612b6a565b935093509350935083600060026101000a81548173ffffffffffffffffffffffffffffffffffffffff021916908373ffffffffffffffffffffffffffffffffffffffff16021790555082600160006101000a81548173ffffffffffffffffffffffffffffffffffffffff021916908373ffffffffffffffffffffffffffffffffffffffff16021790555081600360006101000a81548173ffffffffffffffffffffffffffffffffffffffff021916908373ffffffffffffffffffffffffffffffffffffffff16021790555080600460006101000a81548173ffffffffffffffffffffffffffffffffffffffff021916908373ffffffffffffffffffffffffffffffffffffffff1602179055503373ffffffffffffffffffffffffffffffffffffffff167fcf5694ba4d292446cb12f93b0c317c6f3d28a9a7b37c43aa354bc95cfa9e5ac885858585604051611dec94939291906125c8565b60405180910390a250505050565b6000808273ffffffffffffffffffffffffffffffffffffffff163b119050919050565b600360009054906101000a900473ffffffffffffffffffffffffffffffffffffffff1673ffffffffffffffffffffffffffffffffffffffff1663848b2b056040518163ffffffff1660e01b8152600401602060405180830381865afa158015611e8a573d6000803e3d6000fd5b505050506040513d601f19601f82011682018060405250810190611eae9190612bd1565b73ffffffffffffffffffffffffffffffffffffffff163373ffffffffffffffffffffffffffffffffffffffff1614611f12576040517f9b3b1ed600000000000000000000000000000000000000000000000000000000815260040160405180910390fd5b565b6000611f76826040518060400160405280602081526020017f5361666545524332303a206c6f772d6c6576656c2063616c6c206661696c65648152508573ffffffffffffffffffffffffffffffffffffffff166122399092919063ffffffff16565b9050600081511115611fd65780806020019051810190611f969190612aff565b611fd5576040517f08c379a0000000000000000000000000000000000000000000000000000000008152600401611fcc90612c70565b60405180910390fd5b5b505050565b6000811480612065575060008373ffffffffffffffffffffffffffffffffffffffff1663dd62ed3e30856040518363ffffffff1660e01b8152600401612022929190612b2c565b602060405180830381865afa15801561203f573d6000803e3d6000fd5b505050506040513d601f19601f82011682018060405250810190612063919061286b565b145b6120a4576040517f08c379a000000000000000000000000000000000000000000000000000000000815260040161209b90612d02565b60405180910390fd5b6121258363095ea7b360e01b84846040516024016120c392919061292f565b604051602081830303815290604052907bffffffffffffffffffffffffffffffffffffffffffffffffffffffff19166020820180517bffffffffffffffffffffffffffffffffffffffffffffffffffffffff8381831617835250505050611f14565b505050565b600860008273ffffffffffffffffffffffffffffffffffffffff1673ffffffffffffffffffffffffffffffffffffffff16815260200190815260200160002060009054906101000a900460ff166121ad576040517f68299b2000000000000000000000000000000000000000000000000000000000815260040160405180910390fd5b50565b612233846323b872dd60e01b8585856040516024016121d193929190612d22565b604051602081830303815290604052907bffffffffffffffffffffffffffffffffffffffffffffffffffffffff19166020820180517bffffffffffffffffffffffffffffffffffffffffffffffffffffffff8381831617835250505050611f14565b50505050565b60606122488484600085612251565b90509392505050565b606082471015612296576040517f08c379a000000000000000000000000000000000000000000000000000000000815260040161228d90612dcb565b60405180910390fd5b6000808673ffffffffffffffffffffffffffffffffffffffff1685876040516122bf9190612e5c565b60006040518083038185875af1925050503d80600081146122fc576040519150601f19603f3d011682016040523d82523d6000602084013e612301565b606091505b50915091506123128783838761231e565b92505050949350505050565b606083156123805760008351036123785761233885612393565b612377576040517f08c379a000000000000000000000000000000000000000000000000000000000815260040161236e90612ebf565b60405180910390fd5b5b82905061238b565b61238a83836123b6565b5b949350505050565b6000808273ffffffffffffffffffffffffffffffffffffffff163b119050919050565b6000825111156123c95781518083602001fd5b806040517f08c379a00000000000000000000000000000000000000000000000000000000081526004016123fd9190612f34565b60405180910390fd5b60405180610100016040528060006bffffffffffffffffffffffff168152602001600067ffffffffffffffff1681526020016000600b0b815260200160006bffffffffffffffffffffffff16815260200160006bffffffffffffffffffffffff168152602001600061ffff168152602001600061ffff1681526020016000600581111561249657612495612721565b5b81525090565b600080fd5b600073ffffffffffffffffffffffffffffffffffffffff82169050919050565b60006124cc826124a1565b9050919050565b6124dc816124c1565b81146124e757600080fd5b50565b6000813590506124f9816124d3565b92915050565b6000602082840312156125155761251461249c565b5b6000612523848285016124ea565b91505092915050565b6000819050919050565b61253f8161252c565b82525050565b600060208201905061255a6000830184612536565b92915050565b6125698161252c565b811461257457600080fd5b50565b60008135905061258681612560565b92915050565b6000602082840312156125a2576125a161249c565b5b60006125b084828501612577565b91505092915050565b6125c2816124c1565b82525050565b60006080820190506125dd60008301876125b9565b6125ea60208301866125b9565b6125f760408301856125b9565b61260460608301846125b9565b95945050505050565b60008115159050919050565b6126228161260d565b82525050565b600060208201905061263d6000830184612619565b92915050565b600060208201905061265860008301846125b9565b92915050565b600080604083850312156126755761267461249c565b5b6000612683858286016124ea565b925050602061269485828601612577565b9150509250929050565b60006bffffffffffffffffffffffff82169050919050565b6126bf8161269e565b82525050565b600067ffffffffffffffff82169050919050565b6126e2816126c5565b82525050565b600081600b0b9050919050565b6126fe816126e8565b82525050565b600061ffff82169050919050565b61271b81612704565b82525050565b7f4e487b7100000000000000000000000000000000000000000000000000000000600052602160045260246000fd5b6006811061276157612760612721565b5b50565b600081905061277282612750565b919050565b600061278282612764565b9050919050565b61279281612777565b82525050565b610100820160008201516127af60008501826126b6565b5060208201516127c260208501826126d9565b5060408201516127d560408501826126f5565b5060608201516127e860608501826126b6565b5060808201516127fb60808501826126b6565b5060a082015161280e60a0850182612712565b5060c082015161282160c0850182612712565b5060e082015161283460e0850182612789565b50505050565b6000610100820190506128506000830184612798565b92915050565b60008151905061286581612560565b92915050565b6000602082840312156128815761288061249c565b5b600061288f84828501612856565b91505092915050565b7f4e487b7100000000000000000000000000000000000000000000000000000000600052601160045260246000fd5b60006128d28261252c565b91506128dd8361252c565b92508282019050808211156128f5576128f4612898565b5b92915050565b60006129068261252c565b91506129118361252c565b925082820390508181111561292957612928612898565b5b92915050565b600060408201905061294460008301856125b9565b6129516020830184612536565b9392505050565b600060408201905061296d6000830185612536565b61297a6020830184612536565b9392505050565b600082825260208201905092915050565b7f496e697469616c697a61626c653a20636f6e747261637420697320616c72656160008201527f647920696e697469616c697a6564000000000000000000000000000000000000602082015250565b60006129ee602e83612981565b91506129f982612992565b604082019050919050565b60006020820190508181036000830152612a1d816129e1565b9050919050565b6000819050919050565b600060ff82169050919050565b6000819050919050565b6000612a60612a5b612a5684612a24565b612a3b565b612a2e565b9050919050565b612a7081612a45565b82525050565b6000602082019050612a8b6000830184612a67565b92915050565b6000612a9c8261252c565b9150612aa78361252c565b9250828202612ab58161252c565b91508282048414831517612acc57612acb612898565b5b5092915050565b612adc8161260d565b8114612ae757600080fd5b50565b600081519050612af981612ad3565b92915050565b600060208284031215612b1557612b1461249c565b5b6000612b2384828501612aea565b91505092915050565b6000604082019050612b4160008301856125b9565b612b4e60208301846125b9565b9392505050565b600081519050612b64816124d3565b92915050565b60008060008060808587031215612b8457612b8361249c565b5b6000612b9287828801612b55565b9450506020612ba387828801612b55565b9350506040612bb487828801612b55565b9250506060612bc587828801612b55565b91505092959194509250565b600060208284031215612be757612be661249c565b5b6000612bf584828501612b55565b91505092915050565b7f5361666545524332303a204552433230206f7065726174696f6e20646964206e60008201527f6f74207375636365656400000000000000000000000000000000000000000000602082015250565b6000612c5a602a83612981565b9150612c6582612bfe565b604082019050919050565b60006020820190508181036000830152612c8981612c4d565b9050919050565b7f5361666545524332303a20617070726f76652066726f6d206e6f6e2d7a65726f60008201527f20746f206e6f6e2d7a65726f20616c6c6f77616e636500000000000000000000602082015250565b6000612cec603683612981565b9150612cf782612c90565b604082019050919050565b60006020820190508181036000830152612d1b81612cdf565b9050919050565b6000606082019050612d3760008301866125b9565b612d4460208301856125b9565b612d516040830184612536565b949350505050565b7f416464726573733a20696e73756666696369656e742062616c616e636520666f60008201527f722063616c6c0000000000000000000000000000000000000000000000000000602082015250565b6000612db5602683612981565b9150612dc082612d59565b604082019050919050565b60006020820190508181036000830152612de481612da8565b9050919050565b600081519050919050565b600081905092915050565b60005b83811015612e1f578082015181840152602081019050612e04565b60008484015250505050565b6000612e3682612deb565b612e408185612df6565b9350612e50818560208601612e01565b80840191505092915050565b6000612e688284612e2b565b915081905092915050565b7f416464726573733a2063616c6c20746f206e6f6e2d636f6e7472616374000000600082015250565b6000612ea9601d83612981565b9150612eb482612e73565b602082019050919050565b60006020820190508181036000830152612ed881612e9c565b9050919050565b600081519050919050565b6000601f19601f8301169050919050565b6000612f0682612edf565b612f108185612981565b9350612f20818560208601612e01565b612f2981612eea565b840191505092915050565b60006020820190508181036000830152612f4e8184612efb565b90509291505056fea2646970667358221220bc925dac67fdd6098c427d7fdf6e543b3e6482c49d9770488a50ac7fbf8577f064736f6c63430008110033",
  "linkReferences": {},
  "deployedLinkReferences": {}
}