{
  "_format": "hh-sol-artifact-1",
  "contractName": "MockBaseCreditPoolV2",
  "sourceName": "contracts/mock/MockBaseCreditPoolV2.sol",
  "abi": [
    {
      "inputs": [],
      "name": "creditLineGreatThanUpperLimit",
      "type": "error"
    },
    {
      "inputs": [],
      "name": "evaluationAgentServiceAccountRequired",
      "type": "error"
    },
    {
      "inputs": [],
      "name": "exceededPoolLiquidityCap",
      "type": "error"
    },
    {
      "inputs": [],
      "name": "permissionDeniedNotLender",
      "type": "error"
    },
    {
      "inputs": [],
      "name": "poolIsNotOn",
      "type": "error"
    },
    {
      "inputs": [],
      "name": "poolOperatorRequired",
      "type": "error"
    },
    {
      "inputs": [],
      "name": "protocolIsPaused",
      "type": "error"
    },
    {
      "inputs": [],
      "name": "sameValue",
      "type": "error"
    },
    {
      "inputs": [],
      "name": "withdrawTooSoon",
      "type": "error"
    },
    {
      "inputs": [],
      "name": "withdrawnAmountHigherThanBalance",
      "type": "error"
    },
    {
      "inputs": [],
      "name": "zeroAmountProvided",
      "type": "error"
    },
    {
      "anonymous": false,
      "inputs": [
        {
          "indexed": true,
          "internalType": "address",
          "name": "lender",
          "type": "address"
        },
        {
          "indexed": false,
          "internalType": "address",
          "name": "by",
          "type": "address"
        }
      ],
      "name": "AddApprovedLender",
      "type": "event"
    },
    {
      "anonymous": false,
      "inputs": [
        {
          "indexed": false,
          "internalType": "uint8",
          "name": "version",
          "type": "uint8"
        }
      ],
      "name": "Initialized",
      "type": "event"
    },
    {
      "anonymous": false,
      "inputs": [
        {
          "indexed": true,
          "internalType": "address",
          "name": "account",
          "type": "address"
        },
        {
          "indexed": false,
          "internalType": "uint256",
          "name": "assetAmount",
          "type": "uint256"
        },
        {
          "indexed": false,
          "internalType": "uint256",
          "name": "shareAmount",
          "type": "uint256"
        }
      ],
      "name": "LiquidityDeposited",
      "type": "event"
    },
    {
      "anonymous": false,
      "inputs": [
        {
          "indexed": true,
          "internalType": "address",
          "name": "account",
          "type": "address"
        },
        {
          "indexed": false,
          "internalType": "uint256",
          "name": "assetAmount",
          "type": "uint256"
        },
        {
          "indexed": false,
          "internalType": "uint256",
          "name": "shareAmount",
          "type": "uint256"
        }
      ],
      "name": "LiquidityWithdrawn",
      "type": "event"
    },
    {
      "anonymous": false,
      "inputs": [
        {
          "indexed": false,
          "internalType": "uint256",
          "name": "lossesDistributed",
          "type": "uint256"
        },
        {
          "indexed": false,
          "internalType": "uint256",
          "name": "updatedPoolValue",
          "type": "uint256"
        }
      ],
      "name": "LossesDistributed",
      "type": "event"
    },
    {
      "anonymous": false,
      "inputs": [
        {
          "indexed": true,
          "internalType": "address",
          "name": "sender",
          "type": "address"
        },
        {
          "indexed": false,
          "internalType": "address",
          "name": "newPoolConfig",
          "type": "address"
        }
      ],
      "name": "PoolConfigChanged",
      "type": "event"
    },
    {
      "anonymous": false,
      "inputs": [
        {
          "indexed": true,
          "internalType": "address",
          "name": "sender",
          "type": "address"
        },
        {
          "indexed": false,
          "internalType": "address",
          "name": "underlyingToken",
          "type": "address"
        },
        {
          "indexed": false,
          "internalType": "address",
          "name": "poolToken",
          "type": "address"
        },
        {
          "indexed": false,
          "internalType": "address",
          "name": "humaConfig",
          "type": "address"
        },
        {
          "indexed": false,
          "internalType": "address",
          "name": "feeManager",
          "type": "address"
        }
      ],
      "name": "PoolCoreDataChanged",
      "type": "event"
    },
    {
      "anonymous": false,
      "inputs": [
        {
          "indexed": true,
          "internalType": "address",
          "name": "by",
          "type": "address"
        }
      ],
      "name": "PoolDisabled",
      "type": "event"
    },
    {
      "anonymous": false,
      "inputs": [
        {
          "indexed": true,
          "internalType": "address",
          "name": "by",
          "type": "address"
        }
      ],
      "name": "PoolEnabled",
      "type": "event"
    },
    {
      "anonymous": false,
      "inputs": [
        {
          "indexed": true,
          "internalType": "address",
          "name": "lender",
          "type": "address"
        },
        {
          "indexed": false,
          "internalType": "address",
          "name": "by",
          "type": "address"
        }
      ],
      "name": "RemoveApprovedLender",
      "type": "event"
    },
    {
      "inputs": [
        {
          "internalType": "address",
          "name": "lender",
          "type": "address"
        }
      ],
      "name": "addApprovedLender",
      "outputs": [],
      "stateMutability": "nonpayable",
      "type": "function"
    },
    {
      "inputs": [
        {
          "internalType": "address",
          "name": "borrower",
          "type": "address"
        },
        {
          "internalType": "uint256",
          "name": "newLine",
          "type": "uint256"
        }
      ],
      "name": "changeCreditLine",
      "outputs": [],
      "stateMutability": "nonpayable",
      "type": "function"
    },
    {
      "inputs": [
        {
          "internalType": "address",
          "name": "account",
          "type": "address"
        }
      ],
      "name": "creditRecordMapping",
      "outputs": [
        {
          "components": [
            {
              "internalType": "uint96",
              "name": "unbilledPrincipal",
              "type": "uint96"
            },
            {
              "internalType": "uint64",
              "name": "dueDate",
              "type": "uint64"
            },
            {
              "internalType": "int96",
              "name": "correction",
              "type": "int96"
            },
            {
              "internalType": "uint96",
              "name": "totalDue",
              "type": "uint96"
            },
            {
              "internalType": "uint96",
              "name": "feesAndInterestDue",
              "type": "uint96"
            },
            {
              "internalType": "uint16",
              "name": "missedPeriods",
              "type": "uint16"
            },
            {
              "internalType": "uint16",
              "name": "remainingPeriods",
              "type": "uint16"
            },
            {
              "internalType": "enum BaseStructs.CreditState",
              "name": "state",
              "type": "uint8"
            }
          ],
          "internalType": "struct BaseStructs.CreditRecord",
          "name": "",
          "type": "tuple"
        }
      ],
      "stateMutability": "view",
      "type": "function"
    },
    {
      "inputs": [
        {
          "internalType": "uint256",
          "name": "amount",
          "type": "uint256"
        }
      ],
      "name": "deposit",
      "outputs": [],
      "stateMutability": "nonpayable",
      "type": "function"
    },
    {
      "inputs": [],
      "name": "disablePool",
      "outputs": [],
      "stateMutability": "nonpayable",
      "type": "function"
    },
    {
      "inputs": [],
      "name": "enablePool",
      "outputs": [],
      "stateMutability": "nonpayable",
      "type": "function"
    },
    {
      "inputs": [],
      "name": "getCoreData",
      "outputs": [
        {
          "internalType": "address",
          "name": "underlyingToken_",
          "type": "address"
        },
        {
          "internalType": "address",
          "name": "poolToken_",
          "type": "address"
        },
        {
          "internalType": "address",
          "name": "humaConfig_",
          "type": "address"
        },
        {
          "internalType": "address",
          "name": "feeManager_",
          "type": "address"
        }
      ],
      "stateMutability": "view",
      "type": "function"
    },
    {
      "inputs": [
        {
          "internalType": "address",
          "name": "account",
          "type": "address"
        }
      ],
      "name": "getCreditLine",
      "outputs": [
        {
          "internalType": "uint256",
          "name": "",
          "type": "uint256"
        }
      ],
      "stateMutability": "view",
      "type": "function"
    },
    {
      "inputs": [
        {
          "internalType": "address",
          "name": "poolConfigAddr",
          "type": "address"
        }
      ],
      "name": "initialize",
      "outputs": [],
      "stateMutability": "nonpayable",
      "type": "function"
    },
    {
      "inputs": [
        {
          "internalType": "address",
          "name": "account",
          "type": "address"
        }
      ],
      "name": "isApprovedLender",
      "outputs": [
        {
          "internalType": "bool",
          "name": "",
          "type": "bool"
        }
      ],
      "stateMutability": "view",
      "type": "function"
    },
    {
      "inputs": [],
      "name": "isPoolOn",
      "outputs": [
        {
          "internalType": "bool",
          "name": "status",
          "type": "bool"
        }
      ],
      "stateMutability": "view",
      "type": "function"
    },
    {
      "inputs": [
        {
          "internalType": "address",
          "name": "account",
          "type": "address"
        }
      ],
      "name": "lastDepositTime",
      "outputs": [
        {
          "internalType": "uint256",
          "name": "",
          "type": "uint256"
        }
      ],
      "stateMutability": "view",
      "type": "function"
    },
    {
      "inputs": [
        {
          "internalType": "uint256",
          "name": "amount",
          "type": "uint256"
        }
      ],
      "name": "makeInitialDeposit",
      "outputs": [],
      "stateMutability": "nonpayable",
      "type": "function"
    },
    {
      "inputs": [],
      "name": "poolConfig",
      "outputs": [
        {
          "internalType": "address",
          "name": "",
          "type": "address"
        }
      ],
      "stateMutability": "view",
      "type": "function"
    },
    {
      "inputs": [
        {
          "internalType": "address",
          "name": "lender",
          "type": "address"
        }
      ],
      "name": "removeApprovedLender",
      "outputs": [],
      "stateMutability": "nonpayable",
      "type": "function"
    },
    {
      "inputs": [
        {
          "internalType": "address",
          "name": "poolConfigAddr",
          "type": "address"
        }
      ],
      "name": "setPoolConfig",
      "outputs": [],
      "stateMutability": "nonpayable",
      "type": "function"
    },
    {
      "inputs": [],
      "name": "totalPoolValue",
      "outputs": [
        {
          "internalType": "uint256",
          "name": "",
          "type": "uint256"
        }
      ],
      "stateMutability": "view",
      "type": "function"
    },
    {
      "inputs": [],
      "name": "updateCoreData",
      "outputs": [],
      "stateMutability": "nonpayable",
      "type": "function"
    },
    {
      "inputs": [
        {
          "internalType": "uint256",
          "name": "amount",
          "type": "uint256"
        }
      ],
      "name": "withdraw",
      "outputs": [],
      "stateMutability": "nonpayable",
      "type": "function"
    },
    {
      "inputs": [],
      "name": "withdrawAll",
      "outputs": [],
      "stateMutability": "nonpayable",
      "type": "function"
    }
  ],
  "bytecode": "0x60806040523480156200001157600080fd5b50620000226200002860201b60201c565b620001d3565b600060019054906101000a900460ff16156200007b576040517f08c379a0000000000000000000000000000000000000000000000000000000008152600401620000729062000176565b60405180910390fd5b60ff801660008054906101000a900460ff1660ff161015620000ed5760ff6000806101000a81548160ff021916908360ff1602179055507f7f26b83ff96e1f2b6a682f133852f6798a09c465da95921460cefb384740249860ff604051620000e49190620001b6565b60405180910390a15b565b600082825260208201905092915050565b7f496e697469616c697a61626c653a20636f6e747261637420697320696e69746960008201527f616c697a696e6700000000000000000000000000000000000000000000000000602082015250565b60006200015e602783620000ef565b91506200016b8262000100565b604082019050919050565b6000602082019050818103600083015262000191816200014f565b9050919050565b600060ff82169050919050565b620001b08162000198565b82525050565b6000602082019050620001cd6000830184620001a5565b92915050565b61307480620001e36000396000f3fe608060405234801561001057600080fd5b506004361061012c5760003560e01c80638a02775b116100ad578063b6b55f2511610071578063b6b55f25146102d4578063c1897685146102f0578063c4d66de81461030c578063e287c70c14610328578063fcc50976146103445761012c565b80638a02775b146102545780639695e195146102725780639842054c14610290578063b2fc259c146102ae578063b40a3446146102ca5761012c565b806350d866c5116100f457806350d866c5146101b25780636bfad652146101e257806381a4e310146101fe578063853828b61461022e578063893584d7146102385761012c565b806302527753146101315780631effb1061461016157806325216e921461016b5780632e1a7d4d146101755780634d9d559414610191575b600080fd5b61014b600480360381019061014691906125e7565b610374565b604051610158919061262d565b60405180910390f35b6101696103bd565b005b610173610435565b005b61018f600480360381019061018a9190612674565b61052d565b005b610199610976565b6040516101a994939291906126b0565b60405180910390f35b6101cc60048036038101906101c791906125e7565b610a16565b6040516101d9919061262d565b60405180910390f35b6101fc60048036038101906101f791906125e7565b610a88565b005b610218600480360381019061021391906125e7565b610c51565b6040516102259190612710565b60405180910390f35b610236610ca7565b005b610252600480360381019061024d91906125e7565b610d4d565b005b61025c610dfe565b604051610269919061262d565b60405180910390f35b61027a610e08565b604051610287919061272b565b60405180910390f35b610298610e32565b6040516102a59190612710565b60405180910390f35b6102c860048036038101906102c39190612674565b610e7f565b005b6102d2610f17565b005b6102ee60048036038101906102e99190612674565b610f29565b005b61030a600480360381019061030591906125e7565b610f3e565b005b610326600480360381019061032191906125e7565b610fef565b005b610342600480360381019061033d9190612746565b6111c3565b005b61035e600480360381019061035991906125e7565b61131e565b60405161036b9190612922565b60405180910390f35b6000600660008373ffffffffffffffffffffffffffffffffffffffff1673ffffffffffffffffffffffffffffffffffffffff168152602001908152602001600020549050919050565b6103c56114fc565b6000600760006101000a81548160ff021916908360018111156103eb576103ea612809565b5b02179055503373ffffffffffffffffffffffffffffffffffffffff167ff82ae9a5785e9b261d7e8bba20ced7516919ec7bdc4b18e7d916316f4991e53260405160405180910390a2565b61043d6115d0565b600260009054906101000a900473ffffffffffffffffffffffffffffffffffffffff1673ffffffffffffffffffffffffffffffffffffffff16633087fbc66040518163ffffffff1660e01b815260040160006040518083038186803b1580156104a557600080fd5b505afa1580156104b9573d6000803e3d6000fd5b505050506001600760006101000a81548160ff021916908360018111156104e3576104e2612809565b5b02179055503373ffffffffffffffffffffffffffffffffffffffff167ff37bc7d2dc2b5bd3afd83f8325fd7f602d73391cc33915689bea4c61f81b12d960405160405180910390a2565b61053561165d565b6000810361056f576040517f71799f2a00000000000000000000000000000000000000000000000000000000815260040160405180910390fd5b600260009054906101000a900473ffffffffffffffffffffffffffffffffffffffff1673ffffffffffffffffffffffffffffffffffffffff166310ee73f16040518163ffffffff1660e01b8152600401602060405180830381865afa1580156105dc573d6000803e3d6000fd5b505050506040513d601f19601f820116820180604052508101906106009190612953565b600660003373ffffffffffffffffffffffffffffffffffffffff1673ffffffffffffffffffffffffffffffffffffffff1681526020019081526020016000205461064a91906129af565b421015610683576040517f6798247200000000000000000000000000000000000000000000000000000000815260040160405180910390fd5b6000600160009054906101000a900473ffffffffffffffffffffffffffffffffffffffff1673ffffffffffffffffffffffffffffffffffffffff1663443bb293336040518263ffffffff1660e01b81526004016106e0919061272b565b602060405180830381865afa1580156106fd573d6000803e3d6000fd5b505050506040513d601f19601f820116820180604052508101906107219190612953565b90508082111561075d576040517f477c0ab200000000000000000000000000000000000000000000000000000000815260040160405180910390fd5b600260009054906101000a900473ffffffffffffffffffffffffffffffffffffffff1673ffffffffffffffffffffffffffffffffffffffff1663deb791d43384846107a891906129e3565b6040518363ffffffff1660e01b81526004016107c5929190612a17565b60006040518083038186803b1580156107dd57600080fd5b505afa1580156107f1573d6000803e3d6000fd5b50505050600061080083611793565b90506000600160009054906101000a900473ffffffffffffffffffffffffffffffffffffffff1673ffffffffffffffffffffffffffffffffffffffff1663fb8bd26f33866040518363ffffffff1660e01b8152600401610861929190612a17565b6020604051808303816000875af1158015610880573d6000803e3d6000fd5b505050506040513d601f19601f820116820180604052508101906108a49190612953565b905083600560008282546108b891906129e3565b925050819055506109173383866108cf91906129e3565b600060029054906101000a900473ffffffffffffffffffffffffffffffffffffffff1673ffffffffffffffffffffffffffffffffffffffff1661179a9092919063ffffffff16565b61092082611820565b3373ffffffffffffffffffffffffffffffffffffffff167fb195a67e698c5700e4f48f7b7748dda3a206ee2767ef024b61a26d7b17b2d63a8583604051610968929190612a40565b60405180910390a250505050565b600080600080600060029054906101000a900473ffffffffffffffffffffffffffffffffffffffff169350600160009054906101000a900473ffffffffffffffffffffffffffffffffffffffff169250600360009054906101000a900473ffffffffffffffffffffffffffffffffffffffff169150600460009054906101000a900473ffffffffffffffffffffffffffffffffffffffff16905090919293565b6000606e60008373ffffffffffffffffffffffffffffffffffffffff1673ffffffffffffffffffffffffffffffffffffffff16815260200190815260200160002060000160009054906101000a90046bffffffffffffffffffffffff166bffffffffffffffffffffffff169050919050565b610a906115d0565b6000600260009054906101000a900473ffffffffffffffffffffffffffffffffffffffff1690508073ffffffffffffffffffffffffffffffffffffffff168273ffffffffffffffffffffffffffffffffffffffff1603610b1c576040517f0811ff0900000000000000000000000000000000000000000000000000000000815260040160405180910390fd5b610b2660006118df565b60008290508073ffffffffffffffffffffffffffffffffffffffff16636f52071c336040518263ffffffff1660e01b8152600401610b64919061272b565b60006040518083038186803b158015610b7c57600080fd5b505afa158015610b90573d6000803e3d6000fd5b5050505080600260006101000a81548173ffffffffffffffffffffffffffffffffffffffff021916908373ffffffffffffffffffffffffffffffffffffffff160217905550610bfe7fffffffffffffffffffffffffffffffffffffffffffffffffffffffffffffffff6118df565b3373ffffffffffffffffffffffffffffffffffffffff167f3b4ee357b2324b710644b79f0128178b3d3d4151d9886318feedad4d78aa8e5e84604051610c44919061272b565b60405180910390a2505050565b6000600860008373ffffffffffffffffffffffffffffffffffffffff1673ffffffffffffffffffffffffffffffffffffffff16815260200190815260200160002060009054906101000a900460ff169050919050565b610d4b600160009054906101000a900473ffffffffffffffffffffffffffffffffffffffff1673ffffffffffffffffffffffffffffffffffffffff1663443bb293336040518263ffffffff1660e01b8152600401610d05919061272b565b602060405180830381865afa158015610d22573d6000803e3d6000fd5b505050506040513d601f19601f82011682018060405250810190610d469190612953565b61052d565b565b610d556114fc565b6001600860008373ffffffffffffffffffffffffffffffffffffffff1673ffffffffffffffffffffffffffffffffffffffff16815260200190815260200160002060006101000a81548160ff0219169083151502179055508073ffffffffffffffffffffffffffffffffffffffff167fa9f7067c5f9d50447dc3bcc7383e76a5823bc40ba532c95cb71ebc44468bd65133604051610df3919061272b565b60405180910390a250565b6000600554905090565b6000600260009054906101000a900473ffffffffffffffffffffffffffffffffffffffff16905090565b6000600180811115610e4757610e46612809565b5b600760009054906101000a900460ff166001811115610e6957610e68612809565b5b03610e775760019050610e7c565b600090505b90565b600260009054906101000a900473ffffffffffffffffffffffffffffffffffffffff1673ffffffffffffffffffffffffffffffffffffffff1663c8fb307a336040518263ffffffff1660e01b8152600401610eda919061272b565b60006040518083038186803b158015610ef257600080fd5b505afa158015610f06573d6000803e3d6000fd5b50505050610f143382611a26565b50565b610f1f6115d0565b610f27611ce5565b565b610f3161165d565b610f3b3382611a26565b50565b610f466114fc565b6000600860008373ffffffffffffffffffffffffffffffffffffffff1673ffffffffffffffffffffffffffffffffffffffff16815260200190815260200160002060006101000a81548160ff0219169083151502179055508073ffffffffffffffffffffffffffffffffffffffff167fd544c312f8b518478a8716753ecf56270e81e9f14b80aa1bd71ec2dfeac4205533604051610fe4919061272b565b60405180910390a250565b60008060019054906101000a900460ff161590508080156110205750600160008054906101000a900460ff1660ff16105b8061104d575061102f30611ee2565b15801561104c5750600160008054906101000a900460ff1660ff16145b5b61108c576040517f08c379a000000000000000000000000000000000000000000000000000000000815260040161108390612aec565b60405180910390fd5b60016000806101000a81548160ff021916908360ff16021790555080156110c9576001600060016101000a81548160ff0219169083151502179055505b81600260006101000a81548173ffffffffffffffffffffffffffffffffffffffff021916908373ffffffffffffffffffffffffffffffffffffffff160217905550611112611ce5565b61113b7fffffffffffffffffffffffffffffffffffffffffffffffffffffffffffffffff6118df565b6000600760006101000a81548160ff0219169083600181111561116157611160612809565b5b021790555080156111bf5760008060016101000a81548160ff0219169083151502179055507f7f26b83ff96e1f2b6a682f133852f6798a09c465da95921460cefb384740249860016040516111b69190612b5e565b60405180910390a15b5050565b6111cb61165d565b6111d3611f05565b600260009054906101000a900473ffffffffffffffffffffffffffffffffffffffff1673ffffffffffffffffffffffffffffffffffffffff1663fe2a4ec96040518163ffffffff1660e01b8152600401602060405180830381865afa158015611240573d6000803e3d6000fd5b505050506040513d601f19601f820116820180604052508101906112649190612953565b81111561129d576040517fd8c27d2f00000000000000000000000000000000000000000000000000000000815260040160405180910390fd5b6002816112aa9190612b79565b606e60008473ffffffffffffffffffffffffffffffffffffffff1673ffffffffffffffffffffffffffffffffffffffff16815260200190815260200160002060000160006101000a8154816bffffffffffffffffffffffff02191690836bffffffffffffffffffffffff1602179055505050565b6113266124ee565b606d60008373ffffffffffffffffffffffffffffffffffffffff1673ffffffffffffffffffffffffffffffffffffffff168152602001908152602001600020604051806101000160405290816000820160009054906101000a90046bffffffffffffffffffffffff166bffffffffffffffffffffffff166bffffffffffffffffffffffff16815260200160008201600c9054906101000a900467ffffffffffffffff1667ffffffffffffffff1667ffffffffffffffff1681526020016000820160149054906101000a9004600b0b600b0b600b0b81526020016001820160009054906101000a90046bffffffffffffffffffffffff166bffffffffffffffffffffffff166bffffffffffffffffffffffff16815260200160018201600c9054906101000a90046bffffffffffffffffffffffff166bffffffffffffffffffffffff166bffffffffffffffffffffffff1681526020016001820160189054906101000a900461ffff1661ffff1661ffff16815260200160018201601a9054906101000a900461ffff1661ffff1661ffff16815260200160018201601c9054906101000a900460ff1660058111156114df576114de612809565b5b60058111156114f1576114f0612809565b5b815250509050919050565b600260009054906101000a900473ffffffffffffffffffffffffffffffffffffffff1673ffffffffffffffffffffffffffffffffffffffff16636d70f7ae336040518263ffffffff1660e01b8152600401611557919061272b565b602060405180830381865afa158015611574573d6000803e3d6000fd5b505050506040513d601f19601f820116820180604052508101906115989190612be7565b6115ce576040517fdc2dc6d000000000000000000000000000000000000000000000000000000000815260040160405180910390fd5b565b600260009054906101000a900473ffffffffffffffffffffffffffffffffffffffff1673ffffffffffffffffffffffffffffffffffffffff16636f52071c336040518263ffffffff1660e01b815260040161162b919061272b565b60006040518083038186803b15801561164357600080fd5b505afa158015611657573d6000803e3d6000fd5b50505050565b600360009054906101000a900473ffffffffffffffffffffffffffffffffffffffff1673ffffffffffffffffffffffffffffffffffffffff16635c975abb6040518163ffffffff1660e01b8152600401602060405180830381865afa1580156116ca573d6000803e3d6000fd5b505050506040513d601f19601f820116820180604052508101906116ee9190612be7565b15611725576040517f8f6fa2d400000000000000000000000000000000000000000000000000000000815260040160405180910390fd5b60018081111561173857611737612809565b5b600760009054906101000a900460ff16600181111561175a57611759612809565b5b14611791576040517f69b355df00000000000000000000000000000000000000000000000000000000815260040160405180910390fd5b565b6000919050565b61181b8363a9059cbb60e01b84846040516024016117b9929190612a17565b604051602081830303815290604052907bffffffffffffffffffffffffffffffffffffffffffffffffffffffff19166020820180517bffffffffffffffffffffffffffffffffffffffffffffffffffffffff8381831617835250505050611ffc565b505050565b6000600260009054906101000a900473ffffffffffffffffffffffffffffffffffffffff1673ffffffffffffffffffffffffffffffffffffffff1663ef06fb73836040518263ffffffff1660e01b815260040161187d919061262d565b6020604051808303816000875af115801561189c573d6000803e3d6000fd5b505050506040513d601f19601f820116820180604052508101906118c09190612953565b905080600560008282546118d491906129af565b925050819055505050565b6000600260009054906101000a900473ffffffffffffffffffffffffffffffffffffffff16905060008060029054906101000a900473ffffffffffffffffffffffffffffffffffffffff1673ffffffffffffffffffffffffffffffffffffffff1663dd62ed3e30846040518363ffffffff1660e01b8152600401611964929190612c14565b602060405180830381865afa158015611981573d6000803e3d6000fd5b505050506040513d601f19601f820116820180604052508101906119a59190612953565b90506000831480156119b75750600081115b806119ce57506000831180156119cd5750600081145b5b15611a2157611a208284600060029054906101000a900473ffffffffffffffffffffffffffffffffffffffff1673ffffffffffffffffffffffffffffffffffffffff166120c39092919063ffffffff16565b5b505050565b60008103611a60576040517f71799f2a00000000000000000000000000000000000000000000000000000000815260040160405180910390fd5b611a6982612212565b600260009054906101000a900473ffffffffffffffffffffffffffffffffffffffff1673ffffffffffffffffffffffffffffffffffffffff1663b4583a926040518163ffffffff1660e01b8152600401602060405180830381865afa158015611ad6573d6000803e3d6000fd5b505050506040513d601f19601f82011682018060405250810190611afa9190612953565b81600554611b0891906129af565b1115611b40576040517f5642ebd400000000000000000000000000000000000000000000000000000000815260040160405180910390fd5b6000600160009054906101000a900473ffffffffffffffffffffffffffffffffffffffff1673ffffffffffffffffffffffffffffffffffffffff16630e583dd284846040518363ffffffff1660e01b8152600401611b9f929190612a17565b6020604051808303816000875af1158015611bbe573d6000803e3d6000fd5b505050506040513d601f19601f82011682018060405250810190611be29190612953565b905042600660008573ffffffffffffffffffffffffffffffffffffffff1673ffffffffffffffffffffffffffffffffffffffff168152602001908152602001600020819055508160056000828254611c3a91906129af565b92505081905550611c90833084600060029054906101000a900473ffffffffffffffffffffffffffffffffffffffff1673ffffffffffffffffffffffffffffffffffffffff16612298909392919063ffffffff16565b8273ffffffffffffffffffffffffffffffffffffffff167fb7cd4486a08dcd2bf7da217a07d1069da69db8ffb3518c7014d6e6d4d973a5528383604051611cd8929190612a40565b60405180910390a2505050565b600080600080600260009054906101000a900473ffffffffffffffffffffffffffffffffffffffff1673ffffffffffffffffffffffffffffffffffffffff16634d9d55946040518163ffffffff1660e01b8152600401608060405180830381865afa158015611d58573d6000803e3d6000fd5b505050506040513d601f19601f82011682018060405250810190611d7c9190612c52565b935093509350935083600060026101000a81548173ffffffffffffffffffffffffffffffffffffffff021916908373ffffffffffffffffffffffffffffffffffffffff16021790555082600160006101000a81548173ffffffffffffffffffffffffffffffffffffffff021916908373ffffffffffffffffffffffffffffffffffffffff16021790555081600360006101000a81548173ffffffffffffffffffffffffffffffffffffffff021916908373ffffffffffffffffffffffffffffffffffffffff16021790555080600460006101000a81548173ffffffffffffffffffffffffffffffffffffffff021916908373ffffffffffffffffffffffffffffffffffffffff1602179055503373ffffffffffffffffffffffffffffffffffffffff167fcf5694ba4d292446cb12f93b0c317c6f3d28a9a7b37c43aa354bc95cfa9e5ac885858585604051611ed494939291906126b0565b60405180910390a250505050565b6000808273ffffffffffffffffffffffffffffffffffffffff163b119050919050565b600360009054906101000a900473ffffffffffffffffffffffffffffffffffffffff1673ffffffffffffffffffffffffffffffffffffffff1663848b2b056040518163ffffffff1660e01b8152600401602060405180830381865afa158015611f72573d6000803e3d6000fd5b505050506040513d601f19601f82011682018060405250810190611f969190612cb9565b73ffffffffffffffffffffffffffffffffffffffff163373ffffffffffffffffffffffffffffffffffffffff1614611ffa576040517f9b3b1ed600000000000000000000000000000000000000000000000000000000815260040160405180910390fd5b565b600061205e826040518060400160405280602081526020017f5361666545524332303a206c6f772d6c6576656c2063616c6c206661696c65648152508573ffffffffffffffffffffffffffffffffffffffff166123219092919063ffffffff16565b90506000815111156120be578080602001905181019061207e9190612be7565b6120bd576040517f08c379a00000000000000000000000000000000000000000000000000000000081526004016120b490612d58565b60405180910390fd5b5b505050565b600081148061214d575060008373ffffffffffffffffffffffffffffffffffffffff1663dd62ed3e30856040518363ffffffff1660e01b815260040161210a929190612c14565b602060405180830381865afa158015612127573d6000803e3d6000fd5b505050506040513d601f19601f8201168201806040525081019061214b9190612953565b145b61218c576040517f08c379a000000000000000000000000000000000000000000000000000000000815260040161218390612dea565b60405180910390fd5b61220d8363095ea7b360e01b84846040516024016121ab929190612a17565b604051602081830303815290604052907bffffffffffffffffffffffffffffffffffffffffffffffffffffffff19166020820180517bffffffffffffffffffffffffffffffffffffffffffffffffffffffff8381831617835250505050611ffc565b505050565b600860008273ffffffffffffffffffffffffffffffffffffffff1673ffffffffffffffffffffffffffffffffffffffff16815260200190815260200160002060009054906101000a900460ff16612295576040517f68299b2000000000000000000000000000000000000000000000000000000000815260040160405180910390fd5b50565b61231b846323b872dd60e01b8585856040516024016122b993929190612e0a565b604051602081830303815290604052907bffffffffffffffffffffffffffffffffffffffffffffffffffffffff19166020820180517bffffffffffffffffffffffffffffffffffffffffffffffffffffffff8381831617835250505050611ffc565b50505050565b60606123308484600085612339565b90509392505050565b60608247101561237e576040517f08c379a000000000000000000000000000000000000000000000000000000000815260040161237590612eb3565b60405180910390fd5b6000808673ffffffffffffffffffffffffffffffffffffffff1685876040516123a79190612f44565b60006040518083038185875af1925050503d80600081146123e4576040519150601f19603f3d011682016040523d82523d6000602084013e6123e9565b606091505b50915091506123fa87838387612406565b92505050949350505050565b60608315612468576000835103612460576124208561247b565b61245f576040517f08c379a000000000000000000000000000000000000000000000000000000000815260040161245690612fa7565b60405180910390fd5b5b829050612473565b612472838361249e565b5b949350505050565b6000808273ffffffffffffffffffffffffffffffffffffffff163b119050919050565b6000825111156124b15781518083602001fd5b806040517f08c379a00000000000000000000000000000000000000000000000000000000081526004016124e5919061301c565b60405180910390fd5b60405180610100016040528060006bffffffffffffffffffffffff168152602001600067ffffffffffffffff1681526020016000600b0b815260200160006bffffffffffffffffffffffff16815260200160006bffffffffffffffffffffffff168152602001600061ffff168152602001600061ffff1681526020016000600581111561257e5761257d612809565b5b81525090565b600080fd5b600073ffffffffffffffffffffffffffffffffffffffff82169050919050565b60006125b482612589565b9050919050565b6125c4816125a9565b81146125cf57600080fd5b50565b6000813590506125e1816125bb565b92915050565b6000602082840312156125fd576125fc612584565b5b600061260b848285016125d2565b91505092915050565b6000819050919050565b61262781612614565b82525050565b6000602082019050612642600083018461261e565b92915050565b61265181612614565b811461265c57600080fd5b50565b60008135905061266e81612648565b92915050565b60006020828403121561268a57612689612584565b5b60006126988482850161265f565b91505092915050565b6126aa816125a9565b82525050565b60006080820190506126c560008301876126a1565b6126d260208301866126a1565b6126df60408301856126a1565b6126ec60608301846126a1565b95945050505050565b60008115159050919050565b61270a816126f5565b82525050565b60006020820190506127256000830184612701565b92915050565b600060208201905061274060008301846126a1565b92915050565b6000806040838503121561275d5761275c612584565b5b600061276b858286016125d2565b925050602061277c8582860161265f565b9150509250929050565b60006bffffffffffffffffffffffff82169050919050565b6127a781612786565b82525050565b600067ffffffffffffffff82169050919050565b6127ca816127ad565b82525050565b600081600b0b9050919050565b6127e6816127d0565b82525050565b600061ffff82169050919050565b612803816127ec565b82525050565b7f4e487b7100000000000000000000000000000000000000000000000000000000600052602160045260246000fd5b6006811061284957612848612809565b5b50565b600081905061285a82612838565b919050565b600061286a8261284c565b9050919050565b61287a8161285f565b82525050565b61010082016000820151612897600085018261279e565b5060208201516128aa60208501826127c1565b5060408201516128bd60408501826127dd565b5060608201516128d0606085018261279e565b5060808201516128e3608085018261279e565b5060a08201516128f660a08501826127fa565b5060c082015161290960c08501826127fa565b5060e082015161291c60e0850182612871565b50505050565b6000610100820190506129386000830184612880565b92915050565b60008151905061294d81612648565b92915050565b60006020828403121561296957612968612584565b5b60006129778482850161293e565b91505092915050565b7f4e487b7100000000000000000000000000000000000000000000000000000000600052601160045260246000fd5b60006129ba82612614565b91506129c583612614565b92508282019050808211156129dd576129dc612980565b5b92915050565b60006129ee82612614565b91506129f983612614565b9250828203905081811115612a1157612a10612980565b5b92915050565b6000604082019050612a2c60008301856126a1565b612a39602083018461261e565b9392505050565b6000604082019050612a55600083018561261e565b612a62602083018461261e565b9392505050565b600082825260208201905092915050565b7f496e697469616c697a61626c653a20636f6e747261637420697320616c72656160008201527f647920696e697469616c697a6564000000000000000000000000000000000000602082015250565b6000612ad6602e83612a69565b9150612ae182612a7a565b604082019050919050565b60006020820190508181036000830152612b0581612ac9565b9050919050565b6000819050919050565b600060ff82169050919050565b6000819050919050565b6000612b48612b43612b3e84612b0c565b612b23565b612b16565b9050919050565b612b5881612b2d565b82525050565b6000602082019050612b736000830184612b4f565b92915050565b6000612b8482612614565b9150612b8f83612614565b9250828202612b9d81612614565b91508282048414831517612bb457612bb3612980565b5b5092915050565b612bc4816126f5565b8114612bcf57600080fd5b50565b600081519050612be181612bbb565b92915050565b600060208284031215612bfd57612bfc612584565b5b6000612c0b84828501612bd2565b91505092915050565b6000604082019050612c2960008301856126a1565b612c3660208301846126a1565b9392505050565b600081519050612c4c816125bb565b92915050565b60008060008060808587031215612c6c57612c6b612584565b5b6000612c7a87828801612c3d565b9450506020612c8b87828801612c3d565b9350506040612c9c87828801612c3d565b9250506060612cad87828801612c3d565b91505092959194509250565b600060208284031215612ccf57612cce612584565b5b6000612cdd84828501612c3d565b91505092915050565b7f5361666545524332303a204552433230206f7065726174696f6e20646964206e60008201527f6f74207375636365656400000000000000000000000000000000000000000000602082015250565b6000612d42602a83612a69565b9150612d4d82612ce6565b604082019050919050565b60006020820190508181036000830152612d7181612d35565b9050919050565b7f5361666545524332303a20617070726f76652066726f6d206e6f6e2d7a65726f60008201527f20746f206e6f6e2d7a65726f20616c6c6f77616e636500000000000000000000602082015250565b6000612dd4603683612a69565b9150612ddf82612d78565b604082019050919050565b60006020820190508181036000830152612e0381612dc7565b9050919050565b6000606082019050612e1f60008301866126a1565b612e2c60208301856126a1565b612e39604083018461261e565b949350505050565b7f416464726573733a20696e73756666696369656e742062616c616e636520666f60008201527f722063616c6c0000000000000000000000000000000000000000000000000000602082015250565b6000612e9d602683612a69565b9150612ea882612e41565b604082019050919050565b60006020820190508181036000830152612ecc81612e90565b9050919050565b600081519050919050565b600081905092915050565b60005b83811015612f07578082015181840152602081019050612eec565b60008484015250505050565b6000612f1e82612ed3565b612f288185612ede565b9350612f38818560208601612ee9565b80840191505092915050565b6000612f508284612f13565b915081905092915050565b7f416464726573733a2063616c6c20746f206e6f6e2d636f6e7472616374000000600082015250565b6000612f91601d83612a69565b9150612f9c82612f5b565b602082019050919050565b60006020820190508181036000830152612fc081612f84565b9050919050565b600081519050919050565b6000601f19601f8301169050919050565b6000612fee82612fc7565b612ff88185612a69565b9350613008818560208601612ee9565b61301181612fd2565b840191505092915050565b600060208201905081810360008301526130368184612fe3565b90509291505056fea26469706673582212204dc7a3344614300134512caa01986b93a214be480c25c70ccb14e97f7e92368a64736f6c63430008110033",
  "linkReferences": {},
  "deployedLinkReferences": {}
}