{
  "_format": "hh-sol-artifact-1",
  "contractName": "BasePoolConfig",
  "sourceName": "contracts/BasePoolConfig.sol",
  "abi": [
    {
      "inputs": [],
      "name": "alreadyAnOperator",
      "type": "error"
    },
    {
      "inputs": [],
      "name": "creditLineTooHigh",
      "type": "error"
    },
    {
      "inputs": [],
      "name": "evaluationAgentNotEnoughLiquidity",
      "type": "error"
    },
    {
      "inputs": [],
      "name": "invalidBasisPointHigherThan10000",
      "type": "error"
    },
    {
      "inputs": [],
      "name": "notOperator",
      "type": "error"
    },
    {
      "inputs": [],
      "name": "notPool",
      "type": "error"
    },
    {
      "inputs": [],
      "name": "notPoolOwner",
      "type": "error"
    },
    {
      "inputs": [],
      "name": "notPoolOwnerOrEA",
      "type": "error"
    },
    {
      "inputs": [],
      "name": "notPoolOwnerTreasury",
      "type": "error"
    },
    {
      "inputs": [],
      "name": "notPoolOwnerTreasuryOrEA",
      "type": "error"
    },
    {
      "inputs": [],
      "name": "notProtocolOwner",
      "type": "error"
    },
    {
      "inputs": [],
      "name": "permissionDeniedNotAdmin",
      "type": "error"
    },
    {
      "inputs": [],
      "name": "poolOwnerNotEnoughLiquidity",
      "type": "error"
    },
    {
      "inputs": [],
      "name": "proposedEADoesNotOwnProvidedEANFT",
      "type": "error"
    },
    {
      "inputs": [],
      "name": "underlyingTokenNotApprovedForHumaProtocol",
      "type": "error"
    },
    {
      "inputs": [],
      "name": "withdrawnAmountHigherThanBalance",
      "type": "error"
    },
    {
      "inputs": [],
      "name": "zeroAddressProvided",
      "type": "error"
    },
    {
      "inputs": [],
      "name": "zeroAmountProvided",
      "type": "error"
    },
    {
      "anonymous": false,
      "inputs": [
        {
          "indexed": false,
          "internalType": "uint256",
          "name": "aprInBps",
          "type": "uint256"
        },
        {
          "indexed": false,
          "internalType": "address",
          "name": "by",
          "type": "address"
        }
      ],
      "name": "APRChanged",
      "type": "event"
    },
    {
      "anonymous": false,
      "inputs": [
        {
          "indexed": false,
          "internalType": "uint256",
          "name": "durationInSeconds",
          "type": "uint256"
        },
        {
          "indexed": false,
          "internalType": "address",
          "name": "by",
          "type": "address"
        }
      ],
      "name": "CreditApprovalExpirationChanged",
      "type": "event"
    },
    {
      "anonymous": false,
      "inputs": [
        {
          "indexed": false,
          "internalType": "uint256",
          "name": "rewardsRate",
          "type": "uint256"
        },
        {
          "indexed": false,
          "internalType": "uint256",
          "name": "liquidityRate",
          "type": "uint256"
        },
        {
          "indexed": true,
          "internalType": "address",
          "name": "by",
          "type": "address"
        }
      ],
      "name": "EARewardsAndLiquidityChanged",
      "type": "event"
    },
    {
      "anonymous": false,
      "inputs": [
        {
          "indexed": false,
          "internalType": "address",
          "name": "oldEA",
          "type": "address"
        },
        {
          "indexed": false,
          "internalType": "address",
          "name": "newEA",
          "type": "address"
        },
        {
          "indexed": false,
          "internalType": "uint256",
          "name": "newEAId",
          "type": "uint256"
        },
        {
          "indexed": false,
          "internalType": "address",
          "name": "by",
          "type": "address"
        }
      ],
      "name": "EvaluationAgentChanged",
      "type": "event"
    },
    {
      "anonymous": false,
      "inputs": [
        {
          "indexed": false,
          "internalType": "address",
          "name": "receiver",
          "type": "address"
        },
        {
          "indexed": false,
          "internalType": "uint256",
          "name": "amount",
          "type": "uint256"
        },
        {
          "indexed": false,
          "internalType": "address",
          "name": "by",
          "type": "address"
        }
      ],
      "name": "EvaluationAgentRewardsWithdrawn",
      "type": "event"
    },
    {
      "anonymous": false,
      "inputs": [
        {
          "indexed": false,
          "internalType": "address",
          "name": "feeManager",
          "type": "address"
        },
        {
          "indexed": false,
          "internalType": "address",
          "name": "by",
          "type": "address"
        }
      ],
      "name": "FeeManagerChanged",
      "type": "event"
    },
    {
      "anonymous": false,
      "inputs": [
        {
          "indexed": false,
          "internalType": "address",
          "name": "hdt",
          "type": "address"
        },
        {
          "indexed": false,
          "internalType": "address",
          "name": "udnerlyingToken",
          "type": "address"
        },
        {
          "indexed": false,
          "internalType": "address",
          "name": "by",
          "type": "address"
        }
      ],
      "name": "HDTChanged",
      "type": "event"
    },
    {
      "anonymous": false,
      "inputs": [
        {
          "indexed": false,
          "internalType": "address",
          "name": "humaConfig",
          "type": "address"
        },
        {
          "indexed": false,
          "internalType": "address",
          "name": "by",
          "type": "address"
        }
      ],
      "name": "HumaConfigChanged",
      "type": "event"
    },
    {
      "anonymous": false,
      "inputs": [
        {
          "indexed": false,
          "internalType": "uint256",
          "name": "protocolFee",
          "type": "uint256"
        },
        {
          "indexed": false,
          "internalType": "uint256",
          "name": "ownerIncome",
          "type": "uint256"
        },
        {
          "indexed": false,
          "internalType": "uint256",
          "name": "eaIncome",
          "type": "uint256"
        },
        {
          "indexed": false,
          "internalType": "uint256",
          "name": "poolIncome",
          "type": "uint256"
        }
      ],
      "name": "IncomeDistributed",
      "type": "event"
    },
    {
      "anonymous": false,
      "inputs": [
        {
          "indexed": false,
          "internalType": "uint256",
          "name": "protocolFee",
          "type": "uint256"
        },
        {
          "indexed": false,
          "internalType": "uint256",
          "name": "ownerIncome",
          "type": "uint256"
        },
        {
          "indexed": false,
          "internalType": "uint256",
          "name": "eaIncome",
          "type": "uint256"
        },
        {
          "indexed": false,
          "internalType": "uint256",
          "name": "poolIncome",
          "type": "uint256"
        }
      ],
      "name": "IncomeReversed",
      "type": "event"
    },
    {
      "anonymous": false,
      "inputs": [
        {
          "indexed": false,
          "internalType": "uint8",
          "name": "version",
          "type": "uint8"
        }
      ],
      "name": "Initialized",
      "type": "event"
    },
    {
      "anonymous": false,
      "inputs": [
        {
          "indexed": false,
          "internalType": "uint256",
          "name": "maxCreditLine",
          "type": "uint256"
        },
        {
          "indexed": false,
          "internalType": "address",
          "name": "by",
          "type": "address"
        }
      ],
      "name": "MaxCreditLineChanged",
      "type": "event"
    },
    {
      "anonymous": false,
      "inputs": [
        {
          "indexed": true,
          "internalType": "address",
          "name": "previousOwner",
          "type": "address"
        },
        {
          "indexed": true,
          "internalType": "address",
          "name": "newOwner",
          "type": "address"
        }
      ],
      "name": "OwnershipTransferred",
      "type": "event"
    },
    {
      "anonymous": false,
      "inputs": [
        {
          "indexed": false,
          "internalType": "address",
          "name": "pool",
          "type": "address"
        },
        {
          "indexed": false,
          "internalType": "address",
          "name": "by",
          "type": "address"
        }
      ],
      "name": "PoolChanged",
      "type": "event"
    },
    {
      "anonymous": false,
      "inputs": [
        {
          "indexed": false,
          "internalType": "uint256",
          "name": "gracePeriodInDays",
          "type": "uint256"
        },
        {
          "indexed": false,
          "internalType": "address",
          "name": "by",
          "type": "address"
        }
      ],
      "name": "PoolDefaultGracePeriodChanged",
      "type": "event"
    },
    {
      "anonymous": false,
      "inputs": [
        {
          "indexed": false,
          "internalType": "uint256",
          "name": "liquidityCap",
          "type": "uint256"
        },
        {
          "indexed": false,
          "internalType": "address",
          "name": "by",
          "type": "address"
        }
      ],
      "name": "PoolLiquidityCapChanged",
      "type": "event"
    },
    {
      "anonymous": false,
      "inputs": [
        {
          "indexed": false,
          "internalType": "string",
          "name": "name",
          "type": "string"
        },
        {
          "indexed": false,
          "internalType": "address",
          "name": "by",
          "type": "address"
        }
      ],
      "name": "PoolNameChanged",
      "type": "event"
    },
    {
      "anonymous": false,
      "inputs": [
        {
          "indexed": true,
          "internalType": "address",
          "name": "operator",
          "type": "address"
        },
        {
          "indexed": false,
          "internalType": "address",
          "name": "by",
          "type": "address"
        }
      ],
      "name": "PoolOperatorAdded",
      "type": "event"
    },
    {
      "anonymous": false,
      "inputs": [
        {
          "indexed": true,
          "internalType": "address",
          "name": "operator",
          "type": "address"
        },
        {
          "indexed": false,
          "internalType": "address",
          "name": "by",
          "type": "address"
        }
      ],
      "name": "PoolOperatorRemoved",
      "type": "event"
    },
    {
      "anonymous": false,
      "inputs": [
        {
          "indexed": false,
          "internalType": "uint256",
          "name": "rewardsRate",
          "type": "uint256"
        },
        {
          "indexed": false,
          "internalType": "uint256",
          "name": "liquidityRate",
          "type": "uint256"
        },
        {
          "indexed": true,
          "internalType": "address",
          "name": "by",
          "type": "address"
        }
      ],
      "name": "PoolOwnerRewardsAndLiquidityChanged",
      "type": "event"
    },
    {
      "anonymous": false,
      "inputs": [
        {
          "indexed": false,
          "internalType": "address",
          "name": "treasury",
          "type": "address"
        },
        {
          "indexed": true,
          "internalType": "address",
          "name": "by",
          "type": "address"
        }
      ],
      "name": "PoolOwnerTreasuryChanged",
      "type": "event"
    },
    {
      "anonymous": false,
      "inputs": [
        {
          "indexed": false,
          "internalType": "uint256",
          "name": "periodInDays",
          "type": "uint256"
        },
        {
          "indexed": false,
          "internalType": "address",
          "name": "by",
          "type": "address"
        }
      ],
      "name": "PoolPayPeriodChanged",
      "type": "event"
    },
    {
      "anonymous": false,
      "inputs": [
        {
          "indexed": false,
          "internalType": "address",
          "name": "receiver",
          "type": "address"
        },
        {
          "indexed": false,
          "internalType": "uint256",
          "name": "amount",
          "type": "uint256"
        }
      ],
      "name": "PoolRewardsWithdrawn",
      "type": "event"
    },
    {
      "anonymous": false,
      "inputs": [
        {
          "indexed": false,
          "internalType": "address",
          "name": "receiver",
          "type": "address"
        },
        {
          "indexed": false,
          "internalType": "uint256",
          "name": "amount",
          "type": "uint256"
        },
        {
          "indexed": false,
          "internalType": "address",
          "name": "by",
          "type": "address"
        }
      ],
      "name": "ProtocolRewardsWithdrawn",
      "type": "event"
    },
    {
      "anonymous": false,
      "inputs": [
        {
          "indexed": false,
          "internalType": "uint256",
          "name": "receivableInBps",
          "type": "uint256"
        },
        {
          "indexed": false,
          "internalType": "address",
          "name": "by",
          "type": "address"
        }
      ],
      "name": "ReceivableRequiredInBpsChanged",
      "type": "event"
    },
    {
      "anonymous": false,
      "inputs": [
        {
          "indexed": false,
          "internalType": "uint256",
          "name": "lockoutPeriodInDays",
          "type": "uint256"
        },
        {
          "indexed": false,
          "internalType": "address",
          "name": "by",
          "type": "address"
        }
      ],
      "name": "WithdrawalLockoutPeriodChanged",
      "type": "event"
    },
    {
      "inputs": [],
      "name": "accruedIncome",
      "outputs": [
        {
          "internalType": "uint256",
          "name": "protocolIncome",
          "type": "uint256"
        },
        {
          "internalType": "uint256",
          "name": "poolOwnerIncome",
          "type": "uint256"
        },
        {
          "internalType": "uint256",
          "name": "eaIncome",
          "type": "uint256"
        },
        {
          "internalType": "uint256",
          "name": "protocolIncomeWithdrawn",
          "type": "uint256"
        },
        {
          "internalType": "uint256",
          "name": "poolOwnerIncomeWithdrawn",
          "type": "uint256"
        },
        {
          "internalType": "uint256",
          "name": "eaIncomeWithdrawn",
          "type": "uint256"
        }
      ],
      "stateMutability": "view",
      "type": "function"
    },
    {
      "inputs": [
        {
          "internalType": "address",
          "name": "_operator",
          "type": "address"
        }
      ],
      "name": "addPoolOperator",
      "outputs": [],
      "stateMutability": "nonpayable",
      "type": "function"
    },
    {
      "inputs": [],
      "name": "checkLiquidityRequirement",
      "outputs": [],
      "stateMutability": "view",
      "type": "function"
    },
    {
      "inputs": [
        {
          "internalType": "uint256",
          "name": "balance",
          "type": "uint256"
        }
      ],
      "name": "checkLiquidityRequirementForEA",
      "outputs": [],
      "stateMutability": "view",
      "type": "function"
    },
    {
      "inputs": [
        {
          "internalType": "uint256",
          "name": "balance",
          "type": "uint256"
        }
      ],
      "name": "checkLiquidityRequirementForPoolOwner",
      "outputs": [],
      "stateMutability": "view",
      "type": "function"
    },
    {
      "inputs": [
        {
          "internalType": "address",
          "name": "lender",
          "type": "address"
        },
        {
          "internalType": "uint256",
          "name": "newBalance",
          "type": "uint256"
        }
      ],
      "name": "checkWithdrawLiquidityRequirement",
      "outputs": [],
      "stateMutability": "view",
      "type": "function"
    },
    {
      "inputs": [],
      "name": "creditApprovalExpirationInSeconds",
      "outputs": [
        {
          "internalType": "uint256",
          "name": "",
          "type": "uint256"
        }
      ],
      "stateMutability": "view",
      "type": "function"
    },
    {
      "inputs": [
        {
          "internalType": "uint256",
          "name": "value",
          "type": "uint256"
        }
      ],
      "name": "distributeIncome",
      "outputs": [
        {
          "internalType": "uint256",
          "name": "poolIncome",
          "type": "uint256"
        }
      ],
      "stateMutability": "nonpayable",
      "type": "function"
    },
    {
      "inputs": [],
      "name": "evaluationAgent",
      "outputs": [
        {
          "internalType": "address",
          "name": "",
          "type": "address"
        }
      ],
      "stateMutability": "view",
      "type": "function"
    },
    {
      "inputs": [],
      "name": "evaluationAgentId",
      "outputs": [
        {
          "internalType": "uint256",
          "name": "",
          "type": "uint256"
        }
      ],
      "stateMutability": "view",
      "type": "function"
    },
    {
      "inputs": [],
      "name": "feeManager",
      "outputs": [
        {
          "internalType": "address",
          "name": "",
          "type": "address"
        }
      ],
      "stateMutability": "view",
      "type": "function"
    },
    {
      "inputs": [],
      "name": "getCoreData",
      "outputs": [
        {
          "internalType": "address",
          "name": "underlyingToken_",
          "type": "address"
        },
        {
          "internalType": "address",
          "name": "poolToken_",
          "type": "address"
        },
        {
          "internalType": "address",
          "name": "humaConfig_",
          "type": "address"
        },
        {
          "internalType": "address",
          "name": "feeManager_",
          "type": "address"
        }
      ],
      "stateMutability": "view",
      "type": "function"
    },
    {
      "inputs": [],
      "name": "getPoolSummary",
      "outputs": [
        {
          "internalType": "address",
          "name": "token",
          "type": "address"
        },
        {
          "internalType": "uint256",
          "name": "apr",
          "type": "uint256"
        },
        {
          "internalType": "uint256",
          "name": "payPeriod",
          "type": "uint256"
        },
        {
          "internalType": "uint256",
          "name": "maxCreditAmount",
          "type": "uint256"
        },
        {
          "internalType": "uint256",
          "name": "liquiditycap",
          "type": "uint256"
        },
        {
          "internalType": "string",
          "name": "name",
          "type": "string"
        },
        {
          "internalType": "string",
          "name": "symbol",
          "type": "string"
        },
        {
          "internalType": "uint8",
          "name": "decimals",
          "type": "uint8"
        },
        {
          "internalType": "uint256",
          "name": "eaId",
          "type": "uint256"
        },
        {
          "internalType": "address",
          "name": "eaNFTAddress",
          "type": "address"
        }
      ],
      "stateMutability": "view",
      "type": "function"
    },
    {
      "inputs": [],
      "name": "humaConfig",
      "outputs": [
        {
          "internalType": "contract HumaConfig",
          "name": "",
          "type": "address"
        }
      ],
      "stateMutability": "view",
      "type": "function"
    },
    {
      "inputs": [
        {
          "internalType": "string",
          "name": "_poolName",
          "type": "string"
        },
        {
          "internalType": "address",
          "name": "_poolToken",
          "type": "address"
        },
        {
          "internalType": "address",
          "name": "_humaConfig",
          "type": "address"
        },
        {
          "internalType": "address",
          "name": "_feeManager",
          "type": "address"
        }
      ],
      "name": "initialize",
      "outputs": [],
      "stateMutability": "nonpayable",
      "type": "function"
    },
    {
      "inputs": [
        {
          "internalType": "address",
          "name": "account",
          "type": "address"
        }
      ],
      "name": "isOperator",
      "outputs": [
        {
          "internalType": "bool",
          "name": "",
          "type": "bool"
        }
      ],
      "stateMutability": "view",
      "type": "function"
    },
    {
      "inputs": [
        {
          "internalType": "address",
          "name": "account",
          "type": "address"
        }
      ],
      "name": "isPoolOwnerTreasuryOrEA",
      "outputs": [
        {
          "internalType": "bool",
          "name": "",
          "type": "bool"
        }
      ],
      "stateMutability": "view",
      "type": "function"
    },
    {
      "inputs": [],
      "name": "maxCreditLine",
      "outputs": [
        {
          "internalType": "uint256",
          "name": "",
          "type": "uint256"
        }
      ],
      "stateMutability": "view",
      "type": "function"
    },
    {
      "inputs": [
        {
          "internalType": "address",
          "name": "account",
          "type": "address"
        }
      ],
      "name": "onlyOwnerOrHumaMasterAdmin",
      "outputs": [],
      "stateMutability": "view",
      "type": "function"
    },
    {
      "inputs": [
        {
          "internalType": "address",
          "name": "account",
          "type": "address"
        }
      ],
      "name": "onlyPoolOwner",
      "outputs": [],
      "stateMutability": "view",
      "type": "function"
    },
    {
      "inputs": [
        {
          "internalType": "address",
          "name": "account",
          "type": "address"
        }
      ],
      "name": "onlyPoolOwnerOrEA",
      "outputs": [],
      "stateMutability": "view",
      "type": "function"
    },
    {
      "inputs": [
        {
          "internalType": "address",
          "name": "account",
          "type": "address"
        }
      ],
      "name": "onlyPoolOwnerTreasury",
      "outputs": [],
      "stateMutability": "view",
      "type": "function"
    },
    {
      "inputs": [
        {
          "internalType": "address",
          "name": "account",
          "type": "address"
        }
      ],
      "name": "onlyPoolOwnerTreasuryOrEA",
      "outputs": [],
      "stateMutability": "view",
      "type": "function"
    },
    {
      "inputs": [],
      "name": "owner",
      "outputs": [
        {
          "internalType": "address",
          "name": "",
          "type": "address"
        }
      ],
      "stateMutability": "view",
      "type": "function"
    },
    {
      "inputs": [],
      "name": "payPeriodInDays",
      "outputs": [
        {
          "internalType": "uint256",
          "name": "",
          "type": "uint256"
        }
      ],
      "stateMutability": "view",
      "type": "function"
    },
    {
      "inputs": [],
      "name": "pool",
      "outputs": [
        {
          "internalType": "address",
          "name": "",
          "type": "address"
        }
      ],
      "stateMutability": "view",
      "type": "function"
    },
    {
      "inputs": [],
      "name": "poolAprInBps",
      "outputs": [
        {
          "internalType": "uint256",
          "name": "",
          "type": "uint256"
        }
      ],
      "stateMutability": "view",
      "type": "function"
    },
    {
      "inputs": [],
      "name": "poolDefaultGracePeriodInSeconds",
      "outputs": [
        {
          "internalType": "uint256",
          "name": "",
          "type": "uint256"
        }
      ],
      "stateMutability": "view",
      "type": "function"
    },
    {
      "inputs": [],
      "name": "poolLiquidityCap",
      "outputs": [
        {
          "internalType": "uint256",
          "name": "",
          "type": "uint256"
        }
      ],
      "stateMutability": "view",
      "type": "function"
    },
    {
      "inputs": [],
      "name": "poolName",
      "outputs": [
        {
          "internalType": "string",
          "name": "",
          "type": "string"
        }
      ],
      "stateMutability": "view",
      "type": "function"
    },
    {
      "inputs": [],
      "name": "poolOwnerTreasury",
      "outputs": [
        {
          "internalType": "address",
          "name": "",
          "type": "address"
        }
      ],
      "stateMutability": "view",
      "type": "function"
    },
    {
      "inputs": [],
      "name": "poolToken",
      "outputs": [
        {
          "internalType": "contract HDT",
          "name": "",
          "type": "address"
        }
      ],
      "stateMutability": "view",
      "type": "function"
    },
    {
      "inputs": [],
      "name": "receivableRequiredInBps",
      "outputs": [
        {
          "internalType": "uint256",
          "name": "",
          "type": "uint256"
        }
      ],
      "stateMutability": "view",
      "type": "function"
    },
    {
      "inputs": [
        {
          "internalType": "address",
          "name": "_operator",
          "type": "address"
        }
      ],
      "name": "removePoolOperator",
      "outputs": [],
      "stateMutability": "nonpayable",
      "type": "function"
    },
    {
      "inputs": [],
      "name": "renounceOwnership",
      "outputs": [],
      "stateMutability": "nonpayable",
      "type": "function"
    },
    {
      "inputs": [
        {
          "internalType": "uint256",
          "name": "value",
          "type": "uint256"
        }
      ],
      "name": "reverseIncome",
      "outputs": [
        {
          "internalType": "uint256",
          "name": "poolIncome",
          "type": "uint256"
        }
      ],
      "stateMutability": "nonpayable",
      "type": "function"
    },
    {
      "inputs": [],
      "name": "rewardsAndLiquidityRateForEA",
      "outputs": [
        {
          "internalType": "uint256",
          "name": "rewardRateInBpsForEA",
          "type": "uint256"
        },
        {
          "internalType": "uint256",
          "name": "liquidityRateInBpsByEA",
          "type": "uint256"
        }
      ],
      "stateMutability": "view",
      "type": "function"
    },
    {
      "inputs": [],
      "name": "rewardsAndLiquidityRateForPoolOwner",
      "outputs": [
        {
          "internalType": "uint256",
          "name": "rewardRateInBpsForPoolOwner",
          "type": "uint256"
        },
        {
          "internalType": "uint256",
          "name": "liquidityRateInBpsByPoolOwner",
          "type": "uint256"
        }
      ],
      "stateMutability": "view",
      "type": "function"
    },
    {
      "inputs": [
        {
          "internalType": "uint256",
          "name": "aprInBps",
          "type": "uint256"
        }
      ],
      "name": "setAPR",
      "outputs": [],
      "stateMutability": "nonpayable",
      "type": "function"
    },
    {
      "inputs": [
        {
          "internalType": "uint256",
          "name": "durationInDays",
          "type": "uint256"
        }
      ],
      "name": "setCreditApprovalExpiration",
      "outputs": [],
      "stateMutability": "nonpayable",
      "type": "function"
    },
    {
      "inputs": [
        {
          "internalType": "uint256",
          "name": "rewardsRate",
          "type": "uint256"
        },
        {
          "internalType": "uint256",
          "name": "liquidityRate",
          "type": "uint256"
        }
      ],
      "name": "setEARewardsAndLiquidity",
      "outputs": [],
      "stateMutability": "nonpayable",
      "type": "function"
    },
    {
      "inputs": [
        {
          "internalType": "uint256",
          "name": "eaId",
          "type": "uint256"
        },
        {
          "internalType": "address",
          "name": "agent",
          "type": "address"
        }
      ],
      "name": "setEvaluationAgent",
      "outputs": [],
      "stateMutability": "nonpayable",
      "type": "function"
    },
    {
      "inputs": [
        {
          "internalType": "address",
          "name": "_feeManager",
          "type": "address"
        }
      ],
      "name": "setFeeManager",
      "outputs": [],
      "stateMutability": "nonpayable",
      "type": "function"
    },
    {
      "inputs": [
        {
          "internalType": "address",
          "name": "_humaConfig",
          "type": "address"
        }
      ],
      "name": "setHumaConfig",
      "outputs": [],
      "stateMutability": "nonpayable",
      "type": "function"
    },
    {
      "inputs": [
        {
          "internalType": "uint256",
          "name": "creditLine",
          "type": "uint256"
        }
      ],
      "name": "setMaxCreditLine",
      "outputs": [],
      "stateMutability": "nonpayable",
      "type": "function"
    },
    {
      "inputs": [
        {
          "internalType": "address",
          "name": "_pool",
          "type": "address"
        }
      ],
      "name": "setPool",
      "outputs": [],
      "stateMutability": "nonpayable",
      "type": "function"
    },
    {
      "inputs": [
        {
          "internalType": "uint256",
          "name": "gracePeriodInDays",
          "type": "uint256"
        }
      ],
      "name": "setPoolDefaultGracePeriod",
      "outputs": [],
      "stateMutability": "nonpayable",
      "type": "function"
    },
    {
      "inputs": [
        {
          "internalType": "uint256",
          "name": "liquidityCap",
          "type": "uint256"
        }
      ],
      "name": "setPoolLiquidityCap",
      "outputs": [],
      "stateMutability": "nonpayable",
      "type": "function"
    },
    {
      "inputs": [
        {
          "internalType": "string",
          "name": "newName",
          "type": "string"
        }
      ],
      "name": "setPoolName",
      "outputs": [],
      "stateMutability": "nonpayable",
      "type": "function"
    },
    {
      "inputs": [
        {
          "internalType": "uint256",
          "name": "rewardsRate",
          "type": "uint256"
        },
        {
          "internalType": "uint256",
          "name": "liquidityRate",
          "type": "uint256"
        }
      ],
      "name": "setPoolOwnerRewardsAndLiquidity",
      "outputs": [],
      "stateMutability": "nonpayable",
      "type": "function"
    },
    {
      "inputs": [
        {
          "internalType": "address",
          "name": "_poolOwnerTreasury",
          "type": "address"
        }
      ],
      "name": "setPoolOwnerTreasury",
      "outputs": [],
      "stateMutability": "nonpayable",
      "type": "function"
    },
    {
      "inputs": [
        {
          "internalType": "uint256",
          "name": "periodInDays",
          "type": "uint256"
        }
      ],
      "name": "setPoolPayPeriod",
      "outputs": [],
      "stateMutability": "nonpayable",
      "type": "function"
    },
    {
      "inputs": [
        {
          "internalType": "address",
          "name": "_poolToken",
          "type": "address"
        }
      ],
      "name": "setPoolToken",
      "outputs": [],
      "stateMutability": "nonpayable",
      "type": "function"
    },
    {
      "inputs": [
        {
          "internalType": "uint256",
          "name": "receivableInBps",
          "type": "uint256"
        }
      ],
      "name": "setReceivableRequiredInBps",
      "outputs": [],
      "stateMutability": "nonpayable",
      "type": "function"
    },
    {
      "inputs": [
        {
          "internalType": "uint256",
          "name": "lockoutPeriodInDays",
          "type": "uint256"
        }
      ],
      "name": "setWithdrawalLockoutPeriod",
      "outputs": [],
      "stateMutability": "nonpayable",
      "type": "function"
    },
    {
      "inputs": [
        {
          "internalType": "address",
          "name": "newOwner",
          "type": "address"
        }
      ],
      "name": "transferOwnership",
      "outputs": [],
      "stateMutability": "nonpayable",
      "type": "function"
    },
    {
      "inputs": [],
      "name": "underlyingToken",
      "outputs": [
        {
          "internalType": "contract IERC20",
          "name": "",
          "type": "address"
        }
      ],
      "stateMutability": "view",
      "type": "function"
    },
    {
      "inputs": [
        {
          "internalType": "uint256",
          "name": "amount",
          "type": "uint256"
        }
      ],
      "name": "withdrawEAFee",
      "outputs": [],
      "stateMutability": "nonpayable",
      "type": "function"
    },
    {
      "inputs": [
        {
          "internalType": "uint256",
          "name": "amount",
          "type": "uint256"
        }
      ],
      "name": "withdrawPoolOwnerFee",
      "outputs": [],
      "stateMutability": "nonpayable",
      "type": "function"
    },
    {
      "inputs": [
        {
          "internalType": "uint256",
          "name": "amount",
          "type": "uint256"
        }
      ],
      "name": "withdrawProtocolFee",
      "outputs": [],
      "stateMutability": "nonpayable",
      "type": "function"
    },
    {
      "inputs": [],
      "name": "withdrawalLockoutPeriodInSeconds",
      "outputs": [
        {
          "internalType": "uint256",
          "name": "",
          "type": "uint256"
        }
      ],
      "stateMutability": "view",
      "type": "function"
    }
  ],
  "bytecode": "0x60806040523480156200001157600080fd5b5062000032620000266200003860201b60201c565b6200004060201b60201c565b62000104565b600033905090565b60008060009054906101000a900473ffffffffffffffffffffffffffffffffffffffff169050816000806101000a81548173ffffffffffffffffffffffffffffffffffffffff021916908373ffffffffffffffffffffffffffffffffffffffff1602179055508173ffffffffffffffffffffffffffffffffffffffff168173ffffffffffffffffffffffffffffffffffffffff167f8be0079c531659141344cd1fd0a4f28419497f9722a3daafe3b4186f6b6457e060405160405180910390a35050565b615d8080620001146000396000f3fe608060405234801561001057600080fd5b50600436106103af5760003560e01c806388a5a02d116101f4578063d8217e481161011a578063efc40a7d116100ad578063f8528a0b1161007c578063f8528a0b14610a4d578063fab9ac1d14610a6c578063fd8098ad14610a93578063fe2a4ec914610aaf576103af565b8063efc40a7d146109c7578063f2fde38b146109f7578063f3466dfa14610a13578063f34822b414610a31576103af565b8063e101a970116100e9578063e101a97014610943578063e3471f1a1461095f578063e3a52a621461097b578063ef06fb7314610997576103af565b8063d8217e48146108d0578063dbcee1f3146108ec578063ddf05a9314610908578063deb791d414610927576103af565b8063af15347611610192578063cbdf382c11610161578063cbdf382c1461085a578063cbe21ca914610878578063d0fb020314610894578063d786c86a146108b2576103af565b8063af153476146107e1578063b34a707914610804578063b4583a9214610820578063c8fb307a1461083e576103af565b806399bf392c116101ce57806399bf392c14610769578063a552389814610787578063a66a86f0146107a5578063aab289ad146107c3576103af565b806388a5a02d146107135780638da5cb5b1461072f578063960e61751461074d576103af565b80634d9d5594116102d95780636d70f7ae116102775780637d27d590116102465780637d27d590146106a15780638118971d146106bd57806382a918c6146106db578063854303cf146106f7576103af565b80636d70f7ae1461062f5780636f52071c1461065f578063715018a61461067b57806372b6542414610685576103af565b80635ca3c8db116102b35780635ca3c8db146105bf5780635d6729a1146105db57806360b0ffe1146105f75780636b256da414610613576103af565b80634d9d5594146105665780635063d2781461058757806356276bec146105a3576103af565b8063228ec96a1161035157806333ce01fd1161032057806333ce01fd146104f6578063424cd833146105125780634437152a1461052e578063472d35b91461054a576103af565b8063228ec96a146104825780632495a599146104b25780633087fbc6146104d05780633114acde146104da576103af565b806310ee73f11161038d57806310ee73f11461040c5780631513271a1461042a57806316f0115b1461044657806318d170c414610464576103af565b806304156c20146103b4578063070124c4146103d25780630b437b66146103ee575b600080fd5b6103bc610acd565b6040516103c991906148b8565b60405180910390f35b6103ec60048036038101906103e7919061491d565b610af3565b005b6103f6610b52565b6040516104039190614959565b60405180910390f35b610414610b5f565b6040516104219190614959565b60405180910390f35b610444600480360381019061043f9190614974565b610b6c565b005b61044e610c24565b60405161045b91906148b8565b60405180910390f35b61046c610c4a565b6040516104799190614959565b60405180910390f35b61049c6004803603810190610497919061491d565b610c57565b6040516104a99190614959565b60405180910390f35b6104ba6110b4565b6040516104c79190614a13565b60405180910390f35b6104d86110da565b005b6104f460048036038101906104ef9190614a5a565b611268565b005b610510600480360381019061050b9190614a5a565b611403565b005b61052c6004803603810190610527919061491d565b611657565b005b61054860048036038101906105439190614a5a565b6119df565b005b610564600480360381019061055f9190614a5a565b611aca565b005b61056e611bb5565b60405161057e9493929190614a87565b60405180910390f35b6105a1600480360381019061059c919061491d565b611c55565b005b6105bd60048036038101906105b8919061491d565b611d73565b005b6105d960048036038101906105d4919061491d565b611dcf565b005b6105f560048036038101906105f09190614a5a565b611fd0565b005b610611600480360381019061060c9190614a5a565b61209b565b005b61062d60048036038101906106289190614a5a565b612235565b005b61064960048036038101906106449190614a5a565b612320565b6040516106569190614ae7565b60405180910390f35b61067960048036038101906106749190614a5a565b612376565b005b6106836124af565b005b61069f600480360381019061069a9190614c48565b6124c3565b005b6106bb60048036038101906106b6919061491d565b612517565b005b6106c5612576565b6040516106d29190614cb2565b60405180910390f35b6106f560048036038101906106f0919061491d565b61259c565b005b610711600480360381019061070c919061491d565b6125f8565b005b61072d6004803603810190610728919061491d565b612682565b005b6107376126cf565b60405161074491906148b8565b60405180910390f35b6107676004803603810190610762919061491d565b6126f8565b005b610771612780565b60405161077e9190614959565b60405180910390f35b61078f61278d565b60405161079c9190614959565b60405180910390f35b6107ad612799565b6040516107ba9190614959565b60405180910390f35b6107cb6127a6565b6040516107d891906148b8565b60405180910390f35b6107e96127cc565b6040516107fb96959493929190614ccd565b60405180910390f35b61081e60048036038101906108199190614d2e565b612933565b005b610828612daa565b6040516108359190614959565b60405180910390f35b61085860048036038101906108539190614a5a565b612db7565b005b610862612df9565b60405161086f9190614d8f565b60405180910390f35b610892600480360381019061088d919061491d565b612e1f565b005b61089c612e89565b6040516108a991906148b8565b60405180910390f35b6108ba612eaf565b6040516108c79190614959565b60405180910390f35b6108ea60048036038101906108e59190614a5a565b612eb5565b005b6109066004803603810190610901919061491d565b612f24565b005b610910613019565b60405161091e929190614daa565b60405180910390f35b610941600480360381019061093c9190614dd3565b613030565b005b61095d60048036038101906109589190614a5a565b6130f7565b005b61097960048036038101906109749190614a5a565b613181565b005b6109956004803603810190610990919061491d565b613281565b005b6109b160048036038101906109ac919061491d565b613309565b6040516109be9190614959565b60405180910390f35b6109e160048036038101906109dc9190614a5a565b613766565b6040516109ee9190614ae7565b60405180910390f35b610a116004803603810190610a0c9190614a5a565b613818565b005b610a1b61389b565b604051610a289190614e92565b60405180910390f35b610a4b6004803603810190610a469190614eb4565b613929565b005b610a55613f19565b604051610a63929190614daa565b60405180910390f35b610a74613f30565b604051610a8a9a99989796959493929190614f53565b60405180910390f35b610aad6004803603810190610aa89190614974565b6141d4565b005b610ab761428c565b604051610ac49190614959565b60405180910390f35b601a60009054906101000a900473ffffffffffffffffffffffffffffffffffffffff1681565b612710600960050154600960000154610b0c919061502c565b610b16919061509d565b811015610b4f576040517fe95282e200000000000000000000000000000000000000000000000000000000815260040160405180910390fd5b50565b6000600960070154905090565b6000600960010154905090565b610b746142bd565b612710821180610b85575061271081115b15610bbc576040517f07982d8500000000000000000000000000000000000000000000000000000000815260040160405180910390fd5b81600960020181905550806009600401819055503373ffffffffffffffffffffffffffffffffffffffff167fbd6078771a3bbbb31f017964bb57abbd3d3959ee200706ee86b1628fa5fc4eff8383604051610c18929190614daa565b60405180910390a25050565b600260009054906101000a900473ffffffffffffffffffffffffffffffffffffffff1681565b60006009600b0154905090565b6000600260009054906101000a900473ffffffffffffffffffffffffffffffffffffffff1673ffffffffffffffffffffffffffffffffffffffff163373ffffffffffffffffffffffffffffffffffffffff1614610ce0576040517f26d29bbf00000000000000000000000000000000000000000000000000000000815260040160405180910390fd5b600060156040518060600160405290816000820160009054906101000a90046fffffffffffffffffffffffffffffffff166fffffffffffffffffffffffffffffffff166fffffffffffffffffffffffffffffffff1681526020016000820160109054906101000a90046fffffffffffffffffffffffffffffffff166fffffffffffffffffffffffffffffffff166fffffffffffffffffffffffffffffffff1681526020016001820160009054906101000a90046fffffffffffffffffffffffffffffffff166fffffffffffffffffffffffffffffffff166fffffffffffffffffffffffffffffffff16815250509050600061271084600360009054906101000a900473ffffffffffffffffffffffffffffffffffffffff1673ffffffffffffffffffffffffffffffffffffffff1663b0e21e8a6040518163ffffffff1660e01b8152600401602060405180830381865afa158015610e42573d6000803e3d6000fd5b505050506040513d601f19601f82011682018060405250810190610e669190615108565b61ffff16610e74919061502c565b610e7e919061509d565b90508082600001818151610e929190615151565b9150906fffffffffffffffffffffffffffffffff1690816fffffffffffffffffffffffffffffffff168152505060008185610ecd9190615195565b9050600061271060096003015483610ee5919061502c565b610eef919061509d565b90508084602001818151610f039190615151565b9150906fffffffffffffffffffffffffffffffff1690816fffffffffffffffffffffffffffffffff1681525050600061271060096002015484610f46919061502c565b610f50919061509d565b90508085604001818151610f649190615151565b9150906fffffffffffffffffffffffffffffffff1690816fffffffffffffffffffffffffffffffff168152505084601560008201518160000160006101000a8154816fffffffffffffffffffffffffffffffff02191690836fffffffffffffffffffffffffffffffff16021790555060208201518160000160106101000a8154816fffffffffffffffffffffffffffffffff02191690836fffffffffffffffffffffffffffffffff16021790555060408201518160010160006101000a8154816fffffffffffffffffffffffffffffffff02191690836fffffffffffffffffffffffffffffffff1602179055509050508082846110619190615195565b61106b9190615195565b95507fec5f4c6bd9cbec4fbf7cd984077badcbe598db7cacfda474613b613d062fdeeb848383896040516110a294939291906151c9565b60405180910390a15050505050919050565b600660009054906101000a900473ffffffffffffffffffffffffffffffffffffffff1681565b6111a0600560009054906101000a900473ffffffffffffffffffffffffffffffffffffffff1673ffffffffffffffffffffffffffffffffffffffff1663443bb293601a60009054906101000a900473ffffffffffffffffffffffffffffffffffffffff166040518263ffffffff1660e01b815260040161115a91906148b8565b602060405180830381865afa158015611177573d6000803e3d6000fd5b505050506040513d601f19601f8201168201806040525081019061119b9190615223565b610af3565b611266600560009054906101000a900473ffffffffffffffffffffffffffffffffffffffff1673ffffffffffffffffffffffffffffffffffffffff1663443bb293600760009054906101000a900473ffffffffffffffffffffffffffffffffffffffff166040518263ffffffff1660e01b815260040161122091906148b8565b602060405180830381865afa15801561123d573d6000803e3d6000fd5b505050506040513d601f19601f820116820180604052508101906112619190615223565b612517565b565b6112706142c8565b600073ffffffffffffffffffffffffffffffffffffffff168173ffffffffffffffffffffffffffffffffffffffff16036112d6576040517f5ff75ab000000000000000000000000000000000000000000000000000000000815260040160405180910390fd5b601960008273ffffffffffffffffffffffffffffffffffffffff1673ffffffffffffffffffffffffffffffffffffffff16815260200190815260200160002060009054906101000a900460ff161561135a576040517f75cea0fc00000000000000000000000000000000000000000000000000000000815260040160405180910390fd5b6001601960008373ffffffffffffffffffffffffffffffffffffffff1673ffffffffffffffffffffffffffffffffffffffff16815260200190815260200160002060006101000a81548160ff0219169083151502179055508073ffffffffffffffffffffffffffffffffffffffff167f98557f0daa5e19f0e6b6fde9702909d0572e1d417b932351bde998fcf3e8fbbe336040516113f891906148b8565b60405180910390a250565b61140b6142bd565b600073ffffffffffffffffffffffffffffffffffffffff168173ffffffffffffffffffffffffffffffffffffffff1603611471576040517f5ff75ab000000000000000000000000000000000000000000000000000000000815260040160405180910390fd5b80600560006101000a81548173ffffffffffffffffffffffffffffffffffffffff021916908373ffffffffffffffffffffffffffffffffffffffff1602179055506000600560009054906101000a900473ffffffffffffffffffffffffffffffffffffffff1673ffffffffffffffffffffffffffffffffffffffff16631083f7616040518163ffffffff1660e01b8152600401602060405180830381865afa158015611521573d6000803e3d6000fd5b505050506040513d601f19601f820116820180604052508101906115459190615265565b9050600560009054906101000a900473ffffffffffffffffffffffffffffffffffffffff1673ffffffffffffffffffffffffffffffffffffffff16631083f7616040518163ffffffff1660e01b8152600401602060405180830381865afa1580156115b4573d6000803e3d6000fd5b505050506040513d601f19601f820116820180604052508101906115d89190615265565b600660006101000a81548173ffffffffffffffffffffffffffffffffffffffff021916908373ffffffffffffffffffffffffffffffffffffffff1602179055507f2a03d171d760dce120e68e7d0890942e951c44faa5a0e3053c3b3f51eeb0a27482823360405161164b93929190615292565b60405180910390a15050565b600360009054906101000a900473ffffffffffffffffffffffffffffffffffffffff1673ffffffffffffffffffffffffffffffffffffffff16638da5cb5b6040518163ffffffff1660e01b8152600401602060405180830381865afa1580156116c4573d6000803e3d6000fd5b505050506040513d601f19601f820116820180604052508101906116e89190615265565b73ffffffffffffffffffffffffffffffffffffffff163373ffffffffffffffffffffffffffffffffffffffff161461174c576040517f97924c2000000000000000000000000000000000000000000000000000000000815260040160405180910390fd5b601560000160009054906101000a90046fffffffffffffffffffffffffffffffff166fffffffffffffffffffffffffffffffff16601760000160109054906101000a90046fffffffffffffffffffffffffffffffff166fffffffffffffffffffffffffffffffff16826117bf91906152c9565b11156117f7576040517f477c0ab200000000000000000000000000000000000000000000000000000000815260040160405180910390fd5b80601760000160108282829054906101000a90046fffffffffffffffffffffffffffffffff1661182791906152fd565b92506101000a8154816fffffffffffffffffffffffffffffffff02191690836fffffffffffffffffffffffffffffffff1602179055506000600360009054906101000a900473ffffffffffffffffffffffffffffffffffffffff1673ffffffffffffffffffffffffffffffffffffffff166348200e3e6040518163ffffffff1660e01b8152600401602060405180830381865afa1580156118cc573d6000803e3d6000fd5b505050506040513d601f19601f820116820180604052508101906118f09190615265565b9050600073ffffffffffffffffffffffffffffffffffffffff168173ffffffffffffffffffffffffffffffffffffffff160361192f5761192e615341565b5b6119a0600260009054906101000a900473ffffffffffffffffffffffffffffffffffffffff168284600660009054906101000a900473ffffffffffffffffffffffffffffffffffffffff1673ffffffffffffffffffffffffffffffffffffffff16614346909392919063ffffffff16565b7f73e46f4dd89080cae1e13b1ce3d9208df816c746e4de58216ddf8b4675a7d97f8183336040516119d393929190615370565b60405180910390a15050565b6119e76142bd565b600073ffffffffffffffffffffffffffffffffffffffff168173ffffffffffffffffffffffffffffffffffffffff1603611a4d576040517f5ff75ab000000000000000000000000000000000000000000000000000000000815260040160405180910390fd5b80600260006101000a81548173ffffffffffffffffffffffffffffffffffffffff021916908373ffffffffffffffffffffffffffffffffffffffff1602179055507f89f24f59f1f74b74999221ad0a9ab9b4d1d2b27bddbf6f91b0c773ca0f9406438133604051611abf9291906153a7565b60405180910390a150565b611ad26142bd565b600073ffffffffffffffffffffffffffffffffffffffff168173ffffffffffffffffffffffffffffffffffffffff1603611b38576040517f5ff75ab000000000000000000000000000000000000000000000000000000000815260040160405180910390fd5b80600460006101000a81548173ffffffffffffffffffffffffffffffffffffffff021916908373ffffffffffffffffffffffffffffffffffffffff1602179055507facbd074db1a997c1632eb3d55a4c9813e0883267f14740568d0535dc23077ce48133604051611baa9291906153a7565b60405180910390a150565b600080600080600660009054906101000a900473ffffffffffffffffffffffffffffffffffffffff169350600560009054906101000a900473ffffffffffffffffffffffffffffffffffffffff169250600360009054906101000a900473ffffffffffffffffffffffffffffffffffffffff169150600460009054906101000a900473ffffffffffffffffffffffffffffffffffffffff16905090919293565b611c5e33611fd0565b60008103611c98576040517f71799f2a00000000000000000000000000000000000000000000000000000000815260040160405180910390fd5b601560010160009054906101000a90046fffffffffffffffffffffffffffffffff166fffffffffffffffffffffffffffffffff16601760000160009054906101000a90046fffffffffffffffffffffffffffffffff166fffffffffffffffffffffffffffffffff1682611d0b91906152c9565b1115611d43576040517f477c0ab200000000000000000000000000000000000000000000000000000000815260040160405180910390fd5b611d7033600760009054906101000a900473ffffffffffffffffffffffffffffffffffffffff16836143cf565b50565b611d7b6142bd565b6201518081611d8a919061502c565b6009600101819055507ff065e3c08a67783e7f71b544b028d62210bf832ec6dad17f0aa0cb08eb9679278133604051611dc49291906153d0565b60405180910390a150565b611dd8336130f7565b60008103611e12576040517f71799f2a00000000000000000000000000000000000000000000000000000000815260040160405180910390fd5b601560000160109054906101000a90046fffffffffffffffffffffffffffffffff166fffffffffffffffffffffffffffffffff16601760010160009054906101000a90046fffffffffffffffffffffffffffffffff166fffffffffffffffffffffffffffffffff1682611e8591906152c9565b1115611ebd576040517f477c0ab200000000000000000000000000000000000000000000000000000000815260040160405180910390fd5b80601760010160008282829054906101000a90046fffffffffffffffffffffffffffffffff16611eed91906152fd565b92506101000a8154816fffffffffffffffffffffffffffffffff02191690836fffffffffffffffffffffffffffffffff160217905550611f94600260009054906101000a900473ffffffffffffffffffffffffffffffffffffffff163383600660009054906101000a900473ffffffffffffffffffffffffffffffffffffffff1673ffffffffffffffffffffffffffffffffffffffff16614346909392919063ffffffff16565b7f0a249e1f90906713f65ff3bcf7d9f5981b047f465508ca6878997719535725123382604051611fc59291906153f9565b60405180910390a150565b611fd86126cf565b73ffffffffffffffffffffffffffffffffffffffff168173ffffffffffffffffffffffffffffffffffffffff16141580156120615750600760009054906101000a900473ffffffffffffffffffffffffffffffffffffffff1673ffffffffffffffffffffffffffffffffffffffff168173ffffffffffffffffffffffffffffffffffffffff1614155b15612098576040517fd6ed938400000000000000000000000000000000000000000000000000000000815260040160405180910390fd5b50565b6120a36142c8565b600073ffffffffffffffffffffffffffffffffffffffff168173ffffffffffffffffffffffffffffffffffffffff1603612109576040517f5ff75ab000000000000000000000000000000000000000000000000000000000815260040160405180910390fd5b601960008273ffffffffffffffffffffffffffffffffffffffff1673ffffffffffffffffffffffffffffffffffffffff16815260200190815260200160002060009054906101000a900460ff1661218c576040517ff67113fe00000000000000000000000000000000000000000000000000000000815260040160405180910390fd5b6000601960008373ffffffffffffffffffffffffffffffffffffffff1673ffffffffffffffffffffffffffffffffffffffff16815260200190815260200160002060006101000a81548160ff0219169083151502179055508073ffffffffffffffffffffffffffffffffffffffff167fea2d6ce01b17fbde2c4ea364e1427490d37cba1eeb16f31e7ec6eb4ee865af1c3360405161222a91906148b8565b60405180910390a250565b61223d6142bd565b600073ffffffffffffffffffffffffffffffffffffffff168173ffffffffffffffffffffffffffffffffffffffff16036122a3576040517f5ff75ab000000000000000000000000000000000000000000000000000000000815260040160405180910390fd5b80600360006101000a81548173ffffffffffffffffffffffffffffffffffffffff021916908373ffffffffffffffffffffffffffffffffffffffff1602179055507fb310856441c096c7603e48837c3d14b0bcc232f33e2a85f46441994d09aae92781336040516123159291906153a7565b60405180910390a150565b6000601960008373ffffffffffffffffffffffffffffffffffffffff1673ffffffffffffffffffffffffffffffffffffffff16815260200190815260200160002060009054906101000a900460ff169050919050565b61237e6126cf565b73ffffffffffffffffffffffffffffffffffffffff168173ffffffffffffffffffffffffffffffffffffffff16141580156124755750600360009054906101000a900473ffffffffffffffffffffffffffffffffffffffff1673ffffffffffffffffffffffffffffffffffffffff16638da5cb5b6040518163ffffffff1660e01b8152600401602060405180830381865afa158015612421573d6000803e3d6000fd5b505050506040513d601f19601f820116820180604052508101906124459190615265565b73ffffffffffffffffffffffffffffffffffffffff168173ffffffffffffffffffffffffffffffffffffffff1614155b156124ac576040517ff2c5b6a700000000000000000000000000000000000000000000000000000000815260040160405180910390fd5b50565b6124b76142c8565b6124c160006144f4565b565b6124cb6142bd565b80600190816124da9190615624565b507f699eb729f62a9994b5ee2150255056e12afc681905d6ba9fa3b9a5b27e16ac6c813360405161250c9291906156f6565b60405180910390a150565b612710600960040154600960000154612530919061502c565b61253a919061509d565b811015612573576040517f67e2621700000000000000000000000000000000000000000000000000000000815260040160405180910390fd5b50565b600360009054906101000a900473ffffffffffffffffffffffffffffffffffffffff1681565b6125a46142bd565b62015180816125b3919061502c565b6009600701819055507f34cdca490a13c356ab7d6a9b864c1b8d421232bf44b6668972fbb3e4ca4a19db81336040516125ed9291906153d0565b60405180910390a150565b6126006142bd565b61271081111561263c576040517f07982d8500000000000000000000000000000000000000000000000000000000815260040160405180910390fd5b806009600a01819055507f102bc75c69f2daee84285e620b9e4aae13dfb4e1dd8421be8eca7ea8b90a2ab681336040516126779291906153d0565b60405180910390a150565b61268a6142bd565b8060098001819055507f9f33cb81af312f59cab8ba1c1db2c5f26985919ad49b75a8bb36b76b693c1fcf81336040516126c49291906153d0565b60405180910390a150565b60008060009054906101000a900473ffffffffffffffffffffffffffffffffffffffff16905090565b6127006142bd565b6000810361273a576040517f71799f2a00000000000000000000000000000000000000000000000000000000815260040160405180910390fd5b806009600001819055507f4fb8470afa678653cefbcb9266dc78fb782fdecbf6b0b4268524eb29b76752b581336040516127759291906153d0565b60405180910390a150565b60006009600a0154905090565b60006009800154905090565b6000600960080154905090565b600760009054906101000a900473ffffffffffffffffffffffffffffffffffffffff1681565b600080600080600080601560000160009054906101000a90046fffffffffffffffffffffffffffffffff16601560000160109054906101000a90046fffffffffffffffffffffffffffffffff16601560010160009054906101000a90046fffffffffffffffffffffffffffffffff16601760000160109054906101000a90046fffffffffffffffffffffffffffffffff16601760010160009054906101000a90046fffffffffffffffffffffffffffffffff16601760000160009054906101000a90046fffffffffffffffffffffffffffffffff16856fffffffffffffffffffffffffffffffff169550846fffffffffffffffffffffffffffffffff169450836fffffffffffffffffffffffffffffffff169350826fffffffffffffffffffffffffffffffff169250816fffffffffffffffffffffffffffffffff169150806fffffffffffffffffffffffffffffffff169050955095509550955095509550909192939495565b600073ffffffffffffffffffffffffffffffffffffffff168173ffffffffffffffffffffffffffffffffffffffff1603612999576040517f5ff75ab000000000000000000000000000000000000000000000000000000000815260040160405180910390fd5b6129a16142bd565b8073ffffffffffffffffffffffffffffffffffffffff16600360009054906101000a900473ffffffffffffffffffffffffffffffffffffffff1673ffffffffffffffffffffffffffffffffffffffff1663a01ba91c6040518163ffffffff1660e01b8152600401602060405180830381865afa158015612a25573d6000803e3d6000fd5b505050506040513d601f19601f82011682018060405250810190612a499190615265565b73ffffffffffffffffffffffffffffffffffffffff16636352211e846040518263ffffffff1660e01b8152600401612a819190614959565b602060405180830381865afa158015612a9e573d6000803e3d6000fd5b505050506040513d601f19601f82011682018060405250810190612ac29190615265565b73ffffffffffffffffffffffffffffffffffffffff1614612b0f576040517f75b0da3b00000000000000000000000000000000000000000000000000000000815260040160405180910390fd5b600260009054906101000a900473ffffffffffffffffffffffffffffffffffffffff1673ffffffffffffffffffffffffffffffffffffffff16639842054c6040518163ffffffff1660e01b8152600401602060405180830381865afa158015612b7c573d6000803e3d6000fd5b505050506040513d601f19601f82011682018060405250810190612ba09190615752565b15612c4a57612c49600560009054906101000a900473ffffffffffffffffffffffffffffffffffffffff1673ffffffffffffffffffffffffffffffffffffffff1663443bb293836040518263ffffffff1660e01b8152600401612c0391906148b8565b602060405180830381865afa158015612c20573d6000803e3d6000fd5b505050506040513d601f19601f82011682018060405250810190612c449190615223565b612517565b5b6000600760009054906101000a900473ffffffffffffffffffffffffffffffffffffffff16905081600760006101000a81548173ffffffffffffffffffffffffffffffffffffffff021916908373ffffffffffffffffffffffffffffffffffffffff16021790555082600881905550600073ffffffffffffffffffffffffffffffffffffffff168173ffffffffffffffffffffffffffffffffffffffff1614612d68576000601760000160009054906101000a90046fffffffffffffffffffffffffffffffff16601560010160009054906101000a90046fffffffffffffffffffffffffffffffff16612d3d9190615151565b6fffffffffffffffffffffffffffffffff1690506000811115612d6657612d653383836143cf565b5b505b7f9bf9f8e6f55db950c6d07b9115d706f5b5d03069e7b8f898c02b82f939b5803e81838533604051612d9d949392919061577f565b60405180910390a1505050565b6000600960000154905090565b612dc081613766565b612df6576040517fc74cb44c00000000000000000000000000000000000000000000000000000000815260040160405180910390fd5b50565b600560009054906101000a900473ffffffffffffffffffffffffffffffffffffffff1681565b612e276142bd565b6201518081612e36919061502c565b6009600b01819055507f82e7b0bccb37468a7b6f713af9a52c2c576d5e58209daa32e2d741be53de2f4d6201518082612e6f919061502c565b33604051612e7e9291906153d0565b60405180910390a150565b600460009054906101000a900473ffffffffffffffffffffffffffffffffffffffff1681565b60085481565b612ebd6126cf565b73ffffffffffffffffffffffffffffffffffffffff168173ffffffffffffffffffffffffffffffffffffffff1614612f21576040517fd39208c900000000000000000000000000000000000000000000000000000000815260040160405180910390fd5b50565b612f2c6142bd565b60008103612f66576040517f71799f2a00000000000000000000000000000000000000000000000000000000815260040160405180910390fd5b6b0100000000000000000000008110612fab576040517f552b837700000000000000000000000000000000000000000000000000000000815260040160405180910390fd5b80600960060160006101000a8154816affffffffffffffffffffff02191690836affffffffffffffffffffff1602179055507f41d14f6a3af59488e2472d1c370cd1f966a5b50b56621336fc57e810f2a7da70813360405161300e9291906153d0565b60405180910390a150565b600080600960030154600960050154915091509091565b600760009054906101000a900473ffffffffffffffffffffffffffffffffffffffff1673ffffffffffffffffffffffffffffffffffffffff168273ffffffffffffffffffffffffffffffffffffffff16036130935761308e81612517565b6130f3565b601a60009054906101000a900473ffffffffffffffffffffffffffffffffffffffff1673ffffffffffffffffffffffffffffffffffffffff168273ffffffffffffffffffffffffffffffffffffffff16036130f2576130f181610af3565b5b5b5050565b601a60009054906101000a900473ffffffffffffffffffffffffffffffffffffffff1673ffffffffffffffffffffffffffffffffffffffff168173ffffffffffffffffffffffffffffffffffffffff161461317e576040517f325bf3c200000000000000000000000000000000000000000000000000000000815260040160405180910390fd5b50565b6131896142bd565b600073ffffffffffffffffffffffffffffffffffffffff168173ffffffffffffffffffffffffffffffffffffffff16036131ef576040517f5ff75ab000000000000000000000000000000000000000000000000000000000815260040160405180910390fd5b80601a60006101000a81548173ffffffffffffffffffffffffffffffffffffffff021916908373ffffffffffffffffffffffffffffffffffffffff1602179055503373ffffffffffffffffffffffffffffffffffffffff167ff6d4a88c73442b5ee37b656b0c7291f26d3c641b9d1836e0cf5b58e6ed6d01208260405161327691906148b8565b60405180910390a250565b6132896142bd565b600081036132c3576040517f71799f2a00000000000000000000000000000000000000000000000000000000815260040160405180910390fd5b806009600801819055507f7008dd5a72310c6b829c3d7b8b45ac723aca1756d16989d70023020c08b3c74581336040516132fe9291906153d0565b60405180910390a150565b6000600260009054906101000a900473ffffffffffffffffffffffffffffffffffffffff1673ffffffffffffffffffffffffffffffffffffffff163373ffffffffffffffffffffffffffffffffffffffff1614613392576040517f26d29bbf00000000000000000000000000000000000000000000000000000000815260040160405180910390fd5b600060156040518060600160405290816000820160009054906101000a90046fffffffffffffffffffffffffffffffff166fffffffffffffffffffffffffffffffff166fffffffffffffffffffffffffffffffff1681526020016000820160109054906101000a90046fffffffffffffffffffffffffffffffff166fffffffffffffffffffffffffffffffff166fffffffffffffffffffffffffffffffff1681526020016001820160009054906101000a90046fffffffffffffffffffffffffffffffff166fffffffffffffffffffffffffffffffff166fffffffffffffffffffffffffffffffff16815250509050600061271084600360009054906101000a900473ffffffffffffffffffffffffffffffffffffffff1673ffffffffffffffffffffffffffffffffffffffff1663b0e21e8a6040518163ffffffff1660e01b8152600401602060405180830381865afa1580156134f4573d6000803e3d6000fd5b505050506040513d601f19601f820116820180604052508101906135189190615108565b61ffff16613526919061502c565b613530919061509d565b9050808260000181815161354491906152fd565b9150906fffffffffffffffffffffffffffffffff1690816fffffffffffffffffffffffffffffffff16815250506000818561357f9190615195565b9050600061271060096003015483613597919061502c565b6135a1919061509d565b905080846020018181516135b591906152fd565b9150906fffffffffffffffffffffffffffffffff1690816fffffffffffffffffffffffffffffffff16815250506000612710600960020154846135f8919061502c565b613602919061509d565b9050808560400181815161361691906152fd565b9150906fffffffffffffffffffffffffffffffff1690816fffffffffffffffffffffffffffffffff168152505084601560008201518160000160006101000a8154816fffffffffffffffffffffffffffffffff02191690836fffffffffffffffffffffffffffffffff16021790555060208201518160000160106101000a8154816fffffffffffffffffffffffffffffffff02191690836fffffffffffffffffffffffffffffffff16021790555060408201518160010160006101000a8154816fffffffffffffffffffffffffffffffff02191690836fffffffffffffffffffffffffffffffff1602179055509050508082846137139190615195565b61371d9190615195565b95507fb976f1c311ab620aaf714c7c86818e402f863a0e386f350798e72a46dbc147ac8483838960405161375494939291906151c9565b60405180910390a15050505050919050565b6000601a60009054906101000a900473ffffffffffffffffffffffffffffffffffffffff1673ffffffffffffffffffffffffffffffffffffffff168273ffffffffffffffffffffffffffffffffffffffff1614806138115750600760009054906101000a900473ffffffffffffffffffffffffffffffffffffffff1673ffffffffffffffffffffffffffffffffffffffff168273ffffffffffffffffffffffffffffffffffffffff16145b9050919050565b6138206142c8565b600073ffffffffffffffffffffffffffffffffffffffff168173ffffffffffffffffffffffffffffffffffffffff160361388f576040517f08c379a000000000000000000000000000000000000000000000000000000000815260040161388690615836565b60405180910390fd5b613898816144f4565b50565b600180546138a890615451565b80601f01602080910402602001604051908101604052809291908181526020018280546138d490615451565b80156139215780601f106138f657610100808354040283529160200191613921565b820191906000526020600020905b81548152906001019060200180831161390457829003601f168201915b505050505081565b6139316142c8565b60008060159054906101000a900460ff1615905080801561396457506001600060149054906101000a900460ff1660ff16105b806139935750613973306145b8565b15801561399257506001600060149054906101000a900460ff1660ff16145b5b6139d2576040517f08c379a00000000000000000000000000000000000000000000000000000000081526004016139c9906158c8565b60405180910390fd5b6001600060146101000a81548160ff021916908360ff1602179055508015613a10576001600060156101000a81548160ff0219169083151502179055505b8460019081613a1f9190615624565b50600073ffffffffffffffffffffffffffffffffffffffff168473ffffffffffffffffffffffffffffffffffffffff1603613a86576040517f5ff75ab000000000000000000000000000000000000000000000000000000000815260040160405180910390fd5b600073ffffffffffffffffffffffffffffffffffffffff168373ffffffffffffffffffffffffffffffffffffffff1603613aec576040517f5ff75ab000000000000000000000000000000000000000000000000000000000815260040160405180910390fd5b600073ffffffffffffffffffffffffffffffffffffffff168273ffffffffffffffffffffffffffffffffffffffff1603613b52576040517f5ff75ab000000000000000000000000000000000000000000000000000000000815260040160405180910390fd5b83600560006101000a81548173ffffffffffffffffffffffffffffffffffffffff021916908373ffffffffffffffffffffffffffffffffffffffff16021790555082600360006101000a81548173ffffffffffffffffffffffffffffffffffffffff021916908373ffffffffffffffffffffffffffffffffffffffff1602179055506000600560009054906101000a900473ffffffffffffffffffffffffffffffffffffffff1673ffffffffffffffffffffffffffffffffffffffff16631083f7616040518163ffffffff1660e01b8152600401602060405180830381865afa158015613c43573d6000803e3d6000fd5b505050506040513d601f19601f82011682018060405250810190613c679190615265565b9050600360009054906101000a900473ffffffffffffffffffffffffffffffffffffffff1673ffffffffffffffffffffffffffffffffffffffff1663ab8efe6e826040518263ffffffff1660e01b8152600401613cc491906148b8565b602060405180830381865afa158015613ce1573d6000803e3d6000fd5b505050506040513d601f19601f82011682018060405250810190613d059190615752565b613d3b576040517fce179d6d00000000000000000000000000000000000000000000000000000000815260040160405180910390fd5b80600660006101000a81548173ffffffffffffffffffffffffffffffffffffffff021916908373ffffffffffffffffffffffffffffffffffffffff16021790555082600460006101000a81548173ffffffffffffffffffffffffffffffffffffffff021916908373ffffffffffffffffffffffffffffffffffffffff16021790555062ed4e00600960010181905550600360009054906101000a900473ffffffffffffffffffffffffffffffffffffffff1673ffffffffffffffffffffffffffffffffffffffff166306d994766040518163ffffffff1660e01b8152600401602060405180830381865afa158015613e37573d6000803e3d6000fd5b505050506040513d601f19601f82011682018060405250810190613e5b9190615924565b63ffffffff166009600701819055506064600960020181905550606460096003018190555060c860096004018190555060c8600960050181905550601e60096008018190555061271060098001819055506105dc6009600a0181905550508015613f125760008060156101000a81548160ff0219169083151502179055507f7f26b83ff96e1f2b6a682f133852f6798a09c465da95921460cefb38474024986001604051613f09919061598c565b60405180910390a15b5050505050565b600080600960020154600960040154915091509091565b6000806000806000606080600080600080600660009054906101000a900473ffffffffffffffffffffffffffffffffffffffff169050600660009054906101000a900473ffffffffffffffffffffffffffffffffffffffff166009600a0154600960080154600960060160009054906101000a90046affffffffffffffffffffff166009600001548573ffffffffffffffffffffffffffffffffffffffff166306fdde036040518163ffffffff1660e01b8152600401600060405180830381865afa158015614003573d6000803e3d6000fd5b505050506040513d6000823e3d601f19601f8201168201806040525081019061402c9190615a17565b8673ffffffffffffffffffffffffffffffffffffffff166395d89b416040518163ffffffff1660e01b8152600401600060405180830381865afa158015614077573d6000803e3d6000fd5b505050506040513d6000823e3d601f19601f820116820180604052508101906140a09190615a17565b8773ffffffffffffffffffffffffffffffffffffffff1663313ce5676040518163ffffffff1660e01b8152600401602060405180830381865afa1580156140eb573d6000803e3d6000fd5b505050506040513d601f19601f8201168201806040525081019061410f9190615a8c565b600854600360009054906101000a900473ffffffffffffffffffffffffffffffffffffffff1673ffffffffffffffffffffffffffffffffffffffff1663a01ba91c6040518163ffffffff1660e01b8152600401602060405180830381865afa15801561417f573d6000803e3d6000fd5b505050506040513d601f19601f820116820180604052508101906141a39190615265565b866affffffffffffffffffffff1696509a509a509a509a509a509a509a509a509a509a505090919293949596979899565b6141dc6142bd565b6127108211806141ed575061271081115b15614224576040517f07982d8500000000000000000000000000000000000000000000000000000000815260040160405180910390fd5b81600960030181905550806009600501819055503373ffffffffffffffffffffffffffffffffffffffff167f7384d930b4a04e2f3e285f1d4ba95fc9dc39a3f14f0275fa65df775743219d048383604051614280929190614daa565b60405180910390a25050565b6000600960060160009054906101000a90046affffffffffffffffffffff166affffffffffffffffffffff16905090565b6142c633612376565b565b6142d06145db565b73ffffffffffffffffffffffffffffffffffffffff166142ee6126cf565b73ffffffffffffffffffffffffffffffffffffffff1614614344576040517f08c379a000000000000000000000000000000000000000000000000000000000815260040161433b90615b05565b60405180910390fd5b565b6143c9846323b872dd60e01b85858560405160240161436793929190615b25565b604051602081830303815290604052907bffffffffffffffffffffffffffffffffffffffffffffffffffffffff19166020820180517bffffffffffffffffffffffffffffffffffffffffffffffffffffffff83818316178352505050506145e3565b50505050565b806bffffffffffffffffffffffff16601760000160008282829054906101000a90046fffffffffffffffffffffffffffffffff1661440d91906152fd565b92506101000a8154816fffffffffffffffffffffffffffffffff02191690836fffffffffffffffffffffffffffffffff1602179055506144b4600260009054906101000a900473ffffffffffffffffffffffffffffffffffffffff168383600660009054906101000a900473ffffffffffffffffffffffffffffffffffffffff1673ffffffffffffffffffffffffffffffffffffffff16614346909392919063ffffffff16565b7fe30d8c51bff8f5e0c4934efeb779aac35470b74a1887a01d93f54c258149665d8282856040516144e793929190615370565b60405180910390a1505050565b60008060009054906101000a900473ffffffffffffffffffffffffffffffffffffffff169050816000806101000a81548173ffffffffffffffffffffffffffffffffffffffff021916908373ffffffffffffffffffffffffffffffffffffffff1602179055508173ffffffffffffffffffffffffffffffffffffffff168173ffffffffffffffffffffffffffffffffffffffff167f8be0079c531659141344cd1fd0a4f28419497f9722a3daafe3b4186f6b6457e060405160405180910390a35050565b6000808273ffffffffffffffffffffffffffffffffffffffff163b119050919050565b600033905090565b6000614645826040518060400160405280602081526020017f5361666545524332303a206c6f772d6c6576656c2063616c6c206661696c65648152508573ffffffffffffffffffffffffffffffffffffffff166146aa9092919063ffffffff16565b90506000815111156146a557808060200190518101906146659190615752565b6146a4576040517f08c379a000000000000000000000000000000000000000000000000000000000815260040161469b90615bce565b60405180910390fd5b5b505050565b60606146b984846000856146c2565b90509392505050565b606082471015614707576040517f08c379a00000000000000000000000000000000000000000000000000000000081526004016146fe90615c60565b60405180910390fd5b6000808673ffffffffffffffffffffffffffffffffffffffff1685876040516147309190615cc7565b60006040518083038185875af1925050503d806000811461476d576040519150601f19603f3d011682016040523d82523d6000602084013e614772565b606091505b50915091506147838783838761478f565b92505050949350505050565b606083156147f15760008351036147e9576147a985614804565b6147e8576040517f08c379a00000000000000000000000000000000000000000000000000000000081526004016147df90615d2a565b60405180910390fd5b5b8290506147fc565b6147fb8383614827565b5b949350505050565b6000808273ffffffffffffffffffffffffffffffffffffffff163b119050919050565b60008251111561483a5781518083602001fd5b806040517f08c379a000000000000000000000000000000000000000000000000000000000815260040161486e9190614e92565b60405180910390fd5b600073ffffffffffffffffffffffffffffffffffffffff82169050919050565b60006148a282614877565b9050919050565b6148b281614897565b82525050565b60006020820190506148cd60008301846148a9565b92915050565b6000604051905090565b600080fd5b600080fd5b6000819050919050565b6148fa816148e7565b811461490557600080fd5b50565b600081359050614917816148f1565b92915050565b600060208284031215614933576149326148dd565b5b600061494184828501614908565b91505092915050565b614953816148e7565b82525050565b600060208201905061496e600083018461494a565b92915050565b6000806040838503121561498b5761498a6148dd565b5b600061499985828601614908565b92505060206149aa85828601614908565b9150509250929050565b6000819050919050565b60006149d96149d46149cf84614877565b6149b4565b614877565b9050919050565b60006149eb826149be565b9050919050565b60006149fd826149e0565b9050919050565b614a0d816149f2565b82525050565b6000602082019050614a286000830184614a04565b92915050565b614a3781614897565b8114614a4257600080fd5b50565b600081359050614a5481614a2e565b92915050565b600060208284031215614a7057614a6f6148dd565b5b6000614a7e84828501614a45565b91505092915050565b6000608082019050614a9c60008301876148a9565b614aa960208301866148a9565b614ab660408301856148a9565b614ac360608301846148a9565b95945050505050565b60008115159050919050565b614ae181614acc565b82525050565b6000602082019050614afc6000830184614ad8565b92915050565b600080fd5b600080fd5b6000601f19601f8301169050919050565b7f4e487b7100000000000000000000000000000000000000000000000000000000600052604160045260246000fd5b614b5582614b0c565b810181811067ffffffffffffffff82111715614b7457614b73614b1d565b5b80604052505050565b6000614b876148d3565b9050614b938282614b4c565b919050565b600067ffffffffffffffff821115614bb357614bb2614b1d565b5b614bbc82614b0c565b9050602081019050919050565b82818337600083830152505050565b6000614beb614be684614b98565b614b7d565b905082815260208101848484011115614c0757614c06614b07565b5b614c12848285614bc9565b509392505050565b600082601f830112614c2f57614c2e614b02565b5b8135614c3f848260208601614bd8565b91505092915050565b600060208284031215614c5e57614c5d6148dd565b5b600082013567ffffffffffffffff811115614c7c57614c7b6148e2565b5b614c8884828501614c1a565b91505092915050565b6000614c9c826149e0565b9050919050565b614cac81614c91565b82525050565b6000602082019050614cc76000830184614ca3565b92915050565b600060c082019050614ce2600083018961494a565b614cef602083018861494a565b614cfc604083018761494a565b614d09606083018661494a565b614d16608083018561494a565b614d2360a083018461494a565b979650505050505050565b60008060408385031215614d4557614d446148dd565b5b6000614d5385828601614908565b9250506020614d6485828601614a45565b9150509250929050565b6000614d79826149e0565b9050919050565b614d8981614d6e565b82525050565b6000602082019050614da46000830184614d80565b92915050565b6000604082019050614dbf600083018561494a565b614dcc602083018461494a565b9392505050565b60008060408385031215614dea57614de96148dd565b5b6000614df885828601614a45565b9250506020614e0985828601614908565b9150509250929050565b600081519050919050565b600082825260208201905092915050565b60005b83811015614e4d578082015181840152602081019050614e32565b60008484015250505050565b6000614e6482614e13565b614e6e8185614e1e565b9350614e7e818560208601614e2f565b614e8781614b0c565b840191505092915050565b60006020820190508181036000830152614eac8184614e59565b905092915050565b60008060008060808587031215614ece57614ecd6148dd565b5b600085013567ffffffffffffffff811115614eec57614eeb6148e2565b5b614ef887828801614c1a565b9450506020614f0987828801614a45565b9350506040614f1a87828801614a45565b9250506060614f2b87828801614a45565b91505092959194509250565b600060ff82169050919050565b614f4d81614f37565b82525050565b600061014082019050614f69600083018d6148a9565b614f76602083018c61494a565b614f83604083018b61494a565b614f90606083018a61494a565b614f9d608083018961494a565b81810360a0830152614faf8188614e59565b905081810360c0830152614fc38187614e59565b9050614fd260e0830186614f44565b614fe061010083018561494a565b614fee6101208301846148a9565b9b9a5050505050505050505050565b7f4e487b7100000000000000000000000000000000000000000000000000000000600052601160045260246000fd5b6000615037826148e7565b9150615042836148e7565b9250828202615050816148e7565b9150828204841483151761506757615066614ffd565b5b5092915050565b7f4e487b7100000000000000000000000000000000000000000000000000000000600052601260045260246000fd5b60006150a8826148e7565b91506150b3836148e7565b9250826150c3576150c261506e565b5b828204905092915050565b600061ffff82169050919050565b6150e5816150ce565b81146150f057600080fd5b50565b600081519050615102816150dc565b92915050565b60006020828403121561511e5761511d6148dd565b5b600061512c848285016150f3565b91505092915050565b60006fffffffffffffffffffffffffffffffff82169050919050565b600061515c82615135565b915061516783615135565b925082820390506fffffffffffffffffffffffffffffffff81111561518f5761518e614ffd565b5b92915050565b60006151a0826148e7565b91506151ab836148e7565b92508282039050818111156151c3576151c2614ffd565b5b92915050565b60006080820190506151de600083018761494a565b6151eb602083018661494a565b6151f8604083018561494a565b615205606083018461494a565b95945050505050565b60008151905061521d816148f1565b92915050565b600060208284031215615239576152386148dd565b5b60006152478482850161520e565b91505092915050565b60008151905061525f81614a2e565b92915050565b60006020828403121561527b5761527a6148dd565b5b600061528984828501615250565b91505092915050565b60006060820190506152a760008301866148a9565b6152b460208301856148a9565b6152c160408301846148a9565b949350505050565b60006152d4826148e7565b91506152df836148e7565b92508282019050808211156152f7576152f6614ffd565b5b92915050565b600061530882615135565b915061531383615135565b925082820190506fffffffffffffffffffffffffffffffff81111561533b5761533a614ffd565b5b92915050565b7f4e487b7100000000000000000000000000000000000000000000000000000000600052600160045260246000fd5b600060608201905061538560008301866148a9565b615392602083018561494a565b61539f60408301846148a9565b949350505050565b60006040820190506153bc60008301856148a9565b6153c960208301846148a9565b9392505050565b60006040820190506153e5600083018561494a565b6153f260208301846148a9565b9392505050565b600060408201905061540e60008301856148a9565b61541b602083018461494a565b9392505050565b7f4e487b7100000000000000000000000000000000000000000000000000000000600052602260045260246000fd5b6000600282049050600182168061546957607f821691505b60208210810361547c5761547b615422565b5b50919050565b60008190508160005260206000209050919050565b60006020601f8301049050919050565b600082821b905092915050565b6000600883026154e47fffffffffffffffffffffffffffffffffffffffffffffffffffffffffffffffff826154a7565b6154ee86836154a7565b95508019841693508086168417925050509392505050565b600061552161551c615517846148e7565b6149b4565b6148e7565b9050919050565b6000819050919050565b61553b83615506565b61554f61554782615528565b8484546154b4565b825550505050565b600090565b615564615557565b61556f818484615532565b505050565b5b818110156155935761558860008261555c565b600181019050615575565b5050565b601f8211156155d8576155a981615482565b6155b284615497565b810160208510156155c1578190505b6155d56155cd85615497565b830182615574565b50505b505050565b600082821c905092915050565b60006155fb600019846008026155dd565b1980831691505092915050565b600061561483836155ea565b9150826002028217905092915050565b61562d82614e13565b67ffffffffffffffff81111561564657615645614b1d565b5b6156508254615451565b61565b828285615597565b600060209050601f83116001811461568e576000841561567c578287015190505b6156868582615608565b8655506156ee565b601f19841661569c86615482565b60005b828110156156c45784890151825560018201915060208501945060208101905061569f565b868310156156e157848901516156dd601f8916826155ea565b8355505b6001600288020188555050505b505050505050565b600060408201905081810360008301526157108185614e59565b905061571f60208301846148a9565b9392505050565b61572f81614acc565b811461573a57600080fd5b50565b60008151905061574c81615726565b92915050565b600060208284031215615768576157676148dd565b5b60006157768482850161573d565b91505092915050565b600060808201905061579460008301876148a9565b6157a160208301866148a9565b6157ae604083018561494a565b6157bb60608301846148a9565b95945050505050565b7f4f776e61626c653a206e6577206f776e657220697320746865207a65726f206160008201527f6464726573730000000000000000000000000000000000000000000000000000602082015250565b6000615820602683614e1e565b915061582b826157c4565b604082019050919050565b6000602082019050818103600083015261584f81615813565b9050919050565b7f496e697469616c697a61626c653a20636f6e747261637420697320616c72656160008201527f647920696e697469616c697a6564000000000000000000000000000000000000602082015250565b60006158b2602e83614e1e565b91506158bd82615856565b604082019050919050565b600060208201905081810360008301526158e1816158a5565b9050919050565b600063ffffffff82169050919050565b615901816158e8565b811461590c57600080fd5b50565b60008151905061591e816158f8565b92915050565b60006020828403121561593a576159396148dd565b5b60006159488482850161590f565b91505092915050565b6000819050919050565b600061597661597161596c84615951565b6149b4565b614f37565b9050919050565b6159868161595b565b82525050565b60006020820190506159a1600083018461597d565b92915050565b60006159ba6159b584614b98565b614b7d565b9050828152602081018484840111156159d6576159d5614b07565b5b6159e1848285614e2f565b509392505050565b600082601f8301126159fe576159fd614b02565b5b8151615a0e8482602086016159a7565b91505092915050565b600060208284031215615a2d57615a2c6148dd565b5b600082015167ffffffffffffffff811115615a4b57615a4a6148e2565b5b615a57848285016159e9565b91505092915050565b615a6981614f37565b8114615a7457600080fd5b50565b600081519050615a8681615a60565b92915050565b600060208284031215615aa257615aa16148dd565b5b6000615ab084828501615a77565b91505092915050565b7f4f776e61626c653a2063616c6c6572206973206e6f7420746865206f776e6572600082015250565b6000615aef602083614e1e565b9150615afa82615ab9565b602082019050919050565b60006020820190508181036000830152615b1e81615ae2565b9050919050565b6000606082019050615b3a60008301866148a9565b615b4760208301856148a9565b615b54604083018461494a565b949350505050565b7f5361666545524332303a204552433230206f7065726174696f6e20646964206e60008201527f6f74207375636365656400000000000000000000000000000000000000000000602082015250565b6000615bb8602a83614e1e565b9150615bc382615b5c565b604082019050919050565b60006020820190508181036000830152615be781615bab565b9050919050565b7f416464726573733a20696e73756666696369656e742062616c616e636520666f60008201527f722063616c6c0000000000000000000000000000000000000000000000000000602082015250565b6000615c4a602683614e1e565b9150615c5582615bee565b604082019050919050565b60006020820190508181036000830152615c7981615c3d565b9050919050565b600081519050919050565b600081905092915050565b6000615ca182615c80565b615cab8185615c8b565b9350615cbb818560208601614e2f565b80840191505092915050565b6000615cd38284615c96565b915081905092915050565b7f416464726573733a2063616c6c20746f206e6f6e2d636f6e7472616374000000600082015250565b6000615d14601d83614e1e565b9150615d1f82615cde565b602082019050919050565b60006020820190508181036000830152615d4381615d07565b905091905056fea2646970667358221220565658488a67fa088f404afe561684138d50662ce8566eeb6e361782a6dd3dc964736f6c63430008110033",
  "linkReferences": {},
  "deployedLinkReferences": {}
}