{
  "_format": "hh-sol-artifact-1",
  "contractName": "TestToken",
  "sourceName": "contracts/mock/TestToken.sol",
  "abi": [
    {
      "inputs": [],
      "stateMutability": "nonpayable",
      "type": "constructor"
    },
    {
      "anonymous": false,
      "inputs": [
        {
          "indexed": true,
          "internalType": "address",
          "name": "owner",
          "type": "address"
        },
        {
          "indexed": true,
          "internalType": "address",
          "name": "spender",
          "type": "address"
        },
        {
          "indexed": false,
          "internalType": "uint256",
          "name": "value",
          "type": "uint256"
        }
      ],
      "name": "Approval",
      "type": "event"
    },
    {
      "anonymous": false,
      "inputs": [
        {
          "indexed": true,
          "internalType": "address",
          "name": "from",
          "type": "address"
        },
        {
          "indexed": true,
          "internalType": "address",
          "name": "to",
          "type": "address"
        },
        {
          "indexed": false,
          "internalType": "uint256",
          "name": "value",
          "type": "uint256"
        }
      ],
      "name": "Transfer",
      "type": "event"
    },
    {
      "inputs": [
        {
          "internalType": "address",
          "name": "owner",
          "type": "address"
        },
        {
          "internalType": "address",
          "name": "spender",
          "type": "address"
        }
      ],
      "name": "allowance",
      "outputs": [
        {
          "internalType": "uint256",
          "name": "",
          "type": "uint256"
        }
      ],
      "stateMutability": "view",
      "type": "function"
    },
    {
      "inputs": [
        {
          "internalType": "address",
          "name": "spender",
          "type": "address"
        },
        {
          "internalType": "uint256",
          "name": "amount",
          "type": "uint256"
        }
      ],
      "name": "approve",
      "outputs": [
        {
          "internalType": "bool",
          "name": "",
          "type": "bool"
        }
      ],
      "stateMutability": "nonpayable",
      "type": "function"
    },
    {
      "inputs": [
        {
          "internalType": "address",
          "name": "account",
          "type": "address"
        }
      ],
      "name": "balanceOf",
      "outputs": [
        {
          "internalType": "uint256",
          "name": "",
          "type": "uint256"
        }
      ],
      "stateMutability": "view",
      "type": "function"
    },
    {
      "inputs": [
        {
          "internalType": "address",
          "name": "from",
          "type": "address"
        },
        {
          "internalType": "uint256",
          "name": "amount",
          "type": "uint256"
        }
      ],
      "name": "burn",
      "outputs": [],
      "stateMutability": "nonpayable",
      "type": "function"
    },
    {
      "inputs": [],
      "name": "decimals",
      "outputs": [
        {
          "internalType": "uint8",
          "name": "",
          "type": "uint8"
        }
      ],
      "stateMutability": "view",
      "type": "function"
    },
    {
      "inputs": [
        {
          "internalType": "address",
          "name": "spender",
          "type": "address"
        },
        {
          "internalType": "uint256",
          "name": "subtractedValue",
          "type": "uint256"
        }
      ],
      "name": "decreaseAllowance",
      "outputs": [
        {
          "internalType": "bool",
          "name": "",
          "type": "bool"
        }
      ],
      "stateMutability": "nonpayable",
      "type": "function"
    },
    {
      "inputs": [
        {
          "internalType": "address",
          "name": "to",
          "type": "address"
        }
      ],
      "name": "give100000To",
      "outputs": [],
      "stateMutability": "nonpayable",
      "type": "function"
    },
    {
      "inputs": [
        {
          "internalType": "address",
          "name": "to",
          "type": "address"
        }
      ],
      "name": "give1000To",
      "outputs": [],
      "stateMutability": "nonpayable",
      "type": "function"
    },
    {
      "inputs": [
        {
          "internalType": "address",
          "name": "spender",
          "type": "address"
        },
        {
          "internalType": "uint256",
          "name": "addedValue",
          "type": "uint256"
        }
      ],
      "name": "increaseAllowance",
      "outputs": [
        {
          "internalType": "bool",
          "name": "",
          "type": "bool"
        }
      ],
      "stateMutability": "nonpayable",
      "type": "function"
    },
    {
      "inputs": [
        {
          "internalType": "address",
          "name": "to",
          "type": "address"
        },
        {
          "internalType": "uint256",
          "name": "amount",
          "type": "uint256"
        }
      ],
      "name": "mint",
      "outputs": [],
      "stateMutability": "nonpayable",
      "type": "function"
    },
    {
      "inputs": [],
      "name": "name",
      "outputs": [
        {
          "internalType": "string",
          "name": "",
          "type": "string"
        }
      ],
      "stateMutability": "view",
      "type": "function"
    },
    {
      "inputs": [
        {
          "internalType": "bytes4",
          "name": "interfaceId",
          "type": "bytes4"
        }
      ],
      "name": "supportsInterface",
      "outputs": [
        {
          "internalType": "bool",
          "name": "",
          "type": "bool"
        }
      ],
      "stateMutability": "view",
      "type": "function"
    },
    {
      "inputs": [],
      "name": "symbol",
      "outputs": [
        {
          "internalType": "string",
          "name": "",
          "type": "string"
        }
      ],
      "stateMutability": "view",
      "type": "function"
    },
    {
      "inputs": [],
      "name": "totalSupply",
      "outputs": [
        {
          "internalType": "uint256",
          "name": "",
          "type": "uint256"
        }
      ],
      "stateMutability": "view",
      "type": "function"
    },
    {
      "inputs": [
        {
          "internalType": "address",
          "name": "to",
          "type": "address"
        },
        {
          "internalType": "uint256",
          "name": "amount",
          "type": "uint256"
        }
      ],
      "name": "transfer",
      "outputs": [
        {
          "internalType": "bool",
          "name": "",
          "type": "bool"
        }
      ],
      "stateMutability": "nonpayable",
      "type": "function"
    },
    {
      "inputs": [
        {
          "internalType": "address",
          "name": "from",
          "type": "address"
        },
        {
          "internalType": "address",
          "name": "to",
          "type": "address"
        },
        {
          "internalType": "uint256",
          "name": "amount",
          "type": "uint256"
        }
      ],
      "name": "transferFrom",
      "outputs": [
        {
          "internalType": "bool",
          "name": "",
          "type": "bool"
        }
      ],
      "stateMutability": "nonpayable",
      "type": "function"
    }
  ],
  "bytecode": "0x60806040523480156200001157600080fd5b506040518060400160405280600981526020017f54657374546f6b656e00000000000000000000000000000000000000000000008152506040518060400160405280600481526020017f555344430000000000000000000000000000000000000000000000000000000081525081600390816200008f9190620004e2565b508060049081620000a19190620004e2565b505050620000e233620000b9620000e860201b60201c565b600a620000c7919062000759565b6103e8620000d69190620007aa565b620000f160201b60201c565b620008e1565b60006006905090565b600073ffffffffffffffffffffffffffffffffffffffff168273ffffffffffffffffffffffffffffffffffffffff160362000163576040517f08c379a00000000000000000000000000000000000000000000000000000000081526004016200015a9062000856565b60405180910390fd5b62000177600083836200025e60201b60201c565b80600260008282546200018b919062000878565b92505081905550806000808473ffffffffffffffffffffffffffffffffffffffff1673ffffffffffffffffffffffffffffffffffffffff168152602001908152602001600020600082825401925050819055508173ffffffffffffffffffffffffffffffffffffffff16600073ffffffffffffffffffffffffffffffffffffffff167fddf252ad1be2c89b69c2b068fc378daa952ba7f163c4a11628f55a4df523b3ef836040516200023e9190620008c4565b60405180910390a36200025a600083836200026360201b60201c565b5050565b505050565b505050565b600081519050919050565b7f4e487b7100000000000000000000000000000000000000000000000000000000600052604160045260246000fd5b7f4e487b7100000000000000000000000000000000000000000000000000000000600052602260045260246000fd5b60006002820490506001821680620002ea57607f821691505b6020821081036200030057620002ff620002a2565b5b50919050565b60008190508160005260206000209050919050565b60006020601f8301049050919050565b600082821b905092915050565b6000600883026200036a7fffffffffffffffffffffffffffffffffffffffffffffffffffffffffffffffff826200032b565b6200037686836200032b565b95508019841693508086168417925050509392505050565b6000819050919050565b6000819050919050565b6000620003c3620003bd620003b7846200038e565b62000398565b6200038e565b9050919050565b6000819050919050565b620003df83620003a2565b620003f7620003ee82620003ca565b84845462000338565b825550505050565b600090565b6200040e620003ff565b6200041b818484620003d4565b505050565b5b8181101562000443576200043760008262000404565b60018101905062000421565b5050565b601f82111562000492576200045c8162000306565b62000467846200031b565b8101602085101562000477578190505b6200048f62000486856200031b565b83018262000420565b50505b505050565b600082821c905092915050565b6000620004b76000198460080262000497565b1980831691505092915050565b6000620004d28383620004a4565b9150826002028217905092915050565b620004ed8262000268565b67ffffffffffffffff81111562000509576200050862000273565b5b620005158254620002d1565b6200052282828562000447565b600060209050601f8311600181146200055a576000841562000545578287015190505b620005518582620004c4565b865550620005c1565b601f1984166200056a8662000306565b60005b8281101562000594578489015182556001820191506020850194506020810190506200056d565b86831015620005b45784890151620005b0601f891682620004a4565b8355505b6001600288020188555050505b505050505050565b7f4e487b7100000000000000000000000000000000000000000000000000000000600052601160045260246000fd5b60008160011c9050919050565b6000808291508390505b600185111562000657578086048111156200062f576200062e620005c9565b5b60018516156200063f5780820291505b80810290506200064f85620005f8565b94506200060f565b94509492505050565b60008262000672576001905062000745565b8162000682576000905062000745565b81600181146200069b5760028114620006a657620006dc565b600191505062000745565b60ff841115620006bb57620006ba620005c9565b5b8360020a915084821115620006d557620006d4620005c9565b5b5062000745565b5060208310610133831016604e8410600b8410161715620007165782820a90508381111562000710576200070f620005c9565b5b62000745565b62000725848484600162000605565b925090508184048111156200073f576200073e620005c9565b5b81810290505b9392505050565b600060ff82169050919050565b600062000766826200038e565b915062000773836200074c565b9250620007a27fffffffffffffffffffffffffffffffffffffffffffffffffffffffffffffffff848462000660565b905092915050565b6000620007b7826200038e565b9150620007c4836200038e565b9250828202620007d4816200038e565b91508282048414831517620007ee57620007ed620005c9565b5b5092915050565b600082825260208201905092915050565b7f45524332303a206d696e7420746f20746865207a65726f206164647265737300600082015250565b60006200083e601f83620007f5565b91506200084b8262000806565b602082019050919050565b6000602082019050818103600083015262000871816200082f565b9050919050565b600062000885826200038e565b915062000892836200038e565b9250828201905080821115620008ad57620008ac620005c9565b5b92915050565b620008be816200038e565b82525050565b6000602082019050620008db6000830184620008b3565b92915050565b611af780620008f16000396000f3fe608060405234801561001057600080fd5b50600436106101005760003560e01c80635680727211610097578063a457c2d711610066578063a457c2d7146102c1578063a9059cbb146102f1578063b42f7e0614610321578063dd62ed3e1461033d57610100565b8063568072721461023b57806370a082311461025757806395d89b41146102875780639dc29fac146102a557610100565b806323b872dd116100d357806323b872dd146101a1578063313ce567146101d157806339509351146101ef57806340c10f191461021f57610100565b806301ffc9a71461010557806306fdde0314610135578063095ea7b31461015357806318160ddd14610183575b600080fd5b61011f600480360381019061011a9190610fcc565b61036d565b60405161012c9190611014565b60405180910390f35b61013d6103cf565b60405161014a91906110bf565b60405180910390f35b61016d60048036038101906101689190611175565b610461565b60405161017a9190611014565b60405180910390f35b61018b610484565b60405161019891906111c4565b60405180910390f35b6101bb60048036038101906101b691906111df565b61048e565b6040516101c89190611014565b60405180910390f35b6101d96104bd565b6040516101e6919061124e565b60405180910390f35b61020960048036038101906102049190611175565b6104c6565b6040516102169190611014565b60405180910390f35b61023960048036038101906102349190611175565b6104fd565b005b61025560048036038101906102509190611269565b61050b565b005b610271600480360381019061026c9190611269565b610539565b60405161027e91906111c4565b60405180910390f35b61028f610581565b60405161029c91906110bf565b60405180910390f35b6102bf60048036038101906102ba9190611175565b610613565b005b6102db60048036038101906102d69190611175565b610621565b6040516102e89190611014565b60405180910390f35b61030b60048036038101906103069190611175565b610698565b6040516103189190611014565b60405180910390f35b61033b60048036038101906103369190611269565b6106bb565b005b61035760048036038101906103529190611296565b6106e8565b60405161036491906111c4565b60405180910390f35b60006336372b0760e01b827bffffffffffffffffffffffffffffffffffffffffffffffffffffffff191614806103c857506301ffc9a760e01b827bffffffffffffffffffffffffffffffffffffffffffffffffffffffff1916145b9050919050565b6060600380546103de90611305565b80601f016020809104026020016040519081016040528092919081815260200182805461040a90611305565b80156104575780601f1061042c57610100808354040283529160200191610457565b820191906000526020600020905b81548152906001019060200180831161043a57829003601f168201915b5050505050905090565b60008061046c61076f565b9050610479818585610777565b600191505092915050565b6000600254905090565b60008061049961076f565b90506104a6858285610940565b6104b18585856109cc565b60019150509392505050565b60006006905090565b6000806104d161076f565b90506104f28185856104e385896106e8565b6104ed9190611365565b610777565b600191505092915050565b6105078282610c42565b5050565b610536816105176104bd565b600a61052391906114cc565b620186a06105319190611517565b610c42565b50565b60008060008373ffffffffffffffffffffffffffffffffffffffff1673ffffffffffffffffffffffffffffffffffffffff168152602001908152602001600020549050919050565b60606004805461059090611305565b80601f01602080910402602001604051908101604052809291908181526020018280546105bc90611305565b80156106095780601f106105de57610100808354040283529160200191610609565b820191906000526020600020905b8154815290600101906020018083116105ec57829003601f168201915b5050505050905090565b61061d8282610d98565b5050565b60008061062c61076f565b9050600061063a82866106e8565b90508381101561067f576040517f08c379a0000000000000000000000000000000000000000000000000000000008152600401610676906115cb565b60405180910390fd5b61068c8286868403610777565b60019250505092915050565b6000806106a361076f565b90506106b08185856109cc565b600191505092915050565b6106e5816106c76104bd565b600a6106d391906114cc565b6103e86106e09190611517565b610c42565b50565b6000600160008473ffffffffffffffffffffffffffffffffffffffff1673ffffffffffffffffffffffffffffffffffffffff16815260200190815260200160002060008373ffffffffffffffffffffffffffffffffffffffff1673ffffffffffffffffffffffffffffffffffffffff16815260200190815260200160002054905092915050565b600033905090565b600073ffffffffffffffffffffffffffffffffffffffff168373ffffffffffffffffffffffffffffffffffffffff16036107e6576040517f08c379a00000000000000000000000000000000000000000000000000000000081526004016107dd9061165d565b60405180910390fd5b600073ffffffffffffffffffffffffffffffffffffffff168273ffffffffffffffffffffffffffffffffffffffff1603610855576040517f08c379a000000000000000000000000000000000000000000000000000000000815260040161084c906116ef565b60405180910390fd5b80600160008573ffffffffffffffffffffffffffffffffffffffff1673ffffffffffffffffffffffffffffffffffffffff16815260200190815260200160002060008473ffffffffffffffffffffffffffffffffffffffff1673ffffffffffffffffffffffffffffffffffffffff168152602001908152602001600020819055508173ffffffffffffffffffffffffffffffffffffffff168373ffffffffffffffffffffffffffffffffffffffff167f8c5be1e5ebec7d5bd14f71427d1e84f3dd0314c0f7b2291e5b200ac8c7c3b9258360405161093391906111c4565b60405180910390a3505050565b600061094c84846106e8565b90507fffffffffffffffffffffffffffffffffffffffffffffffffffffffffffffffff81146109c657818110156109b8576040517f08c379a00000000000000000000000000000000000000000000000000000000081526004016109af9061175b565b60405180910390fd5b6109c58484848403610777565b5b50505050565b600073ffffffffffffffffffffffffffffffffffffffff168373ffffffffffffffffffffffffffffffffffffffff1603610a3b576040517f08c379a0000000000000000000000000000000000000000000000000000000008152600401610a32906117ed565b60405180910390fd5b600073ffffffffffffffffffffffffffffffffffffffff168273ffffffffffffffffffffffffffffffffffffffff1603610aaa576040517f08c379a0000000000000000000000000000000000000000000000000000000008152600401610aa19061187f565b60405180910390fd5b610ab5838383610f65565b60008060008573ffffffffffffffffffffffffffffffffffffffff1673ffffffffffffffffffffffffffffffffffffffff16815260200190815260200160002054905081811015610b3b576040517f08c379a0000000000000000000000000000000000000000000000000000000008152600401610b3290611911565b60405180910390fd5b8181036000808673ffffffffffffffffffffffffffffffffffffffff1673ffffffffffffffffffffffffffffffffffffffff16815260200190815260200160002081905550816000808573ffffffffffffffffffffffffffffffffffffffff1673ffffffffffffffffffffffffffffffffffffffff168152602001908152602001600020600082825401925050819055508273ffffffffffffffffffffffffffffffffffffffff168473ffffffffffffffffffffffffffffffffffffffff167fddf252ad1be2c89b69c2b068fc378daa952ba7f163c4a11628f55a4df523b3ef84604051610c2991906111c4565b60405180910390a3610c3c848484610f6a565b50505050565b600073ffffffffffffffffffffffffffffffffffffffff168273ffffffffffffffffffffffffffffffffffffffff1603610cb1576040517f08c379a0000000000000000000000000000000000000000000000000000000008152600401610ca89061197d565b60405180910390fd5b610cbd60008383610f65565b8060026000828254610ccf9190611365565b92505081905550806000808473ffffffffffffffffffffffffffffffffffffffff1673ffffffffffffffffffffffffffffffffffffffff168152602001908152602001600020600082825401925050819055508173ffffffffffffffffffffffffffffffffffffffff16600073ffffffffffffffffffffffffffffffffffffffff167fddf252ad1be2c89b69c2b068fc378daa952ba7f163c4a11628f55a4df523b3ef83604051610d8091906111c4565b60405180910390a3610d9460008383610f6a565b5050565b600073ffffffffffffffffffffffffffffffffffffffff168273ffffffffffffffffffffffffffffffffffffffff1603610e07576040517f08c379a0000000000000000000000000000000000000000000000000000000008152600401610dfe90611a0f565b60405180910390fd5b610e1382600083610f65565b60008060008473ffffffffffffffffffffffffffffffffffffffff1673ffffffffffffffffffffffffffffffffffffffff16815260200190815260200160002054905081811015610e99576040517f08c379a0000000000000000000000000000000000000000000000000000000008152600401610e9090611aa1565b60405180910390fd5b8181036000808573ffffffffffffffffffffffffffffffffffffffff1673ffffffffffffffffffffffffffffffffffffffff1681526020019081526020016000208190555081600260008282540392505081905550600073ffffffffffffffffffffffffffffffffffffffff168373ffffffffffffffffffffffffffffffffffffffff167fddf252ad1be2c89b69c2b068fc378daa952ba7f163c4a11628f55a4df523b3ef84604051610f4c91906111c4565b60405180910390a3610f6083600084610f6a565b505050565b505050565b505050565b600080fd5b60007fffffffff0000000000000000000000000000000000000000000000000000000082169050919050565b610fa981610f74565b8114610fb457600080fd5b50565b600081359050610fc681610fa0565b92915050565b600060208284031215610fe257610fe1610f6f565b5b6000610ff084828501610fb7565b91505092915050565b60008115159050919050565b61100e81610ff9565b82525050565b60006020820190506110296000830184611005565b92915050565b600081519050919050565b600082825260208201905092915050565b60005b8381101561106957808201518184015260208101905061104e565b60008484015250505050565b6000601f19601f8301169050919050565b60006110918261102f565b61109b818561103a565b93506110ab81856020860161104b565b6110b481611075565b840191505092915050565b600060208201905081810360008301526110d98184611086565b905092915050565b600073ffffffffffffffffffffffffffffffffffffffff82169050919050565b600061110c826110e1565b9050919050565b61111c81611101565b811461112757600080fd5b50565b60008135905061113981611113565b92915050565b6000819050919050565b6111528161113f565b811461115d57600080fd5b50565b60008135905061116f81611149565b92915050565b6000806040838503121561118c5761118b610f6f565b5b600061119a8582860161112a565b92505060206111ab85828601611160565b9150509250929050565b6111be8161113f565b82525050565b60006020820190506111d960008301846111b5565b92915050565b6000806000606084860312156111f8576111f7610f6f565b5b60006112068682870161112a565b93505060206112178682870161112a565b925050604061122886828701611160565b9150509250925092565b600060ff82169050919050565b61124881611232565b82525050565b6000602082019050611263600083018461123f565b92915050565b60006020828403121561127f5761127e610f6f565b5b600061128d8482850161112a565b91505092915050565b600080604083850312156112ad576112ac610f6f565b5b60006112bb8582860161112a565b92505060206112cc8582860161112a565b9150509250929050565b7f4e487b7100000000000000000000000000000000000000000000000000000000600052602260045260246000fd5b6000600282049050600182168061131d57607f821691505b6020821081036113305761132f6112d6565b5b50919050565b7f4e487b7100000000000000000000000000000000000000000000000000000000600052601160045260246000fd5b60006113708261113f565b915061137b8361113f565b925082820190508082111561139357611392611336565b5b92915050565b60008160011c9050919050565b6000808291508390505b60018511156113f0578086048111156113cc576113cb611336565b5b60018516156113db5780820291505b80810290506113e985611399565b94506113b0565b94509492505050565b60008261140957600190506114c5565b8161141757600090506114c5565b816001811461142d576002811461143757611466565b60019150506114c5565b60ff84111561144957611448611336565b5b8360020a9150848211156114605761145f611336565b5b506114c5565b5060208310610133831016604e8410600b841016171561149b5782820a90508381111561149657611495611336565b5b6114c5565b6114a884848460016113a6565b925090508184048111156114bf576114be611336565b5b81810290505b9392505050565b60006114d78261113f565b91506114e283611232565b925061150f7fffffffffffffffffffffffffffffffffffffffffffffffffffffffffffffffff84846113f9565b905092915050565b60006115228261113f565b915061152d8361113f565b925082820261153b8161113f565b9150828204841483151761155257611551611336565b5b5092915050565b7f45524332303a2064656372656173656420616c6c6f77616e63652062656c6f7760008201527f207a65726f000000000000000000000000000000000000000000000000000000602082015250565b60006115b560258361103a565b91506115c082611559565b604082019050919050565b600060208201905081810360008301526115e4816115a8565b9050919050565b7f45524332303a20617070726f76652066726f6d20746865207a65726f2061646460008201527f7265737300000000000000000000000000000000000000000000000000000000602082015250565b600061164760248361103a565b9150611652826115eb565b604082019050919050565b600060208201905081810360008301526116768161163a565b9050919050565b7f45524332303a20617070726f766520746f20746865207a65726f20616464726560008201527f7373000000000000000000000000000000000000000000000000000000000000602082015250565b60006116d960228361103a565b91506116e48261167d565b604082019050919050565b60006020820190508181036000830152611708816116cc565b9050919050565b7f45524332303a20696e73756666696369656e7420616c6c6f77616e6365000000600082015250565b6000611745601d8361103a565b91506117508261170f565b602082019050919050565b6000602082019050818103600083015261177481611738565b9050919050565b7f45524332303a207472616e736665722066726f6d20746865207a65726f20616460008201527f6472657373000000000000000000000000000000000000000000000000000000602082015250565b60006117d760258361103a565b91506117e28261177b565b604082019050919050565b60006020820190508181036000830152611806816117ca565b9050919050565b7f45524332303a207472616e7366657220746f20746865207a65726f206164647260008201527f6573730000000000000000000000000000000000000000000000000000000000602082015250565b600061186960238361103a565b91506118748261180d565b604082019050919050565b600060208201905081810360008301526118988161185c565b9050919050565b7f45524332303a207472616e7366657220616d6f756e742065786365656473206260008201527f616c616e63650000000000000000000000000000000000000000000000000000602082015250565b60006118fb60268361103a565b91506119068261189f565b604082019050919050565b6000602082019050818103600083015261192a816118ee565b9050919050565b7f45524332303a206d696e7420746f20746865207a65726f206164647265737300600082015250565b6000611967601f8361103a565b915061197282611931565b602082019050919050565b600060208201905081810360008301526119968161195a565b9050919050565b7f45524332303a206275726e2066726f6d20746865207a65726f2061646472657360008201527f7300000000000000000000000000000000000000000000000000000000000000602082015250565b60006119f960218361103a565b9150611a048261199d565b604082019050919050565b60006020820190508181036000830152611a28816119ec565b9050919050565b7f45524332303a206275726e20616d6f756e7420657863656564732062616c616e60008201527f6365000000000000000000000000000000000000000000000000000000000000602082015250565b6000611a8b60228361103a565b9150611a9682611a2f565b604082019050919050565b60006020820190508181036000830152611aba81611a7e565b905091905056fea264697066735822122005a9642645ceace8a99f1671afc29d3375b0463429024c8f101552370f2b555964736f6c63430008110033",
  "linkReferences": {},
  "deployedLinkReferences": {}
}