{
  "_format": "hh-sol-artifact-1",
  "contractName": "HDT",
  "sourceName": "contracts/HDT/HDT.sol",
  "abi": [
    {
      "inputs": [],
      "stateMutability": "nonpayable",
      "type": "constructor"
    },
    {
      "inputs": [],
      "name": "notPool",
      "type": "error"
    },
    {
      "inputs": [],
      "name": "zeroAddressProvided",
      "type": "error"
    },
    {
      "inputs": [],
      "name": "zeroAmountProvided",
      "type": "error"
    },
    {
      "anonymous": false,
      "inputs": [
        {
          "indexed": true,
          "internalType": "address",
          "name": "owner",
          "type": "address"
        },
        {
          "indexed": true,
          "internalType": "address",
          "name": "spender",
          "type": "address"
        },
        {
          "indexed": false,
          "internalType": "uint256",
          "name": "value",
          "type": "uint256"
        }
      ],
      "name": "Approval",
      "type": "event"
    },
    {
      "anonymous": false,
      "inputs": [
        {
          "indexed": false,
          "internalType": "uint8",
          "name": "version",
          "type": "uint8"
        }
      ],
      "name": "Initialized",
      "type": "event"
    },
    {
      "anonymous": false,
      "inputs": [
        {
          "indexed": true,
          "internalType": "address",
          "name": "previousOwner",
          "type": "address"
        },
        {
          "indexed": true,
          "internalType": "address",
          "name": "newOwner",
          "type": "address"
        }
      ],
      "name": "OwnershipTransferred",
      "type": "event"
    },
    {
      "anonymous": false,
      "inputs": [
        {
          "indexed": false,
          "internalType": "address",
          "name": "pool",
          "type": "address"
        }
      ],
      "name": "PoolChanged",
      "type": "event"
    },
    {
      "anonymous": false,
      "inputs": [
        {
          "indexed": true,
          "internalType": "address",
          "name": "from",
          "type": "address"
        },
        {
          "indexed": true,
          "internalType": "address",
          "name": "to",
          "type": "address"
        },
        {
          "indexed": false,
          "internalType": "uint256",
          "name": "value",
          "type": "uint256"
        }
      ],
      "name": "Transfer",
      "type": "event"
    },
    {
      "inputs": [
        {
          "internalType": "address",
          "name": "owner",
          "type": "address"
        },
        {
          "internalType": "address",
          "name": "spender",
          "type": "address"
        }
      ],
      "name": "allowance",
      "outputs": [
        {
          "internalType": "uint256",
          "name": "",
          "type": "uint256"
        }
      ],
      "stateMutability": "view",
      "type": "function"
    },
    {
      "inputs": [
        {
          "internalType": "address",
          "name": "spender",
          "type": "address"
        },
        {
          "internalType": "uint256",
          "name": "amount",
          "type": "uint256"
        }
      ],
      "name": "approve",
      "outputs": [
        {
          "internalType": "bool",
          "name": "",
          "type": "bool"
        }
      ],
      "stateMutability": "nonpayable",
      "type": "function"
    },
    {
      "inputs": [],
      "name": "assetToken",
      "outputs": [
        {
          "internalType": "address",
          "name": "",
          "type": "address"
        }
      ],
      "stateMutability": "view",
      "type": "function"
    },
    {
      "inputs": [
        {
          "internalType": "address",
          "name": "account",
          "type": "address"
        }
      ],
      "name": "balanceOf",
      "outputs": [
        {
          "internalType": "uint256",
          "name": "",
          "type": "uint256"
        }
      ],
      "stateMutability": "view",
      "type": "function"
    },
    {
      "inputs": [
        {
          "internalType": "address",
          "name": "account",
          "type": "address"
        },
        {
          "internalType": "uint256",
          "name": "amount",
          "type": "uint256"
        }
      ],
      "name": "burnAmount",
      "outputs": [
        {
          "internalType": "uint256",
          "name": "shares",
          "type": "uint256"
        }
      ],
      "stateMutability": "nonpayable",
      "type": "function"
    },
    {
      "inputs": [],
      "name": "decimals",
      "outputs": [
        {
          "internalType": "uint8",
          "name": "",
          "type": "uint8"
        }
      ],
      "stateMutability": "view",
      "type": "function"
    },
    {
      "inputs": [
        {
          "internalType": "address",
          "name": "spender",
          "type": "address"
        },
        {
          "internalType": "uint256",
          "name": "subtractedValue",
          "type": "uint256"
        }
      ],
      "name": "decreaseAllowance",
      "outputs": [
        {
          "internalType": "bool",
          "name": "",
          "type": "bool"
        }
      ],
      "stateMutability": "nonpayable",
      "type": "function"
    },
    {
      "inputs": [
        {
          "internalType": "address",
          "name": "spender",
          "type": "address"
        },
        {
          "internalType": "uint256",
          "name": "addedValue",
          "type": "uint256"
        }
      ],
      "name": "increaseAllowance",
      "outputs": [
        {
          "internalType": "bool",
          "name": "",
          "type": "bool"
        }
      ],
      "stateMutability": "nonpayable",
      "type": "function"
    },
    {
      "inputs": [
        {
          "internalType": "string",
          "name": "name",
          "type": "string"
        },
        {
          "internalType": "string",
          "name": "symbol",
          "type": "string"
        },
        {
          "internalType": "address",
          "name": "underlyingToken",
          "type": "address"
        }
      ],
      "name": "initialize",
      "outputs": [],
      "stateMutability": "nonpayable",
      "type": "function"
    },
    {
      "inputs": [
        {
          "internalType": "address",
          "name": "account",
          "type": "address"
        },
        {
          "internalType": "uint256",
          "name": "amount",
          "type": "uint256"
        }
      ],
      "name": "mintAmount",
      "outputs": [
        {
          "internalType": "uint256",
          "name": "shares",
          "type": "uint256"
        }
      ],
      "stateMutability": "nonpayable",
      "type": "function"
    },
    {
      "inputs": [],
      "name": "name",
      "outputs": [
        {
          "internalType": "string",
          "name": "",
          "type": "string"
        }
      ],
      "stateMutability": "view",
      "type": "function"
    },
    {
      "inputs": [],
      "name": "owner",
      "outputs": [
        {
          "internalType": "address",
          "name": "",
          "type": "address"
        }
      ],
      "stateMutability": "view",
      "type": "function"
    },
    {
      "inputs": [],
      "name": "pool",
      "outputs": [
        {
          "internalType": "address",
          "name": "",
          "type": "address"
        }
      ],
      "stateMutability": "view",
      "type": "function"
    },
    {
      "inputs": [],
      "name": "renounceOwnership",
      "outputs": [],
      "stateMutability": "nonpayable",
      "type": "function"
    },
    {
      "inputs": [
        {
          "internalType": "address",
          "name": "poolAddress",
          "type": "address"
        }
      ],
      "name": "setPool",
      "outputs": [],
      "stateMutability": "nonpayable",
      "type": "function"
    },
    {
      "inputs": [],
      "name": "symbol",
      "outputs": [
        {
          "internalType": "string",
          "name": "",
          "type": "string"
        }
      ],
      "stateMutability": "view",
      "type": "function"
    },
    {
      "inputs": [],
      "name": "totalAssets",
      "outputs": [
        {
          "internalType": "uint256",
          "name": "",
          "type": "uint256"
        }
      ],
      "stateMutability": "view",
      "type": "function"
    },
    {
      "inputs": [],
      "name": "totalSupply",
      "outputs": [
        {
          "internalType": "uint256",
          "name": "",
          "type": "uint256"
        }
      ],
      "stateMutability": "view",
      "type": "function"
    },
    {
      "inputs": [
        {
          "internalType": "address",
          "name": "to",
          "type": "address"
        },
        {
          "internalType": "uint256",
          "name": "amount",
          "type": "uint256"
        }
      ],
      "name": "transfer",
      "outputs": [
        {
          "internalType": "bool",
          "name": "",
          "type": "bool"
        }
      ],
      "stateMutability": "nonpayable",
      "type": "function"
    },
    {
      "inputs": [
        {
          "internalType": "address",
          "name": "from",
          "type": "address"
        },
        {
          "internalType": "address",
          "name": "to",
          "type": "address"
        },
        {
          "internalType": "uint256",
          "name": "amount",
          "type": "uint256"
        }
      ],
      "name": "transferFrom",
      "outputs": [
        {
          "internalType": "bool",
          "name": "",
          "type": "bool"
        }
      ],
      "stateMutability": "nonpayable",
      "type": "function"
    },
    {
      "inputs": [
        {
          "internalType": "address",
          "name": "newOwner",
          "type": "address"
        }
      ],
      "name": "transferOwnership",
      "outputs": [],
      "stateMutability": "nonpayable",
      "type": "function"
    },
    {
      "inputs": [
        {
          "internalType": "address",
          "name": "account",
          "type": "address"
        }
      ],
      "name": "withdrawableFundsOf",
      "outputs": [
        {
          "internalType": "uint256",
          "name": "",
          "type": "uint256"
        }
      ],
      "stateMutability": "view",
      "type": "function"
    }
  ],
  "bytecode": "0x60806040523480156200001157600080fd5b50620000226200002860201b60201c565b620001d3565b600060019054906101000a900460ff16156200007b576040517f08c379a0000000000000000000000000000000000000000000000000000000008152600401620000729062000176565b60405180910390fd5b60ff801660008054906101000a900460ff1660ff161015620000ed5760ff6000806101000a81548160ff021916908360ff1602179055507f7f26b83ff96e1f2b6a682f133852f6798a09c465da95921460cefb384740249860ff604051620000e49190620001b6565b60405180910390a15b565b600082825260208201905092915050565b7f496e697469616c697a61626c653a20636f6e747261637420697320696e69746960008201527f616c697a696e6700000000000000000000000000000000000000000000000000602082015250565b60006200015e602783620000ef565b91506200016b8262000100565b604082019050919050565b6000602082019050818103600083015262000191816200014f565b9050919050565b600060ff82169050919050565b620001b08162000198565b82525050565b6000602082019050620001cd6000830184620001a5565b92915050565b612b2480620001e36000396000f3fe608060405234801561001057600080fd5b50600436106101425760003560e01c80634437152a116100b857806395d89b411161007c57806395d89b411461037b578063a457c2d714610399578063a9059cbb146103c9578063dd62ed3e146103f9578063f2fde38b14610429578063fb8bd26f1461044557610142565b80634437152a146102d7578063443bb293146102f357806370a0823114610323578063715018a6146103535780638da5cb5b1461035d57610142565b80631083f7611161010a5780631083f761146101ff57806316f0115b1461021d57806318160ddd1461023b57806323b872dd14610259578063313ce5671461028957806339509351146102a757610142565b806301e1d1141461014757806306fdde0314610165578063077f224a14610183578063095ea7b31461019f5780630e583dd2146101cf575b600080fd5b61014f610475565b60405161015c91906119ce565b60405180910390f35b61016d61050d565b60405161017a9190611a79565b60405180910390f35b61019d60048036038101906101989190611c42565b61059f565b005b6101b960048036038101906101b49190611cf9565b61081a565b6040516101c69190611d54565b60405180910390f35b6101e960048036038101906101e49190611cf9565b61083d565b6040516101f691906119ce565b60405180910390f35b61020761091b565b6040516102149190611d7e565b60405180910390f35b610225610945565b6040516102329190611d7e565b60405180910390f35b61024361096f565b60405161025091906119ce565b60405180910390f35b610273600480360381019061026e9190611d99565b610979565b6040516102809190611d54565b60405180910390f35b6102916109a8565b60405161029e9190611e08565b60405180910390f35b6102c160048036038101906102bc9190611cf9565b6109bf565b6040516102ce9190611d54565b60405180910390f35b6102f160048036038101906102ec9190611e23565b6109f6565b005b61030d60048036038101906103089190611e23565b610a79565b60405161031a91906119ce565b60405180910390f35b61033d60048036038101906103389190611e23565b610a93565b60405161034a91906119ce565b60405180910390f35b61035b610adc565b005b610365610af0565b6040516103729190611d7e565b60405180910390f35b610383610b1a565b6040516103909190611a79565b60405180910390f35b6103b360048036038101906103ae9190611cf9565b610bac565b6040516103c09190611d54565b60405180910390f35b6103e360048036038101906103de9190611cf9565b610c23565b6040516103f09190611d54565b60405180910390f35b610413600480360381019061040e9190611e50565b610c46565b60405161042091906119ce565b60405180910390f35b610443600480360381019061043e9190611e23565b610ccd565b005b61045f600480360381019061045a9190611cf9565b610d50565b60405161046c91906119ce565b60405180910390f35b6000609860009054906101000a900473ffffffffffffffffffffffffffffffffffffffff1673ffffffffffffffffffffffffffffffffffffffff16638a02775b6040518163ffffffff1660e01b8152600401602060405180830381865afa1580156104e4573d6000803e3d6000fd5b505050506040513d601f19601f820116820180604052508101906105089190611ea5565b905090565b60606036805461051c90611f01565b80601f016020809104026020016040519081016040528092919081815260200182805461054890611f01565b80156105955780601f1061056a57610100808354040283529160200191610595565b820191906000526020600020905b81548152906001019060200180831161057857829003601f168201915b5050505050905090565b60008060019054906101000a900460ff161590508080156105d05750600160008054906101000a900460ff1660ff16105b806105fd57506105df30610e2e565b1580156105fc5750600160008054906101000a900460ff1660ff16145b5b61063c576040517f08c379a000000000000000000000000000000000000000000000000000000000815260040161063390611fa4565b60405180910390fd5b60016000806101000a81548160ff021916908360ff1602179055508015610679576001600060016101000a81548160ff0219169083151502179055505b600073ffffffffffffffffffffffffffffffffffffffff168273ffffffffffffffffffffffffffffffffffffffff16036106df576040517f5ff75ab000000000000000000000000000000000000000000000000000000000815260040160405180910390fd5b81609760006101000a81548173ffffffffffffffffffffffffffffffffffffffff021916908373ffffffffffffffffffffffffffffffffffffffff16021790555061072a8484610e51565b8173ffffffffffffffffffffffffffffffffffffffff1663313ce5676040518163ffffffff1660e01b8152600401602060405180830381865afa158015610775573d6000803e3d6000fd5b505050506040513d601f19601f820116820180604052508101906107999190611ff0565b609760146101000a81548160ff021916908360ff1602179055506107bb610eae565b80156108145760008060016101000a81548160ff0219169083151502179055507f7f26b83ff96e1f2b6a682f133852f6798a09c465da95921460cefb3847402498600160405161080b9190612062565b60405180910390a15b50505050565b600080610825610f07565b9050610832818585610f0f565b600191505092915050565b6000609860009054906101000a900473ffffffffffffffffffffffffffffffffffffffff1673ffffffffffffffffffffffffffffffffffffffff163373ffffffffffffffffffffffffffffffffffffffff16146108c6576040517f26d29bbf00000000000000000000000000000000000000000000000000000000815260040160405180910390fd5b6108cf826110d8565b90506000810361090b576040517f71799f2a00000000000000000000000000000000000000000000000000000000815260040160405180910390fd5b6109158382611120565b92915050565b6000609760009054906101000a900473ffffffffffffffffffffffffffffffffffffffff16905090565b6000609860009054906101000a900473ffffffffffffffffffffffffffffffffffffffff16905090565b6000603554905090565b600080610984610f07565b9050610991858285611277565b61099c858585611303565b60019150509392505050565b6000609760149054906101000a900460ff16905090565b6000806109ca610f07565b90506109eb8185856109dc8589610c46565b6109e691906120ac565b610f0f565b600191505092915050565b6109fe61157c565b80609860006101000a81548173ffffffffffffffffffffffffffffffffffffffff021916908373ffffffffffffffffffffffffffffffffffffffff1602179055507fa84ed99a050d1610bc3dddf2c220cd77842a3ab1a46664af49062a70417debdf81604051610a6e9190611d7e565b60405180910390a150565b6000610a8c610a8783610a93565b6115fa565b9050919050565b6000603360008373ffffffffffffffffffffffffffffffffffffffff1673ffffffffffffffffffffffffffffffffffffffff168152602001908152602001600020549050919050565b610ae461157c565b610aee6000611642565b565b6000606560009054906101000a900473ffffffffffffffffffffffffffffffffffffffff16905090565b606060378054610b2990611f01565b80601f0160208091040260200160405190810160405280929190818152602001828054610b5590611f01565b8015610ba25780601f10610b7757610100808354040283529160200191610ba2565b820191906000526020600020905b815481529060010190602001808311610b8557829003601f168201915b5050505050905090565b600080610bb7610f07565b90506000610bc58286610c46565b905083811015610c0a576040517f08c379a0000000000000000000000000000000000000000000000000000000008152600401610c0190612152565b60405180910390fd5b610c178286868403610f0f565b60019250505092915050565b600080610c2e610f07565b9050610c3b818585611303565b600191505092915050565b6000603460008473ffffffffffffffffffffffffffffffffffffffff1673ffffffffffffffffffffffffffffffffffffffff16815260200190815260200160002060008373ffffffffffffffffffffffffffffffffffffffff1673ffffffffffffffffffffffffffffffffffffffff16815260200190815260200160002054905092915050565b610cd561157c565b600073ffffffffffffffffffffffffffffffffffffffff168173ffffffffffffffffffffffffffffffffffffffff1603610d44576040517f08c379a0000000000000000000000000000000000000000000000000000000008152600401610d3b906121e4565b60405180910390fd5b610d4d81611642565b50565b6000609860009054906101000a900473ffffffffffffffffffffffffffffffffffffffff1673ffffffffffffffffffffffffffffffffffffffff163373ffffffffffffffffffffffffffffffffffffffff1614610dd9576040517f26d29bbf00000000000000000000000000000000000000000000000000000000815260040160405180910390fd5b610de2826110d8565b905060008103610e1e576040517f71799f2a00000000000000000000000000000000000000000000000000000000815260040160405180910390fd5b610e288382611708565b92915050565b6000808273ffffffffffffffffffffffffffffffffffffffff163b119050919050565b600060019054906101000a900460ff16610ea0576040517f08c379a0000000000000000000000000000000000000000000000000000000008152600401610e9790612276565b60405180910390fd5b610eaa82826118d7565b5050565b600060019054906101000a900460ff16610efd576040517f08c379a0000000000000000000000000000000000000000000000000000000008152600401610ef490612276565b60405180910390fd5b610f0561194a565b565b600033905090565b600073ffffffffffffffffffffffffffffffffffffffff168373ffffffffffffffffffffffffffffffffffffffff1603610f7e576040517f08c379a0000000000000000000000000000000000000000000000000000000008152600401610f7590612308565b60405180910390fd5b600073ffffffffffffffffffffffffffffffffffffffff168273ffffffffffffffffffffffffffffffffffffffff1603610fed576040517f08c379a0000000000000000000000000000000000000000000000000000000008152600401610fe49061239a565b60405180910390fd5b80603460008573ffffffffffffffffffffffffffffffffffffffff1673ffffffffffffffffffffffffffffffffffffffff16815260200190815260200160002060008473ffffffffffffffffffffffffffffffffffffffff1673ffffffffffffffffffffffffffffffffffffffff168152602001908152602001600020819055508173ffffffffffffffffffffffffffffffffffffffff168373ffffffffffffffffffffffffffffffffffffffff167f8c5be1e5ebec7d5bd14f71427d1e84f3dd0314c0f7b2291e5b200ac8c7c3b925836040516110cb91906119ce565b60405180910390a3505050565b6000806110e361096f565b905060006110ef610475565b9050600081146111155780828561110691906123ba565b611110919061242b565b611117565b835b92505050919050565b600073ffffffffffffffffffffffffffffffffffffffff168273ffffffffffffffffffffffffffffffffffffffff160361118f576040517f08c379a0000000000000000000000000000000000000000000000000000000008152600401611186906124a8565b60405180910390fd5b61119b600083836119ab565b80603560008282546111ad91906120ac565b9250508190555080603360008473ffffffffffffffffffffffffffffffffffffffff1673ffffffffffffffffffffffffffffffffffffffff168152602001908152602001600020600082825401925050819055508173ffffffffffffffffffffffffffffffffffffffff16600073ffffffffffffffffffffffffffffffffffffffff167fddf252ad1be2c89b69c2b068fc378daa952ba7f163c4a11628f55a4df523b3ef8360405161125f91906119ce565b60405180910390a3611273600083836119b0565b5050565b60006112838484610c46565b90507fffffffffffffffffffffffffffffffffffffffffffffffffffffffffffffffff81146112fd57818110156112ef576040517f08c379a00000000000000000000000000000000000000000000000000000000081526004016112e690612514565b60405180910390fd5b6112fc8484848403610f0f565b5b50505050565b600073ffffffffffffffffffffffffffffffffffffffff168373ffffffffffffffffffffffffffffffffffffffff1603611372576040517f08c379a0000000000000000000000000000000000000000000000000000000008152600401611369906125a6565b60405180910390fd5b600073ffffffffffffffffffffffffffffffffffffffff168273ffffffffffffffffffffffffffffffffffffffff16036113e1576040517f08c379a00000000000000000000000000000000000000000000000000000000081526004016113d890612638565b60405180910390fd5b6113ec8383836119ab565b6000603360008573ffffffffffffffffffffffffffffffffffffffff1673ffffffffffffffffffffffffffffffffffffffff16815260200190815260200160002054905081811015611473576040517f08c379a000000000000000000000000000000000000000000000000000000000815260040161146a906126ca565b60405180910390fd5b818103603360008673ffffffffffffffffffffffffffffffffffffffff1673ffffffffffffffffffffffffffffffffffffffff1681526020019081526020016000208190555081603360008573ffffffffffffffffffffffffffffffffffffffff1673ffffffffffffffffffffffffffffffffffffffff168152602001908152602001600020600082825401925050819055508273ffffffffffffffffffffffffffffffffffffffff168473ffffffffffffffffffffffffffffffffffffffff167fddf252ad1be2c89b69c2b068fc378daa952ba7f163c4a11628f55a4df523b3ef8460405161156391906119ce565b60405180910390a36115768484846119b0565b50505050565b611584610f07565b73ffffffffffffffffffffffffffffffffffffffff166115a2610af0565b73ffffffffffffffffffffffffffffffffffffffff16146115f8576040517f08c379a00000000000000000000000000000000000000000000000000000000081526004016115ef90612736565b60405180910390fd5b565b60008061160561096f565b90506000611611610475565b9050600082146116375781818561162891906123ba565b611632919061242b565b611639565b835b92505050919050565b6000606560009054906101000a900473ffffffffffffffffffffffffffffffffffffffff16905081606560006101000a81548173ffffffffffffffffffffffffffffffffffffffff021916908373ffffffffffffffffffffffffffffffffffffffff1602179055508173ffffffffffffffffffffffffffffffffffffffff168173ffffffffffffffffffffffffffffffffffffffff167f8be0079c531659141344cd1fd0a4f28419497f9722a3daafe3b4186f6b6457e060405160405180910390a35050565b600073ffffffffffffffffffffffffffffffffffffffff168273ffffffffffffffffffffffffffffffffffffffff1603611777576040517f08c379a000000000000000000000000000000000000000000000000000000000815260040161176e906127c8565b60405180910390fd5b611783826000836119ab565b6000603360008473ffffffffffffffffffffffffffffffffffffffff1673ffffffffffffffffffffffffffffffffffffffff1681526020019081526020016000205490508181101561180a576040517f08c379a00000000000000000000000000000000000000000000000000000000081526004016118019061285a565b60405180910390fd5b818103603360008573ffffffffffffffffffffffffffffffffffffffff1673ffffffffffffffffffffffffffffffffffffffff1681526020019081526020016000208190555081603560008282540392505081905550600073ffffffffffffffffffffffffffffffffffffffff168373ffffffffffffffffffffffffffffffffffffffff167fddf252ad1be2c89b69c2b068fc378daa952ba7f163c4a11628f55a4df523b3ef846040516118be91906119ce565b60405180910390a36118d2836000846119b0565b505050565b600060019054906101000a900460ff16611926576040517f08c379a000000000000000000000000000000000000000000000000000000000815260040161191d90612276565b60405180910390fd5b81603690816119359190612a1c565b5080603790816119459190612a1c565b505050565b600060019054906101000a900460ff16611999576040517f08c379a000000000000000000000000000000000000000000000000000000000815260040161199090612276565b60405180910390fd5b6119a96119a4610f07565b611642565b565b505050565b505050565b6000819050919050565b6119c8816119b5565b82525050565b60006020820190506119e360008301846119bf565b92915050565b600081519050919050565b600082825260208201905092915050565b60005b83811015611a23578082015181840152602081019050611a08565b60008484015250505050565b6000601f19601f8301169050919050565b6000611a4b826119e9565b611a5581856119f4565b9350611a65818560208601611a05565b611a6e81611a2f565b840191505092915050565b60006020820190508181036000830152611a938184611a40565b905092915050565b6000604051905090565b600080fd5b600080fd5b600080fd5b600080fd5b7f4e487b7100000000000000000000000000000000000000000000000000000000600052604160045260246000fd5b611af182611a2f565b810181811067ffffffffffffffff82111715611b1057611b0f611ab9565b5b80604052505050565b6000611b23611a9b565b9050611b2f8282611ae8565b919050565b600067ffffffffffffffff821115611b4f57611b4e611ab9565b5b611b5882611a2f565b9050602081019050919050565b82818337600083830152505050565b6000611b87611b8284611b34565b611b19565b905082815260208101848484011115611ba357611ba2611ab4565b5b611bae848285611b65565b509392505050565b600082601f830112611bcb57611bca611aaf565b5b8135611bdb848260208601611b74565b91505092915050565b600073ffffffffffffffffffffffffffffffffffffffff82169050919050565b6000611c0f82611be4565b9050919050565b611c1f81611c04565b8114611c2a57600080fd5b50565b600081359050611c3c81611c16565b92915050565b600080600060608486031215611c5b57611c5a611aa5565b5b600084013567ffffffffffffffff811115611c7957611c78611aaa565b5b611c8586828701611bb6565b935050602084013567ffffffffffffffff811115611ca657611ca5611aaa565b5b611cb286828701611bb6565b9250506040611cc386828701611c2d565b9150509250925092565b611cd6816119b5565b8114611ce157600080fd5b50565b600081359050611cf381611ccd565b92915050565b60008060408385031215611d1057611d0f611aa5565b5b6000611d1e85828601611c2d565b9250506020611d2f85828601611ce4565b9150509250929050565b60008115159050919050565b611d4e81611d39565b82525050565b6000602082019050611d696000830184611d45565b92915050565b611d7881611c04565b82525050565b6000602082019050611d936000830184611d6f565b92915050565b600080600060608486031215611db257611db1611aa5565b5b6000611dc086828701611c2d565b9350506020611dd186828701611c2d565b9250506040611de286828701611ce4565b9150509250925092565b600060ff82169050919050565b611e0281611dec565b82525050565b6000602082019050611e1d6000830184611df9565b92915050565b600060208284031215611e3957611e38611aa5565b5b6000611e4784828501611c2d565b91505092915050565b60008060408385031215611e6757611e66611aa5565b5b6000611e7585828601611c2d565b9250506020611e8685828601611c2d565b9150509250929050565b600081519050611e9f81611ccd565b92915050565b600060208284031215611ebb57611eba611aa5565b5b6000611ec984828501611e90565b91505092915050565b7f4e487b7100000000000000000000000000000000000000000000000000000000600052602260045260246000fd5b60006002820490506001821680611f1957607f821691505b602082108103611f2c57611f2b611ed2565b5b50919050565b7f496e697469616c697a61626c653a20636f6e747261637420697320616c72656160008201527f647920696e697469616c697a6564000000000000000000000000000000000000602082015250565b6000611f8e602e836119f4565b9150611f9982611f32565b604082019050919050565b60006020820190508181036000830152611fbd81611f81565b9050919050565b611fcd81611dec565b8114611fd857600080fd5b50565b600081519050611fea81611fc4565b92915050565b60006020828403121561200657612005611aa5565b5b600061201484828501611fdb565b91505092915050565b6000819050919050565b6000819050919050565b600061204c6120476120428461201d565b612027565b611dec565b9050919050565b61205c81612031565b82525050565b60006020820190506120776000830184612053565b92915050565b7f4e487b7100000000000000000000000000000000000000000000000000000000600052601160045260246000fd5b60006120b7826119b5565b91506120c2836119b5565b92508282019050808211156120da576120d961207d565b5b92915050565b7f45524332303a2064656372656173656420616c6c6f77616e63652062656c6f7760008201527f207a65726f000000000000000000000000000000000000000000000000000000602082015250565b600061213c6025836119f4565b9150612147826120e0565b604082019050919050565b6000602082019050818103600083015261216b8161212f565b9050919050565b7f4f776e61626c653a206e6577206f776e657220697320746865207a65726f206160008201527f6464726573730000000000000000000000000000000000000000000000000000602082015250565b60006121ce6026836119f4565b91506121d982612172565b604082019050919050565b600060208201905081810360008301526121fd816121c1565b9050919050565b7f496e697469616c697a61626c653a20636f6e7472616374206973206e6f74206960008201527f6e697469616c697a696e67000000000000000000000000000000000000000000602082015250565b6000612260602b836119f4565b915061226b82612204565b604082019050919050565b6000602082019050818103600083015261228f81612253565b9050919050565b7f45524332303a20617070726f76652066726f6d20746865207a65726f2061646460008201527f7265737300000000000000000000000000000000000000000000000000000000602082015250565b60006122f26024836119f4565b91506122fd82612296565b604082019050919050565b60006020820190508181036000830152612321816122e5565b9050919050565b7f45524332303a20617070726f766520746f20746865207a65726f20616464726560008201527f7373000000000000000000000000000000000000000000000000000000000000602082015250565b60006123846022836119f4565b915061238f82612328565b604082019050919050565b600060208201905081810360008301526123b381612377565b9050919050565b60006123c5826119b5565b91506123d0836119b5565b92508282026123de816119b5565b915082820484148315176123f5576123f461207d565b5b5092915050565b7f4e487b7100000000000000000000000000000000000000000000000000000000600052601260045260246000fd5b6000612436826119b5565b9150612441836119b5565b925082612451576124506123fc565b5b828204905092915050565b7f45524332303a206d696e7420746f20746865207a65726f206164647265737300600082015250565b6000612492601f836119f4565b915061249d8261245c565b602082019050919050565b600060208201905081810360008301526124c181612485565b9050919050565b7f45524332303a20696e73756666696369656e7420616c6c6f77616e6365000000600082015250565b60006124fe601d836119f4565b9150612509826124c8565b602082019050919050565b6000602082019050818103600083015261252d816124f1565b9050919050565b7f45524332303a207472616e736665722066726f6d20746865207a65726f20616460008201527f6472657373000000000000000000000000000000000000000000000000000000602082015250565b60006125906025836119f4565b915061259b82612534565b604082019050919050565b600060208201905081810360008301526125bf81612583565b9050919050565b7f45524332303a207472616e7366657220746f20746865207a65726f206164647260008201527f6573730000000000000000000000000000000000000000000000000000000000602082015250565b60006126226023836119f4565b915061262d826125c6565b604082019050919050565b6000602082019050818103600083015261265181612615565b9050919050565b7f45524332303a207472616e7366657220616d6f756e742065786365656473206260008201527f616c616e63650000000000000000000000000000000000000000000000000000602082015250565b60006126b46026836119f4565b91506126bf82612658565b604082019050919050565b600060208201905081810360008301526126e3816126a7565b9050919050565b7f4f776e61626c653a2063616c6c6572206973206e6f7420746865206f776e6572600082015250565b60006127206020836119f4565b915061272b826126ea565b602082019050919050565b6000602082019050818103600083015261274f81612713565b9050919050565b7f45524332303a206275726e2066726f6d20746865207a65726f2061646472657360008201527f7300000000000000000000000000000000000000000000000000000000000000602082015250565b60006127b26021836119f4565b91506127bd82612756565b604082019050919050565b600060208201905081810360008301526127e1816127a5565b9050919050565b7f45524332303a206275726e20616d6f756e7420657863656564732062616c616e60008201527f6365000000000000000000000000000000000000000000000000000000000000602082015250565b60006128446022836119f4565b915061284f826127e8565b604082019050919050565b6000602082019050818103600083015261287381612837565b9050919050565b60008190508160005260206000209050919050565b60006020601f8301049050919050565b600082821b905092915050565b6000600883026128dc7fffffffffffffffffffffffffffffffffffffffffffffffffffffffffffffffff8261289f565b6128e6868361289f565b95508019841693508086168417925050509392505050565b600061291961291461290f846119b5565b612027565b6119b5565b9050919050565b6000819050919050565b612933836128fe565b61294761293f82612920565b8484546128ac565b825550505050565b600090565b61295c61294f565b61296781848461292a565b505050565b5b8181101561298b57612980600082612954565b60018101905061296d565b5050565b601f8211156129d0576129a18161287a565b6129aa8461288f565b810160208510156129b9578190505b6129cd6129c58561288f565b83018261296c565b50505b505050565b600082821c905092915050565b60006129f3600019846008026129d5565b1980831691505092915050565b6000612a0c83836129e2565b9150826002028217905092915050565b612a25826119e9565b67ffffffffffffffff811115612a3e57612a3d611ab9565b5b612a488254611f01565b612a5382828561298f565b600060209050601f831160018114612a865760008415612a74578287015190505b612a7e8582612a00565b865550612ae6565b601f198416612a948661287a565b60005b82811015612abc57848901518255600182019150602085019450602081019050612a97565b86831015612ad95784890151612ad5601f8916826129e2565b8355505b6001600288020188555050505b50505050505056fea26469706673582212203d2d6f31eaf316f818357fbb17deeeeb3602d07a54631f1aa677f8b73365487664736f6c63430008110033",
  "linkReferences": {},
  "deployedLinkReferences": {}
}